:020000040800F2
:1000000000300020C13B0008113C0008113C0008F2
:10001000113C0008113C0008113C000800000000E1
:10002000000000000000000000000000A11800080F
:10003000113C000800000000411900089516000856
:10004000113C0008113C0008113C0008113C00085C
:10005000113C0008113C0008113C0008113C00084C
:10006000113C0008113C0008113C00089D160008D6
:10007000113C0008113C0008113C0008113C00082C
:10008000113C0008113C0008113C0008113C00081C
:10009000113C0008113C0008113C0008113C00080C
:1000A000AD160008113C0008113C0008113C000886
:1000B000113C0008113C000800000000113C000841
:1000C000113C00080000000000000000113C000886
:1000D00000000000113C0008113C0008113C000821
:1000E000113C0008113C0008000000000000000066
:1000F0000000000000000000000000000000000000
:1001000000000000000000000000000000000000EF
:100110000000000000000000113C0008113C000835
:1001200000000000000000000000000000000000CF
:1001300000000000000000000000000000000000BF
:10014000113C0008113C0008000000000000000005
:10015000000000000000000000000000000000009F
:10016000000000000000000000000000000000008F
:10017000000000000000000000000000000000007F
:0801800000000000113C000822
:10019000044B05481B1A062B02D9044B03B1184720
:1001A000704700BF0B000020080000200000000086
:1001B00005490648091A891001EBD171491002D08E
:1001C000034B03B1184770470800002008000020C7
:1001D0000000000010B5064C237843B9FFF7D8FFA4
:1001E000044B13B10448AFF300800123237010BD0A
:1001F0000800002000000000143C000808B5084B6F
:100200001BB108490848AFF300800848036813B9D8
:10021000BDE80840CCE7064B002BF9D09847F7E73C
:10022000000000000C000020143C00080800002022
:100230000000000070B50F4E0F4D761BB61018BFB2
:10024000002405D0013455F8043B9847A642F9D163
:100250000A4E0B4D761B03F0DDFCB61018BF0024D0
:1002600006D0013455F8043B9847A642F9D170BD39
:1002700070BD00BFF43C0008F43C0008F83C0008E6
:10028000F43C000810B4036A046A24F00104046218
:10029000846924F0F00444EA021223F00A031943AB
:1002A000826101625DF8044B704700BF10B4036ABD
:1002B00023F0100303628469036A24F4704444EA5F
:1002C000023223F0A00343EA0111826101625DF86A
:1002D000044B7047836823F0700341F00701194312
:1002E00081607047022380F83D300268136843F054
:1002F00001031360012380F83D300020704700BFE8
:100300000268D36843F00103D3600268136843F0C6
:100310000103136000207047704700BF704700BFA3
:10032000704700BF704700BF10B5044603681A69E4
:1003300012F0020F17D0DA6812F0020F13D06FF02C
:1003400002021A610123037703689B6913F0030F0C
:1003500002D0FFF7E3FF04E0FFF7DEFF2046FFF7E0
:10036000DFFF0023237723681A6912F0040F19D0E6
:10037000DA6812F0040F15D06FF004021A6102233C
:10038000237723689B6913F4407F03D02046FFF74F
:10039000C5FF05E02046FFF7BFFF2046FFF7C0FF7F
:1003A0000023237723681A6912F0080F19D0DA683E
:1003B00012F0080F15D06FF008021A61042323779A
:1003C0002368DB6913F0030F03D02046FFF7A6FF75
:1003D00005E02046FFF7A0FF2046FFF7A1FF00231E
:1003E000237723681A6912F0100F19D0DA6812F017
:1003F000100F15D06FF010021A61082323772368BD
:10040000DB6913F4407F03D02046FFF787FF05E048
:100410002046FFF781FF2046FFF782FF0023237766
:1004200023681A6912F0010F09D0DA6812F0010F7F
:1004300005D06FF001021A61204601F0FDFE23682D
:100440001A6912F0800F09D0DA6812F0800F05D017
:100450006FF080021A61204602F0A4F923681A693D
:1004600012F0400F09D0DA6812F0400F05D06FF09B
:1004700040021A612046FFF755FF23681A6912F0FF
:10048000200F09D0DA6812F0200F05D06FF020029B
:100490001A61204602F084F910BD00BF0368224AA9
:1004A000904206D0B0F1804F03D0A2F59432904232
:1004B00003D123F070034A6813431B4A904212D0C1
:1004C000B0F1804F0FD0A2F5943290420BD002F5DC
:1004D0009E32904207D002F58062904203D002F52E
:1004E0008062904203D123F44073CA68134323F01F
:1004F00080034A69134303608B68C3620B6883629D
:10050000094B98420BD003F5A053984207D003F54E
:100510008063984203D003F58063984201D10B6950
:100520000363012343617047002C0140B8B110B54B
:10053000044690F83D3013F0FF0F04D1002380F8FB
:100540003C3001F08DFD022384F83D30211D2068F0
:10055000FFF7A4FF012384F83D30002010BD0120E7
:10056000704700BFB8B110B5044690F83D3013F0A5
:10057000FF0F04D1002380F83C3001F083FD0223FB
:1005800084F83D30211D2068FFF788FF012384F89F
:100590003D30002010BD0120704700BF30B4036A19
:1005A00023F001030362026A4468836923F4803301
:1005B00023F073030D682B4322F002028D682A4357
:1005C000184DA8420BD005F5A055A84207D005F557
:1005D0008065A84203D005F58065A84205D122F0C8
:1005E0000802CD682A4322F004020E4DA8420BD027
:1005F00005F5A055A84207D005F58065A84203D0AF
:1006000005F58065A84205D124F440754C692C435A
:100610008D692C43446083614B684363026230BC44
:10062000704700BF002C014030B4036A23F0100370
:100630000362036A4468826922F0807222F4E6420F
:100640000D6842EA052223F020038D6843EA051372
:10065000134DA84206D123F08003CD6843EA051369
:1006600023F040030E4DA8420BD005F5A055A8423B
:1006700007D005F58065A84203D005F58065A8423E
:1006800007D124F440644D6944EA85048D6944EA45
:100690008504446082614A688263036230BC7047AB
:1006A000002C014030B4036A23F480730362036AB0
:1006B0004468C26922F4803222F073020D682A4332
:1006C00023F400738D6843EA0523144DA84206D134
:1006D00023F40063CD6843EA052323F480630F4DC0
:1006E000A8420BD005F5A055A84207D005F58065B6
:1006F000A84203D005F58065A84207D124F44054F0
:100700004D6944EA05148D6944EA05144460C261E8
:100710004A68C263036230BC704700BF002C0140CE
:1007200030B4036A23F480530362026A4468C369E5
:1007300023F0807323F4E6430D6843EA052322F493
:1007400000528D6842EA05320D4DA8420BD005F5E6
:10075000A055A84207D005F58065A84203D005F54D
:100760008065A84204D124F480444D6944EA85148C
:100770004460C3614B680364026230BC704700BFD1
:10078000002C014010B4846824F47F4442EA03231F
:10079000194344EA010383605DF8044B704700BFCE
:1007A00090F83C30012B00F0878010B504460123FF
:1007B00080F83C30022380F83D30026890683F4B5F
:1007C000034093600B68402B52D00AD8102B5ED0A8
:1007D00002D8002B56D068E0202B5DD0302B60D0A3
:1007E00063E0702B14D004D8502B2DD0602B35D063
:1007F0005BE0B3F5805F03D0B3F5005F18D054E041
:100800002268936823F4803323F0070393604CE05D
:10081000CB684A6889682068FFF7B4FF226893684C
:1008200023F4803323F0770343F0770393603CE0B5
:10083000CB684A6889682068FFF7A4FF226893683C
:1008400043F48043936030E0CA6849682068FFF74A
:1008500019FD50212068FFF73DFD26E0CA68496870
:100860002068FFF723FD60212068FFF733FD1CE0BF
:10087000CA6849682068FFF705FD40212068FFF736
:1008800029FD12E000212068FFF724FD0DE0102172
:100890002068FFF71FFD08E020212068FFF71AFD00
:1008A00003E030212068FFF715FD012384F83D3077
:1008B000002084F83C0010BD022070478800FEFF35
:1008C00010B4012303FA01F4036A23EA0403036268
:1008D000036A8A401A4302625DF8044B704700BF06
:1008E00010B5044601220068FFF7EAFF2368124AA8
:1008F00093420DD002F5A05293420BD002F58062D4
:10090000934209D002F58062934207D1012206E0AA
:10091000012204E0012202E0012200E000221AB1DB
:100920005A6C42F400425A642268136843F001038F
:100930001360002010BD00BF002C01400A4B1B6853
:100940001B680BB9012300E0002323B14FF0FF32F5
:10095000064B1A607047044B1B68DB68DB685A68FB
:10096000024B1A60704700BF2800002004010020DD
:1009700010B50446006B00F0DBFD204600F0D8FD0A
:1009800010BD00BF2DE9F04780469946089D099F9C
:100990000A9C236B02F18042013A03EB820626F0A7
:1009A0000706002306E0C85CE21882F83400CA5C3F
:1009B00012B101330F2BF6D9002384F84330062DF2
:1009C00000D90625E56265644FF0000AC4F848A026
:1009D000201D00F09FFE04F1180000F09BFE246132
:1009E000C5F10705A5616462C4F84CA084F850A065
:1009F0004A464146304600F039FF206007B13C606E
:100A0000BDE8F08738B5002407E004EB84029300CA
:100A10000E48184400F072FE0134062CF5D90C4D36
:100A2000284600F06BFE0B4C204600F067FE0A489B
:100A300000F064FE094800F061FE094800F05EFE27
:100A4000084B1D60084B1C6038BD00BF4C000020E7
:100A50000C01002020010020E800002030000020D0
:100A600034010020280000204400002010B5044676
:100A700000F028FF204A1368013313601F4B1B68E6
:100A80003BB91E4B1C601368012B0DD1FFF7BAFF59
:100A90000AE01B4B1B683BB9184B1B68DA6AE36A18
:100AA0009A4201D8154B1C60164A13680133136033
:100AB000E36A012202FA03F1134802680A43026062
:100AC00003EB83039A00211D1048104400F026FE1A
:100AD00000F01AFF0A4B1B686BB1084B1B68DA6AFF
:100AE000E36A9A4207D24FF08052094B1A60BFF373
:100AF0004F8FBFF36F8F10BDE0000020E400002097
:100B00002C00002008010020480100204C0000209B
:100B100004ED00E070B504460E461D4B1D681D4BEC
:100B20001868043000F020FE50B91A4B1B68DA6ACE
:100B3000012303FA02F218490B6823EA02030B604F
:100B4000B4F1FF3F07D136B1124B19680431134895
:100B500000F0E4FD70BD2C440E4B1B685C60A542A8
:100B600007D90F4B18680B4B1968043100F0E2FDF0
:100B700070BD0C4B1868074B1968043100F0DAFDA2
:100B8000094B1B689C4201D2074B1C6070BD00BF23
:100B900000010020E4000020480100203401002072
:100BA0004400002028000020040100202DE9F0432B
:100BB00085B006460F4615469846900000F036FC74
:100BC00060B18146542000F031FC044610B1C0F8F9
:100BD000309004E0484600F0ABFC00E000248CB10B
:100BE0000023039302940D9B01930C9B00934346B7
:100BF0002A4639463046FFF7C5FE2046FFF736FF46
:100C0000012001E04FF0FF3005B0BDE8F08300BFE8
:100C100000B583B0174B019300230093802216493F
:100C20001648FFF7C3FF012814D14FF0500383F398
:100C30001188BFF36F8FBFF34F8F4FF0FF32104B10
:100C40001A6001220F4B1A6000220F4B1A6000F04D
:100C5000D5FE0BE0B0F1FF3F08D14FF0500383F316
:100C60001188BFF36F8FBFF34F8FFEE703B05DF8BE
:100C700004FB00BFFC000020683C00085D0F00087A
:100C8000040100202C00002000010020024A13680B
:100C900001331360704700BFD8000020F8B53D4B0A
:100CA0001B68002B69D13C4B1D6801351D60C5B91F
:100CB0003A4B1B681B6843B14FF0500383F3118814
:100CC000BFF36F8FBFF34F8FFEE7344A1168344B89
:100CD000186810601960334A136801331360FFF716
:100CE0002DFE314B1B689D4203D200243AE00124C3
:100CF00000E00024294B1B681B680BB9012300E0AE
:100D0000002323B14FF0FF32274B1A602AE0234B18
:100D10001B68DB68DE6873689D4202D2224A13605A
:100D200020E0371D384600F01FFDB36A1BB106F105
:100D3000180000F019FDF36A012202FA03F11B48C2
:100D400002680A43026003EB83039A00394618489D
:100D5000104400F0E3FCF26A164B1B68DB6A9A420F
:100D6000C5D2C7E7134B1B68DB6A03EB83039A000A
:100D70000F4B9B58012B06D806E00F4A136801332E
:100D80001360002400E001240C4B1B6803B1012414
:100D90002046F8BDD80000200001002028000020D7
:100DA000440000202400002004010020480100200D
:100DB0004C000020E4000020480000204C010020EE
:100DC00038B5344B1B6843B94FF0500383F3118897
:100DD000BFF36F8FBFF34F8FFEE700F073FD2D4B16
:100DE0001A68013A1A601B68002B4CD12A4B1B6809
:100DF00033BB00244AE0294BDB68DC6804F11800AF
:100E000000F0B2FC251D284600F0AEFCE36A01228A
:100E100002FA03F1224802680A43026003EB8303EB
:100E20009A0029461F48104400F078FCE26A1E4BE5
:100E30001B68DB6A9A4204D301221C4B1A6000E053
:100E40000024164B1B68002BD5D10CB1FFF776FDA3
:100E5000174B1C6854B1FFF721FF10B10122134B4F
:100E60001A60013CF7D10022114B1A600F4B1B682E
:100E70005BB14FF080520F4B1A60BFF34F8FBFF33F
:100E80006F8F012402E0002400E0002400F03CFD0C
:100E9000204638BDD8000020E0000020E8000020F7
:100EA000480100204C000020E40000204C010020FC
:100EB0004800002004ED00E010B5A8B10446104B36
:100EC0001B6843B14FF0500383F31188BFF36F8F5A
:100ED000BFF34F8FFEE7FFF7D9FE00212046FFF753
:100EE00019FEFFF76DFF00E0002038B94FF0805287
:100EF000044B1A60BFF34F8FBFF36F8F10BD00BF5D
:100F0000D800002004ED00E010B51BE0FFF7BEFEA6
:100F10000F4B1C68FFF754FFA4B100F0D3FC0C4B3F
:100F2000DB68DC68201D00F01FFC0A4A1368013BE7
:100F30001360094A1368013B136000F0E5FC20468A
:100F4000FFF716FD044B1B68002BDFD110BD00BF5F
:100F500030000020E0000020DC00002008B5FFF792
:100F6000D3FF064B1B68012BF9D94FF08052044B7D
:100F70001A60BFF34F8FBFF36F8FF0E74C00002074
:100F800004ED00E01F4B1B681BB101221E4B1A60D1
:100F9000704700221C4B1A601C4B1B68B3FA83F38A
:100FA000DBB2C3F11F0303EB83018A0018498A589F
:100FB00042B94FF0500383F31188BFF36F8FBFF333
:100FC0004F8FFEE730B4124D9900CA1890002844A4
:100FD00042685468446019448A0008322A449442A2
:100FE00005D1606803EB83018A002A44506003EB5B
:100FF00083039A00064B1A445368DA68054B1A605B
:1010000030BC7047D80000204C010020480100206F
:101010004C000020E4000020054B1B6823B1054B69
:101020001B681BB9022070470120704700207047E1
:101030002C000020D8000020F0B583B00023AFE0E2
:1010400001249C40224000F0AA804D68022D01D06E
:10105000122D10D1DE08083650F826C003F007051F
:10106000AF000F25BD402CEA050E0D69BD404EEACC
:10107000050540F8265005685F000326BE40F6438C
:1010800005EA060E4D6805F00305BD404EEA05056C
:1010900005604D6805F1FF3EBEF1010F03D9112D2A
:1010A00001D0122D10D1856806EA050ECD68BD402D
:1010B0004EEA05058560456825EA04044D68C5F3D8
:1010C00000159D4025434560C46826408C68BC409F
:1010D0003443C4604C6814F0805F60D0344CA56920
:1010E00045F00105A561A46904F001040194019C87
:1010F0009E08B51C2F4C54F8255003F00304A4009F
:101100000F27A74025EA0707B0F1904F0CD02A4DD2
:10111000A8420BD005F58065A84209D005F5806589
:10112000A84207D1032506E0002504E0012502E0DE
:10113000022500E0052505FA04F43C4302361D4D66
:1011400045F826401D4C2568D44305EA04064F683F
:1011500017F4803F01D042EA0506184D2E606D68F5
:1011600004EA05064F6817F4003F01D042EA05067D
:10117000124D6E60AD6804EA05064F6817F4801FD3
:1011800001D042EA05060D4DAE60ED682C404E6878
:1011900016F4001F01D042EA0504084AD460013366
:1011A0000A6832FA03F47FF44BAF03B0F0BD00BF1E
:1011B000001002400000014000040048000401400B
:1011C0000AB1816170478162704700BF436959402D
:1011D000416170470268054B1344054AA2FB032393
:1011E0001B099B000364034BC3637047F8FFFDBFFB
:1011F000CDCCCCCC0000024040B310B50446022355
:1012000080F821300068036823F47F5222F0300216
:101210006168A3681943E368194323691943636943
:101220001943A3691943E3690B4313430360204641
:10123000FFF7D0FF0020A062E06220636063A0633C
:10124000012384F8213084F8200010BD012070476C
:1012500038B5C36B1A6804682568016C04238B4099
:101260001A4214D015F0040F11D0236813F0200F88
:1012700003D1236823F004032360C26B016C0423B1
:101280008B405360C36A002B3AD0984738BD022385
:101290008B401A4219D015F0020F16D0236813F0B4
:1012A000200F06D1236823F00A032360012380F86E
:1012B0002130C26B016C02238B405360002380F805
:1012C0002030836AE3B1984738BD082303FA01F15F
:1012D0000A4215D015F0080F12D0236823F00E0330
:1012E0002360C16B026C012303FA02F24A6083633C
:1012F00080F82130002380F82030036B03B1984739
:1013000038BD00BF842801D00330704700207047EB
:1013100008B5FFF77DFC002008BD00BFF0B585B023
:101320000F46446805680669B0F90800FFF7EAFF50
:1013300003AB019300903B46B2B229462046FFF72B
:1013400035FC012801D1039800E0002005B0F0BD74
:1013500008B508B90120FFE7FFF7AEFD002008BD82
:1013600008B5FFF759FE012801D000F01BFB08BDAE
:10137000124A12F0070F07D0D11D21F00701C1F565
:10138000105313440A4601E04FF410530C48026016
:10139000002141601344083B23F007030948036020
:1013A00059601960991A51601360074B1960074B17
:1013B00019604FF00042064B1A6070476001002030
:1013C0005801002054010020642500205001002015
:1013D00060250020134B00E013461A688242FBD3BD
:1013E00010B45C681919884203D1416821445960DE
:1013F0001846446801198A420CD10B4909688A428F
:1014000006D05268224442601A681268026002E004
:10141000016000E00260984200D018605DF8044B63
:10142000704700BF580100205401002070B50446E9
:10143000FFF72CFC394B1B680BB9FFF799FF384BB2
:101440001B681C4253D194B1083414F0070F0ED01E
:1014500024F00704083404F0070343B14FF05003AD
:1014600083F31188BFF36F8FBFF34F8FFEE7002C1C
:101470003FD02C4B1B689C423DD82B4B1D6801E094
:101480002B4615466A68944202D92A68002AF7D189
:10149000224A1268954230D01E6808362A681A60BF
:1014A0006B681B1B102B10D9281910F0070F08D0E0
:1014B0004FF0500383F31188BFF36F8FBFF34F8F4B
:1014C000FEE743606C60FFF785FF6A6815490B68AB
:1014D0009B1A0B60154909688B4201D213490B60B6
:1014E0000F4B1B681A436A6000232B6006E000263E
:1014F00004E0002602E0002600E00026FFF760FC82
:1015000016F0070F08D04FF0500383F31188BFF394
:101510006F8FBFF34F8FFEE7304670BD5401002040
:101520006025002050010020580100206425002083
:10153000A0B338B50346A0F1080550F8042C1849AB
:10154000096812EA010408D14FF0500383F31188AF
:10155000BFF36F8FBFF34F8FFEE750F8080C40B119
:101560004FF0500383F31188BFF36F8FBFF34F8F9A
:10157000FEE794B188B91C4622EA010243F8042C24
:10158000FFF784FB54F8043C064A11680B441360CF
:101590002846FFF71FFFFFF713FC38BD704700BF59
:1015A0006025002050010020074AD36823F4E0633F
:1015B0001B041B0C000200F4E060184340F0BF6005
:1015C00040F40030D060704700ED00E030B4164BBE
:1015D000DB68C3F30223C3F10704042C28BF0424EF
:1015E0001D1D062D01D9DD1E00E00025012303FA93
:1015F00004F4013C2140A940AB40013B1A400A439E
:10160000002806DA00F00F001201D2B2074B1A547C
:1016100007E01201D2B200F1604000F5614080F8AD
:10162000002330BC704700BF00ED00E014ED00E087
:10163000420900F01F00012303FA00F0014B43F8B8
:101640002200704700E100E00138B0F1807F0AD24B
:10165000064B5860F021064A82F82310002098605B
:1016600007221A6070470120704700BF10E000E0B9
:1016700000ED00E0042805D1054A136843F0040397
:1016800013607047024A136823F004031360704725
:1016900010E000E008B5FFF763FE08BD08B502489A
:1016A000FFF7D6FD08BD00BF5826002008B5024848
:1016B000FEF73AFE08BD00BF7825002008B5074AAE
:1016C000136843F0100313600320FFF76DFF002041
:1016D00000F05CF800F042FC002008BD0020024051
:1016E000024A136801331360704700BF742500205D
:1016F000014B1868704700BF7425002000F10803F3
:1017000043604FF0FF328260C360036100230360D7
:10171000704700BF00230361704700BF43684B6000
:101720009A688A609A685160996008610368013319
:101730000360704730B40D68B5F1FF3F01D1026915
:1017400007E000F1080200E01A4653681C68A54251
:10175000FAD253684B6099608A60516008610368EF
:101760000133036030BC704703694268816891604F
:101770008268416851605A68904201D182685A601B
:1017800000220261186801381860704700B589B0FE
:10179000002201461820FFF719FF1820FFF748FF25
:1017A000144B9A6942F480329A619B6903F4803346
:1017B0000193019B02A903A801F066FC01F04CFC17
:1017C0000D4BA3FB00239B0C013B0C480C4A026011
:1017D00040F2E732C2604360002303618360FEF79A
:1017E000A5FE18B90548FEF78BFD00E0012009B001
:1017F0005DF804FB0010024083DE1B4378250020C7
:10180000004001400B4B1B68B3F1FF3F08D04FF085
:10181000500383F31188BFF36F8FBFF34F8FFEE741
:101820004FF0500383F31188BFF36F8FBFF34F8FD7
:10183000FEE700BF0000002006480068006880F353
:10184000088862B661B6BFF34F8FBFF36F8F00DFBA
:1018500000BF000008ED00E0DFF80C00016841F473
:10186000700101607047000088ED00E04FF0807368
:1018700040F8043C21F0010140F8081C054B40F8F9
:101880000C3C40F8202C6FF0020340F8243C443814
:10189000704700BF051800080000000000000000AD
:1018A000074B19680868B0E8F04F80F30988BFF368
:1018B0006F8F4FF0000080F311887047AFF3008006
:1018C000E40000204FF0500383F31188BFF36F8FC3
:1018D000BFF34F8F0A4A136801331360012B0DD1F8
:1018E000084B1B6813F0FF0F08D04FF0500383F331
:1018F0001188BFF36F8FBFF34F8FFEE7704700BFB4
:101900000000002004ED00E0094B1B6843B94FF0D4
:10191000500383F31188BFF36F8FBFF34F8FFEE740
:10192000013B034A13600BB983F31188704700BF72
:101930000000002000000000000000000000000087
:10194000EFF30980BFF36F8F154B1A681EF0100F6D
:1019500008BF20ED108A20E9F04F10604DF8043DDB
:101960004FF0500080F31188BFF34F8FBFF36F8F9C
:10197000FFF708FB4FF0000080F3118808BC1968DE
:101980000868B0E8F04F1EF0100F08BFB0EC108AE6
:1019900080F30988BFF36F8F704700BFAFF30080FB
:1019A000E400002008B54FF0500383F31188BFF323
:1019B0006F8FBFF34F8FFFF771F918B14FF080525F
:1019C000024B1A60002383F3118808BD04ED00E088
:1019D000064B1B68064AA2FB03239B09013B054AF1
:1019E00013600722044B1A60704700BF04000020F8
:1019F000D34D621014E000E010E000E0314B1A68B3
:101A0000314B9A4208D14FF0500383F31188BFF352
:101A10006F8FBFF34F8FFEE72A4B1A682B4B9A420A
:101A200008D14FF0500383F31188BFF36F8FBFF3DA
:101A30004F8FFEE700B583B0254B1A78D2B20192E2
:101A4000FF221A701B78DBB28DF803309DF803304B
:101A500003F050031F4A137007221F4B1A6009E05E
:101A60001D4A1368013B13609DF803305B00DBB235
:101A70008DF803309DF8033013F0800FF0D1164A33
:101A800013681B0203F4E0631360019BDBB2104A8E
:101A90001370124B1A6842F470021A601A6842F00E
:101AA00070421A60FFF794FF00220D4B1A60FFF797
:101AB000D3FE0C4A136843F040431360FFF7BCFEAB
:101AC000FFF7A0FE00ED00E071C20F4170C20F41B0
:101AD00000E400E0682500206C25002020ED00E0F7
:101AE0000000002034EF00E0F0B583B00446036846
:101AF00013F4803F00F08A805F4BDB6913F0805F56
:101B00000BD15D4BDA6942F08052DA61DB6903F098
:101B100080530193019B012500E00025574B1B6872
:101B200013F4807F13D1554A136843F48073136014
:101B3000FFF7DEFD064605E0FFF7DAFD801B6428AF
:101B400000F292804D4B1B6813F4807FF4D04A4B17
:101B50001B6A13F440734DD0626802F440729342E2
:101B600048D0454E306A20F440774FF4803191FAE6
:101B7000A1F3B3FA83F3424A13449B004FF0010EE2
:101B8000C3F800E091FAA1F1B1FA81F10A449200A0
:101B900000231360376210F0010F2BD0FFF7A8FD70
:101BA000064606E0FFF7A4FD801B41F28833984209
:101BB0005CD8022393FAA3F293FAA3F3B3FA83F364
:101BC0005B0943F00203DBB2022B02D12A4B196AF4
:101BD00004E0022393FAA3F3274B596A022393FAF2
:101BE000A3F3B3FA83F303F01F03012202FA03F312
:101BF0001942D7D020490B6A23F44072636813431B
:101C00000B621DB1CB6923F08053CB61236813F0C5
:101C1000010F06D018490B6B23F00302A36813438E
:101C20000B63236813F0200F06D013490B6B23F0CE
:101C30001002E36813430B63236813F0800F06D090
:101C40000D49CB6A23F4F87223691343CB622368EE
:101C500013F4805F0CD008490B6B23F48072636926
:101C600013430B63002004E0032002E0032000E0A4
:101C7000002003B0F0BD00BF001002400070004023
:101C8000008190101549D1F8883043F47003C1F8F1
:101C90008830134B1A6842F001021A605868114AE2
:101CA00002405A601A6822F0847222F480321A606C
:101CB0001A6822F480221A605A6822F4FE025A60DE
:101CC000DA6A22F00F02DA62186B074A02401A63DE
:101CD00000229A604FF000638B60704700ED00E0D7
:101CE000001002400CC07FF8CCFC00FF38B5054660
:101CF000064CB0FA80F2520902212046FFF760FA42
:101D0000EAB201212046FFF75BFA38BD0014004813
:101D100010B50446B0FA80F252094FF400614FF05A
:101D20009040FFF74DFAE2B220210248FFF748FA4F
:101D300010BD00BF0004004810B5064C002202216F
:101D40002046FFF73DFA002201212046FFF738FA2E
:101D500010BD00BF0014004808B500224FF4006118
:101D60004FF09040FFF72CFA002220210148FFF7A6
:101D700027FA08BD00040048034B1B684FF4A0720B
:101D80005A631A64704700BFC425002010B50024B0
:101D900007E0064B1B685C631C6414343220FFF7B9
:101DA000D7FAB4F5A07FF4D110BD00BFC425002040
:101DB00010B54FF4A07407E0054B1B685C631C640E
:101DC000143C3220FFF7C4FA002CF5D110BD00BF3F
:101DD000C425002008B50120FFF79AFF0120FFF776
:101DE00085FFFFF7D3FF4FF47A70FFF7B1FAFFF7E3
:101DF000DFFFFFF7B1FFFFF79FFF0122014B1A60E2
:101E000008BD00BF7025002008B50020FFF780FF47
:101E10000020FFF76BFFFFF7B9FF4FF47A70FFF771
:101E200097FAFFF7C5FFFFF797FFFFF785FF01223E
:101E3000014B1A6008BD00BF7025002008B5FFF7F0
:101E40009BFF0120FFF752FF0020FFF761FFE62014
:101E5000FFF77EFAFFF7ACFFFFF77EFFFFF76CFF9F
:101E60000122014B1A6008BD7025002008B5FFF75C
:101E700083FF0120FFF74CFF0020FFF737FFDC2036
:101E8000FFF766FAFFF794FFFFF766FFFFF754FFCF
:101E90000122014B1A6008BD7025002038B5051ECF
:101EA00005DC00240AE0FFF7AFFF013400E0002466
:101EB000AC42F8DB38BDFFF78DFF01346B429C422A
:101EC000F9DB38BD08B501224FF480714FF0904026
:101ED000FFF776F9204C2046FEF704FA0021204651
:101EE000FEF7FEFC0C212046FEF7FAFC0120FFF76E
:101EF000D5FF4FF47A70FFF72BFAFFF7B7FF4FF4D7
:101F00007A70FFF725FAFFF7B1FF4FF47A70FFF709
:101F10001FFA0120FFF7C2FF4FF47A70FFF718FA9B
:101F2000FFF78CFF4FF47A70FFF712FAFFF786FF86
:101F30004FF47A70FFF70CFA0120FFF7AFFF4FF470
:101F40007A70FFF705FA4FF0FF30FFF7A7FF4FF465
:101F50007A70FFF7FDF9C9E7C425002000B583B00A
:101F60001C4B9A6942F001029A619B6903F00103DC
:101F70000193019B0320FFF717FB002211466FF02E
:101F80000B00FFF723FB002211466FF00A00FFF75A
:101F90001DFB002211466FF00900FFF717FB00221E
:101FA00011466FF00400FFF711FB002211466FF09D
:101FB0000300FFF70BFB00220F216FF00100FFF77A
:101FC00005FB00220F214FF0FF30FFF7FFFA03B0AF
:101FD0005DF804FB001002400368B3F1A04F38D154
:101FE00030B587B0044603F1704303F504335A69F2
:101FF00042F080525A615B6903F080530093009B6A
:1020000001230193032302930025039501A94FF0B7
:102010009040FFF711F80F480F4B03604560856053
:102020008023C3604FF4007303614FF40063436186
:10203000202383614FF44053C361FFF7DDF818B1EB
:102040007C21064800F002F9024BE3635C6207B0B2
:1020500030BD70475826002008000240883C000828
:102060000368B3F1804F0CD182B003F50433DA6911
:1020700042F00102DA61DB6903F001030193019B85
:1020800002B070470268084B9A420CD182B003F547
:102090000333DA6942F00202DA61DB6903F002031A
:1020A0000193019B02B070470004004002680A4B94
:1020B0009A4210D100B587B01223019302230293F4
:1020C000002203920492059301A90448FEF7B4FF8D
:1020D00007B05DF804FB70470004004000040048AE
:1020E0000268124B9A421FD100B587B003F5E63360
:1020F000DA6942F40032DA61DB6903F400330093F9
:10210000009B48F2040301930223029301230393EB
:10211000032304930723059301A94FF09040FEF792
:102120008BFF07B05DF804FB704700BF0044004020
:10213000F0B589B0274B5A6942F480025A615A6956
:1021400002F480020092009A5A6942F400325A6105
:102150005A6902F400320192019A5A6942F48022CB
:102160005A615B6903F480230293029B1A4F002299
:1021700003213846FFF724F800224FF410614FF096
:102180009040FFF71DF8154E002228213046FFF73A
:1021900017F803230393012504950024059406945E
:1021A00003A93846FEF748FF4FF4106303930495E4
:1021B0000594069403A94FF09040FEF73DFF2823B5
:1021C000039304950594069403A93046FEF734FF63
:1021D00009B0F0BD0010024000140048000400489F
:1021E00000B583B00A4B5A6942F001025A615B693B
:1021F00003F001030193019B002205210B20FFF74F
:10220000E5F90B20FFF714FA03B05DF804FB00BFFB
:102210000010024008B508210348FEF7D7FF4FF42D
:102220007A70FFF795F8F6E70004004808B501203A
:10223000FFF78EF8FBE700BF08B50268024B9A4231
:1022400001D1FFF74DFA08BD00400140FEE700BF95
:1022500000B58BB02248234B036040F2E733436064
:102260000023836040F27F22C26003618361FEF736
:1022700079F920B140F251111B48FFF7E7FF002325
:102280000793099307A9164800F062FA20B14FF4AA
:10229000AC711548FFF7DAFF6023009340F23F135B
:1022A000019300220292049269460D4800F0B4F9AD
:1022B00020B140F261110C48FFF7C8FF0C226946BB
:1022C000074800F0A9F920B14FF4B3710648FFF7B1
:1022D000BDFF0348FFF7EAFE0BB05DF804FB00BF4B
:1022E000C425002000040040A03C000800B58BB0CD
:1022F00021484FF0A04303600023436083600361E3
:102300000122C26143624FF4806101634FF4307176
:10231000C162C360026242630422426183618363DB
:1023200000F016FF20B140F207111448FFF78EFFAE
:102330000AA9002341F80C3D0F4801F0CDF920B166
:1023400040F20F110D48FFF781FF01230193029323
:1023500000230493032203920593069301A90648E0
:1023600001F004F820B14FF48E710448FFF76EFFBE
:102370000BB05DF804FB00BF04260020A03C000861
:1023800008B50C480C4B03604FF416434360002320
:10239000C36003610C2242618361C36103624362D3
:1023A00001F0D8FB20B14FF4BE710448FFF74EFF97
:1023B00008BD00BFDC26002000440040A03C00080F
:1023C00000B589B018484FF0804303600023436094
:1023D0008360C36003618361FEF7A8F820B14FF406
:1023E00098711248FFF732FF08A94FF4805341F863
:1023F000103D0D48FEF7D4F920B14FF49B710B4806
:10240000FFF724FF202301938023039301A90648AB
:1024100000F09EF920B140F23D110448FFF716FF8D
:1024200009B05DF804FB00BF9C260020A03C00081A
:1024300000B597B002230C93012210921022119242
:102440001393002314934FF4601315930CA800F01A
:10245000ABF918B1CA211B48FFF7F8FE0F23079309
:1024600002210891002309934FF480620A920B9392
:1024700007A800F0E1FC18B1D8211248FFF7E6FEEA
:10248000802301934FF48073059301A8FFF72CFB81
:1024900018B1DF210B48FFF7D9FE00F0BFFD0A4B52
:1024A000A3FB00308009FFF7CFF80420FFF7E2F824
:1024B00000220F214FF0FF30FFF788F817B05DF8CA
:1024C00004FB00BFA03C0008D34D621070B590B073
:1024D000FFF7F4F8FFF7ACFFFFF72AFEFFF780FEE7
:1024E000FFF7B6FEFFF702FFFFF74AFFFFF768FFAF
:1024F000144C0BAD26460FCE0FC533682B60002160
:102500000BA8FEF70BFF104B186006AD04F1140684
:102510000FCE0FC533682B60002106A8FEF7FEFE24
:102520000A4B186001AD28340FCC0FC523682B600F
:10253000002101A8FEF7F2FE054B1860FEF7E8FE49
:10254000FEE700BF2C3C0008B8250020C025002075
:10255000BC25002030B4036A23F480330362036A8D
:102560004468426D22F4803222F070020D682A43E2
:1025700023F400338D6843EA05430D4DA8420BD088
:1025800005F5A055A84207D005F58065A84203D0FF
:1025900005F58065A84204D124F480344D6944EAED
:1025A0000524446042654A688265036230BC704716
:1025B000002C014030B4036A23F480130362026AE2
:1025C0004468436D23F0807323F4E0430D6843EACD
:1025D000052322F400128D6842EA05520D4DA842EF
:1025E0000BD005F5A055A84207D005F58065A84297
:1025F00003D005F58065A84204D124F480244D69F8
:1026000044EA8524446043654B68C365026230BC7C
:10261000704700BF002C014038B590F83C30012BCA
:1026200000F093800D460446012380F83C300223DD
:1026300080F83D30142A00F28180DFE802F00B7F41
:102640007F7F1E7F7F7F327F7F7F457F7F7F597FA8
:102650007F7F6C000068FDF7A1FF2268936943F05B
:10266000080393612268936923F00403936122684D
:1026700091692B690B43936160E00068FDF7D4FF1B
:102680002268936943F4006393612268936923F499
:102690008063936122689369296943EA0123936106
:1026A0004CE00068FDF7FEFF2268D36943F00803A1
:1026B000D3612268D36923F00403D3612268D1690E
:1026C0002B690B43D36139E00068FEF729F82268D3
:1026D000D36943F40063D3612268D36923F4806330
:1026E000D3612268D369296943EA0123D36125E0D4
:1026F0000068FFF72FFF2268536D43F0080353650E
:102700002268536D23F0040353652268516D2B69D1
:102710000B43536512E00068FFF74CFF2268536DCE
:1027200043F4006353652268536D23F4806353655B
:102730002268536D296943EA01235365012384F814
:102740003D30002084F83C0038BD022038BD00BF79
:1027500090F83C30012B1DD030B4012380F83C3080
:1027600003685A689D680D4CA34203D122F470029D
:102770004C68224322F070020C68224325F080044A
:10278000896821435A6003689960002380F83C30CF
:10279000184601E00220704730BC7047002C014011
:1027A000704700BF704700BF70B582B00446036831
:1027B00013F0010F00F09D80B64B5B6803F00C0333
:1027C000042B0AD0B34B5B6803F00C03082B1BD11E
:1027D000B04B5B6813F4803F16D04FF4003393FA8C
:1027E000A3F3AC4B19684FF4003393FAA3F3B3FA95
:1027F00083F303F01F03012202FA03F3194278D096
:102800006368002B75D1B8E26368B3F5803F05D1EA
:10281000A04A136843F48033136026E063B903F1E0
:10282000804303F504331A6822F480321A601A6870
:1028300022F480221A6018E0B3F5A02F0CD103F126
:102840008043A3F53C331A6842F480221A601A6868
:1028500042F480321A6008E08E4B1A6822F480320B
:102860001A601A6822F480221A608A49CB6A23F01F
:102870000F02A3681343CB626368EBB1FEF738FF26
:10288000054605E0FEF734FF401B642800F277821E
:102890004FF4003393FAA3F37E4B19684FF40033DF
:1028A00093FAA3F3B3FA83F303F01F03012202FAAE
:1028B00003F31942E6D01CE0FEF71AFF054605E0D7
:1028C000FEF716FF401B642800F25B824FF40033D2
:1028D00093FAA3F36F4B19684FF4003393FAA3F301
:1028E000B3FA83F303F01F03012202FA03F3194240
:1028F000E6D1236813F0020F00F09080654B5B680F
:1029000013F00C0F0AD0634B5B6803F00C03082B29
:1029100027D1604B5B6813F4803F22D1022393FAE6
:10292000A3F35C4B1968022393FAA3F3B3FA83F37E
:1029300003F01F03012202FA03F3194203D02369B3
:10294000934240F020825348036823F0F801636902
:10295000F82292FAA2F2B2FA82F293400B43036099
:102960005CE023699BB3012292FAA2F3B3FA83F3EA
:1029700003F1845303F584139B001A60FEF7B8FE3D
:10298000054605E0FEF7B4FE401B022800F2FD817B
:10299000022393FAA3F33F4B1968022393FAA3F39C
:1029A000B3FA83F303F01F03012202FA03F319427F
:1029B000E8D03848036823F0F8016369F82292FAF6
:1029C000A2F2B2FA82F293400B43036026E00123A5
:1029D00093FAA3F3B3FA83F303F1845303F5841357
:1029E0009B0000221A60FEF783FE054605E0FEF715
:1029F0007FFE401B022800F2CA81022393FAA3F350
:102A0000244B1968022393FAA3F3B3FA83F303F078
:102A10001F03012202FA03F31942E8D1236813F0DD
:102A2000080F55D0A3693BB3012191FAA1F2B2FA84
:102A300082F2194B13449B001960FEF759FE0546BC
:102A400005E0FEF755FE401B022800F2A28102239A
:102A500093FAA3F293FAA3F293FAA3F20D4A516AFE
:102A600093FAA3F3B3FA83F303F01F03012202FAEC
:102A700003F31942E5D02BE0012292FAA2F2B2FA56
:102A800082F2054B13449B0000221A60FEF730FED1
:102A9000054609E00010024020819010FEF728FE54
:102AA000401B022800F27781022393FAA3F293FAE3
:102AB000A3F293FAA3F2BE4A516A93FAA3F3B3FACC
:102AC00083F303F01F03012202FA03F31942E5D155
:102AD000236813F0040F00F0BA80B54BDB6913F0E4
:102AE000805F0BD1B24BDA6942F08052DA61DB6968
:102AF00003F080530193019B012500E00025AD4BBD
:102B00001B6813F4807F13D1AA4A136843F48073BF
:102B10001360FEF7EDFD064605E0FEF7E9FD801BBC
:102B2000642800F23A81A34B1B6813F4807FF4D031
:102B3000E368012B05D19E4A136A43F00103136237
:102B400022E063B903F1804303F504331A6A22F0EB
:102B500001021A621A6A22F004021A6214E0052BBA
:102B600009D1934B1A6A42F004021A621A6A42F0BF
:102B700001021A6208E08E4B1A6A22F001021A6200
:102B80001A6A22F004021A62E3686BB3FEF7B0FD22
:102B9000064607E0FEF7ACFD801B41F28833984201
:102BA00000F2FD80022393FAA3F293FAA3F3B3FA9F
:102BB00083F35B0943F00203DBB2022B02D17C4BAF
:102BC000196A04E0022393FAA3F3794B596A0223AA
:102BD00093FAA3F3B3FA83F303F01F03012202FA7B
:102BE00003F31942D6D02CE0FEF782FD064607E03B
:102BF000FEF77EFD801B41F28833984200F2D180BF
:102C0000022393FAA3F293FAA3F3B3FA83F35B09D3
:102C100043F00203DBB2022B02D1654B196A04E0D8
:102C2000022393FAA3F3624B596A022393FAA3F3A4
:102C3000B3FA83F303F01F03012202FA03F31942EC
:102C4000D6D125B15A4AD36923F08053D361E369C1
:102C5000002B00F0A880564A526802F00C02082AA5
:102C600000F0A380022B5DD14FF0807393FAA3F3A1
:102C7000B3FA83F303F1845303F584139B0000221A
:102C80001A60FEF735FD054605E0FEF731FD401BF5
:102C9000022800F291804FF0007393FAA3F3444BA3
:102CA00019684FF0007393FAA3F3B3FA83F303F0B8
:102CB0001F03012202FA03F31942E6D13C4843689C
:102CC00023F47411636A226A13430B4343604FF089
:102CD000807393FAA3F3B3FA83F303F1845303F5F8
:102CE00084139B0001221A60FEF702FD044604E0F3
:102CF000FEF7FEFC001B022860D84FF0007393FA29
:102D0000A3F32B4B19684FF0007393FAA3F3B3FAB4
:102D100083F303F01F03012202FA03F31942E7D001
:102D200000204EE04FF0807393FAA3F3B3FA83F3DD
:102D300003F1845303F584139B0000221A60FEF70D
:102D4000D7FC044604E0FEF7D3FC001B022837D86A
:102D50004FF0007393FAA3F3154B19684FF000730B
:102D600093FAA3F3B3FA83F303F01F03012202FAE9
:102D700003F31942E7D1002023E0012021E00320E2
:102D80001FE003201DE001201BE0032019E00320C9
:102D900017E0032015E0032013E0032011E00320D7
:102DA0000FE003200DE000200BE0012009E000BF50
:102DB0000010024000700040032002E0032000E009
:102DC000032002B070BD00BF164B5B6803F00C021D
:102DD000082A25D103F470114FF4701292FAA2F26E
:102DE000B2FA82F221FA02F20F498A5C0D49C96AED
:102DF00001F00F000F2191FAA1F1B1FA81F120FA4F
:102E000001F10A48405C13F4803F05D0084BB3FB46
:102E1000F0F000FB02F07047064800FB02F070473C
:102E20000348704700100240E43C0008D43C00080E
:102E300000127A0000093D0070B5744B1B6803F066
:102E400007038B420BD2714A136823F007030B432D
:102E50001360136803F00703994240F0C6800368CB
:102E600013F0020F06D06A4C636823F0F002836807
:102E7000134363600D460446036813F0010F75D0D9
:102E80004268012A13D14FF4003393FAA3F3604B45
:102E900018684FF4003393FAA3F3B3FA83F303F003
:102EA0001F03012101FA03F3184227D19FE0022AF0
:102EB00013D14FF0007393FAA3F3554B18684FF0FA
:102EC000007393FAA3F3B3FA83F303F01F03012112
:102ED00001FA03F3184211D18BE0022393FAA3F312
:102EE0004B4B1868022393FAA3F3B3FA83F303F06E
:102EF0001F03012101FA03F318427CD044494B68B7
:102F000023F0030313434B60FEF7F2FB06466368AE
:102F1000012B0ED106E0FEF7EBFB801B41F288335C
:102F200098426AD83A4B5B6803F00C03042BF2D149
:102F30001CE0022B15D106E0FEF7DAFB801B41F204
:102F4000883398425BD8324B5B6803F00C03082B44
:102F5000F2D10BE0FEF7CCFB801B41F288339842A4
:102F60004FD82B4B5B6813F00C0FF3D1274B1B682A
:102F700003F007039D420AD2244A136823F0070393
:102F80002B431360136803F007039D423BD1236872
:102F900013F0040F06D01E494B6823F4E062E36887
:102FA00013434B60236813F0080F07D0184A536887
:102FB00023F46053216943EAC1035360FFF704FF20
:102FC000134B5B6803F0F002F02393FAA3F3B3FA18
:102FD00083F322FA03F30F4AD35CD8400E4B1860F8
:102FE0000020FEF7D3FB002070BD012070BD012042
:102FF00070BD012070BD012070BD032070BD032095
:1030000070BD032070BD012070BD00BF00200240D4
:1030100000100240703C000804000020014B1868BA
:10302000704700BF0400002008B5FFF7F7FF084B0A
:103030005B6803F4E0624FF4E06393FAA3F3B3FA3E
:1030400083F322FA03F3034AD35CD84008BD00BFE0
:1030500000100240803C000808B5FFF7DFFF084B76
:103060005B6803F460524FF4605393FAA3F3B3FA2E
:1030700083F322FA03F3034AD35CD84008BD00BFB0
:1030800000100240803C00080F2303600B4B5A687D
:1030900002F0030242605A6802F0F00282605A684D
:1030A00002F4E062C2605B68DB0803F4E063036182
:1030B000034B1B6803F007030B60704700100240CE
:1030C0000020024038B50268936803F00303012B27
:1030D00005D1136813F0010F03D1002302E0002390
:1030E00000E00123002B30D0936803F00D03012B87
:1030F0000BD10446936843F00203936003680322F4
:103100001A60FEF7F5FA054618E0436C43F0100329
:103110004364836C43F001038364012038BDFEF7F0
:10312000E7FA401B022809D9636C43F0100363647B
:10313000A36C43F00103A364012038BD23689B689E
:1031400013F0010FEBD1002038BD002038BD00BFC7
:1031500030B597B000230093002800F0FA800446B1
:10316000436C13F0100F52D1436C002B37D18364A2
:103170000365C36480F84030FEF72EFF23689B6828
:1031800013F0805F2DD12046FFF79CFF636C13F096
:10319000100F27D130BB636C23F4885323F0020354
:1031A00043F0020363642268936823F04053936002
:1031B0002268936843F080539360674B1B68674AAB
:1031C000A2FB03239B0C03EB83035A00009202E053
:1031D000009B013B0093009B002BF9D102E00020F3
:1031E00000E0002023689A6812F0805F03D09B689B
:1031F00013F0005F0CD0636C23F0120343F0100354
:103200006364A36C43F00103A364012000E0002089
:10321000636C13F0100F40F09480002840F0918010
:1032200023689A6812F0040140F08B80626C22F4EB
:10323000817242F002026264B3F1A04F02D1484AA7
:10324000019202E04FF0A04201929A6802F003025C
:10325000012A05D11B6813F0010F03D1002302E0FE
:10326000002300E001239BB9019D55B1AA6802F03B
:103270000302012A04D12A6812F0010F00D00123B1
:1032800033B9384DAB6823F4403263681343AB6005
:10329000E5696B03A26B012A01D04FF4805141EA2A
:1032A0000302E3681343A2681A43636A012B11D136
:1032B00035B9A36A013B42EA434343F4803209E053
:1032C000636C23F0220343F020036364A36C43F098
:1032D0000103A364E16A012902D0236B0B431A4363
:1032E0002368996811F00C0F0BD1D96821F4804143
:1032F00021F00201D960A169636B5B0043EA81336D
:103300001A432168CD68184B2B401343CB602369C7
:10331000012B08D121680B6B23F00F02236A013BBC
:1033200013430B6304E02268136B23F00F03136352
:103330000023A364636C23F0030343F0010363647D
:1033400008E0636C23F0120343F010036364012070
:1033500000E0012017B030BD0400002083DE1B43D5
:10336000000100500003005007C0F0FF70B497B098
:103370000023009390F84030012B00F09E81012340
:1033800080F840300268936813F0040F40F08381A6
:103390004B68042B0CD8156B03EB43035E001F2313
:1033A000B34025EA03040B68B340234313632CE0C6
:1033B000092B0DD8566B03EB43035C001E3C1F2307
:1033C000A34026EA03050B68A3402B4353631CE08C
:1033D0000E2B0DD8966B03EB43035C003C3C1F2384
:1033E000A34026EA03050B68A3402B4393630CE03C
:1033F000D66B03EB43035C005A3C1F23A34026EA31
:1034000003050B68A3402B43D3630268936813F052
:103410000C0F40F088800B68092B0DD9946903EBE1
:1034200043031E3B07259D4024EA05058C6804FAEA
:1034300003F32B4393610BE0546903EB430307252C
:103440009D4024EA05058C6804FA03F32B4353617D
:103450004A690468E368C3F3C1035B0002FA03F33B
:103460000A69013A032A2FD8DFE802F0020D182377
:10347000226E944D15400A6843EA82632B4343F061
:10348000004323664FE0626E8E4D15400A6843EAA2
:1034900082632B4343F00043636644E0A26E894D90
:1034A00015400A6843EA82632B4343F00043A36656
:1034B00039E0E56E834A2A400D6843EA8563134389
:1034C00043F00043E3662EE0236E03F0F8430A68FE
:1034D000B3EB826F03D1236E23F0004323660268AF
:1034E000536E03F0F8430C68B3EB846F03D1536E53
:1034F00023F0004353660268936E03F0F8430C68B0
:10350000B3EB846F03D1936E23F00043936602689C
:10351000D36E03F0F8430C68B3EB846F03D1D36E22
:1035200023F00043D3660268936803F00303012B82
:1035300005D1136813F0010F03D1002502E0002527
:1035400000E00125002D40F0AC80CB68012B09D0B4
:10355000D2F8B0400E680123B34024EA0303C2F856
:10356000B03028E0D2F8B0600B68012404FA03F30D
:103570003343C2F8B0300B68092B0ED90668B26924
:1035800003EB43031B3B07249C4022EA04048A68A4
:1035900002FA03F32343B3610DE006687269013355
:1035A00003EB430307249C4022EA04048A6802FADE
:1035B00003F3234373610B68102B04D1424A9268D2
:1035C00012F4000F0DD0112B04D13F4A926812F073
:1035D000807F06D0122B66D13B4A926812F4800F8E
:1035E00063D10168B1F1A04F02D1384A019202E0E3
:1035F0004FF0A04201928A6802F00302012A04D12E
:103600000A6812F0010F00D00125002D3DD1019C68
:103610005CB1A26802F00302012A04D1226812F010
:10362000010F00D00125002D2FD1102B18D1B1F1A1
:10363000A04F15D1244A936843F400039360244BB0
:103640001B68244AB3FBF2F20A2303FB02F3009344
:1036500002E0009B013B0093009B002BF9D127E087
:10366000112B09D1B1F1A04F06D1174A936843F04D
:103670008073936000231BE0122B18D1124A9368C9
:1036800043F480039360002312E0436C43F0200373
:10369000436401230CE0436C43F0200343640123A3
:1036A00006E0002304E0002302E0002300E0002302
:1036B000002280F84020184600E0022017B070BCBD
:1036C000704700BF00F0FF8300030050000100506E
:1036D0000400002040420F0090F84030012B00F021
:1036E0008A8070B497B0012380F840300368B3F14A
:1036F000A04F02D1424A019202E04FF0A042019253
:103700009B6813F0040F64D1019B9A6812F0040FB8
:103710005FD10A68002A33D03A4DAA6822F4604487
:103720004A68466B42EA46322243AA600468A268AD
:1037300002F00302012A05D1226812F0010F03D121
:10374000002202E0002200E00122002A47D19C680A
:1037500004F00304012C04D11B6813F0010F00D006
:103760000122002A3DD1274DAB6823F4716424F077
:103770000F040B688A6813432343AB60002335E0D2
:1037800020498A6822F460428A6001688A6802F0EF
:103790000302012A05D10A6812F0010F03D10022A9
:1037A00002E0002200E00122EAB9996801F0030179
:1037B000012904D11B6813F0010F00D00122A2B926
:1037C000104A936823F4716323F00F03936000237E
:1037D0000CE0436C43F020034364012306E0002324
:1037E00004E0002302E0002300E00023002280F830
:1037F0004020184601E00220704717B070BC7047A7
:10380000000100500003005038B504468268036987
:103810001A4343691A43C3691A4301680868634B32
:10382000034013430B6021684B6823F44052E36864
:1038300013434B60A269236A1A4321688B6823F4FF
:10384000306313438B602568594B9D4212D103F5B9
:1038500058431B6B03F00303032B09D8DFE803F085
:1038600002040613002313E0042311E008230FE0F1
:1038700010230DE04F4B9D4207D003F580639D421E
:1038800005D1002304E0022302E0002300E010231E
:10389000E269B2F5004F47D1082B3BD8DFE803F0CF
:1038A00005101B3A263A3A3A3100FFF7BDFB636830
:1038B0005A0802EB4000B0FBF3F39BB200202BE070
:1038C000FFF7CAFB63685A0802EB4000B0FBF3F352
:1038D0009BB2002020E061684A0802F5740303F5FA
:1038E0001053B3FBF1F39BB2002015E0FFF76CFA25
:1038F00063685A0802EB4000B0FBF3F39BB2002070
:103900000AE06268530803F58033B3FBF2F39BB21D
:10391000002001E00120002323F00F02C3F3420343
:1039200013432268D36038BD082B3DD8DFE803F08D
:1039300005101B3C273C3C3C3200FFF775FB6368DD
:1039400000EB5300B0FBF3F080B2E860002038BD1C
:10395000FFF782FB636800EB5300B0FBF3F080B22B
:10396000E860002038BD61684A0802F5F40303F5F9
:103970009053B3FBF1F39BB2EB60002038BDFFF72F
:1039800023FA636800EB5300B0FBF3F080B2E86009
:10399000002038BD6268530803F50043B3FBF2F31F
:1039A0009BB2EB60002038BD012038BDF369FFEF0A
:1039B0000038014000440040436A13F0010F06D074
:1039C00001684B6823F40032836A13434B60436AF7
:1039D00013F0020F06D001684B6823F48032C36AEB
:1039E00013434B60436A13F0040F06D001684B6821
:1039F00023F48022036B13434B60436A13F0080FD8
:103A000006D001684B6823F40042436B13434B60BC
:103A1000436A13F0100F06D001688B6823F48052BC
:103A2000836B13438B60436A13F0200F06D0016849
:103A30008B6823F40052C36B13438B60436A13F00B
:103A4000400F11D001684B6823F48012036C1343BC
:103A50004B60036CB3F5801F06D101684B6823F4FB
:103A6000C002436C13434B60436A13F0800F06D0CF
:103A700001684B6823F40022836C13434B6070474A
:103A80002DE9F04105460F4616469846069C1EE075
:103A9000B4F1FF3F1BD02CB1FDF72AFEC8EB0000AC
:103AA000844214D22A68136823F4D07313602A68FE
:103AB000936823F001039360202385F8693085F82B
:103AC0006A30002385F868300320BDE8F0812B6858
:103AD000DB6937EA03030CBF01230023B342D7D0CD
:103AE0000020BDE8F08100BF30B583B0044600235C
:103AF000C366FDF7FDFD054623681B6813F0080F3C
:103B00000AD06FF07E430093034600224FF4001169
:103B10002046FFF7B5FFC0B923681B6813F0040FF8
:103B20000AD06FF07E4300932B4600224FF48001B1
:103B30002046FFF7A5FF50B9202384F8693084F8A8
:103B40006A30002084F8680002E0032000E00320CF
:103B500003B030BD80B310B5044690F8693013F05F
:103B6000FF0F04D1002380F86830FEF7B9FA242350
:103B700084F869302268136823F00103136020463B
:103B8000FFF742FE012819D0636A13B12046FFF700
:103B900013FF2268536823F49043536022689368AC
:103BA00023F02A0393602268136843F00103136033
:103BB0002046FFF799FF10BD0120704710BD00BFE0
:103BC000DFF834D0002103E00C4B5B584350043144
:103BD0000B480C4B42189A42F6D30B4A02E00023E2
:103BE00042F8043B094B9A42F9D3FEF74BF8FCF735
:103BF00021FBFEF76BFCFEE700300020FC3C0008D8
:103C00000000002008000020080000204C270020B1
:103C1000FEE70000F8B500BFF8BC08BC9E46704740
:0C3C2000F8B500BFF8BC08BC9E46704719
:103C2C00C83C00081522000800000000000000003D
:103C3C0080000000BC3C0008C51E0008FDFF000011
:103C4C000000000000010000AC3C00082D22000820
:103C5C00FDFF0000000000000002000049444C453C
:103C6C00000000000000000000000000010203043E
:103C7C000607080900000000010203045372632FB9
:103C8C0073746D3332663378785F68616C5F6D7313
:103C9C00702E63005372632F6D61696E2E6300008A
:103CAC006164635F646D615F7461736B000000003D
:103CBC006D6F746F725F7461736B00006465666125
:103CCC00756C745461736B000102030405060708DC
:103CDC00090A0B0C0D0E0F10020304050607080948
:083CEC000A0B0C0D0E0F101065
:043CF400FD010008C6
:043CF800D5010008EA
:083CFC00AAAAAAAA00127A008C
:0400000508003BC1F3
:00000001FF
