:020000040800F2
:10000000003000200D2400085D2400085D24000855
:100010005D2400085D2400085D2400080000000045
:10002000000000000000000000000000911800081F
:100030005D24000800000000311900087115000857
:100040005D2400085D2400085D2400085D2400088C
:100050005D2400085D2400085D2400085D2400087C
:100060005D2400085D2400085D2400085D2400086C
:100070005D2400085D2400085D2400085D2400085C
:100080005D2400085D2400085D2400085D2400084C
:100090005D2400085D2400085D2400085D2400083C
:1000A0005D2400085D2400085D2400085D2400082C
:1000B0005D2400085D240008000000005D240008A5
:1000C0005D24000800000000000000005D2400081E
:1000D000000000005D2400085D2400085D24000885
:1000E0005D2400085D2400080000000000000000FE
:1000F0000000000000000000000000000000000000
:1001000000000000000000000000000000000000EF
:1001100000000000000000005D2400085D240008CD
:1001200000000000000000000000000000000000CF
:1001300000000000000000000000000000000000BF
:100140005D2400085D24000800000000000000009D
:10015000000000000000000000000000000000009F
:10016000000000000000000000000000000000008F
:10017000000000000000000000000000000000007F
:08018000000000005D240008EE
:10019000044B05481B1A062B02D9044B03B1184720
:1001A000704700BF0B000020080000200000000086
:1001B00005490648091A891001EBD171491002D08E
:1001C000034B03B1184770470800002008000020C7
:1001D0000000000010B5064C237843B9FFF7D8FFA4
:1001E000044B13B10448AFF300800123237010BD0A
:1001F00008000020000000006024000808B5084B3B
:100200001BB108490848AFF300800848036813B9D8
:10021000BDE80840CCE7064B002BF9D09847F7E73C
:10022000000000000C0000206024000808000020EE
:100230000000000070B50F4E0F4D761BB61018BFB2
:10024000002405D0013455F8043B9847A642F9D163
:100250000A4E0B4D761B02F003F9B61018BF0024AE
:1002600006D0013455F8043B9847A642F9D170BD39
:1002700070BD00BFFC240008FC2400080025000815
:10028000FC2400081549D1F8883043F47003C1F804
:100290008830134B1A6842F001021A605868114AFC
:1002A00002405A601A6822F0847222F480321A6086
:1002B0001A6822F480221A605A6822F4FE025A60F8
:1002C000DA6A22F00F02DA62186B074A02401A63F8
:1002D00000229A604FF000638B60704700ED00E0F1
:1002E000001002400CC07FF8CCFC00FF70B582B05B
:1002F0000446036813F0010F00F09D80B64B5B6865
:1003000003F00C03042B0AD0B34B5B6803F00C031F
:10031000082B1BD1B04B5B6813F4803F16D04FF411
:10032000003393FAA3F3AC4B19684FF4003393FAFC
:10033000A3F3B3FA83F303F01F03012202FA03F3DA
:10034000194278D06368002B75D1B8E26368B3F5C1
:10035000803F05D1A04A136843F48033136026E040
:1003600063B903F1804303F504331A6822F4803241
:100370001A601A6822F480221A6018E0B3F5A02FE0
:100380000CD103F18043A3F53C331A6842F4802278
:100390001A601A6842F480321A6008E08E4B1A68BC
:1003A00022F480321A601A6822F480221A608A4984
:1003B000CB6A23F00F02A3681343CB626368EBB1EF
:1003C00001F00CF9054605E001F008F9401B64282E
:1003D00000F277824FF4003393FAA3F37E4B19684F
:1003E0004FF4003393FAA3F3B3FA83F303F01F033C
:1003F000012202FA03F31942E6D01CE001F0EEF804
:10040000054605E001F0EAF8401B642800F25B8233
:100410004FF4003393FAA3F36F4B19684FF4003392
:1004200093FAA3F3B3FA83F303F01F03012202FA52
:1004300003F31942E6D1236813F0020F00F0908015
:10044000654B5B6813F00C0F0AD0634B5B6803F0DD
:100450000C03082B27D1604B5B6813F4803F22D13B
:10046000022393FAA3F35C4B1968022393FAA3F3D4
:10047000B3FA83F303F01F03012202FA03F31942D4
:1004800003D02369934240F020825348036823F04D
:10049000F8016369F82292FAA2F2B2FA82F293406A
:1004A0000B4303605CE023699BB3012292FAA2F341
:1004B000B3FA83F303F1845303F584139B001A60AA
:1004C00001F08CF8054605E001F088F8401B022891
:1004D00000F2FD81022393FAA3F33F4B1968022334
:1004E00093FAA3F3B3FA83F303F01F03012202FA92
:1004F00003F31942E8D03848036823F0F801636930
:10050000F82292FAA2F2B2FA82F293400B4303600D
:1005100026E0012393FAA3F3B3FA83F303F18453A0
:1005200003F584139B0000221A6001F057F805467A
:1005300005E001F053F8401B022800F2CA810223B3
:1005400093FAA3F3244B1968022393FAA3F3B3FAA3
:1005500083F303F01F03012202FA03F31942E8D1E7
:10056000236813F0080F55D0A3693BB3012191FA1A
:10057000A1F2B2FA82F2194B13449B00196001F008
:100580002DF8054605E001F029F8401B022800F28D
:10059000A281022393FAA3F293FAA3F293FAA3F2AD
:1005A0000D4A516A93FAA3F3B3FA83F303F01F03DE
:1005B000012202FA03F31942E5D02BE0012292FA5C
:1005C000A2F2B2FA82F2054B13449B0000221A6099
:1005D00001F004F8054609E0001002402081901067
:1005E00000F0FCFF401B022800F27781022393FAFF
:1005F000A3F293FAA3F293FAA3F2BE4A516A93FAD2
:10060000A3F3B3FA83F303F01F03012202FA03F307
:100610001942E5D1236813F0040F00F0BA80B54BFE
:10062000DB6913F0805F0BD1B24BDA6942F0805284
:10063000DA61DB6903F080530193019B012500E03F
:100640000025AD4B1B6813F4807F13D1AA4A1368B1
:1006500043F48073136000F0C1FF064605E000F02C
:10066000BDFF801B642800F23A81A34B1B6813F482
:10067000807FF4D0E368012B05D19E4A136A43F0D2
:100680000103136222E063B903F1804303F50433ED
:100690001A6A22F001021A621A6A22F004021A622D
:1006A00014E0052B09D1934B1A6A42F004021A6236
:1006B0001A6A42F001021A6208E08E4B1A6A22F0AE
:1006C00001021A621A6A22F004021A62E3686BB32A
:1006D00000F084FF064607E000F080FF801B41F237
:1006E0008833984200F2FD80022393FAA3F293FA32
:1006F000A3F3B3FA83F35B0943F00203DBB2022BEB
:1007000002D17C4B196A04E0022393FAA3F3794BDC
:10071000596A022393FAA3F3B3FA83F303F01F0396
:10072000012202FA03F31942D6D02CE000F056FF62
:10073000064607E000F052FF801B41F288339842E2
:1007400000F2D180022393FAA3F293FAA3F3B3FA4F
:1007500083F35B0943F00203DBB2022B02D1654B4A
:10076000196A04E0022393FAA3F3624B596A022345
:1007700093FAA3F3B3FA83F303F01F03012202FAFF
:1007800003F31942D6D125B15A4AD36923F08053D5
:10079000D361E369002B00F0A880564A526802F04A
:1007A0000C02082A00F0A380022B5DD14FF0807369
:1007B00093FAA3F3B3FA83F303F1845303F5841399
:1007C0009B0000221A6000F009FF054605E000F0DA
:1007D00005FF401B022800F291804FF0007393FA4E
:1007E000A3F3444B19684FF0007393FAA3F3B3FAE1
:1007F00083F303F01F03012202FA03F31942E6D147
:100800003C48436823F47411636A226A13430B4320
:1008100043604FF0807393FAA3F3B3FA83F303F1C9
:10082000845303F584139B0001221A6000F0D6FE66
:10083000044604E000F0D2FE001B022860D84FF00E
:10084000007393FAA3F32B4B19684FF0007393FADC
:10085000A3F3B3FA83F303F01F03012202FA03F3B5
:100860001942E7D000204EE04FF0807393FAA3F3D3
:10087000B3FA83F303F1845303F584139B0000223E
:100880001A6000F0ABFE044604E000F0A7FE001B77
:10089000022837D84FF0007393FAA3F3154B196869
:1008A0004FF0007393FAA3F3B3FA83F303F01F033B
:1008B000012202FA03F31942E7D1002023E00120CC
:1008C00021E003201FE003201DE001201BE00320A6
:1008D00019E0032017E0032015E0032013E00320B4
:1008E00011E003200FE003200DE000200BE00120C9
:1008F00009E000BF0010024000700040032002E049
:10090000032000E0032002B070BD00BF164B5B68FF
:1009100003F00C02082A25D103F470114FF4701271
:1009200092FAA2F2B2FA82F221FA02F20F498A5C3A
:100930000D49C96A01F00F000F2191FAA1F1B1FA36
:1009400081F120FA01F10A48405C13F4803F05D0A0
:10095000084BB3FBF0F000FB02F07047064800FBC9
:1009600002F070470348704700100240C02400089E
:10097000B024000800127A0000093D0070B5744BE5
:100980001B6803F007038B420BD2714A136823F0F4
:1009900007030B431360136803F00703994240F009
:1009A000C680036813F0020F06D06A4C636823F018
:1009B000F0028368134363600D460446036813F036
:1009C000010F75D04268012A13D14FF4003393FA16
:1009D000A3F3604B18684FF4003393FAA3F3B3FA10
:1009E00083F303F01F03012101FA03F3184227D117
:1009F0009FE0022A13D14FF0007393FAA3F3554BF3
:100A000018684FF0007393FAA3F3B3FA83F303F07B
:100A10001F03012101FA03F3184211D18BE00223D5
:100A200093FAA3F34B4B1868022393FAA3F3B3FA98
:100A300083F303F01F03012101FA03F318427CD072
:100A400044494B6823F0030313434B6000F0C6FD99
:100A500006466368012B0ED106E000F0BFFD801B47
:100A600041F2883398426AD83A4B5B6803F00C0332
:100A7000042BF2D11CE0022B15D106E000F0AEFDF4
:100A8000801B41F2883398425BD8324B5B6803F09D
:100A90000C03082BF2D10BE000F0A0FD801B41F20B
:100AA000883398424FD82B4B5B6813F00C0FF3D16F
:100AB000274B1B6803F007039D420AD2244A1368A0
:100AC00023F007032B431360136803F007039D42D1
:100AD0003BD1236813F0040F06D01E494B6823F462
:100AE000E062E36813434B60236813F0080F07D0FC
:100AF000184A536823F46053216943EAC1035360E1
:100B0000FFF704FF134B5B6803F0F002F02393FA46
:100B1000A3F3B3FA83F322FA03F30F4AD35CD8406A
:100B20000E4B18600F2000F029FD002070BD012041
:100B300070BD012070BD012070BD012070BD03207B
:100B400070BD032070BD032070BD012070BD00BFCB
:100B50000020024000100240A024000800000020F5
:100B6000014B1868704700BF0000002030B589B005
:100B70001E4B5A6942F480025A615A6902F480029B
:100B80000092009A5A6942F400325A615A6902F49A
:100B900000320192019A5A6942F480225A615B69DB
:100BA00003F480230293029B114D00220821284662
:100BB00000F0D4FC48F204030393022304930024BE
:100BC0000594032306930723079303A94FF090404E
:100BD00000F000FC0823039301230493059406947A
:100BE00003A9284600F0F6FB09B030BD0010024012
:100BF0000004004808B5084C204600F0DDF900214B
:100C0000204600F04FFB0821044800F0ADFC4FF4F3
:100C10007A7000F07BFDF6E7780D002000040048B4
:100C2000FEE700BF00B58BB01A481B4B036063237F
:100C300043600023836040F2E732C2600361836156
:100C400000F010FA18B1E1211448FFF7E9FF002382
:100C50000793099307A90F4800F086F918B1E82116
:100C60000E48FFF7DDFF60230093F9230193002274
:100C7000029204926946074800F0DAF818B1F121AF
:100C80000648FFF7CDFF034800F000FD0BB05DF80C
:100C900004FB00BF780D002000040040D0240008B1
:100CA00000B591B00223069301230A9310230B93FE
:100CB00000230D9306A8FFF719FB18B1B5211348BF
:100CC000FFF7AEFF0F2301930021029103910491DE
:100CD000059101A8FFF752FE18B1C3210B48FFF799
:100CE0009FFFFFF73DFF0A4BA3FB0030800900F098
:100CF0004BFB042000F05EFB00220F214FF0FF3081
:100D000000F010FB11B05DF804FB00BFD024000818
:100D1000D34D621070B58AB000F046FCFFF7C0FFFB
:100D2000FFF724FFFFF77EFF0D4C05AD26460FCEE3
:100D30000FC533682B60002105A800F0CDFC094BDE
:100D400018606D4614340FCC0FC523682B6000214A
:100D5000684600F0C1FC044B186000F0B7FCFEE7E9
:100D600078240008700D0020740D002030B4036A50
:100D700023F480330362036A4468426D22F48032B4
:100D800022F070020D682A4323F400338D6843EA91
:100D900005430D4DA8420BD005F5A055A84207D03C
:100DA00005F58065A84203D005F58065A84204D109
:100DB00024F480344D6944EA0524446042654A685D
:100DC0008265036230BC7047002C014030B4036A76
:100DD00023F480130362026A4468436D23F0807336
:100DE00023F4E0430D6843EA052322F400128D68E2
:100DF00042EA05520D4DA8420BD005F5A055A84278
:100E000007D005F58065A84203D005F58065A842A6
:100E100004D124F480244D6944EA85244460436568
:100E20004B68C365026230BC704700BF002C0140B4
:100E300038B590F83C30012B00F093800D46044605
:100E4000012380F83C30022380F83D30142A00F260
:100E50008180DFE802F00B7F7F7F1E7F7F7F327F04
:100E60007F7F457F7F7F597F7F7F6C00006800F028
:100E700015F92268936943F0080393612268936926
:100E800023F004039361226891692B690B439361FA
:100E900060E0006800F048F92268936943F4006359
:100EA00093612268936923F4806393612268936954
:100EB000296943EA012393614CE0006800F072F96C
:100EC0002268D36943F00803D3612268D36923F011
:100ED0000403D3612268D1692B690B43D36139E0E4
:100EE000006800F09DF92268D36943F40063D36180
:100EF0002268D36923F48063D3612268D3692969A6
:100F000043EA0123D36125E00068FFF72FFF226841
:100F1000536D43F0080353652268536D23F00403B7
:100F200053652268516D2B690B43536512E00068CD
:100F3000FFF74CFF2268536D43F40063536522684A
:100F4000536D23F4806353652268536D296943EA26
:100F500001235365012384F83D30002084F83C00D0
:100F600038BD022038BD00BF90F83C30012B1DD0A9
:100F700030B4012380F83C3003685A689D680D4CFA
:100F8000A34203D122F470024C68224322F0700283
:100F90000C68224325F08004896821435A60036865
:100FA0009960002380F83C30184601E00220704729
:100FB00030BC7047002C0140022380F83D300268AD
:100FC000136843F001031360012380F83D300020D3
:100FD000704700BF0368224A904206D0B0F1804FAC
:100FE00003D0A2F59432904203D123F070034A68F3
:100FF00013431B4A904212D0B0F1804F0FD0A2F59C
:10100000943290420BD002F59E32904207D002F506
:101010008062904203D002F58062904203D123F4B3
:101020004073CA68134323F080034A691343036083
:101030008B68C3620B688362094B98420BD003F53F
:10104000A053984207D003F58063984203D003F57C
:101050008063984201D10B690363012343617047A8
:10106000002C0140B8B110B5044690F83D3013F0A3
:10107000FF0F04D1002380F83C3000F0F3FA022384
:1010800084F83D30211D2068FFF7A4FF012384F878
:101090003D30002010BD0120704700BF30B4036A0E
:1010A00023F001030362026A4468836923F48033F6
:1010B00023F073030D682B4322F002028D682A434C
:1010C000184DA8420BD005F5A055A84207D005F54C
:1010D0008065A84203D005F58065A84205D122F0BD
:1010E0000802CD682A4322F004020E4DA8420BD01C
:1010F00005F5A055A84207D005F58065A84203D0A4
:1011000005F58065A84205D124F440754C692C434F
:101110008D692C43446083614B684363026230BC39
:10112000704700BF002C014030B4036A23F0100365
:101130000362036A4468826922F0807222F4E64204
:101140000D6842EA052223F020038D6843EA051367
:10115000134DA84206D123F08003CD6843EA05135E
:1011600023F040030E4DA8420BD005F5A055A84230
:1011700007D005F58065A84203D005F58065A84233
:1011800007D124F440644D6944EA85048D6944EA3A
:101190008504446082614A688263036230BC7047A0
:1011A000002C014030B4036A23F480730362036AA5
:1011B0004468C26922F4803222F073020D682A4327
:1011C00023F400738D6843EA0523144DA84206D129
:1011D00023F40063CD6843EA052323F480630F4DB5
:1011E000A8420BD005F5A055A84207D005F58065AB
:1011F000A84203D005F58065A84207D124F44054E5
:101200004D6944EA05148D6944EA05144460C261DD
:101210004A68C263036230BC704700BF002C0140C3
:1012200030B4036A23F480530362026A4468C369DA
:1012300023F0807323F4E6430D6843EA052322F488
:1012400000528D6842EA05320D4DA8420BD005F5DB
:10125000A055A84207D005F58065A84203D005F542
:101260008065A84204D124F480444D6944EA851481
:101270004460C3614B680364026230BC704700BFC6
:10128000002C014010B4012303FA01F4036A23EA9D
:1012900004030362036A8A401A4302625DF8044B46
:1012A000704700BF10B5044601220068FFF7EAFF4F
:1012B0002368124A93420DD002F5A05293420BD0FC
:1012C00002F58062934209D002F58062934207D111
:1012D000012206E0012204E0012202E0012200E0F6
:1012E00000221AB15A6C42F400425A642268136810
:1012F00043F001031360002010BD00BF002C01402B
:10130000074AD36823F4E0631B041B0C000200F4BB
:10131000E060184340F0BF6040F40030D060704798
:1013200000ED00E030B4164BDB68C3F30223C3F1D9
:101330000704042C28BF04241D1D062D01D9DD1E21
:1013400000E00025012303FA04F4013C2140A940F8
:10135000AB40013B1A400A43002806DA00F00F00B8
:101360001201D2B2074B1A5407E01201D2B200F1B7
:10137000604000F5614080F8002330BC704700BF3A
:1013800000ED00E014ED00E00138B0F1807F0AD2FA
:10139000064B5860F021064A82F82310002098601E
:1013A00007221A6070470120704700BF10E000E07C
:1013B00000ED00E0042805D1054A136843F004035A
:1013C00013607047024A136823F0040313607047E8
:1013D00010E000E0F0B583B00023AFE001249C40B2
:1013E000224000F0AA804D68022D01D0122D10D1AC
:1013F000DE08083650F826C003F00705AF000F25B9
:10140000BD402CEA050E0D69BD404EEA050540F8C9
:10141000265005685F000326BE40F64305EA060E27
:101420004D6805F00305BD404EEA050505604D68B1
:1014300005F1FF3EBEF1010F03D9112D01D0122D90
:1014400010D1856806EA050ECD68BD404EEA050557
:101450008560456825EA04044D68C5F300159D4084
:1014600025434560C46826408C68BC403443C46052
:101470004C6814F0805F60D0344CA56945F00105DC
:10148000A561A46904F001040194019C9E08B51CA7
:101490002F4C54F8255003F00304A4000F27A74055
:1014A00025EA0707B0F1904F0CD02A4DA8420BD087
:1014B00005F58065A84209D005F58065A84207D1E9
:1014C000032506E0002504E0012502E0022500E0F6
:1014D000052505FA04F43C4302361D4D45F8264027
:1014E0001D4C2568D44305EA04064F6817F4803F75
:1014F00001D042EA0506184D2E606D6804EA050623
:101500004F6817F4003F01D042EA0506124D6E60A5
:10151000AD6804EA05064F6817F4801F01D042EA5F
:1015200005060D4DAE60ED682C404E6816F4001FA8
:1015300001D042EA0504084AD46001330A6832FA4D
:1015400003F47FF44BAF03B0F0BD00BF00100240C6
:101550000000014000040048000401400AB181611C
:1015600070478162704700BF4369594041617047CD
:1015700008B500F02BF800F0D1F808BD10B504460E
:10158000074B1B680748A0FB03308009FFF7FCFEF0
:10159000002221464FF0FF30FFF7C4FE002010BDAF
:1015A00000000020D34D621008B5074A136843F0CD
:1015B000100313600320FFF7A3FE0F20FFF7DEFFE9
:1015C00000F012F8002008BD00200240024A136813
:1015D00001331360704700BFB80D0020014B18683D
:1015E000704700BFB80D002000B583B01C4B9A694E
:1015F00042F001029A619B6903F001030193019B90
:101600000320FFF77DFE002211466FF00B00FFF76D
:1016100089FE002211466FF00A00FFF783FE0022C8
:1016200011466FF00900FFF77DFE002211466FF0B2
:101630000400FFF777FE002211466FF00300FFF76A
:1016400071FE00220F216FF00100FFF76BFE0022F8
:101650000F214FF0FF30FFF765FE03B05DF804FB8C
:10166000001002400268084B9A420CD182B003F588
:101670000333DA6942F00202DA61DB6903F0020344
:101680000193019B02B070470004004002680A4BBE
:101690009A4210D100B587B0102301930223029320
:1016A000002203920492059301A90448FFF792FED9
:1016B00007B05DF804FB70470004004000040048D8
:1016C000842801D0033070470020704708B500F02F
:1016D0006DFB002008BD00BFF0B585B00F46446823
:1016E00005680669B0F90800FFF7EAFF03AB01934C
:1016F00000903B46B2B22946204600F025FB012867
:1017000001D1039800E0002005B0F0BD08B508B98C
:101710000120FFE700F09EFC002008BD08B500F0A6
:1017200049FD012801D000F035F908BD38B50B4C52
:101730002046FFF741FC00212046FFF7B3FD0024BF
:10174000254604B90A2541F658339C4201D16FF071
:1017500009052C440120FFF7D9FFF2E7780D00209E
:1017600000F1080343604FF0FF328260C360036101
:1017700000230360704700BF00230361704700BF70
:1017800043684B609A688A609A6851609960086102
:10179000036801330360704730B40D68B5F1FF3F53
:1017A00001D1026907E000F1080200E01A4653681F
:1017B0001C68A542FAD253684B6099608A605160F8
:1017C000086103680133036030BC704703694268F5
:1017D000816891608268416851605A68904201D185
:1017E00082685A60002202611868013818607047E8
:1017F0000B4B1B68B3F1FF3F08D04FF0500383F34E
:101800001188BFF36F8FBFF34F8FFEE74FF0500388
:1018100083F31188BFF36F8FBFF34F8FFEE700BFD5
:101820000400002006480068006880F3088862B65B
:1018300061B6BFF34F8FBFF36F8F00DF00BF0000B3
:1018400008ED00E0DFF80C00016841F47001016070
:101850007047000088ED00E04FF0807340F8043CD2
:1018600021F0010140F8081C054B40F80C3C40F801
:10187000202C6FF0020340F8243C4438704700BF2E
:10188000F117000800000000000000000000000048
:10189000074B19680868B0E8F04F80F30988BFF378
:1018A0006F8F4FF0000080F311887047AFF3008016
:1018B000EC0000204FF0500383F31188BFF36F8FCB
:1018C000BFF34F8F0A4A136801331360012B0DD108
:1018D000084B1B6813F0FF0F08D04FF0500383F341
:1018E0001188BFF36F8FBFF34F8FFEE7704700BFC4
:1018F0000400002004ED00E0094B1B6843B94FF0E1
:10190000500383F31188BFF36F8FBFF34F8FFEE750
:10191000013B034A13600BB983F31188704700BF82
:101920000400002000000000000000000000000093
:10193000EFF30980BFF36F8F154B1A681EF0100F7D
:1019400008BF20ED108A20E9F04F10604DF8043DEB
:101950004FF0500080F31188BFF34F8FBFF36F8FAC
:1019600000F0DEFB4FF0000080F3118808BC19681E
:101970000868B0E8F04F1EF0100F08BFB0EC108AF6
:1019800080F30988BFF36F8F704700BFAFF300800B
:10199000EC00002008B54FF0500383F31188BFF32B
:1019A0006F8FBFF34F8F00F047FA18B14FF080529E
:1019B000024B1A60002383F3118808BD04ED00E098
:1019C000064B1B68064AA2FB03239B09013B054A01
:1019D00013600722044B1A60704700BF000000200C
:1019E000D34D621014E000E010E000E0314B1A68C3
:1019F000314B9A4208D14FF0500383F31188BFF363
:101A00006F8FBFF34F8FFEE72A4B1A682B4B9A421A
:101A100008D14FF0500383F31188BFF36F8FBFF3EA
:101A20004F8FFEE700B583B0254B1A78D2B20192F2
:101A3000FF221A701B78DBB28DF803309DF803305B
:101A400003F050031F4A137007221F4B1A6009E06E
:101A50001D4A1368013B13609DF803305B00DBB245
:101A60008DF803309DF8033013F0800FF0D1164A43
:101A700013681B0203F4E0631360019BDBB2104A9E
:101A80001370124B1A6842F470021A601A6842F01E
:101A900070421A60FFF794FF00220D4B1A60FFF7A7
:101AA000D1FE0C4A136843F040431360FFF7BAFEBF
:101AB000FFF79EFE00ED00E071C20F4170C20F41C2
:101AC00000E400E0240000202800002020ED00E0D9
:101AD0000400002034EF00E00A4B1B681B680BB9C0
:101AE000012300E0002323B14FF0FF32064B1A60C0
:101AF0007047044B1B68DB68DB685A68024B1A604E
:101B0000704700BF300000200C01002010B50446D3
:101B1000006B00F03FFC204600F03CFC10BD00BF15
:101B20002DE9F04780469946089D099F0A9C236B42
:101B300002F18042013A03EB820626F007060023F9
:101B400006E0C85CE21882F83400CA5C12B10133C6
:101B50000F2BF6D9002384F84330062D00D9062533
:101B6000E56265644FF0000AC4F848A0201DFFF745
:101B700003FE04F11800FFF7FFFD2461C5F107051E
:101B8000A5616462C4F84CA084F850A04A4641465E
:101B90003046FFF761FE206007B13C60BDE8F0878A
:101BA00038B5002407E004EB840293000E48184483
:101BB000FFF7D6FD0134062CF5D90C4D2846FFF76A
:101BC000CFFD0B4C2046FFF7CBFD0A48FFF7C8FDC1
:101BD0000948FFF7C5FD0948FFF7C2FD084B1D6026
:101BE000084B1C6038BD00BF5400002014010020C9
:101BF00028010020F0000020380000203C010020D7
:101C0000300000204C00002010B50446FFF752FEC3
:101C1000204A1368013313601F4B1B683BB91E4BEE
:101C20001C601368012B0DD1FFF7BAFF0AE01B4BB4
:101C30001B683BB9184B1B68DA6AE36A9A4201D801
:101C4000154B1C60164A136801331360E36A0122C6
:101C500002FA03F1134802680A43026003EB8303AC
:101C60009A00211D10481044FFF78AFDFFF744FE3B
:101C70000A4B1B686BB1084B1B68DA6AE36A9A422D
:101C800007D24FF08052094B1A60BFF34F8FBFF35A
:101C90006F8F10BDE8000020EC0000203400002011
:101CA00010010020500100205400002004ED00E04D
:101CB00070B504460E461D4B1D681D4B1868043058
:101CC000FFF784FD50B91A4B1B68DA6A012303FA47
:101CD00002F218490B6823EA02030B60B4F1FF3FDC
:101CE00007D136B1124B196804311348FFF748FD8C
:101CF00070BD2C440E4B1B685C60A54207D90F4B8E
:101D000018680B4B19680431FFF746FD70BD0C4B8A
:101D10001868074B19680431FFF73EFD094B1B6833
:101D20009C4201D2074B1C6070BD00BF080100201F
:101D3000EC000020500100203C0100204C0000205D
:101D4000300000200C0100202DE9F04385B006464C
:101D50000F4615469846900000F09AFA60B1814609
:101D6000542000F095FA044610B1C0F8309004E019
:101D7000484600F00FFB00E000248CB100230393E1
:101D800002940D9B01930C9B009343462A463946CF
:101D90003046FFF7C5FE2046FFF736FF012001E081
:101DA0004FF0FF3005B0BDE8F08300BF00B583B051
:101DB000174B019300230093802216491648FFF722
:101DC000C3FF012814D14FF0500383F31188BFF3F0
:101DD0006F8FBFF34F8F4FF0FF32104B1A6001220D
:101DE0000F4B1A6000220F4B1A60FFF7FFFD0BE04C
:101DF000B0F1FF3F08D14FF0500383F31188BFF3D8
:101E00006F8FBFF34F8FFEE703B05DF804FB00BF99
:101E100004010020F4240008F92000080C0100202F
:101E20003400002008010020024A136801331360C7
:101E3000704700BFE0000020F8B53D4B1B68002B49
:101E400069D13C4B1D6801351D60C5B93A4B1B6813
:101E50001B6843B14FF0500383F31188BFF36F8FBA
:101E6000BFF34F8FFEE7344A1168344B1868106097
:101E70001960334A136801331360FFF72DFE314BAD
:101E80001B689D4203D200243AE0012400E00024B4
:101E9000294B1B681B680BB9012300E0002323B109
:101EA0004FF0FF32274B1A602AE0234B1B68DB6898
:101EB000DE6873689D4202D2224A136020E0371D1B
:101EC0003846FFF783FCB36A1BB106F11800FFF731
:101ED0007DFCF36A012202FA03F11B4802680A43FF
:101EE000026003EB83039A00394618481044FFF759
:101EF00047FCF26A164B1B68DB6A9A42C5D2C7E7F9
:101F0000134B1B68DB6A03EB83039A000F4B9B5850
:101F1000012B06D806E00F4A136801331360002432
:101F200000E001240C4B1B6803B101242046F8BDDE
:101F3000E000002008010020300000204C000020BC
:101F40002C0000200C010020500100205400002033
:101F5000EC000020500000205401002038B5344B24
:101F60001B6843B94FF0500383F31188BFF36F8FA1
:101F7000BFF34F8FFEE7FFF79DFC2D4B1A68013A28
:101F80001A601B68002B4CD12A4B1B6833BB002402
:101F90004AE0294BDB68DC6804F11800FFF716FC07
:101FA000251D2846FFF712FCE36A012202FA03F11D
:101FB000224802680A43026003EB83039A00294621
:101FC0001F481044FFF7DCFBE26A1E4B1B68DB6A0C
:101FD0009A4204D301221C4B1A6000E00024164BE5
:101FE0001B68002BD5D10CB1FFF776FD174B1C6891
:101FF00054B1FFF721FF10B10122134B1A60013CCD
:10200000F7D10022114B1A600F4B1B685BB14FF0E8
:1020100080520F4B1A60BFF34F8FBFF36F8F0124B5
:1020200002E0002400E00024FFF766FC204638BDF3
:10203000E0000020E8000020F00000205001002017
:1020400054000020EC00002054010020500000202B
:1020500004ED00E010B5A8B10446104B1B6843B175
:102060004FF0500383F31188BFF36F8FBFF34F8F8F
:10207000FEE7FFF7D9FE00212046FFF719FEFFF724
:102080006DFF00E0002038B94FF08052044B1A6019
:10209000BFF34F8FBFF36F8F10BD00BFE000002074
:1020A00004ED00E010B51BE0FFF7BEFE0F4B1C680F
:1020B000FFF754FFA4B1FFF7FDFB0C4BDB68DC68B6
:1020C000201DFFF783FB0A4A1368013B1360094A8E
:1020D0001368013B1360FFF70FFC2046FFF716FD66
:1020E000044B1B68002BDFD110BD00BF380000205F
:1020F000E8000020E400002008B5FFF7D3FF064BFE
:102100001B68012BF9D94FF08052044B1A60BFF3C2
:102110004F8FBFF36F8FF0E75400002004ED00E015
:102120001F4B1B681BB101221E4B1A607047002217
:102130001C4B1A601C4B1B68B3FA83F3DBB2C3F170
:102140001F0303EB83018A0018498A5842B94FF0F4
:10215000500383F31188BFF36F8FBFF34F8FFEE7F8
:1021600030B4124D9900CA1890002844426854684F
:10217000446019448A0008322A44944205D16068B8
:1021800003EB83018A002A44506003EB83039A0027
:10219000064B1A445368DA68054B1A6030BC704726
:1021A000E0000020540100205001002054000020D5
:1021B000EC000020054B1B6823B1054B1B681BB9C5
:1021C0000220704701207047002070473400002033
:1021D000E0000020124A12F0070F07D0D11D21F0B5
:1021E0000701C1F5406313440A4601E04FF4406320
:1021F0000C480260002141601344083B23F00703B0
:102200000948036059601960991A51601360074BBF
:102210001960074B19604FF00042064B1A60704777
:1022200068010020600100205C0100206C0D00208E
:1022300058010020680D0020134B00E013461A6877
:102240008242FBD310B45C681919884203D14168FB
:10225000214459601846446801198A420CD10B493F
:1022600009688A4206D05268224442601A6812689D
:10227000026002E0016000E00260984200D0186055
:102280005DF8044B704700BF600100205C01002036
:1022900070B50446FFF7C8FD394B1B680BB9FFF753
:1022A00099FF384B1B681C4253D194B1083414F089
:1022B000070F0ED024F00704083404F0070343B1DD
:1022C0004FF0500383F31188BFF36F8FBFF34F8F2D
:1022D000FEE7002C3FD02C4B1B689C423DD82B4B7B
:1022E0001D6801E02B4615466A68944202D92A68A7
:1022F000002AF7D1224A1268954230D01E6808366B
:102300002A681A606B681B1B102B10D9281910F053
:10231000070F08D04FF0500383F31188BFF36F8F7E
:10232000BFF34F8FFEE743606C60FFF785FF6A687D
:1023300015490B689B1A0B60154909688B4201D23D
:1023400013490B600F4B1B681A436A6000232B6014
:1023500006E0002604E0002602E0002600E0002659
:10236000FFF7FCFD16F0070F08D04FF0500383F382
:102370001188BFF36F8FBFF34F8FFEE7304670BDFC
:102380005C010020680D0020580100206001002041
:102390006C0D0020A0B338B50346A0F1080550F835
:1023A000042C1849096812EA010408D14FF05003BF
:1023B00083F31188BFF36F8FBFF34F8FFEE750F8A1
:1023C000080C40B14FF0500383F31188BFF36F8FB7
:1023D000BFF34F8FFEE794B188B91C4622EA010291
:1023E00043F8042CFFF720FD54F8043C064A11681A
:1023F0000B4413602846FFF71FFFFFF7AFFD38BD02
:10240000704700BF680D002058010020DFF834D06D
:10241000002103E00C4B5B58435004310B480C4B3C
:1024200042189A42F6D30B4A02E0002342F8043BDA
:10243000094B9A42F9D3FDF725FFFDF7FBFEFEF7A6
:1024400069FCFEE7003000200425000800000020A1
:102450000800002008000020BC0D0020FEE700005E
:10246000F8B500BFF8BC08BC9E467047F8B500BF81
:08247000F8BC08BC9E46704751
:10247800E8240008F50B0008000000000000000038
:1024880080000000DC2400082D170008FDFF000074
:1024980000000000800000000000000000000000B4
:1024A80001020304060708090102030405060708D8
:1024B800090A0B0C0D0E0F10020304050607080984
:1024C8000A0B0C0D0E0F10105372632F6D61696E9D
:1024D8002E63000070776D5F7461736B00000000FD
:1024E80064656661756C745461736B0049444C454E
:0424F80000000000E0
:0424FC00FD010008D6
:04250000D5010008F9
:0825040000127A00AAAAAAAA9B
:040000050800240DBE
:00000001FF
