:020000040800F2
:1000000000300020193A0008693A0008693A0008EF
:10001000693A0008693A0008693A000800000000DF
:100020000000000000000000000000004115000872
:10003000693A000800000000E115000835130008C7
:10004000693A0008693A0008693A0008693A000804
:10005000693A0008693A0008693A0008693A0008F4
:10006000693A0008693A0008693A0008693A0008E4
:10007000693A0008693A0008693A0008693A0008D4
:10008000693A0008693A00083D130008693A000817
:10009000693A0008693A0008693A0008693A0008B4
:1000A0004D130008693A0008693A0008693A0008E7
:1000B000693A0008693A000800000000693A00083F
:1000C000693A00080000000000000000693A0008DA
:1000D00000000000693A0008693A0008693A00081F
:1000E000693A0008693A00080000000000000000BA
:1000F0000000000000000000000000000000000000
:1001000000000000000000000000000000000000EF
:100110000000000000000000693A0008693A000889
:1001200000000000000000000000000000000000CF
:1001300000000000000000000000000000000000BF
:10014000693A0008693A0008000000000000000059
:10015000000000000000000000000000000000009F
:10016000000000000000000000000000000000008F
:10017000000000000000000000000000000000007F
:0801800000000000693A0008CC
:10019000044B05481B1A062B02D9044B03B1184720
:1001A000704700BF0B000020080000200000000086
:1001B00005490648091A891001EBD171491002D08E
:1001C000034B03B1184770470800002008000020C7
:1001D0000000000010B5064C237843B9FFF7D8FFA4
:1001E000044B13B10448AFF300800123237010BD0A
:1001F00008000020000000006C3A000808B5084B19
:100200001BB108490848AFF300800848036813B9D8
:10021000BDE80840CCE7064B002BF9D09847F7E73C
:10022000000000000C0000206C3A000808000020CC
:100230000000000070B50F4E0F4D761BB61018BFB2
:10024000002405D0013455F8043B9847A642F9D163
:100250000A4E0B4D761B03F009FCB61018BF0024A4
:1002600006D0013455F8043B9847A642F9D170BD39
:1002700070BD00BF543B0008543B0008583B0008C9
:10028000543B0008704700BF0268D36843F0010385
:10029000D3600268136843F00103136000207047C5
:1002A000704700BF704700BF704700BF704700BF76
:1002B00010B5044603681A6912F0020F17D0DA6805
:1002C00012F0020F13D06FF002021A6101230377BC
:1002D00003689B6913F0030F02D0FFF7E3FF04E00C
:1002E000FFF7DEFF2046FFF7DFFF002323772368B9
:1002F0001A6912F0040F19D0DA6812F0040F15D041
:100300006FF004021A610223237723689B6913F4B8
:10031000407F03D02046FFF7C5FF05E02046FFF7EA
:10032000BFFF2046FFF7C0FF0023237723681A6929
:1003300012F0080F19D0DA6812F0080F15D06FF01C
:1003400008021A61042323772368DB6913F0030F83
:1003500003D02046FFF7A6FF05E02046FFF7A0FFE9
:100360002046FFF7A1FF0023237723681A6912F0C4
:10037000100F19D0DA6812F0100F15D06FF01002BC
:100380001A61082323772368DB6913F4407F03D0C5
:100390002046FFF787FF05E02046FFF781FF204654
:1003A000FFF782FF0023237723681A6912F0010FF9
:1003B00009D0DA6812F0010F05D06FF001021A615E
:1003C000204601F071FC23681A6912F0800F09D0F1
:1003D000DA6812F0800F05D06FF080021A612046B3
:1003E00001F00CFF23681A6912F0400F09D0DA6897
:1003F00012F0400F05D06FF040021A612046FFF75F
:1004000055FF23681A6912F0200F09D0DA6812F03C
:10041000200F05D06FF020021A61204601F0ECFE9B
:1004200010BD00BF0368224A904206D0B0F1804F51
:1004300003D0A2F59432904203D123F070034A68AE
:1004400013431B4A904212D0B0F1804F0FD0A2F557
:10045000943290420BD002F59E32904207D002F5C2
:100460008062904203D002F58062904203D123F46F
:100470004073CA68134323F080034A69134303603F
:100480008B68C3620B688362094B98420BD003F5FB
:10049000A053984207D003F58063984203D003F538
:1004A0008063984201D10B69036301234361704764
:1004B000002C0140B8B110B5044690F83D3013F05F
:1004C000FF0F04D1002380F83C30FFF7DBFE02234E
:1004D00084F83D30211D2068FFF7A4FF012384F834
:1004E0003D30002010BD0120704700BFB8B110B5ED
:1004F000044690F83D3013F0FF0F04D1002380F83C
:100500003C3001F0EDFA022384F83D30211D2068D3
:10051000FFF788FF012384F83D30002010BD012043
:10052000704700BF30B4036A23F001030362026A1C
:100530004468836923F4803323F073030D682B43ED
:1005400022F002028D682A43184DA8420BD005F50F
:10055000A055A84207D005F58065A84203D005F54F
:100560008065A84205D122F00802CD682A4322F016
:1005700004020E4DA8420BD005F5A055A84207D0A5
:1005800005F58065A84203D005F58065A84205D130
:1005900024F440754C692C438D692C43446083617D
:1005A0004B684363026230BC704700BF002C0140BF
:1005B00030B4036A23F010030362036A446882695B
:1005C00022F0807222F4E6420D6842EA052223F00E
:1005D00020038D6843EA0513134DA84206D123F08A
:1005E0008003CD6843EA051323F040030E4DA84273
:1005F0000BD005F5A055A84207D005F58065A842A7
:1006000003D005F58065A84207D124F440644D6904
:1006100044EA85048D6944EA8504446082614A683D
:100620008263036230BC7047002C014030B4036A1F
:1006300023F480730362036A4468C26922F480323F
:1006400022F073020D682A4323F400738D6843EA95
:100650000523144DA84206D123F40063CD6843EA74
:10066000052323F480630F4DA8420BD005F5A05558
:10067000A84207D005F58065A84203D005F580653E
:10068000A84207D124F440544D6944EA05148D6909
:1006900044EA05144460C2614A68C263036230BC24
:1006A000704700BF002C014030B4036A23F480532C
:1006B0000362026A4468C36923F0807323F4E6434B
:1006C0000D6843EA052322F400528D6842EA0532A0
:1006D0000D4DA8420BD005F5A055A84207D005F551
:1006E0008065A84203D005F58065A84204D124F4B2
:1006F00080444D6944EA85144460C3614B680364D7
:10070000026230BC704700BF002C01400A4B1B68DE
:100710001B680BB9012300E0002323B14FF0FF3227
:10072000064B1A607047044B1B68DB68DB685A682D
:10073000024B1A60704700BF28000020040100200F
:1007400010B50446006B00F043FD204600F040FD6C
:1007500010BD00BF2DE9F04780469946089D099FCE
:100760000A9C236B02F18042013A03EB820626F0D9
:100770000706002306E0C85CE21882F83400CA5C71
:1007800012B101330F2BF6D9002384F84330062D24
:1007900000D90625E56265644FF0000AC4F848A058
:1007A000201D00F007FE04F1180000F003FE246194
:1007B000C5F10705A5616462C4F84CA084F850A097
:1007C0004A464146304600F0A1FE206007B13C6039
:1007D000BDE8F08738B5002407E004EB84029300FD
:1007E0000E48184400F0DAFD0134062CF5D90C4D02
:1007F000284600F0D3FD0B4C204600F0CFFD0A4800
:1008000000F0CCFD094800F0C9FD094800F0C6FD24
:10081000084B1D60084B1C6038BD00BF4C00002019
:100820000C01002020010020E80000203000002002
:1008300034010020280000204400002010B50446A8
:1008400000F090FE204A1368013313601F4B1B68B1
:100850003BB91E4B1C601368012B0DD1FFF7BAFF8B
:100860000AE01B4B1B683BB9184B1B68DA6AE36A4A
:100870009A4201D8154B1C60164A13680133136065
:10088000E36A012202FA03F1134802680A43026094
:1008900003EB83039A00211D1048104400F08EFDE5
:1008A00000F082FE0A4B1B686BB1084B1B68DA6ACA
:1008B000E36A9A4207D24FF08052094B1A60BFF3A5
:1008C0004F8FBFF36F8F10BDE0000020E4000020C9
:1008D0002C00002008010020480100204C000020CE
:1008E00004ED00E070B504460E461D4B1D681D4B1F
:1008F0001868043000F088FD50B91A4B1B68DA6A9A
:10090000012303FA02F218490B6823EA02030B6081
:10091000B4F1FF3F07D136B1124B196804311348C7
:1009200000F04CFD70BD2C440E4B1B685C60A54272
:1009300007D90F4B18680B4B1968043100F04AFDBA
:1009400070BD0C4B1868074B1968043100F042FD6C
:10095000094B1B689C4201D2074B1C6070BD00BF55
:1009600000010020E40000204801002034010020A4
:100970004400002028000020040100202DE9F0435D
:1009800085B006460F4615469846900000F09EFB3F
:1009900060B18146542000F099FB044610B1C0F8C4
:1009A000309004E0484600F013FC00E000248CB1D5
:1009B0000023039302940D9B01930C9B00934346E9
:1009C0002A4639463046FFF7C5FE2046FFF736FF78
:1009D000012001E04FF0FF3005B0BDE8F08300BF1B
:1009E00000B583B0174B0193002300938022164972
:1009F0001648FFF7C3FF012814D14FF0500383F3CB
:100A00001188BFF36F8FBFF34F8F4FF0FF32104B42
:100A10001A6001220F4B1A6000220F4B1A6000F07F
:100A20003DFE0BE0B0F1FF3F08D14FF0500383F3E0
:100A30001188BFF36F8FBFF34F8FFEE703B05DF8F0
:100A400004FB00BFFC000020D43A00082D0D000874
:100A5000040100202C00002000010020024A13683D
:100A600001331360704700BFD8000020F8B53D4B3C
:100A70001B68002B69D13C4B1D6801351D60C5B951
:100A80003A4B1B681B6843B14FF0500383F3118846
:100A9000BFF36F8FBFF34F8FFEE7344A1168344BBB
:100AA000186810601960334A136801331360FFF748
:100AB0002DFE314B1B689D4203D200243AE00124F5
:100AC00000E00024294B1B681B680BB9012300E0E0
:100AD000002323B14FF0FF32274B1A602AE0234B4B
:100AE0001B68DB68DE6873689D4202D2224A13608D
:100AF00020E0371D384600F087FCB36A1BB106F1D1
:100B0000180000F081FCF36A012202FA03F11B488D
:100B100002680A43026003EB83039A0039461848CF
:100B2000104400F04BFCF26A164B1B68DB6A9A42D9
:100B3000C5D2C7E7134B1B68DB6A03EB83039A003C
:100B40000F4B9B58012B06D806E00F4A1368013360
:100B50001360002400E001240C4B1B6803B1012446
:100B60002046F8BDD8000020000100202800002009
:100B7000440000202400002004010020480100203F
:100B80004C000020E4000020480000204C01002020
:100B900038B5344B1B6843B94FF0500383F31188C9
:100BA000BFF36F8FBFF34F8FFEE700F0DBFC2D4BE1
:100BB0001A68013A1A601B68002B4CD12A4B1B683B
:100BC00033BB00244AE0294BDB68DC6804F11800E1
:100BD00000F01AFC251D284600F016FCE36A0122ED
:100BE00002FA03F1224802680A43026003EB83031E
:100BF0009A0029461F48104400F0E0FBE26A1E4BB1
:100C00001B68DB6A9A4204D301221C4B1A6000E085
:100C10000024164B1B68002BD5D10CB1FFF776FDD5
:100C2000174B1C6854B1FFF721FF10B10122134B81
:100C30001A60013CF7D10022114B1A600F4B1B6860
:100C40005BB14FF080520F4B1A60BFF34F8FBFF371
:100C50006F8F012402E0002400E0002400F0A4FCD7
:100C6000204638BDD8000020E0000020E800002029
:100C7000480100204C000020E40000204C0100202E
:100C80004800002004ED00E010B5A8B10446104B68
:100C90001B6843B14FF0500383F31188BFF36F8F8C
:100CA000BFF34F8FFEE7FFF7D9FE00212046FFF785
:100CB00019FEFFF76DFF00E0002038B94FF08052B9
:100CC000044B1A60BFF34F8FBFF36F8F10BD00BF8F
:100CD000D800002004ED00E010B51BE0FFF7BEFED9
:100CE0000F4B1C68FFF754FFA4B100F03BFC0C4B0A
:100CF000DB68DC68201D00F087FB0A4A1368013BB3
:100D00001360094A1368013B136000F04DFC204654
:100D1000FFF716FD044B1B68002BDFD110BD00BF91
:100D200030000020E0000020DC00002008B5FFF7C4
:100D3000D3FF064B1B68012BF9D94FF08052044BAF
:100D40001A60BFF34F8FBFF36F8FF0E74C000020A6
:100D500004ED00E01F4B1B681BB101221E4B1A6003
:100D6000704700221C4B1A601C4B1B68B3FA83F3BC
:100D7000DBB2C3F11F0303EB83018A0018498A58D1
:100D800042B94FF0500383F31188BFF36F8FBFF365
:100D90004F8FFEE730B4124D9900CA1890002844D6
:100DA00042685468446019448A0008322A449442D4
:100DB00005D1606803EB83018A002A44506003EB8D
:100DC00083039A00064B1A445368DA68054B1A608D
:100DD00030BC7047D80000204C01002048010020A2
:100DE0004C000020E4000020054B1B6823B1054B9C
:100DF0001B681BB902207047012070470020704714
:100E00002C000020D8000020F0B583B00023AFE014
:100E100001249C40224000F0AA804D68022D01D0A0
:100E2000122D10D1DE08083650F826C003F0070551
:100E3000AF000F25BD402CEA050E0D69BD404EEAFE
:100E4000050540F8265005685F000326BE40F643BE
:100E500005EA060E4D6805F00305BD404EEA05059E
:100E600005604D6805F1FF3EBEF1010F03D9112D5C
:100E700001D0122D10D1856806EA050ECD68BD405F
:100E80004EEA05058560456825EA04044D68C5F30A
:100E900000159D4025434560C46826408C68BC40D1
:100EA0003443C4604C6814F0805F60D0344CA56952
:100EB00045F00105A561A46904F001040194019CB9
:100EC0009E08B51C2F4C54F8255003F00304A400D1
:100ED0000F27A74025EA0707B0F1904F0CD02A4D05
:100EE000A8420BD005F58065A84209D005F58065BC
:100EF000A84207D1032506E0002504E0012502E011
:100F0000022500E0052505FA04F43C4302361D4D98
:100F100045F826401D4C2568D44305EA04064F6871
:100F200017F4803F01D042EA0506184D2E606D6827
:100F300004EA05064F6817F4003F01D042EA0506AF
:100F4000124D6E60AD6804EA05064F6817F4801F05
:100F500001D042EA05060D4DAE60ED682C404E68AA
:100F600016F4001F01D042EA0504084AD460013398
:100F70000A6832FA03F47FF44BAF03B0F0BD00BF50
:100F8000001002400000014000040048000401403D
:100F90000AB1816170478162704700BF436959405F
:100FA00041617047842801D00330704700207047AA
:100FB00008B5FFF715FD002008BD00BFF0B585B0EE
:100FC0000F46446805680669B0F90800FFF7EAFFB4
:100FD00003AB019300903B46B2B229462046FFF78F
:100FE000CDFC012801D1039800E0002005B0F0BD40
:100FF00008B508B90120FFE7FFF746FE002008BD4D
:1010000008B5FFF7F1FE012801D000F01BFB08BD79
:10101000124A12F0070F07D0D11D21F00701C1F5C8
:10102000105313440A4601E04FF410530C48026079
:10103000002141601344083B23F007030948036083
:1010400059601960991A51601360074B1960074B7A
:1010500019604FF00042064B1A6070476001002093
:101060005801002054010020642500205001002078
:1010700060250020134B00E013461A688242FBD320
:1010800010B45C681919884203D141682144596041
:101090001846446801198A420CD10B4909688A42F2
:1010A00006D05268224442601A681268026002E068
:1010B000016000E00260984200D018605DF8044BC7
:1010C000704700BF580100205401002070B504464D
:1010D000FFF7C4FC394B1B680BB9FFF799FF384B7E
:1010E0001B681C4253D194B1083414F0070F0ED082
:1010F00024F00704083404F0070343B14FF0500311
:1011000083F31188BFF36F8FBFF34F8FFEE7002C7F
:101110003FD02C4B1B689C423DD82B4B1D6801E0F7
:101120002B4615466A68944202D92A68002AF7D1EC
:10113000224A1268954230D01E6808362A681A6022
:101140006B681B1B102B10D9281910F0070F08D043
:101150004FF0500383F31188BFF36F8FBFF34F8FAE
:10116000FEE743606C60FFF785FF6A6815490B680E
:101170009B1A0B60154909688B4201D213490B6019
:101180000F4B1B681A436A6000232B6006E00026A1
:1011900004E0002602E0002600E00026FFF7F8FC4D
:1011A00016F0070F08D04FF0500383F31188BFF3F8
:1011B0006F8FBFF34F8FFEE7304670BD54010020A4
:1011C00060250020500100205801002064250020E7
:1011D000A0B338B50346A0F1080550F8042C18490F
:1011E000096812EA010408D14FF0500383F3118813
:1011F000BFF36F8FBFF34F8FFEE750F8080C40B17D
:101200004FF0500383F31188BFF36F8FBFF34F8FFD
:10121000FEE794B188B91C4622EA010243F8042C87
:10122000FFF71CFC54F8043C064A11680B44136099
:101230002846FFF71FFFFFF7ABFC38BD704700BF24
:101240006025002050010020074AD36823F4E063A2
:101250001B041B0C000200F4E060184340F0BF6068
:1012600040F40030D060704700ED00E030B4164B21
:10127000DB68C3F30223C3F10704042C28BF042452
:101280001D1D062D01D9DD1E00E00025012303FAF6
:1012900004F4013C2140A940AB40013B1A400A4301
:1012A000002806DA00F00F001201D2B2074B1A54E0
:1012B00007E01201D2B200F1604000F5614080F811
:1012C000002330BC704700BF00ED00E014ED00E0EB
:1012D000420900F01F00012303FA00F0014B43F81C
:1012E0002200704700E100E00138B0F1807F0AD2AF
:1012F000064B5860F021064A82F8231000209860BF
:1013000007221A6070470120704700BF10E000E01C
:1013100000ED00E0042805D1054A136843F00403FA
:1013200013607047024A136823F004031360704788
:1013300010E000E008B5FFF763FE08BD08B50248FD
:1013400001F050FD08BD00BF0826002008B5024886
:10135000FEF7AEFF08BD00BF7C25002008B5074A98
:10136000136843F0100313600320FFF76DFF0020A4
:1013700000F05CF800F04CFB002008BD00200240AB
:10138000024A136801331360704700BF78250020BC
:10139000014B1868704700BF7825002000F1080352
:1013A00043604FF0FF328260C3600361002303603B
:1013B000704700BF00230361704700BF43684B6064
:1013C0009A688A609A68516099600861036801337D
:1013D0000360704730B40D68B5F1FF3F01D1026979
:1013E00007E000F1080200E01A4653681C68A542B5
:1013F000FAD253684B6099608A6051600861036853
:101400000133036030BC70470369426881689160B2
:101410008268416851605A68904201D182685A607E
:1014200000220261186801381860704700B589B061
:10143000002201461820FFF719FF1820FFF748FF88
:10144000144B9A6942F480329A619B6903F48033A9
:101450000193019B02A903A801F042FB01F028FBC4
:101460000D4BA3FB00239B0C013B0C480C4A026074
:1014700040F2E732C2604360002303618360FFF7FC
:1014800019F818B90548FEF7FFFE00E0012009B081
:101490005DF804FB0010024083DE1B437C25002026
:1014A000004001400B4B1B68B3F1FF3F08D04FF0E9
:1014B000500383F31188BFF36F8FBFF34F8FFEE7A5
:1014C0004FF0500383F31188BFF36F8FBFF34F8F3B
:1014D000FEE700BF0000002006480068006880F3B7
:1014E000088862B661B6BFF34F8FBFF36F8F00DF1E
:1014F00000BF000008ED00E0DFF80C00016841F4D7
:10150000700101607047000088ED00E04FF08073CB
:1015100040F8043C21F0010140F8081C054B40F85C
:101520000C3C40F8202C6FF0020340F8243C443877
:10153000704700BFA5140008000000000000000074
:10154000074B19680868B0E8F04F80F30988BFF3CB
:101550006F8F4FF0000080F311887047AFF3008069
:10156000E40000204FF0500383F31188BFF36F8F26
:10157000BFF34F8F0A4A136801331360012B0DD15B
:10158000084B1B6813F0FF0F08D04FF0500383F394
:101590001188BFF36F8FBFF34F8FFEE7704700BF17
:1015A0000000002004ED00E0094B1B6843B94FF038
:1015B000500383F31188BFF36F8FBFF34F8FFEE7A4
:1015C000013B034A13600BB983F31188704700BFD6
:1015D00000000020000000000000000000000000EB
:1015E000EFF30980BFF36F8F154B1A681EF0100FD1
:1015F00008BF20ED108A20E9F04F10604DF8043D3F
:101600004FF0500080F31188BFF34F8FBFF36F8FFF
:10161000FFF7A0FB4FF0000080F3118808BC1968A9
:101620000868B0E8F04F1EF0100F08BFB0EC108A49
:1016300080F30988BFF36F8F704700BFAFF300805E
:10164000E400002008B54FF0500383F31188BFF386
:101650006F8FBFF34F8FFFF709FA18B14FF0805229
:10166000024B1A60002383F3118808BD04ED00E0EB
:10167000064B1B68064AA2FB03239B09013B054A54
:1016800013600722044B1A60704700BF040000205B
:10169000D34D621014E000E010E000E0314B1A6816
:1016A000314B9A4208D14FF0500383F31188BFF3B6
:1016B0006F8FBFF34F8FFEE72A4B1A682B4B9A426E
:1016C00008D14FF0500383F31188BFF36F8FBFF33E
:1016D0004F8FFEE700B583B0254B1A78D2B2019246
:1016E000FF221A701B78DBB28DF803309DF80330AF
:1016F00003F050031F4A137007221F4B1A6009E0C2
:101700001D4A1368013B13609DF803305B00DBB298
:101710008DF803309DF8033013F0800FF0D1164A96
:1017200013681B0203F4E0631360019BDBB2104AF1
:101730001370124B1A6842F470021A601A6842F071
:1017400070421A60FFF794FF00220D4B1A60FFF7FA
:10175000D3FE0C4A136843F040431360FFF7BCFE0E
:10176000FFF7A0FE00ED00E071C20F4170C20F4113
:1017700000E400E0682500206C25002020ED00E05A
:101780000000002034EF00E0F0B583B004460368A9
:1017900013F4803F00F08A805F4BDB6913F0805FB9
:1017A0000BD15D4BDA6942F08052DA61DB6903F0FC
:1017B00080530193019B012500E00025574B1B68D6
:1017C00013F4807F13D1554A136843F48073136078
:1017D000FFF7DEFD064605E0FFF7DAFD801B642813
:1017E00000F292804D4B1B6813F4807FF4D04A4B7B
:1017F0001B6A13F440734DD0626802F44072934246
:1018000048D0454E306A20F440774FF4803191FA49
:10181000A1F3B3FA83F3424A13449B004FF0010E45
:10182000C3F800E091FAA1F1B1FA81F10A44920003
:1018300000231360376210F0010F2BD0FFF7A8FDD3
:10184000064606E0FFF7A4FD801B41F2883398426C
:101850005CD8022393FAA3F293FAA3F3B3FA83F3C7
:101860005B0943F00203DBB2022B02D12A4B196A57
:1018700004E0022393FAA3F3274B596A022393FA55
:10188000A3F3B3FA83F303F01F03012202FA03F375
:101890001942D7D020490B6A23F44072636813437E
:1018A0000B621DB1CB6923F08053CB61236813F029
:1018B000010F06D018490B6B23F00302A3681343F2
:1018C0000B63236813F0200F06D013490B6B23F032
:1018D0001002E36813430B63236813F0800F06D0F4
:1018E0000D49CB6A23F4F87223691343CB62236852
:1018F00013F4805F0CD008490B6B23F4807263698A
:1019000013430B63002004E0032002E0032000E007
:10191000002003B0F0BD00BF001002400070004086
:10192000008190101549D1F8883043F47003C1F854
:101930008830134B1A6842F001021A605868114A45
:1019400002405A601A6822F0847222F480321A60CF
:101950001A6822F480221A605A6822F4FE025A6041
:10196000DA6A22F00F02DA62186B074A02401A6341
:1019700000229A604FF000638B60704700ED00E03A
:10198000001002400CC07FF8CCFC00FF08B501F04D
:101990001DFA034B18600122024B1A6008BD00BFFC
:1019A000742500207025002010B582B000238DF82A
:1019B00007300E4B01220DF107010D4801F038FFF1
:1019C0009DF80730062B0DD109E040210948FFF7AB
:1019D000E5FA4FF4FA70FFF70BFB013400E0002446
:1019E000012CF2DD0120FFF703FBE2E7FFFF0F0010
:1019F0005C2600200004004808B50120FFF7F8FA33
:101A0000FBE700BF08B50120FFF7F2FAFBE700BFD4
:101A100000B583B01C4B9A6942F001029A619B6940
:101A200003F001030193019B0320FFF70DFC00224B
:101A300011466FF00B00FFF719FC002211466FF002
:101A40000A00FFF713FC002211466FF00900FFF7B0
:101A50000DFC002211466FF00400FFF707FC002286
:101A600011466FF00300FFF701FC00220F216FF019
:101A70000100FFF7FBFB00220F214FF0FF30FFF7C3
:101A8000F5FB03B05DF804FB001002400368B3F1FE
:101A9000A04F23D110B586B003F1704303F5043392
:101AA0005A6942F080525A615B6903F08053009397
:101AB000009B01230193032302930024039401A9B3
:101AC0004FF09040FFF7A0F9224605211220FFF7C2
:101AD000CDFB1220FFF7FCFB06B010BD704700BF26
:101AE0000268084B9A420CD182B003F50333DA69DD
:101AF00042F00202DA61DB6903F002030193019B09
:101B000002B070470004004002680A4B9A4210D1AC
:101B100000B587B01223019302230293002203929F
:101B20000492059301A90448FFF76EF907B05DF828
:101B300004FB7047000400400004004800B589B071
:101B400003681F4A93421AD11E4B9A6942F480429D
:101B50009A619B6903F480430193019B4FF4C06336
:101B6000039302230493012305930323069307237E
:101B7000079303A94FF09040FFF746F91CE0124A83
:101B8000934219D10F4BDA6942F40032DA61DB6912
:101B900003F400330293029B48F2040303930223ED
:101BA000049301230593032306930723079303A9B3
:101BB0004FF09040FFF728F909B05DF804FB00BF33
:101BC000003801400010024000440040F0B589B0E8
:101BD0002C4B5A6942F480025A615A6902F480021D
:101BE0000092009A5A6942F400325A615A6902F42A
:101BF00000320192019A5A6942F480225A615B696B
:101C000003F480230293029B1F4F002203213846D6
:101C1000FFF7BEF900224FF410614FF09040FFF73C
:101C2000B7F91A4D002268212846FFF7B1F90323BE
:101C300003930126049600240594069403A93846CC
:101C4000FFF7E2F84FF410630393049605940694AB
:101C500003A94FF09040FFF7D7F828230393049689
:101C60000594069403A92846FFF7CEF84023039372
:101C7000112304930594069403A92846FFF7C4F89A
:101C800009B0F0BD001002400014004800040048F4
:101C900008B508210348FFF781F94FF47A70FFF780
:101CA000A7F9F6E70004004808B50268024B9A421B
:101CB00001D1FFF765FB08BD00400140FEE700BF12
:101CC00000B58BB02248234B036040F2E7334360FA
:101CD0000023836040F27F22C26003618361FEF7CC
:101CE00005FC20B140F237111B48FFF7E7FF002346
:101CF0000793099307A9164800F056FA20B14FF44C
:101D00009F711548FFF7DAFF6023009340F23F13FD
:101D1000019300220292049269460D4800F0A8F94E
:101D200020B140F247110C48FFF7C8FF0C2269466A
:101D3000074800F09DF920B14FF4A6710648FFF75F
:101D4000BDFF0348FFF7E0FE0BB05DF804FB00BFEA
:101D5000C825002000040040F43A000800B58BB00C
:101D60001F484FF0A043036000234360836003617A
:101D7000C361436203630122C262C36002624363C0
:101D8000042242618361836300F012FF20B14FF4AB
:101D900087711448FFF792FF0AA9002341F80C3D10
:101DA0000F4801F03DFB20B14FF48B710D48FFF758
:101DB00085FF0123019302930023049303220392DE
:101DC0000593069301A9064801F074F920B140F289
:101DD00023110448FFF772FF0BB05DF804FB00BF4E
:101DE00008260020F43A000808B50C480C4B0360A4
:101DF0004FF4164343600023C36003610C22426129
:101E00008361C3610362436201F0D0FD20B140F2FF
:101E100077110448FFF752FF08BD00BFCC26002011
:101E200000440040F43A000808B50D480D4B03602B
:101E30004FF4164343604FF0805383600023C36028
:101E400003610C2242618361C3610362436201F05A
:101E5000ADFD20B140F263110348FFF72FFF08BD2D
:101E60005C26002000380140F43A000800B597B025
:101E700002230C930122109210221192139300233B
:101E800014934FF4601315930CA800F0B9F918B12E
:101E9000D0211C48FFF712FF0F230793022108915E
:101EA000002309934FF480620A920B9307A800F075
:101EB000EFFC18B1DE211348FFF700FF81230193E7
:101EC000002303934FF48073059301A8FFF75CFC94
:101ED00018B1E6210B48FFF7F1FE00F0CBFD0A4BED
:101EE000A3FB00308009FFF7FFF90420FFF712FA87
:101EF00000220F214FF0FF30FFF7B8F917B05DF85F
:101F000004FB00BFF43A0008D34D621070B594B0E2
:101F1000FFF724FAFFF7AAFFFFF758FEFFF7D0FEFE
:101F2000FFF71CFFFFF760FFFFF77EFF1A4C0FADB6
:101F300026460FCE0FC533682B6000210FA8FFF790
:101F40003DF8164B18600AAD04F114060FCE0FC50C
:101F500033682B6000210AA8FFF730F8104B186097
:101F600005AD04F128060FCE0FC533682B600021A4
:101F700005A8FFF723F80B4B18606D463C340FCCD7
:101F80000FC523682B6000216846FFF717F8064B42
:101F90001860FFF70DF8FEE7843A0008BC25002022
:101FA000C4250020C02500203C27002030B4036A4F
:101FB00023F480330362036A4468426D22F4803262
:101FC00022F070020D682A4323F400338D6843EA3F
:101FD00005430D4DA8420BD005F5A055A84207D0EA
:101FE00005F58065A84203D005F58065A84204D1B7
:101FF00024F480344D6944EA0524446042654A680B
:102000008265036230BC7047002C014030B4036A23
:1020100023F480130362026A4468436D23F08073E3
:1020200023F4E0430D6843EA052322F400128D688F
:1020300042EA05520D4DA8420BD005F5A055A84225
:1020400007D005F58065A84203D005F58065A84254
:1020500004D124F480244D6944EA85244460436516
:102060004B68C365026230BC704700BF002C014062
:1020700038B590F83C30012B00F093800D460446B3
:10208000012380F83C30022380F83D30142A00F20E
:102090008180DFE802F00B7F7F7F1E7F7F7F327FB2
:1020A0007F7F457F7F7F597F7F7F6C000068FEF7D1
:1020B00039FA2268936943F00803936122689369AF
:1020C00023F004039361226891692B690B439361A8
:1020D00060E00068FEF76CFA2268936943F40063DD
:1020E00093612268936923F4806393612268936902
:1020F000296943EA012393614CE00068FEF796FAF0
:102100002268D36943F00803D3612268D36923F0BE
:102110000403D3612268D1692B690B43D36139E091
:102120000068FEF7C1FA2268D36943F40063D36103
:102130002268D36923F48063D3612268D369296953
:1021400043EA0123D36125E00068FFF72FFF2268EF
:10215000536D43F0080353652268536D23F0040365
:1021600053652268516D2B690B43536512E000687B
:10217000FFF74CFF2268536D43F4006353652268F8
:10218000536D23F4806353652268536D296943EAD4
:1021900001235365012384F83D30002084F83C007E
:1021A00038BD022038BD00BF90F83C30012B1DD057
:1021B00030B4012380F83C3003685A689D680D4CA8
:1021C000A34203D122F470024C68224322F0700231
:1021D0000C68224325F08004896821435A60036813
:1021E0009960002380F83C30184601E002207047D7
:1021F00030BC7047002C0140704700BF704700BFE3
:1022000070B582B00446036813F0010F00F09D80A2
:10221000B64B5B6803F00C03042B0AD0B34B5B682E
:1022200003F00C03082B1BD1B04B5B6813F4803F09
:1022300016D04FF4003393FAA3F3AC4B19684FF464
:10224000003393FAA3F3B3FA83F303F01F030122DD
:1022500002FA03F3194278D06368002B75D1B8E213
:102260006368B3F5803F05D1A04A136843F4803317
:10227000136026E063B903F1804303F504331A6861
:1022800022F480321A601A6822F480221A6018E060
:10229000B3F5A02F0CD103F18043A3F53C331A68AA
:1022A00042F480221A601A6842F480321A6008E010
:1022B0008E4B1A6822F480321A601A6822F4802247
:1022C0001A608A49CB6A23F00F02A3681343CB62DA
:1022D0006368EBB1FFF75CF8054605E0FFF758F8D7
:1022E000401B642800F277824FF4003393FAA3F383
:1022F0007E4B19684FF4003393FAA3F3B3FA83F3D8
:1023000003F01F03012202FA03F31942E6D01CE096
:10231000FFF73EF8054605E0FFF73AF8401B642852
:1023200000F25B824FF4003393FAA3F36F4B19680A
:102330004FF4003393FAA3F3B3FA83F303F01F03CC
:10234000012202FA03F31942E6D1236813F0020FC7
:1023500000F09080654B5B6813F00C0F0AD0634B64
:102360005B6803F00C03082B27D1604B5B6813F408
:10237000803F22D1022393FAA3F35C4B1968022316
:1023800093FAA3F3B3FA83F303F01F03012202FAD3
:1023900003F3194203D02369934240F0208253484B
:1023A000036823F0F8016369F82292FAA2F2B2FA04
:1023B00082F293400B4303605CE023699BB30122EC
:1023C00092FAA2F3B3FA83F303F1845303F584136F
:1023D0009B001A60FEF7DCFF054605E0FEF7D8FF1C
:1023E000401B022800F2FD81022393FAA3F33F4B26
:1023F0001968022393FAA3F3B3FA83F303F01F03DC
:10240000012202FA03F31942E8D03848036823F0A6
:10241000F8016369F82292FAA2F2B2FA82F29340CA
:102420000B43036026E0012393FAA3F3B3FA83F38B
:1024300003F1845303F584139B0000221A60FEF716
:10244000A7FF054605E0FEF7A3FF401B022800F2A8
:10245000CA81022393FAA3F3244B1968022393FA47
:10246000A3F3B3FA83F303F01F03012202FA03F389
:102470001942E8D1236813F0080F55D0A3693BB384
:10248000012191FAA1F2B2FA82F2194B13449B0096
:102490001960FEF77DFF054605E0FEF779FF401B5A
:1024A000022800F2A281022393FAA3F293FAA3F284
:1024B00093FAA3F20D4A516A93FAA3F3B3FA83F3A2
:1024C00003F01F03012202FA03F31942E5D02BE0C7
:1024D000012292FAA2F2B2FA82F2054B13449B0057
:1024E00000221A60FEF754FF054609E00010024082
:1024F00020819010FEF74CFF401B022800F27781EC
:10250000022393FAA3F293FAA3F293FAA3F2BE4A38
:10251000516A93FAA3F3B3FA83F303F01F03012282
:1025200002FA03F31942E5D1236813F0040F00F017
:10253000BA80B54BDB6913F0805F0BD1B24BDA691F
:1025400042F08052DA61DB6903F080530193019B12
:10255000012500E00025AD4B1B6813F4807F13D1EB
:10256000AA4A136843F480731360FEF711FF06460E
:1025700005E0FEF70DFF801B642800F23A81A34BB3
:102580001B6813F4807FF4D0E368012B05D19E4AC9
:10259000136A43F00103136222E063B903F180433D
:1025A00003F504331A6A22F001021A621A6A22F051
:1025B00004021A6214E0052B09D1934B1A6A42F007
:1025C00004021A621A6A42F001021A6208E08E4B93
:1025D0001A6A22F001021A621A6A22F004021A62CE
:1025E000E3686BB3FEF7D4FE064607E0FEF7D0FEC5
:1025F000801B41F28833984200F2FD80022393FA57
:10260000A3F293FAA3F3B3FA83F35B0943F0020353
:10261000DBB2022B02D17C4B196A04E0022393FA4D
:10262000A3F3794B596A022393FAA3F3B3FA83F322
:1026300003F01F03012202FA03F31942D6D02CE063
:10264000FEF7A6FE064607E0FEF7A2FE801B41F25B
:102650008833984200F2D180022393FAA3F293FACE
:10266000A3F3B3FA83F35B0943F00203DBB2022B5B
:1026700002D1654B196A04E0022393FAA3F3624B7B
:10268000596A022393FAA3F3B3FA83F303F01F0307
:10269000012202FA03F31942D6D125B15A4AD3696D
:1026A00023F08053D361E369002B00F0A880564AE1
:1026B000526802F00C02082A00F0A380022B5DD1C0
:1026C0004FF0807393FAA3F3B3FA83F303F18453C7
:1026D00003F584139B0000221A60FEF759FE05469D
:1026E00005E0FEF755FE401B022800F291804FF0F6
:1026F000007393FAA3F3444B19684FF0007393FAF5
:10270000A3F3B3FA83F303F01F03012202FA03F3E6
:102710001942E6D13C48436823F47411636A226A83
:1027200013430B4343604FF0807393FAA3F3B3FA60
:1027300083F303F1845303F584139B0001221A6091
:10274000FEF726FE044604E0FEF722FE001B0228E8
:1027500060D84FF0007393FAA3F32B4B19684FF036
:10276000007393FAA3F3B3FA83F303F01F03012278
:1027700002FA03F31942E7D000204EE04FF08073D5
:1027800093FAA3F3B3FA83F303F1845303F58413A9
:102790009B0000221A60FEF7FBFD044604E0FEF7F2
:1027A000F7FD001B022837D84FF0007393FAA3F30C
:1027B000154B19684FF0007393FAA3F3B3FA83F340
:1027C00003F01F03012202FA03F31942E7D10020AC
:1027D00023E0012021E003201FE003201DE0012071
:1027E0001BE0032019E0032017E0032015E003207D
:1027F00013E0032011E003200FE003200DE0002090
:102800000BE0012009E000BF001002400070004012
:10281000032002E0032000E0032002B070BD00BFEF
:10282000164B5B6803F00C02082A25D103F47011E3
:102830004FF4701292FAA2F2B2FA82F221FA02F284
:102840000F498A5C0D49C96A01F00F000F2191FA06
:10285000A1F1B1FA81F120FA01F10A48405C13F4C8
:10286000803F05D0084BB3FBF0F000FB02F070474F
:10287000064800FB02F07047034870470010024012
:10288000443B0008343B000800127A0000093D0078
:1028900070B5744B1B6803F007038B420BD2714A6F
:1028A000136823F007030B431360136803F0070357
:1028B000994240F0C680036813F0020F06D06A4CBC
:1028C000636823F0F0028368134363600D46044697
:1028D000036813F0010F75D04268012A13D14FF439
:1028E000003393FAA3F3604B18684FF4003393FA64
:1028F000A3F3B3FA83F303F01F03012101FA03F3F7
:10290000184227D19FE0022A13D14FF0007393FAA7
:10291000A3F3554B18684FF0007393FAA3F3B3FA7F
:1029200083F303F01F03012101FA03F3184211D1CD
:102930008BE0022393FAA3F34B4B1868022393FA1C
:10294000A3F3B3FA83F303F01F03012101FA03F3A6
:1029500018427CD044494B6823F0030313434B6077
:10296000FEF716FD06466368012B0ED106E0FEF762
:102970000FFD801B41F2883398426AD83A4B5B685E
:1029800003F00C03042BF2D11CE0022B15D106E05E
:10299000FEF7FEFC801B41F2883398425BD8324B35
:1029A0005B6803F00C03082BF2D10BE0FEF7F0FCA0
:1029B000801B41F2883398424FD82B4B5B6813F051
:1029C0000C0FF3D1274B1B6803F007039D420AD27B
:1029D000244A136823F007032B431360136803F0A2
:1029E00007039D423BD1236813F0040F06D01E4914
:1029F0004B6823F4E062E36813434B60236813F0F1
:102A0000080F07D0184A536823F46053216943EA3A
:102A1000C1035360FFF704FF134B5B6803F0F00240
:102A2000F02393FAA3F3B3FA83F322FA03F30F4AE2
:102A3000D35CD8400E4B18600020FEF7F7FC002056
:102A400070BD012070BD012070BD012070BD01204E
:102A500070BD032070BD032070BD032070BD012038
:102A600070BD00BF0020024000100240DC3A0008A8
:102A700004000020014B1868704700BF04000020CC
:102A800008B5FFF7F7FF084B5B6803F4E0624FF40B
:102A9000E06393FAA3F3B3FA83F322FA03F3034A4E
:102AA000D35CD84008BD00BF00100240EC3A0008DB
:102AB00008B5FFF7DFFF084B5B6803F460524FF483
:102AC000605393FAA3F3B3FA83F322FA03F3034AAE
:102AD000D35CD84008BD00BF00100240EC3A0008AB
:102AE0000F2303600B4B5A6802F0030242605A68DE
:102AF00002F0F00282605A6802F4E062C2605B6831
:102B0000DB0803F4E0630361034B1B6803F0070376
:102B10000B6070470010024000200240704700BF69
:102B2000704700BF38B50268936803F00303012BB8
:102B300005D1136813F0010F03D1002302E0002335
:102B400000E00123002B30D0936803F00D03012B2C
:102B50000BD10446936843F0020393600368032299
:102B60001A60FEF715FC054618E0436C43F01003AD
:102B70004364836C43F001038364012038BDFEF796
:102B800007FC401B022809D9636C43F010036364FF
:102B9000A36C43F00103A364012038BD23689B6844
:102BA00013F0010FEBD1002038BD002038BD00BF6D
:102BB00030B597B000230093002800F0FA80044657
:102BC000436C13F0100F52D1436C002B37D1836448
:102BD0000365C36480F84030FEF758FF23689B68A4
:102BE00013F0805F2DD12046FFF79CFF636C13F03C
:102BF000100F27D130BB636C23F4885323F00203FA
:102C000043F0020363642268936823F040539360A7
:102C10002268936843F080539360674B1B68674A50
:102C2000A2FB03239B0C03EB83035A00009202E0F8
:102C3000009B013B0093009B002BF9D102E0002098
:102C400000E0002023689A6812F0805F03D09B6840
:102C500013F0005F0CD0636C23F0120343F01003F9
:102C60006364A36C43F00103A364012000E000202F
:102C7000636C13F0100F40F09480002840F09180B6
:102C800023689A6812F0040140F08B80626C22F491
:102C9000817242F002026264B3F1A04F02D1484A4D
:102CA000019202E04FF0A04201929A6802F0030202
:102CB000012A05D11B6813F0010F03D1002302E0A4
:102CC000002300E001239BB9019D55B1AA6802F0E1
:102CD0000302012A04D12A6812F0010F00D0012357
:102CE00033B9384DAB6823F4403263681343AB60AB
:102CF000E5696B03A26B012A01D04FF4805141EAD0
:102D00000302E3681343A2681A43636A012B11D1DB
:102D100035B9A36A013B42EA434343F4803209E0F8
:102D2000636C23F0220343F020036364A36C43F03D
:102D30000103A364E16A012902D0236B0B431A4308
:102D40002368996811F00C0F0BD1D96821F48041E8
:102D500021F00201D960A169636B5B0043EA813312
:102D60001A432168CD68184B2B401343CB6023696D
:102D7000012B08D121680B6B23F00F02236A013B62
:102D800013430B6304E02268136B23F00F031363F8
:102D90000023A364636C23F0030343F00103636423
:102DA00008E0636C23F0120343F010036364012016
:102DB00000E0012017B030BD0400002083DE1B437B
:102DC000000100500003005007C0F0FF0368186CBA
:102DD000704700BF704700BF704700BF704700BF1B
:102DE000704700BF10B5044603681A6812F0040F5C
:102DF00003D05A6812F0040F07D11A6812F0080FB6
:102E000052D05A6812F0080F4ED0626C12F0100FB8
:102E100003D1626C42F400726264A54A926812F0B7
:102E20001F0F0ED0A24A926802F01F02052A08D096
:102E30009F4A926802F01F02092A02D0B3F1A04F04
:102E400001D1D96802E04FF0A042D168DA6812F4EB
:102E5000406F23D111F4005F20D11A6812F0080FDF
:102E60001CD09A6812F0040F10D15A6822F00C029C
:102E70005A60636C23F480736364636C13F4805F43
:102E80000CD1636C43F00103636407E0636C43F0AF
:102E900010036364A36C43F00103A3642046FEF7B0
:102EA00075FD23680C221A6023681A6812F0200F3F
:102EB00003D05A6812F0200F07D11A6812F0400FA1
:102EC00071D05A6812F0400F6DD0626C42F400521B
:102ED0006264774A926812F01F0F0ED0744A9268AB
:102EE00002F01F02052A08D0714A926802F01F0200
:102EF000092A02D0B3F1A04F01D1D96802E04FF006
:102F0000A042D168DA6C12F0C00F09D011F0007F36
:102F100043D1DA6812F4406F3FD111F4005F3CD125
:102F20001A6812F0400F38D0614A926812F01F0FF1
:102F30000ED05F4A926802F01F02062A08D05C4A4F
:102F4000926802F01F02072A02D0B3F1A04F01D10C
:102F5000DA6802E04FF0A042D26812F4001F1CD1E0
:102F60009A6812F0080F10D15A6822F060025A6075
:102F7000636C23F480536364636C13F4807F0CD11F
:102F8000636C43F00103636407E0636C43F0100378
:102F90006364A36C43F00103A3642046FFF71AFFA8
:102FA000236860221A6023681A6812F0800F0DD01F
:102FB0005B6813F0800F09D0636C43F48033636463
:102FC0002046FFF7ABFD236880221A6023681A6849
:102FD00012F4807F0ED05B6813F4807F0AD0636C9C
:102FE00043F4003363642046FFF7F8FE23684FF490
:102FF00080721A6023681A6812F4007F0ED05B6832
:1030000013F4007F0AD0636C43F48023636420468A
:10301000FFF7E6FE23684FF400721A6023681A680F
:1030200012F0100F2CD05A6812F0100F28D0A26B9B
:10303000012A11D01E4A926812F01F0F05D1DB68D9
:1030400013F0010F0AD100230BE0194B9B6813F416
:10305000404F05D1002304E0012302E0012300E0FA
:10306000012353B1636C43F480636364A36C43F046
:103070000203A3642046FFF753FD236810221A6061
:1030800023681A6812F4806F11D05A6812F4806FA6
:103090000DD0626C42F480426264A26C42F008027D
:1030A000A2644FF480621A602046FFF795FE10BDBF
:1030B0000003005070B497B00023009390F84030A4
:1030C000012B00F09E81012380F840300268936854
:1030D00013F0040F40F083814B68042B0CD8156B60
:1030E00003EB43035E001F23B34025EA03040B6890
:1030F000B340234313632CE0092B0DD8566B03EB2D
:1031000043035C001E3C1F23A34026EA03050B6813
:10311000A3402B4353631CE00E2B0DD8966B03EB9F
:1031200043035C003C3C1F23A34026EA03050B68D5
:10313000A3402B4393630CE0D66B03EB43035C008B
:103140005A3C1F23A34026EA03050B68A3402B43E8
:10315000D3630268936813F00C0F40F088800B680B
:10316000092B0DD9946903EB43031E3B07259D40B2
:1031700024EA05058C6804FA03F32B4393610BE002
:10318000546903EB430307259D4024EA05058C6839
:1031900004FA03F32B4353614A690468E368C3F3F9
:1031A000C1035B0002FA03F30A69013A032A2FD82C
:1031B000DFE802F0020D1823226E944D15400A68D4
:1031C00043EA82632B4343F0004323664FE0626E81
:1031D0008E4D15400A6843EA82632B4343F0004357
:1031E000636644E0A26E894D15400A6843EA826333
:1031F0002B4343F00043A36639E0E56E834A2A403F
:103200000D6843EA8563134343F00043E3662EE011
:10321000236E03F0F8430A68B3EB826F03D1236E89
:1032200023F0004323660268536E03F0F8430C68F2
:10323000B3EB846F03D1536E23F0004353660268EF
:10324000936E03F0F8430C68B3EB846F03D1936E75
:1032500023F0004393660268D36E03F0F8430C68D2
:10326000B3EB846F03D1D36E23F00043D3660268BF
:10327000936803F00303012B05D1136813F0010FCA
:1032800003D1002502E0002500E00125002D40F0DB
:10329000AC80CB68012B09D0D2F8B0400E68012376
:1032A000B34024EA0303C2F8B03028E0D2F8B0609B
:1032B0000B68012404FA03F33343C2F8B0300B68FF
:1032C000092B0ED90668B26903EB43031B3B0724A5
:1032D0009C4022EA04048A6802FA03F32343B361A0
:1032E0000DE006687269013303EB430307249C4039
:1032F00022EA04048A6802FA03F3234373610B6829
:10330000102B04D1424A926812F4000F0DD0112BF9
:1033100004D13F4A926812F0807F06D0122B66D10A
:103320003B4A926812F4800F63D10168B1F1A04F5B
:1033300002D1384A019202E04FF0A04201928A681D
:1033400002F00302012A04D10A6812F0010F00D032
:103350000125002D3DD1019C5CB1A26802F0030261
:10336000012A04D1226812F0010F00D00125002D9E
:103370002FD1102B18D1B1F1A04F15D1244A936849
:1033800043F400039360244B1B68244AB3FBF2F21E
:103390000A2303FB02F3009302E0009B013B00932E
:1033A000009B002BF9D127E0112B09D1B1F1A04FDF
:1033B00006D1174A936843F08073936000231BE0A3
:1033C000122B18D1124A936843F4800393600023B0
:1033D00012E0436C43F02003436401230CE0436C90
:1033E00043F020034364012306E0002304E00023AC
:1033F00002E0002300E00023002280F8402018466D
:1034000000E0022017B070BC704700BF00F0FF83DF
:1034100000030050000100500400002040420F0053
:1034200090F84030012B00F08A8070B497B00123EF
:1034300080F840300368B3F1A04F02D1424A0192B4
:1034400002E04FF0A04201929B6813F0040F64D198
:10345000019B9A6812F0040F5FD10A68002A33D0EA
:103460003A4DAA6822F460444A68466B42EA463202
:103470002243AA600468A26802F00302012A05D16F
:10348000226812F0010F03D1002202E0002200E0C6
:103490000122002A47D19C6804F00304012C04D1C6
:1034A0001B6813F0010F00D00122002A3DD1274DE7
:1034B000AB6823F4716424F00F040B688A6813432B
:1034C0002343AB60002335E020498A6822F4604240
:1034D0008A6001688A6802F00302012A05D10A683D
:1034E00012F0010F03D1002202E0002200E00122CD
:1034F000EAB9996801F00301012904D11B6813F0AE
:10350000010F00D00122A2B9104A936823F471631D
:1035100023F00F03936000230CE0436C43F020037F
:103520004364012306E0002304E0002302E00023BB
:1035300000E00023002280F84020184601E002202D
:10354000704717B070BC7047000100500003005076
:1035500038B50446826803691A4343691A43C3694C
:103560001A4301680868634B034013430B602168EA
:103570004B6823F44052E36813434B60A269236A0B
:103580001A4321688B6823F4306313438B602568EA
:10359000594B9D4212D103F558431B6B03F00303B3
:1035A000032B09D8DFE803F002040613002313E01D
:1035B000042311E008230FE010230DE04F4B9D4240
:1035C00007D003F580639D4205D1002304E0022368
:1035D00002E0002300E01023E269B2F5004F47D17A
:1035E000082B3BD8DFE803F005101B3A263A3A3A9D
:1035F0003100FFF745FA63685A0802EB4000B0FB60
:10360000F3F39BB200202BE0FFF752FA63685A08ED
:1036100002EB4000B0FBF3F39BB2002020E06168B6
:103620004A0802F5740303F51053B3FBF1F39BB2A0
:10363000002015E0FFF7F4F863685A0802EB400039
:10364000B0FBF3F39BB200200AE06268530803F575
:103650008033B3FBF2F39BB2002001E00120002392
:1036600023F00F02C3F3420313432268D36038BD33
:10367000082B3DD8DFE803F005101B3C273C3C3C01
:103680003200FFF7FDF9636800EB5300B0FBF3F085
:1036900080B2E860002038BDFFF70AFA636800EBEB
:1036A0005300B0FBF3F080B2E860002038BD6168E1
:1036B0004A0802F5F40303F59053B3FBF1F39BB210
:1036C000EB60002038BDFFF7ABF8636800EB5300F8
:1036D000B0FBF3F080B2E860002038BD62685308A8
:1036E00003F50043B3FBF2F39BB2EB60002038BD5F
:1036F000012038BDF369FFEF00380140004400406D
:10370000436A13F0010F06D001684B6823F40032BE
:10371000836A13434B60436A13F0020F06D00168BB
:103720004B6823F48032C36A13434B60436A13F03F
:10373000040F06D001684B6823F48022036B134307
:103740004B60436A13F0080F06D001684B6823F4FE
:103750000042436B13434B60436A13F0100F06D0D3
:1037600001688B6823F48052836B13438B60436A38
:1037700013F0200F06D001688B6823F40052C36B4E
:1037800013438B60436A13F0400F11D001684B68FC
:1037900023F48012036C13434B60036CB3F5801F5A
:1037A00006D101684B6823F4C002436C13434B609D
:1037B000436A13F0800F06D001684B6823F400229F
:1037C000836C13434B6070472DE9F04105460F466B
:1037D00016469846069C1EE0B4F1FF3F1BD02CB164
:1037E000FDF7D6FDC8EB0000844214D22A681368A6
:1037F00023F4D07313602A68936823F00103936065
:10380000202385F8693085F86A30002385F8683010
:103810000320BDE8F0812B68DB6937EA03030CBFA6
:1038200001230023B342D7D00020BDE8F08100BFC0
:103830002DE9F04182B01E4690F86A30DBB2202BB1
:1038400071D104460D46904600296ED0002A6ED0F4
:1038500090F86830012B6CD0012380F86830002389
:10386000C366222380F86A30FDF792FD0746A4F86C
:103870005880A4F85A80A368B3F5805F0AD1236901
:1038800023B940F2FF13A4F85C301AE0FF23A4F838
:103890005C3016E04BB923691BB9FF23A4F85C30F8
:1038A0000FE07F23A4F85C300BE0B3F1805F08D118
:1038B00023691BB97F23A4F85C3002E03F23A4F8FE
:1038C0005C30B4F85C8022E0B4F85A309BB2013B23
:1038D0009BB2A4F85A3000963B4600222021204695
:1038E000FFF772FF38BBA368B3F5805F08D1236987
:1038F00033B923689B8C08EA030325F8023B06E0F2
:1039000023689B8C5FFA88F213402B700135B4F862
:103910005A309BB2002BD7D1202384F86A30002084
:1039200084F8680008E0022006E0012004E001209D
:1039300002E0022000E0032002B0BDE8F08100BFF9
:1039400030B583B004460023C366FDF721FD05466C
:1039500023681B6813F0080F0AD06FF07E430093B2
:10396000034600224FF400112046FFF72DFFC0B997
:1039700023681B6813F0040F0AD06FF07E43009396
:103980002B4600224FF480012046FFF71DFF50B95F
:10399000202384F8693084F86A30002084F86800B5
:1039A00002E0032000E0032003B030BD80B310B577
:1039B000044690F8693013F0FF0F04D1002380F81B
:1039C0006830FEF7BBF8242384F869302268136856
:1039D00023F0010313602046FFF7BAFD012819D038
:1039E000636A13B12046FFF78BFE2268536823F405
:1039F000904353602268936823F02A0393602268FF
:103A0000136843F0010313602046FFF799FF10BDD0
:103A10000120704710BD00BFDFF834D0002103E063
:103A20000C4B5B58435004310B480C4B42189A42E4
:103A3000F6D30B4A02E0002342F8043B094B9A42BA
:103A4000F9D3FDF76FFFFCF7F5FBFEF75FFAFEE732
:103A5000003000205C3B000800000020080000202F
:103A60000800002040270020FEE70000F8B500BF56
:103A7000F8BC08BC9E467047F8B500BFF8BC08BC4F
:043A80009E467047A7
:103A8400283B0008911C0008000000000000000012
:103A9400800000001C3B0008A9190008FDFF00007D
:103AA40000000000000100000C3B0008F9190008A8
:103AB400FDFF00000000000000010000003B0008C2
:103AC400051A0008FDFF00000000000000010000CE
:103AD40049444C45000000000000000000000000C4
:103AE40001020304060708090000000001020304A0
:103AF4005372632F6D61696E2E6300007561727479
:103B04005F7461736B0000006164635F646D615F87
:103B14007461736B000000006D6F746F725F746189
:103B2400736B000064656661756C745461736B003B
:103B34000102030405060708090A0B0C0D0E0F10F9
:103B440002030405060708090A0B0C0D0E0F1010DA
:043B5400FD01000867
:043B5800D50100088B
:083B5C00AAAAAAAA00127A002D
:0400000508003A199C
:00000001FF
