:020000040800F2
:1000000000300020E9580008395900083959000823
:100010003959000839590008395900080000000012
:10002000000000000000000000000000212E000879
:100030003959000800000000C12E0008112C0008EA
:100040003959000839590008395900083959000848
:100050003959000839590008395900083959000838
:100060003959000839590008395900083959000828
:100070003959000839590008395900083959000818
:100080003959000839590008192C00083959000855
:1000900039590008395900083959000839590008F8
:1000A000292C000839590008395900083959000825
:1000B0003959000839590008000000003959000872
:1000C00039590008000000000000000039590008FC
:1000D0000000000039590008395900083959000852
:1000E00039590008395900080000000000000000DC
:1000F0000000000000000000000000000000000000
:1001000000000000000000000000000000000000EF
:1001100000000000000000003959000839590008AB
:1001200000000000000000000000000000000000CF
:1001300000000000000000000000000000000000BF
:10014000395900083959000800000000000000007B
:10015000000000000000000000000000000000009F
:10016000000000000000000000000000000000008F
:10017000000000000000000000000000000000007F
:080180000000000039590008DD
:10019000044B05481B1A062B02D9044B03B1184720
:1001A000704700BF6F0000206C00002000000000BE
:1001B00005490648091A891001EBD171491002D08E
:1001C000034B03B1184770476C0000206C000020FF
:1001D0000000000010B5064C237843B9FFF7D8FFA4
:1001E000044B13B10448AFF300800123237010BD0A
:1001F0006C000020000000003C59000808B5084BC6
:100200001BB108490848AFF300800848036813B9D8
:10021000BDE80840CCE7064B002BF9D09847F7E73C
:1002200000000000700000203C5900086C00002015
:100230000000000070B50F4E0F4D761BB61018BFB2
:10024000002405D0013455F8043B9847A642F9D163
:100250000A4E0B4D761B05F071FBB61018BF00243B
:1002600006D0013455F8043B9847A642F9D170BD39
:1002700070BD00BFD85A0008D85A0008DC5A0008E0
:10028000D85A0008844641EA000313F003036DD1F5
:10029000403A41D351F8043B40F8043B51F8043B49
:1002A00040F8043B51F8043B40F8043B51F8043B50
:1002B00040F8043B51F8043B40F8043B51F8043B40
:1002C00040F8043B51F8043B40F8043B51F8043B30
:1002D00040F8043B51F8043B40F8043B51F8043B20
:1002E00040F8043B51F8043B40F8043B51F8043B10
:1002F00040F8043B51F8043B40F8043B51F8043B00
:1003000040F8043B51F8043B40F8043B51F8043BEF
:1003100040F8043B403ABDD2303211D351F8043B8F
:1003200040F8043B51F8043B40F8043B51F8043BCF
:1003300040F8043B51F8043B40F8043B103AEDD23E
:100340000C3205D351F8043B40F8043B043AF9D28F
:10035000043208D0D2071CBF11F8013B00F8013B62
:1003600001D30B8803806046704700BF082A13D36F
:100370008B078DD010F003038AD0C3F10403D21A87
:10038000DB071CBF11F8013B00F8013B80D331F8BB
:10039000023B20F8023B7BE7043AD9D3013A11F83B
:1003A000013B00F8013BF9D20B7803704B784370A6
:1003B0008B7883706046704770B4840746D0541EB3
:1003C000002A41D0CDB2034602E0621EE4B31446D7
:1003D00003F8015B9A07F8D1032C2ED9CDB245EA78
:1003E00005250F2C45EA054519D903F110022646CB
:1003F000103E0F2E42F8105C42F80C5C42F8085C8C
:1004000042F8045C02F11002F2D8A4F1100222F0CA
:100410000F0204F00F041032032C13440DD91E46B2
:100420002246043A032A46F8045BFAD8221F22F037
:1004300003020432134404F003042CB1C9B21C4477
:1004400003F8011BA342FBD170BC7047144603465E
:10045000C2E700BF0EB410B5044683B018B183697B
:100460000BB900F01DF906A803460190059AA16892
:10047000204600F067FA03B0BDE8104003B07047B3
:100480000FB410B50A4B1C6882B024B1A36913B92C
:10049000204600F005F905A803460190049AA168DA
:1004A000204600F04FFA02B0BDE8104004B070479B
:1004B0000000002000207047014900F037B900BF5C
:1004C000851300080020704770B568234D1E03FB9C
:1004D00005F50E4605F1740100F098F9044640B1A7
:1004E00000210C30666005F168022160A060FFF712
:1004F00063FF204670BD00BF1F4B70B51D68AB6920
:10050000064613B9284600F039F848356B68AC68E0
:10051000013B05D521E0013B5A1C04F168041CD0C5
:10052000B4F90C20002AF6D1002501234FF6FF7202
:10053000E281A38165662560A560656025616561CE
:10054000A5612946082204F15C00FFF735FF6563C9
:10055000A563A564E564204670BD2B680BB11D46FC
:10056000D4E704213046FFF7AFFF286008B1054605
:10057000CCE70C23336070BDA45900083D4B3E49C5
:100580001A682DE9F04F90424FF000038364C36472
:10059000036508BF012383B008BF836181620746FA
:1005A000FFF7AAFF78603846FFF7A6FFB860384625
:1005B000FFF7A2FF7D68F86000240423AB812C6064
:1005C0006C60AC606C66EC812C616C61AC61214646
:1005D00005F15C000822FFF7EFFEBE68DFF89CB073
:1005E000DFF89CA0DFF89C90DFF89C80C5F824B071
:1005F00001230922C5F828A0C5F82C90C5F8308041
:100600002D622146F381B28134607460B4607466F7
:1006100034617461B46106F15C0008220193FFF754
:10062000CBFEFD68366212200222C6F824B0C6F85E
:1006300028A0C6F82C90C6F830802146A881EA810F
:100640002C606C60AC606C662C616C61AC6105F117
:100650005C000822FFF7B0FE019B2D62C5F824B0B4
:10066000C5F828A0C5F82C90C5F83080BB6103B050
:10067000BDE8F08FA4590008B9040008C10F0008B4
:10068000E90F00082510000845100008024B034937
:10069000186800F04BB800BFA45900088513000883
:1006A000836903B96AE77047704700BF704700BFAE
:1006B000704700BF704700BF024B0349186800F045
:1006C0000FB800BF00000020C5040008024B03491A
:1006D000186800F005B800BF00000020B50400084D
:1006E0002DE9F04110F148071BD0884600267D68AF
:1006F000BC68013D0FD4A389012B05F1FF3506D954
:10070000B4F90E300133204601D0C04706436B1CBC
:1007100004F16804EFD13F68002FE8D13046BDE80E
:10072000F0813E463046BDE8F08100BF2DE9F84338
:1007300010F148071FD0884606464FF000097D6833
:10074000BC68013D11D4A389012B05F1FF3508D9FF
:10075000B4F90E3001332146304602D0C04749EA91
:1007600000096B1C04F16804EDD13F68002FE6D14D
:100770004846BDE8F883B9464846BDE8F88300BF5F
:1007800030B481B151F8043C0439002BB8BFC9180A
:100790001D4B1A682AB18A420AD908680C18A2426D
:1007A00025D04A60196030BC70478B4203D81A4686
:1007B0005368002BF9D1146815198D420CD007D855
:1007C00008680C189C4218D04B6030BC51607047D0
:1007D0000C23036030BC704709680C44111999421E
:1007E0001460E0D10ACB0C4453601460DBE714685A
:1007F00052684A6020440860D4E71C685B684B601C
:10080000204408605160CEE78800002070B5CD1C00
:1008100025F0030508350C2D38BF0C25002D0646A4
:100820003BDBA94239D827490A6852B113685B1BE0
:1008300004D436E023685B1B1AD522465468002C8A
:10084000F8D149681F4C002936D02946304600F0BF
:10085000A5FB431C21D0C41C24F00304A04205D0F6
:10086000211A304600F09AFB013016D0256004E0D2
:100870000B2B0DD923601C44256004F10B0020F0E4
:100880000700231DC31A02D05A42E25070BD70BD4A
:1008900094420ED063685360EFE70C23336000206E
:1008A00070BD0B2B03D8536814460B60E5E7144664
:1008B000E0E713461446F8E7304600F06FFB60604F
:1008C000C3E700BF880000209368013B002B10B4F1
:1008D000936008DBCCB21368581C10601970204676
:1008E0005DF8044B70479469A34202DBCCB20A2C3A
:1008F000F1D15DF8044B00F0A9BB00BF93B1F8B58E
:1009000014460F460646D51801E0AC4208D03A46D8
:1009100014F8011B3046FFF7D7FF431CF5D1F8BD93
:100920000020F8BD00207047936810B5144613B935
:100930005360184610BD00F069FD0023A36063609A
:1009400010BD00BF2DE9F04F9DB0884614460393BB
:10095000814618B18369002B00F00B818B4B9845C1
:1009600000F00D818A4B984500F00C81894B984529
:1009700008BFD9F80C80B8F80C301D0740F1EF80A3
:10098000D8F81030002B00F0EA8030238DF82A30A0
:100990002378814DDFF804A20021202209918DF8EF
:1009A0002920002B00F08580252B264603D117E057
:1009B000252B00F0868016F8013F002BF8D1B6EB0E
:1009C000040B76D022465B4641464846FFF796FF29
:1009D00001306ED0099B32785B440993002A68D0BD
:1009E00000234FF0FF31721C0493079306938DF898
:1009F00053301A930591012604E0049906FA03F393
:100A00000B430493144664482178052200F008FF44
:100A1000621C431B0028F0D1049BD80644BF20224F
:100A20008DF853201907217844BF2B228DF85320CD
:100A30002A2968D0A1F13002092A0BD8079B14F8A3
:100A4000011F03EB830302EB4303A1F13002092AE8
:100A5000F5D907932E293FD00322504800F0E0FE3D
:100A600048B10499CAEB0000402202FA00F041EAC2
:100A7000000301340493217849488DF82810062298
:100A8000013400F0CDFE00285FD0464BEBB103AB44
:100A900000934246444B04A94846AFF30080074602
:100AA0007A1C06D0099B3B4409932378002B7FF4E2
:100AB0007BAFB8F80C305B0658D409981DB0BDE880
:100AC000F08FB6EB040B8BD07CE7039B073323F04E
:100AD000070308330393E5E761782A291DD0A1F1C4
:100AE00030020023092A04F101040593B4D814F854
:100AF000011F03EB830302EB4303A1F13002092A38
:100B0000F5D90593A8E7039A1168043200290392E6
:100B100015DB0791617801349CE7039B1A68059205
:100B2000002A03F104030393B8BF4FF0FF3204F12E
:100B30000203AEBFA178A17805921C468CE749421A
:100B400043F0020307910493E4E703AB00934246AA
:100B5000154B04A9484600F0CDF80746A0E74146EA
:100B6000484600F0EBFA00283FF40FAF4FF0FF309B
:100B7000A4E7FFF795FD054B98457FF4F3AED9F850
:100B80000480F8E6D9F80880F5E600BFE8590008C7
:100B9000C8590008A85900089C5A0008A45A00081F
:100BA000A85A000800000000FD08000810B4044C1A
:100BB00013460A46014620685DF8044BFFF7C2BEA3
:100BC000000000202DE9F0470C4691460969A26813
:100BD000DDF820808A42B8BF0A46C9F8002094F8A0
:100BE000431006461F4611B10132C9F800202368A0
:100BF00099065DD5D9F800200232C9F80020236893
:100C000013F0060F19461DD1E1688A1A002AD8BFD1
:100C1000194617DD04F1190A002505E0E368D9F843
:100C200000209B1AAB420CDD012352463946304668
:100C3000C047013005F10105F0D14FF0FF30BDE8AC
:100C4000F087216894F84330003318BF01238A06E7
:100C50000AD5E1185A1C302081F84300224494F848
:100C6000451082F84310023304F1430239463046FE
:100C7000C0470130E1D0236803F00603042B29D0DC
:100C8000A36822699342C8BF4FF000092FDD9B1A69
:100C900099441A34002501E04D4528D0012322460D
:100CA00039463046C047013005F10105F4D1C4E7AB
:100CB00013F0060F08D1E168D9F800208A1A002A3B
:100CC000D8BF1946A6DCBDE794F84330003318BFFF
:100CD0000123C9E7D9F80000E168A3682269091A6D
:100CE000934221EAE179D2DCB9F1000FD1D10020A1
:100CF000BDE8F0872DE9F0430C46097E85B06E29EA
:100D0000064617460C98984604F1430C5AD01AD858
:100D1000632900F0128100F2D68000295CD05829A6
:100D200040F0F58084F8451022680368DFF864E23B
:100D3000150603F104011ED4550653BF1B6801605C
:100D40001B88016019E0732900F0CF807ED86F29DD
:100D500000F0E480702940F0DA80226842F020023E
:100D60002260782384F845300368DFF82CE215060A
:100D700003F10401E0D51B680160D00744BF42F0D5
:100D800020022260002B40F09080226822F0200296
:100D900022601021002284F843206068A0600028AF
:100DA000C0F28880226822F004022260002B62D107
:100DB000002840F08180654608296AD0C5EB0C0305
:100DC00023610CE023681A0640F1D580036862694C
:100DD000191D01601B681A60002365462361CDF868
:100DE00000803B4603AA21463046FFF7EBFE013068
:100DF00021D02A46236939463046C04701301AD0EF
:100E00002368039813F0020FE36819D01A1A002A16
:100E100016DD04F11909002504E0E36803981A1AA5
:100E2000AA420DDD01234A4639463046C04701300B
:100E300005F10105F1D14FF0FF3005B0BDE8F083B9
:100E40009842B8BF184605B0BDE8F083752965D053
:100E500078295CD1226884E76168A1602D2000298F
:100E6000C3F1000384F8430021DB22F00402DFF821
:100E700024E122600A216546B3FBF1F201FB123046
:100E800013461EF8002005F8012D002BF4D1082987
:100E900094D12368D90791D5626823699A428DDC81
:100EA000302305F8013C013D88E7102172E7DFF8A7
:100EB000E4E00A21002BDED19EF8003084F84230B5
:100EC00004F1420578E7642901D069291FD122681D
:100ED0000368150603F104013AD51B680160002B75
:100EE000BADBDFF8B0E00A2157E703686268191D32
:100EF00001601D680021284600F092FC002846D0C1
:100F0000401B60602061002384F8433067E70123C1
:100F100084F84210236104F14205F4E723681A06BD
:100F20001ED503681A1D1B680260227EDFF864E08C
:100F30006F2A14BF0A2108212CE703681A68191DBB
:100F40000123016004F1420584F842202361DAE7BD
:100F5000550653BF1B680160B3F900300160BEE75E
:100F600013F0400F036803F1040215BF02601B6811
:100F70001B880260D9E713F0400F0368626903F130
:100F8000040101601B6814BF1A801A6024E76068BE
:100F9000B8E700BFB05A0008C45A000838B5074C7B
:100FA000002305460846236000F080FD431C00D066
:100FB00038BD2368002BFBD02B6038BDB427002040
:100FC00010B50C46B1F90E1000F002FD002803DB4D
:100FD000636D0344636510BDA38923F48053A3812B
:100FE00010BD00BF002070472DE9F0411646B1F951
:100FF0000C201F46D3050C46054607D500220223C8
:10100000B1F90E1000F084FBB4F90C20B4F90E1005
:1010100022F48052A2813B4632462846BDE8F04188
:1010200000F076B810B50C46B1F90E1000F070FB68
:10103000A389421C0EBF23F4805343F480536065A0
:10104000A38110BDB1F90E1000F0F2B8F8B50E464C
:101050001446054610B18369002B41D0254B9C42B4
:1010600043D0254B9C4242D0244B9C4208BFEC68A5
:10107000A389A269A2601A0721D52369FBB122685E
:101080006169D31A8B42F7B221DA0133A168501C8F
:101090000139A1602060167062699A4206D0A38966
:1010A000DB0701D50A2F01D03846F8BD2146284676
:1010B00000F068F90028F7D04FF0FF37F4E7214639
:1010C000284600F03BF80028F6D12369D7E72146EF
:1010D000284600F057F90028EED122680123D5E711
:1010E000FFF7DEFA034B9C42BBD16C68C0E7AC68EB
:1010F000BEE700BFE8590008C8590008A859000811
:10110000024B0A4601461868FFF7A0BF0000002006
:1011100070B50D46084C114606461A46284600236F
:10112000236002F02BF9431C00D070BD2368002B14
:10113000FBD0336070BD00BFB4270020384B70B5C2
:101140001D6806460C4615B1AB69002B42D0354BE5
:101150009C4245D0344B9C4258D0344B9C4208BFF3
:10116000EC68B4F90C2093B219070CD52069A8B12A
:1011700013F001021ED0636900225B42A361A260EA
:10118000F0B1002070BDDD0642D558072AD4206991
:1011900042F00803A3819BB20028E9D103F4207236
:1011A000B2F5007FE4D03046214600F0F5FAA3897D
:1011B0002069DDE7990758BF6269A2600028E0D185
:1011C000B4F90C301A06DDD543F04003A3814FF08B
:1011D000FF3070BD2846FFF763FA124B9C42B9D12D
:1011E0006C68BEE7616B51B104F14403994204D0CD
:1011F0003046FFF7C5FAB4F90C20002363630023DF
:101200002069636022F024022060C1E7AC68A8E78F
:1012100042F04002092333604FF0FF30A28170BDDD
:1012200000000020E8590008C8590008A859000823
:1012300038B5074C002305460846236000F00EFC35
:10124000431C00D038BD2368002BFBD02B6038BD79
:10125000B42700208B891A072DE9F0410D468046FE
:1012600035D44A68002A6BDDEC6A002C47D003F4C1
:101270008052002192B2D8F80060C8F80010002A0D
:1012800062D06A6D5F0705D569686B6B521A0BB146
:101290002B6CD21A0023296A4046A047441C39D03F
:1012A000AB892A692A60DB044FF000026A6045D4EA
:1012B000696BC8F8006011B305F14403994202D08C
:1012C0004046FFF75DFA00206863BDE8F0810E69D3
:1012D000AEB10C680E6098070CBF4B690023A41BCD
:1012E0008B600AE023463246AF6A296A4046B84717
:1012F0000028A4EB0004064404DD002CF2DC0020EE
:10130000BDE8F081AB8943F04003AB814FF0FF3083
:10131000BDE8F081D8F800201D2AF3D8184BD3403F
:1013200003F0010383F00101002BEBD0AB892C69A2
:101330006960D9042C60BBD5002AB9D16865B7E7CC
:101340000A6C002A90DCDAE70123296A4046A047AC
:10135000431C024602D0AB89EC6A93E7D8F8003010
:10136000002BF8D01D2B01D0162B02D1C8F800603D
:10137000C5E7AB8943F04003AB81BDE8F08100BF16
:10138000010040200B6933B310B5044682B008B1A8
:101390008369ABB1114B994219D0114B994218D0C6
:1013A000104B994208BFE168B1F90C3013B9002025
:1013B00002B010BD204602B0BDE81040FFF74ABFA2
:1013C0000191FFF76DF90199044B9942E5D16168EC
:1013D000EAE7A168E8E70020704700BFE859000885
:1013E000C8590008A859000820B1054B01461868E3
:1013F000FFF7C8BF034B04491868FFF797B900BF50
:1014000000000020A4590008851300089368002BF1
:1014100076D02DE9F04F8B8985B00C4619070190E5
:10142000164629D522693AB303F002081FFA88F05C
:10143000356800282FD04FF00009B44FC846B24697
:10144000B84543464A4628BF3B460198B8F1000FCD
:1014500050D0216AA66AB047002871DDDAF808305A
:101460001B1A8144C0EB0808CAF80830002BE7D1EA
:10147000002005B0BDE8F08F21460198FFF75EFE21
:10148000002840F03A81A389356803F002081FFA6A
:1014900088F00028CFD113F001095BD14F460296A6
:1014A0001FB39A05D4F808802CD54745C246C0F032
:1014B000A48013F4906F40F0B180206852464946F2
:1014C00000F0FEF9A0682368C8EB00005344A06058
:1014D00023603846029A93681B1A81443F1A93602E
:1014E000002BC5D0A389002FDBD1D5F800906F6801
:1014F0000835D5E7D5F80090D5F8048008359FE782
:101500000020704720682369984203D861698F42A0
:1015100080F0B780B84528BFB8464246494600F03B
:10152000CFF9A3682268C8EB03034244A36022609A
:10153000002B49D121460198FFF724FF002843D012
:10154000B4F90C3043F040034FF0FF30A38105B0F5
:10155000BDE8F08F8046029082468146B9F1000FC7
:101560002AD0029B002B4CD0206823696269C845B1
:10157000C34628BFCB4698425F4604D9A3681344AC
:101580009B4500F39080934520DB1346A76A216AB0
:1015900001985246B847071ED2DDB8EB070823D0A2
:1015A000B368DB1BBA44C7EB0909B360002B3FF4F7
:1015B0005FAFB9F1000FD4D10023D5F800A0D5F862
:1015C000049002930835C9E7404683E75A465146DE
:1015D00000F076F9A2682368CBEB02025B44B8EB1B
:1015E0000708A2602360DBD121460198FFF7CAFEFD
:1015F0000028A5D1CDF80880D2E72068B846BA46C1
:101600005CE74A460A21504600F00AF900286FD0EC
:1016100001300123CAEB00080293A5E76269206844
:10162000216902EB4208C1EB000A08EBD8780AF105
:1016300001004FEA680838444045424684BF80466E
:1016400042465B0542D511460198FFF7DFF8834615
:10165000002855D052462169FEF714FEA38923F4D1
:10166000906343F08003A381CAEB08030BEB0A00ED
:10167000C4F81480C4F810B02060A360B846BA461D
:101680001CE76FF00043BB4228BF3B464A4693FB32
:10169000F1F30198A66A01FB03F3216AB047002821
:1016A0003FF718AF4CE71A465146039300F008F98C
:1016B0002268039B01981A4422602146FFF762FECC
:1016C000039B00287FF43CAF1F4666E7019800F0BB
:1016D0005BF983460028C7D1019D21692846FFF7A1
:1016E0004FF8B4F90C300C2223F080032A6029E76C
:1016F000012309F10108029336E74FF0FF30B8E605
:10170000019A0C231360B4F90C301BE700FCFF7F37
:1017100070B50D46084C114606461A462846002369
:10172000236000F0B3F9431C00D070BD2368002B88
:10173000FBD0336070BD00BFB427002070B50C46ED
:10174000B1F90E10002990B015461E4613DB01AA10
:1017500000F054F900280EDB029A02F47042A2F560
:101760000052B2FA82F252094FF4806300203260D4
:101770002B6010B070BDA38900221B06326004D517
:10178000402300202B6010B070BD4FF48063002018
:101790002B6010B070BD00BF8A8992070B4606D53A
:1017A00001F1470201211A601A6159617047F0B5D1
:1017B00083B001AB6A460C460546FFF7BFFF0099B0
:1017C00006462846FFF722F8B4F90C30D0B1019A4A
:1017D000124F0099AF6243F08003A3812060206123
:1017E00061611AB93343A38103B0F0BD2846B4F94F
:1017F0000E1000F017F9B4F90C300028F2D043F0C5
:101800000103EFE79A05EFD404F1470243F0020326
:101810000121A381226022616161E5E7B90400082A
:1018200001F0FF01102A2BDB10F0070F08D010F891
:10183000013B013A8B422DD010F0070F42B3F6D195
:10184000F0B441EA012141EA014122F007047FF0AE
:1018500000070023F0E80256083C85EA010586EA05
:10186000010685FA47F5A3FA87F586FA47F6A5FA41
:1018700087F68EB9EED1F0BC01F0FF0102F007024D
:1018800032B110F8013B013A83EA010313B1F8D1F8
:101890000020704701387047002D06BF35460338D9
:1018A000073815F0010F07D1013015F4807F02BF12
:1018B000013015F4C03F0130F0BC0138704700BF63
:1018C0008842F0B50DD98B1898420AD28118002AA7
:1018D00051D09A1A13F8014D01F8014D9342F9D1F4
:1018E000F0BD0F2A48D941EA00039B0746D100F119
:1018F000100401F11003154653F8106C44F8106CF5
:1019000053F80C6C44F80C6C53F8086C44F8086CF1
:10191000103D53F8046C44F8046C0F2D03F11003D0
:1019200004F11004E8D8A2F1100323F00F0302F031
:101930000F0E1033BEF1030F1944034421D91E1FAB
:101940000D467446043C55F8047B46F8047F032C8E
:10195000F8D8AEF1040424F00304043423442144F1
:1019600002F0030262B1013B0A4411F8014B03F893
:10197000014F8A42F9D1F0BD0346F3E70346F2E78F
:10198000F0BD7246EEE700BFF9B1F8B50646154660
:10199000B2B10C4600F058F8854201D82046F8BD97
:1019A00029463046FEF732FF074668B12A462146EF
:1019B000FEF768FC30462146FEF7E2FE3846F8BDE9
:1019C000FEF7DEFE2846F8BDF8BD1146FEF71EBF45
:1019D00070B50D46084C114606461A4628460023A7
:1019E000236000F05BF8431C00D070BD2368002B1F
:1019F000FBD0336070BD00BFB427002038B50B4664
:101A0000074C0546114618460023236000F02EF8C7
:101A1000431C00D038BD2368002BFBD02B6038BDA1
:101A2000B427002038B5074C00230546084623603C
:101A300000F024F8431C00D038BD2368002BFBD0F5
:101A40002B6038BDB427002051F8040C0028BEBF1D
:101A5000091851F8043CC01804387047024B58224A
:101A60001A604FF0FF307047B4270020024B582215
:101A70001A604FF0FF307047B4270020024B582205
:101A80001A600020704700BFB4270020024B582284
:101A90001A604FF0FF307047B4270020024B5822E5
:101AA0001A604FF0FF307047B4270020044A054900
:101AB0001368002B08BF0B46184410601846704787
:101AC00090000020B8270020704700BF022380F854
:101AD0003D300268136843F001031360012380F86E
:101AE0003D300020704700BF0268D36843F0010317
:101AF000D3600268136843F001031360002070474D
:101B0000704700BF704700BF704700BF704700BFFD
:101B100010B5044603681A6912F0020F17D0DA688C
:101B200012F0020F13D06FF002021A610123037743
:101B300003689B6913F0030F02D0FFF7E3FF04E093
:101B4000FFF7DEFF2046FFF7DFFF00232377236840
:101B50001A6912F0040F19D0DA6812F0040F15D0C8
:101B60006FF004021A610223237723689B6913F440
:101B7000407F03D02046FFF7C5FF05E02046FFF772
:101B8000BFFF2046FFF7C0FF0023237723681A69B1
:101B900012F0080F19D0DA6812F0080F15D06FF0A4
:101BA00008021A61042323772368DB6913F0030F0B
:101BB00003D02046FFF7A6FF05E02046FFF7A0FF71
:101BC0002046FFF7A1FF0023237723681A6912F04C
:101BD000100F19D0DA6812F0100F15D06FF0100244
:101BE0001A61082323772368DB6913F4407F03D04D
:101BF0002046FFF787FF05E02046FFF781FF2046DC
:101C0000FFF782FF0023237723681A6912F0010F80
:101C100009D0DA6812F0010F05D06FF001021A61E5
:101C2000204601F05DFE23681A6912F0800F09D08A
:101C3000DA6812F0800F05D06FF080021A6120463A
:101C400002F0F8F823681A6912F0400F09D0DA6838
:101C500012F0400F05D06FF040021A612046FFF7E6
:101C600055FF23681A6912F0200F09D0DA6812F0C4
:101C7000200F05D06FF020021A61204602F0D8F83C
:101C800010BD00BF0368224A904206D0B0F1804FD9
:101C900003D0A2F59432904203D123F070034A6836
:101CA00013431B4A904212D0B0F1804F0FD0A2F5DF
:101CB000943290420BD002F59E32904207D002F54A
:101CC0008062904203D002F58062904203D123F4F7
:101CD0004073CA68134323F080034A6913430360C7
:101CE0008B68C3620B688362094B98420BD003F583
:101CF000A053984207D003F58063984203D003F5C0
:101D00008063984201D10B690363012343617047EB
:101D1000002C0140B8B110B5044690F83D3013F0E6
:101D2000FF0F04D1002380F83C30FFF7CDFE0223E3
:101D300084F83D30211D2068FFF7A4FF012384F8BB
:101D40003D30002010BD0120704700BFB8B110B574
:101D5000044690F83D3013F0FF0F04D1002380F8C3
:101D60003C3001F0D9FC022384F83D30211D20686D
:101D7000FFF788FF012384F83D30002010BD0120CB
:101D8000704700BF30B4036A23F001030362026AA4
:101D90004468836923F4803323F073030D682B4375
:101DA00022F002028D682A43184DA8420BD005F597
:101DB000A055A84207D005F58065A84203D005F5D7
:101DC0008065A84205D122F00802CD682A4322F09E
:101DD00004020E4DA8420BD005F5A055A84207D02D
:101DE00005F58065A84203D005F58065A84205D1B8
:101DF00024F440754C692C438D692C434460836105
:101E00004B684363026230BC704700BF002C014046
:101E100030B4036A23F010030362036A44688269E2
:101E200022F0807222F4E6420D6842EA052223F095
:101E300020038D6843EA0513134DA84206D123F011
:101E40008003CD6843EA051323F040030E4DA842FA
:101E50000BD005F5A055A84207D005F58065A8422E
:101E600003D005F58065A84207D124F440644D698C
:101E700044EA85048D6944EA8504446082614A68C5
:101E80008263036230BC7047002C014030B4036AA7
:101E900023F480730362036A4468C26922F48032C7
:101EA00022F073020D682A4323F400738D6843EA1D
:101EB0000523144DA84206D123F40063CD6843EAFC
:101EC000052323F480630F4DA8420BD005F5A055E0
:101ED000A84207D005F58065A84203D005F58065C6
:101EE000A84207D124F440544D6944EA05148D6991
:101EF00044EA05144460C2614A68C263036230BCAC
:101F0000704700BF002C014030B4036A23F48053B3
:101F10000362026A4468C36923F0807323F4E643D2
:101F20000D6843EA052322F400528D6842EA053227
:101F30000D4DA8420BD005F5A055A84207D005F5D8
:101F40008065A84203D005F58065A84204D124F439
:101F500080444D6944EA85144460C3614B6803645E
:101F6000026230BC704700BF002C014010B4012356
:101F700003FA01F4036A23EA04030362036A8A4052
:101F80001A4302625DF8044B704700BF10B5044667
:101F900001220068FFF7EAFF2368124A93420DD03E
:101FA00002F5A05293420BD002F58062934209D011
:101FB00002F58062934207D1012206E0012204E08B
:101FC000012202E0012200E000221AB15A6C42F420
:101FD00000425A642268136843F001031360002032
:101FE00010BD00BF002C01400A4B1B681B680BB9D9
:101FF000012300E0002323B14FF0FF32064B1A60AB
:102000007047044B1B68DB68DB685A68024B1A6038
:10201000704700BF980000207401002010B50446EE
:10202000006B00F043FD204600F040FD10BD00BFF6
:102030002DE9F04780469946089D099F0A9C236B2D
:1020400002F18042013A03EB820626F007060023E4
:1020500006E0C85CE21882F83400CA5C12B10133B1
:102060000F2BF6D9002384F84330062D00D906251E
:10207000E56265644FF0000AC4F848A0201D00F036
:1020800007FE04F1180000F003FE2461C5F1070506
:10209000A5616462C4F84CA084F850A04A46414649
:1020A000304600F0A1FE206007B13C60BDE8F0873B
:1020B00038B5002407E004EB840293000E4818446E
:1020C00000F0DAFD0134062CF5D90C4D284600F05D
:1020D000D3FD0B4C204600F0CFFD0A4800F0CCFDAC
:1020E000094800F0C9FD094800F0C6FD084B1D6015
:1020F000084B1C6038BD00BFBC0000207C010020E4
:102100009001002058010020A0000020A401002020
:1021100098000020B400002010B5044600F092FEA4
:10212000204A1368013313601F4B1B683BB91E4BD9
:102130001C601368012B0DD1FFF7BAFF0AE01B4B9F
:102140001B683BB9184B1B68DA6AE36A9A4201D8EC
:10215000154B1C60164A136801331360E36A0122B1
:1021600002FA03F1134802680A43026003EB830397
:102170009A00211D1048104400F08EFD00F084FEEE
:102180000A4B1B686BB1084B1B68DA6AE36A9A4218
:1021900007D24FF08052094B1A60BFF34F8FBFF345
:1021A0006F8F10BD50010020540100209C000020C2
:1021B00078010020B8010020BC00002004ED00E000
:1021C00070B504460E461D4B1D681D4B1868043043
:1021D00000F088FD50B91A4B1B68DA6A012303FA34
:1021E00002F218490B6823EA02030B60B4F1FF3FC7
:1021F00007D136B1124B19680431134800F04CFD79
:1022000070BD2C440E4B1B685C60A54207D90F4B78
:1022100018680B4B1968043100F04AFD70BD0C4B77
:102220001868074B1968043100F042FD094B1B6820
:102230009C4201D2074B1C6070BD00BF70010020A2
:1022400054010020B8010020A4010020B4000020A7
:1022500098000020740100202DE9F04385B0064667
:102260000F4615469846900000F09EFB60B18146EF
:10227000542000F099FB044610B1C0F8309004E0FF
:10228000484600F013FC00E000248CB100230393C7
:1022900002940D9B01930C9B009343462A463946BA
:1022A0003046FFF7C5FE2046FFF736FF012001E06C
:1022B0004FF0FF3005B0BDE8F08300BF00B583B03C
:1022C000174B019300230093802216491648FFF70D
:1022D000C3FF012814D14FF0500383F31188BFF3DB
:1022E0006F8FBFF34F8F4FF0FF32104B1A600122F8
:1022F0000F4B1A6000220F4B1A6000F03FFE0BE0FC
:10230000B0F1FF3F08D14FF0500383F31188BFF3C2
:102310006F8FBFF34F8FFEE703B05DF804FB00BF84
:102320006C010020085A00080926000874010020EA
:102330009C00002070010020024A136801331360E2
:10234000704700BF48010020F8B53D4B1B68002BCB
:1023500069D13C4B1D6801351D60C5B93A4B1B68FE
:102360001B6843B14FF0500383F31188BFF36F8FA5
:10237000BFF34F8FFEE7344A1168344B1868106082
:102380001960334A136801331360FFF72DFE314B98
:102390001B689D4203D200243AE0012400E000249F
:1023A000294B1B681B680BB9012300E0002323B1F4
:1023B0004FF0FF32274B1A602AE0234B1B68DB6883
:1023C000DE6873689D4202D2224A136020E0371D06
:1023D000384600F087FCB36A1BB106F1180000F024
:1023E00081FCF36A012202FA03F11B4802680A43E6
:1023F000026003EB83039A0039461848104400F04A
:102400004BFCF26A164B1B68DB6A9A42C5D2C7E7DF
:10241000134B1B68DB6A03EB83039A000F4B9B583B
:10242000012B06D806E00F4A13680133136000241D
:1024300000E001240C4B1B6803B101242046F8BDC9
:10244000480100207001002098000020B400002006
:102450009400002074010020B8010020BC0000207E
:1024600054010020B8000020BC01002038B5344BD6
:102470001B6843B94FF0500383F31188BFF36F8F8C
:10248000BFF34F8FFEE700F0DDFC2D4B1A68013AD9
:102490001A601B68002B4CD12A4B1B6833BB0024ED
:1024A0004AE0294BDB68DC6804F1180000F01AFCF4
:1024B000251D284600F016FCE36A012202FA03F10A
:1024C000224802680A43026003EB83039A0029460C
:1024D0001F48104400F0E0FBE26A1E4B1B68DB6AF9
:1024E0009A4204D301221C4B1A6000E00024164BD0
:1024F0001B68002BD5D10CB1FFF776FD174B1C687C
:1025000054B1FFF721FF10B10122134B1A60013CB7
:10251000F7D10022114B1A600F4B1B685BB14FF0D3
:1025200080520F4B1A60BFF34F8FBFF36F8F0124A0
:1025300002E0002400E0002400F0A6FC204638BDA4
:10254000480100205001002058010020B80100205F
:10255000BC00002054010020BC010020B800002075
:1025600004ED00E010B5A8B10446104B1B6843B160
:102570004FF0500383F31188BFF36F8FBFF34F8F7A
:10258000FEE7FFF7D9FE00212046FFF719FEFFF70F
:102590006DFF00E0002038B94FF08052044B1A6004
:1025A000BFF34F8FBFF36F8F10BD00BF48010020F6
:1025B00004ED00E010B51BE0FFF7BEFE0F4B1C68FA
:1025C000FFF754FFA4B100F03DFC0C4BDB68DC6866
:1025D000201D00F087FB0A4A1368013B1360094A7B
:1025E0001368013B136000F04FFC2046FFF716FD17
:1025F000044B1B68002BDFD110BD00BFA0000020E2
:10260000500100204C01002008B5FFF7D3FF064B16
:102610001B68012BF9D94FF08052044B1A60BFF3AD
:102620004F8FBFF36F8FF0E7BC00002004ED00E098
:102630001F4B1B681BB101221E4B1A607047002202
:102640001C4B1A601C4B1B68B3FA83F3DBB2C3F15B
:102650001F0303EB83018A0018498A5842B94FF0DF
:10266000500383F31188BFF36F8FBFF34F8FFEE7E3
:1026700030B4124D9900CA1890002844426854683A
:10268000446019448A0008322A44944205D16068A3
:1026900003EB83018A002A44506003EB83039A0012
:1026A000064B1A445368DA68054B1A6030BC704711
:1026B00048010020BC010020B8010020BC0000201F
:1026C00054010020054B1B6823B1054B1B681BB947
:1026D0000220704701207047002070479C000020B6
:1026E00048010020F0B583B00023AFE001249C40F6
:1026F000224000F0AA804D68022D01D0122D10D189
:10270000DE08083650F826C003F00705AF000F2595
:10271000BD402CEA050E0D69BD404EEA050540F8A6
:10272000265005685F000326BE40F64305EA060E04
:102730004D6805F00305BD404EEA050505604D688E
:1027400005F1FF3EBEF1010F03D9112D01D0122D6D
:1027500010D1856806EA050ECD68BD404EEA050534
:102760008560456825EA04044D68C5F300159D4061
:1027700025434560C46826408C68BC403443C4602F
:102780004C6814F0805F60D0344CA56945F00105B9
:10279000A561A46904F001040194019C9E08B51C84
:1027A0002F4C54F8255003F00304A4000F27A74032
:1027B00025EA0707B0F1904F0CD02A4DA8420BD064
:1027C00005F58065A84209D005F58065A84207D1C6
:1027D000032506E0002504E0012502E0022500E0D3
:1027E000052505FA04F43C4302361D4D45F8264004
:1027F0001D4C2568D44305EA04064F6817F4803F52
:1028000001D042EA0506184D2E606D6804EA0506FF
:102810004F6817F4003F01D042EA0506124D6E6082
:10282000AD6804EA05064F6817F4801F01D042EA3C
:1028300005060D4DAE60ED682C404E6816F4001F85
:1028400001D042EA0504084AD46001330A6832FA2A
:1028500003F47FF44BAF03B0F0BD00BF00100240A3
:102860000000014000040048000401400AB18161F9
:1028700070478162704700BF4369594041617047AA
:10288000842801D0033070470020704708B5FFF757
:1028900015FD002008BD00BFF0B585B00F464468A7
:1028A00005680669B0F90800FFF7EAFF03AB01937A
:1028B00000903B46B2B229462046FFF7CDFC0128E6
:1028C00001D1039800E0002005B0F0BD08B508B9BB
:1028D0000120FFE7FFF746FE002008BD08B5FFF71F
:1028E000F1FE012801D000F01DFB08BD124A12F0D4
:1028F000070F07D0D11D21F00701C1F51053134474
:102900000A4601E04FF410530C4802600021416078
:102910001344083B23F0070309480360596019601A
:10292000991A51601360074B1960074B19604FF0FB
:102930000042064B1A607047D0010020C8010020F9
:10294000C4010020D4250020C0010020D025002093
:10295000134B00E013461A688242FBD310B45C6844
:102960001919884203D141682144596018464468C6
:1029700001198A420CD10B4909688A4206D0526873
:10298000224442601A681268026002E0016000E0BE
:102990000260984200D018605DF8044B704700BF99
:1029A000C8010020C401002070B50446FFF7C4FC34
:1029B000394B1B680BB9FFF799FF384B1B681C425A
:1029C00053D194B1083414F0070F0ED024F007044B
:1029D000083404F0070343B14FF0500383F3118828
:1029E000BFF36F8FBFF34F8FFEE7002C3FD02C4B10
:1029F0001B689C423DD82B4B1D6801E02B461546B9
:102A00006A68944202D92A68002AF7D1224A1268D9
:102A1000954230D01E6808362A681A606B681B1B06
:102A2000102B10D9281910F0070F08D04FF05003C1
:102A300083F31188BFF36F8FBFF34F8FFEE74360BF
:102A40006C60FFF785FF6A6815490B689B1A0B607D
:102A5000154909688B4201D213490B600F4B1B6863
:102A60001A436A6000232B6006E0002604E000267B
:102A700002E0002600E00026FFF7F8FC16F0070F42
:102A800008D04FF0500383F31188BFF36F8FBFF36B
:102A90004F8FFEE7304670BDC4010020D0250020D6
:102AA000C0010020C8010020D4250020A0B338B503
:102AB0000346A0F1080550F8042C1849096812EAE9
:102AC000010408D14FF0500383F31188BFF36F8FD7
:102AD000BFF34F8FFEE750F8080C40B14FF05003A2
:102AE00083F31188BFF36F8FBFF34F8FFEE794B16D
:102AF00088B91C4622EA010243F8042CFFF71CFCAB
:102B000054F8043C064A11680B4413602846FFF74A
:102B10001FFFFFF7ABFC38BD704700BFD02500207A
:102B2000C0010020074AD36823F4E0631B041B0C98
:102B3000000200F4E060184340F0BF6040F4003051
:102B4000D060704700ED00E030B4164BDB68C3F393
:102B50000223C3F10704042C28BF04241D1D062DE5
:102B600001D9DD1E00E00025012303FA04F4013C35
:102B70002140A940AB40013B1A400A43002806DA35
:102B800000F00F001201D2B2074B1A5407E01201F5
:102B9000D2B200F1604000F5614080F8002330BC03
:102BA000704700BF00ED00E014ED00E0420900F0C6
:102BB0001F00012303FA00F0014B43F82200704785
:102BC00000E100E00138B0F1807F0AD2064B586086
:102BD000F021064A82F823100020986007221A602C
:102BE00070470120704700BF10E000E000ED00E0FA
:102BF000042805D1054A136843F0040313607047A5
:102C0000024A136823F004031360704710E000E0E9
:102C100008B5FFF763FE08BD08B5024801F0E2FF02
:102C200008BD00BF7C26002008B50248FEF770FFF3
:102C300008BD00BFF025002008B5074A136843F01F
:102C4000100313600320FFF76DFF002000F05CF815
:102C500000F0FAFC002008BD00200240024A136880
:102C600001331360704700BFEC250020014B18684A
:102C7000704700BFEC25002000F1080343604FF0CF
:102C8000FF328260C360036100230360704700BFAE
:102C900000230361704700BF43684B609A688A60F5
:102CA0009A68516099600861036801330360704756
:102CB00030B40D68B5F1FF3F01D1026907E000F1C2
:102CC000080200E01A4653681C68A542FAD253680D
:102CD0004B6099608A60516008610368013303604A
:102CE00030BC7047036942688168916082684168BE
:102CF00051605A68904201D182685A600022026194
:102D0000186801381860704700B589B00022014684
:102D10001820FFF719FF1820FFF748FF144B9A6996
:102D200042F480329A619B6903F480330193019BE2
:102D300002A903A801F0F0FC01F0D6FC0D4BA3FBA7
:102D400000239B0C013B0C480C4A026040F2E73226
:102D5000C2604360002303618360FEF7DBFF18B9A4
:102D60000548FEF7C1FE00E0012009B05DF804FB54
:102D70000010024083DE1B43F0250020004001408C
:102D80000B4B1B68B3F1FF3F08D04FF0500383F3A8
:102D90001188BFF36F8FBFF34F8FFEE74FF05003E3
:102DA00083F31188BFF36F8FBFF34F8FFEE700BF30
:102DB0006400002006480068006880F3088862B656
:102DC00061B6BFF34F8FBFF36F8F00DF00BF00000E
:102DD00008ED00E0DFF80C00016841F470010160CB
:102DE0007047000088ED00E04FF0807340F8043C2D
:102DF00021F0010140F8081C054B40F80C3C40F85C
:102E0000202C6FF0020340F8243C4438704700BF88
:102E1000812D0008000000000000000000000000FC
:102E2000074B19680868B0E8F04F80F30988BFF3D2
:102E30006F8F4FF0000080F311887047AFF3008070
:102E4000540100204FF0500383F31188BFF36F8FBC
:102E5000BFF34F8F0A4A136801331360012B0DD162
:102E6000084B1B6813F0FF0F08D04FF0500383F39B
:102E70001188BFF36F8FBFF34F8FFEE7704700BF1E
:102E80006400002004ED00E0094B1B6843B94FF0DB
:102E9000500383F31188BFF36F8FBFF34F8FFEE7AB
:102EA000013B034A13600BB983F31188704700BFDD
:102EB000640000200000000000000000000000008E
:102EC000EFF30980BFF36F8F154B1A681EF0100FD8
:102ED00008BF20ED108A20E9F04F10604DF8043D46
:102EE0004FF0500080F31188BFF34F8FBFF36F8F07
:102EF000FFF79EFB4FF0000080F3118808BC1968B3
:102F00000868B0E8F04F1EF0100F08BFB0EC108A50
:102F100080F30988BFF36F8F704700BFAFF3008065
:102F20005401002008B54FF0500383F31188BFF31C
:102F30006F8FBFF34F8FFFF707FA18B14FF0805232
:102F4000024B1A60002383F3118808BD04ED00E0F2
:102F5000064B1B68064AA2FB03239B09013B054A5B
:102F600013600722044B1A60704700BF68000020FE
:102F7000D34D621014E000E010E000E0314B1A681D
:102F8000314B9A4208D14FF0500383F31188BFF3BD
:102F90006F8FBFF34F8FFEE72A4B1A682B4B9A4275
:102FA00008D14FF0500383F31188BFF36F8FBFF345
:102FB0004F8FFEE700B583B0254B1A78D2B201924D
:102FC000FF221A701B78DBB28DF803309DF80330B6
:102FD00003F050031F4A137007221F4B1A6009E0C9
:102FE0001D4A1368013B13609DF803305B00DBB2A0
:102FF0008DF803309DF8033013F0800FF0D1164A9E
:1030000013681B0203F4E0631360019BDBB2104AF8
:103010001370124B1A6842F470021A601A6842F078
:1030200070421A60FFF794FF00220D4B1A60FFF701
:10303000D1FE0C4A136843F040431360FFF7BAFE19
:10304000FFF79EFE00ED00E071C20F4170C20F411C
:1030500000E400E0D8250020DC25002020ED00E081
:103060006400002034EF00E0F0B583B0044603684C
:1030700013F4803F00F08A805F4BDB6913F0805FC0
:103080000BD15D4BDA6942F08052DA61DB6903F003
:1030900080530193019B012500E00025574B1B68DD
:1030A00013F4807F13D1554A136843F4807313607F
:1030B000FFF7DCFD064605E0FFF7D8FD801B64281E
:1030C00000F292804D4B1B6813F4807FF4D04A4B82
:1030D0001B6A13F440734DD0626802F4407293424D
:1030E00048D0454E306A20F440774FF4803191FA51
:1030F000A1F3B3FA83F3424A13449B004FF0010E4D
:10310000C3F800E091FAA1F1B1FA81F10A4492000A
:1031100000231360376210F0010F2BD0FFF7A6FDDC
:10312000064606E0FFF7A2FD801B41F28833984275
:103130005CD8022393FAA3F293FAA3F3B3FA83F3CE
:103140005B0943F00203DBB2022B02D12A4B196A5E
:1031500004E0022393FAA3F3274B596A022393FA5C
:10316000A3F3B3FA83F303F01F03012202FA03F37C
:103170001942D7D020490B6A23F440726368134385
:103180000B621DB1CB6923F08053CB61236813F030
:10319000010F06D018490B6B23F00302A3681343F9
:1031A0000B63236813F0200F06D013490B6B23F039
:1031B0001002E36813430B63236813F0800F06D0FB
:1031C0000D49CB6A23F4F87223691343CB62236859
:1031D00013F4805F0CD008490B6B23F48072636991
:1031E00013430B63002004E0032002E0032000E00F
:1031F000002003B0F0BD00BF00100240007000408E
:10320000008190101549D1F8883043F47003C1F85B
:103210008830134B1A6842F001021A605868114A4C
:1032200002405A601A6822F0847222F480321A60D6
:103230001A6822F480221A605A6822F4FE025A6048
:10324000DA6A22F00F02DA62186B074A02401A6348
:1032500000229A604FF000638B60704700ED00E041
:10326000001002400CC07FF8CCFC00FF38B50546CA
:10327000064CB0FA80F2520902212046FFF7F6FA16
:10328000EAB201212046FFF7F1FA38BD00140048E8
:1032900010B50446B0FA80F252094FF400614FF0C5
:1032A0009040FFF7E3FAE2B220210248FFF7DEFA8E
:1032B00010BD00BF0004004810B5064C00220221DA
:1032C0002046FFF7D3FA002201212046FFF7CEFA6D
:1032D00010BD00BF0014004808B500224FF4006183
:1032E0004FF09040FFF7C2FA002220210148FFF77B
:1032F000BDFA08BD00040048034B1B684FF4A072E0
:103300005A631A64704700BF3C26002010B54FF482
:10331000A07407E0054B1B685C631C64143C3220FE
:10332000FFF7D4FA002CF5D110BD00BF3C260020D9
:1033300008B5FFF7E1FF0120FFF7AAFF0020FFF724
:1033400095FFDC20FFF7C2FAFFF7E0FFFFF7C4FFAD
:10335000FFF7B2FF0122014B1A6008BDE4250020EF
:1033600008B501F033FC034B18600122024B1A60D0
:1033700008BD00BFE8250020E025002010B5144658
:1033800042F2107392B2024802F052F9204610BD88
:10339000402700202DE9F04782B000F00107C0F37C
:1033A000400500F00403DBB2003318BF012300F036
:1033B0000801C9B2C910CEB200F01004E4B2241161
:1033C0005FFA84F800F02002D2B2003218BF012266
:1033D00000F040095FFA89F94FEAA9195FFA89FC00
:1033E00000F08000003018BF012082EA000A8CEA59
:1033F000000E0EEB4A0E82EA0C0C0CEB4E0E00EBAC
:103400004E0009EB400002EB40008DF8070083EA14
:10341000080086EA080202EB40025E4006EB420624
:1034200004EB460601EB460103EB41038DF8063041
:10343000EBB203EB47027D4005EB420503EB85054C
:1034400007EB45078DF80570124C4EF6EE6301222E
:103450000DF10701204602F0EBF80220FFF736FAE3
:103460004EF6EE6301220DF10601204602F0E0F86F
:103470000220FFF72BFA4EF6EE6301220DF1050153
:10348000204602F0D5F80220FFF720FA02B0BDE88E
:10349000F08700BFD02600202DE9F04383B0404CD8
:1034A0004EF6EE6301220DF10701204602F028F9E5
:1034B0004EF6EE6301220DF10601204602F020F9DE
:1034C0004EF6EE6301220DF10501204602F018F9D7
:1034D0009DF807C08DF800C09DF806608DF801606A
:1034E0009DF805708DF802700024012530E002ABD4
:1034F000234413F8083C03F00108C3F3400E03F023
:103500000402D2B2003218BF012203F00801C9B28E
:10351000003118BF012103F01000C0B2003018BF05
:10352000012003F02003DBB2003318BF012388EA37
:103530000E09494500D000258EEA020E704500D0E4
:10354000002588EA0202934200D000250134E4B24B
:10355000022CCCD90CF0070C4FEA4C1C8DF807C09C
:1035600006F0070293008DF8063007F007078DF884
:10357000057063443B44DCB25DB900200DE040219E
:103580000848FFF779F94FF4FA70FFF79FF9013512
:1035900000E00025042DF2DD204603B0BDE8F083F5
:1035A000D02600200004004810B50446FFF774FF41
:1035B0008442FBD110BD00BF08B50620FFF7EAFE2C
:1035C00008BD00BF08B501224FF480714FF0904054
:1035D000FFF74CF9064C2046FEF778FA002120460A
:1035E000FEF7D4FC0C212046FEF7D0FCFEE700BF1E
:1035F0003C26002008B50A4801F046FA4FF47A70DC
:10360000FFF764F9074B1B68012BF4D1064B1968CF
:103610000648FCF735FF0022024B1A60EBE700BFBB
:103620007C260020E0250020E8250020285A0008FC
:1036300008B50620FFF7B8FFFFF77AFEFFF7BCFFDB
:103640000120FFF743F9F4E700B583B01C4B9A69FA
:1036500042F001029A619B6903F001030193019B0F
:103660000320FFF75FFA002211466FF00B00FFF70F
:103670006BFA002211466FF00A00FFF765FA00228C
:1036800011466FF00900FFF75FFA002211466FF054
:103690000400FFF759FA002211466FF00300FFF70C
:1036A00053FA00220F216FF00100FFF74DFA0022BC
:1036B0000F214FF0FF30FFF747FA03B05DF804FB2E
:1036C000001002400368B3F1A04F23D110B586B0BB
:1036D00003F1704303F504335A6942F080525A6192
:1036E0005B6903F080530093009B01230193032344
:1036F00002930024039401A94FF09040FEF7F2FFDB
:10370000224605211220FFF71FFA1220FFF74EFA7A
:1037100006B010BD704700BF0268084B9A420CD13A
:1037200082B003F50333DA6942F00202DA61DB6941
:1037300003F002030193019B02B0704700040040B4
:1037400002680A4B9A4210D100B587B01223019348
:1037500002230293002203920492059301A90448D4
:10376000FEF7C0FF07B05DF804FB7047000400409F
:103770000004004800B589B003681F4A93421AD17B
:103780001E4B9A6942F480429A619B6903F480431C
:103790000193019B4FF4C06303930223049301231D
:1037A0000593032306930723079303A94FF0904043
:1037B000FEF798FF1CE0124A934219D10F4BDA69C9
:1037C00042F40032DA61DB6903F400330293029BB6
:1037D00048F2040303930223049301230593032374
:1037E00006930723079303A94FF09040FEF77AFF53
:1037F00009B05DF804FB00BF003801400010024032
:1038000000440040F0B589B02C4B5A6942F4800264
:103810005A615A6902F480020092009A5A6942F48D
:1038200000325A615A6902F400320192019A5A69CF
:1038300042F480225A615B6903F480230293029B65
:103840001F4F002203213846FFF710F800224FF4E3
:1038500010614FF09040FFF709F81A4D00226821DF
:103860002846FFF703F80323039301260496002458
:103870000594069403A93846FEF734FF4FF410630D
:10388000039304960594069403A94FF09040FEF725
:1038900029FF2823039304960594069403A9284638
:1038A000FEF720FF4023039311230493059406940D
:1038B00003A92846FEF716FF09B0F0BD001002402C
:1038C000001400480004004808B508210348FEF72A
:1038D000D3FF4FF47A70FEF7F9FFF6E700040048D3
:1038E00008B50268024B9A4201D1FFF7B7F908BD4B
:1038F00000400140FEE700BF00B58BB02248234BDB
:10390000036040F2E73343600023836040F27F228C
:10391000C26003618361FEF719FA20B140F23711EA
:103920001B48FFF7E7FF00230793099307A91648F1
:1039300000F056FA20B14FF49F711548FFF7DAFFF7
:103940006023009340F23F130193002202920492FD
:1039500069460D4800F0A8F920B140F247110C4823
:10396000FFF7C8FF0C226946074800F09DF920B117
:103970004FF4A6710648FFF7BDFF0348FFF7E0FECE
:103980000BB05DF804FB00BF3C26002000040040A3
:10399000385A000800B58BB01F484FF0A0430360B1
:1039A0000023436083600361C361436203630122B8
:1039B000C262C36002624363042242618361836323
:1039C00000F054FF20B14FF487711448FFF792FFC5
:1039D0000AA9002341F80C3D0F4801F021FC20B159
:1039E0004FF48B710D48FFF785FF0123019302937C
:1039F00000230493032203920593069301A906482A
:103A000001F058FA20B140F223110448FFF772FF89
:103A10000BB05DF804FB00BF7C260020385A00087C
:103A200008B50C480C4B03604FF416434360002369
:103A3000C36003610C2242618361C361036243621C
:103A400001F01CFF20B140F277110448FFF752FF4C
:103A500008BD00BF4027002000440040385A00083D
:103A600008B50D480D4B03604FF4164343604FF00B
:103A7000805383600023C36003610C224261836131
:103A8000C3610362436201F0F9FE20B140F26311A9
:103A90000348FFF72FFF08BDD02600200038014063
:103AA000385A000800B597B002230C9301221092F7
:103AB000102211921393002314934FF46013159363
:103AC0000CA800F0B9F918B1D0211C48FFF712FF7B
:103AD0000F23079302210891002309934FF480627A
:103AE0000A920B9307A800F0EFFC18B1DE211348EF
:103AF000FFF700FF81230193002303934FF48073AA
:103B0000059301A8FFF7B0FA18B1E6210B48FFF7BB
:103B1000F1FE00F0CBFD0A4BA3FB00308009FFF75C
:103B200051F80420FFF764F800220F214FF0FF3016
:103B3000FFF70AF817B05DF804FB00BF385A000819
:103B4000D34D621070B594B0FFF776F8FFF7AAFF77
:103B5000FFF758FEFFF7D0FEFFF71CFFFFF760FFEF
:103B6000FFF77EFF1A4C0FAD26460FCE0FC5336808
:103B70002B6000210FA8FEF78FFE164B18600AADD0
:103B800004F114060FCE0FC533682B6000210AA87C
:103B9000FEF782FE104B186005AD04F128060FCE2B
:103BA0000FC533682B60002105A8FEF775FE0B4B8F
:103BB00018606D463C340FCC0FC523682B60002184
:103BC0006846FEF769FE064B1860FEF75FFEFEE7EB
:103BD00054590008302600203826002034260020C2
:103BE000B027002030B4036A23F480330362036AF1
:103BF0004468426D22F4803222F070020D682A433C
:103C000023F400338D6843EA05430D4DA8420BD0E1
:103C100005F5A055A84207D005F58065A84203D058
:103C200005F58065A84204D124F480344D6944EA46
:103C30000524446042654A688265036230BC70476F
:103C4000002C014030B4036A23F480130362026A3B
:103C50004468436D23F0807323F4E0430D6843EA26
:103C6000052322F400128D6842EA05520D4DA84248
:103C70000BD005F5A055A84207D005F58065A842F0
:103C800003D005F58065A84204D124F480244D6951
:103C900044EA8524446043654B68C365026230BCD6
:103CA000704700BF002C014038B590F83C30012B24
:103CB00000F093800D460446012380F83C30022337
:103CC00080F83D30142A00F28180DFE802F00B7F9B
:103CD0007F7F1E7F7F7F327F7F7F457F7F7F597F02
:103CE0007F7F6C000068FEF74DF82268936943F00F
:103CF000080393612268936923F0040393612268A7
:103D000091692B690B43936160E00068FEF780F8CE
:103D10002268936943F4006393612268936923F4F2
:103D20008063936122689369296943EA012393615F
:103D30004CE00068FEF7AAF82268D36943F0080354
:103D4000D3612268D36923F00403D3612268D16967
:103D50002B690B43D36139E00068FEF7D5F8226880
:103D6000D36943F40063D3612268D36923F4806389
:103D7000D3612268D369296943EA0123D36125E02D
:103D80000068FFF72FFF2268536D43F00803536567
:103D90002268536D23F0040353652268516D2B692B
:103DA0000B43536512E00068FFF74CFF2268536D28
:103DB00043F4006353652268536D23F480635365B5
:103DC0002268536D296943EA01235365012384F86E
:103DD0003D30002084F83C0038BD022038BD00BFD3
:103DE00090F83C30012B1DD030B4012380F83C30DA
:103DF00003685A689D680D4CA34203D122F47002F7
:103E00004C68224322F070020C68224325F08004A3
:103E1000896821435A6003689960002380F83C3028
:103E2000184601E00220704730BC7047002C01406A
:103E3000704700BF704700BF70B582B0044603688A
:103E400013F0010F00F09D80B64B5B6803F00C038C
:103E5000042B0AD0B34B5B6803F00C03082B1BD177
:103E6000B04B5B6813F4803F16D04FF4003393FAE5
:103E7000A3F3AC4B19684FF4003393FAA3F3B3FAEE
:103E800083F303F01F03012202FA03F3194278D0EF
:103E90006368002B75D1B8E26368B3F5803F05D144
:103EA000A04A136843F48033136026E063B903F13A
:103EB000804303F504331A6822F480321A601A68CA
:103EC00022F480221A6018E0B3F5A02F0CD103F180
:103ED0008043A3F53C331A6842F480221A601A68C2
:103EE00042F480321A6008E08E4B1A6822F4803265
:103EF0001A601A6822F480221A608A49CB6A23F079
:103F00000F02A3681343CB626368EBB1FEF7AEFE0A
:103F1000054605E0FEF7AAFE401B642800F2778202
:103F20004FF4003393FAA3F37E4B19684FF4003338
:103F300093FAA3F3B3FA83F303F01F03012202FA07
:103F400003F31942E6D01CE0FEF790FE054605E0BB
:103F5000FEF78CFE401B642800F25B824FF40033B6
:103F600093FAA3F36F4B19684FF4003393FAA3F35A
:103F7000B3FA83F303F01F03012202FA03F3194299
:103F8000E6D1236813F0020F00F09080654B5B6868
:103F900013F00C0F0AD0634B5B6803F00C03082B83
:103FA00027D1604B5B6813F4803F22D1022393FA40
:103FB000A3F35C4B1968022393FAA3F3B3FA83F3D8
:103FC00003F01F03012202FA03F3194203D023690D
:103FD000934240F020825348036823F0F80163695C
:103FE000F82292FAA2F2B2FA82F293400B430360F3
:103FF0005CE023699BB3012292FAA2F3B3FA83F344
:1040000003F1845303F584139B001A60FEF72EFE20
:10401000054605E0FEF72AFE401B022800F2FD815E
:10402000022393FAA3F33F4B1968022393FAA3F3F5
:10403000B3FA83F303F01F03012202FA03F31942D8
:10404000E8D03848036823F0F8016369F82292FA4F
:10405000A2F2B2FA82F293400B43036026E00123FE
:1040600093FAA3F3B3FA83F303F1845303F58413B0
:104070009B0000221A60FEF7F9FD054605E0FEF7F9
:10408000F5FD401B022800F2CA81022393FAA3F334
:10409000244B1968022393FAA3F3B3FA83F303F0D2
:1040A0001F03012202FA03F31942E8D1236813F037
:1040B000080F55D0A3693BB3012191FAA1F2B2FADE
:1040C00082F2194B13449B001960FEF7CFFD0546A1
:1040D00005E0FEF7CBFD401B022800F2A28102237F
:1040E00093FAA3F293FAA3F293FAA3F20D4A516A58
:1040F00093FAA3F3B3FA83F303F01F03012202FA46
:1041000003F31942E5D02BE0012292FAA2F2B2FAAF
:1041100082F2054B13449B0000221A60FEF7A6FDB5
:10412000054609E00010024020819010FEF79EFD38
:10413000401B022800F27781022393FAA3F293FA3C
:10414000A3F293FAA3F2BE4A516A93FAA3F3B3FA25
:1041500083F303F01F03012202FA03F31942E5D1AE
:10416000236813F0040F00F0BA80B54BDB6913F03D
:10417000805F0BD1B24BDA6942F08052DA61DB69C1
:1041800003F080530193019B012500E00025AD4B16
:104190001B6813F4807F13D1AA4A136843F4807319
:1041A0001360FEF763FD064605E0FEF75FFD801B2A
:1041B000642800F23A81A34B1B6813F4807FF4D08B
:1041C000E368012B05D19E4A136A43F00103136291
:1041D00022E063B903F1804303F504331A6A22F045
:1041E00001021A621A6A22F004021A6214E0052B14
:1041F00009D1934B1A6A42F004021A621A6A42F019
:1042000001021A6208E08E4B1A6A22F001021A6259
:104210001A6A22F004021A62E3686BB3FEF726FD05
:10422000064607E0FEF722FD801B41F288339842E4
:1042300000F2FD80022393FAA3F293FAA3F3B3FAF8
:1042400083F35B0943F00203DBB2022B02D17C4B08
:10425000196A04E0022393FAA3F3794B596A022303
:1042600093FAA3F3B3FA83F303F01F03012202FAD4
:1042700003F31942D6D02CE0FEF7F8FC064607E01F
:10428000FEF7F4FC801B41F28833984200F2D180A3
:10429000022393FAA3F293FAA3F3B3FA83F35B092D
:1042A00043F00203DBB2022B02D1654B196A04E032
:1042B000022393FAA3F3624B596A022393FAA3F3FE
:1042C000B3FA83F303F01F03012202FA03F3194246
:1042D000D6D125B15A4AD36923F08053D361E3691B
:1042E000002B00F0A880564A526802F00C02082AFF
:1042F00000F0A380022B5DD14FF0807393FAA3F3FB
:10430000B3FA83F303F1845303F584139B00002273
:104310001A60FEF7ABFC054605E0FEF7A7FC401B64
:10432000022800F291804FF0007393FAA3F3444BFC
:1043300019684FF0007393FAA3F3B3FA83F303F011
:104340001F03012202FA03F31942E6D13C484368F5
:1043500023F47411636A226A13430B4343604FF0E2
:10436000807393FAA3F3B3FA83F303F1845303F551
:1043700084139B0001221A60FEF778FC044604E0D7
:10438000FEF774FC001B022860D84FF0007393FA0C
:10439000A3F32B4B19684FF0007393FAA3F3B3FA0E
:1043A00083F303F01F03012202FA03F31942E7D05B
:1043B00000204EE04FF0807393FAA3F3B3FA83F337
:1043C00003F1845303F584139B0000221A60FEF767
:1043D0004DFC044604E0FEF749FC001B022837D8D8
:1043E0004FF0007393FAA3F3154B19684FF0007365
:1043F00093FAA3F3B3FA83F303F01F03012202FA43
:1044000003F31942E7D1002023E0012021E003203B
:104410001FE003201DE001201BE0032019E0032022
:1044200017E0032015E0032013E0032011E0032030
:104430000FE003200DE000200BE0012009E000BFA9
:104440000010024000700040032002E0032000E062
:10445000032002B070BD00BF164B5B6803F00C0276
:10446000082A25D103F470114FF4701292FAA2F2C7
:10447000B2FA82F221FA02F20F498A5C0D49C96A46
:1044800001F00F000F2191FAA1F1B1FA81F120FAA8
:1044900001F10A48405C13F4803F05D0084BB3FBA0
:1044A000F0F000FB02F07047064800FB02F0704796
:1044B0000348704700100240885A0008785A0008E4
:1044C00000127A0000093D0070B5744B1B6803F0C0
:1044D00007038B420BD2714A136823F007030B4387
:1044E0001360136803F00703994240F0C680036825
:1044F00013F0020F06D06A4C636823F0F002836861
:10450000134363600D460446036813F0010F75D032
:104510004268012A13D14FF4003393FAA3F3604B9E
:1045200018684FF4003393FAA3F3B3FA83F303F05C
:104530001F03012101FA03F3184227D19FE0022A49
:1045400013D14FF0007393FAA3F3554B18684FF053
:10455000007393FAA3F3B3FA83F303F01F0301216B
:1045600001FA03F3184211D18BE0022393FAA3F36B
:104570004B4B1868022393FAA3F3B3FA83F303F0C7
:104580001F03012101FA03F318427CD044494B6810
:1045900023F0030313434B60FEF768FB0646636892
:1045A000012B0ED106E0FEF761FB801B41F2883340
:1045B00098426AD83A4B5B6803F00C03042BF2D1A3
:1045C0001CE0022B15D106E0FEF750FB801B41F2E8
:1045D000883398425BD8324B5B6803F00C03082B9E
:1045E000F2D10BE0FEF742FB801B41F28833984288
:1045F0004FD82B4B5B6813F00C0FF3D1274B1B6884
:1046000003F007039D420AD2244A136823F00703EC
:104610002B431360136803F007039D423BD12368CB
:1046200013F0040F06D01E494B6823F4E062E368E0
:1046300013434B60236813F0080F07D0184A5368E0
:1046400023F46053216943EAC1035360FFF704FF79
:10465000134B5B6803F0F002F02393FAA3F3B3FA71
:1046600083F322FA03F30F4AD35CD8400E4B186051
:104670000020FEF749FB002070BD012070BD012025
:1046800070BD012070BD012070BD032070BD0320EE
:1046900070BD032070BD012070BD00BF002002402E
:1046A00000100240105A000868000020014B1868F2
:1046B000704700BF6800002008B5FFF7F7FF084B00
:1046C0005B6803F4E0624FF4E06393FAA3F3B3FA98
:1046D00083F322FA03F3034AD35CD84008BD00BF3A
:1046E00000100240205A000808B5FFF7DFFF084B12
:1046F0005B6803F460524FF4605393FAA3F3B3FA88
:1047000083F322FA03F3034AD35CD84008BD00BF09
:1047100000100240205A00080F2303600B4B5A6818
:1047200002F0030242605A6802F0F00282605A68A6
:1047300002F4E062C2605B68DB0803F4E0630361DB
:10474000034B1B6803F007030B6070470010024027
:1047500000200240704700BF704700BF38B50268B4
:10476000936803F00303012B05D1136813F0010FC5
:1047700003D1002302E0002300E00123002B30D00E
:10478000936803F00D03012B0BD10446936843F0AB
:1047900002039360036803221A60FEF767FA054676
:1047A00018E0436C43F010034364836C43F001034F
:1047B0008364012038BDFEF759FA401B022809D94D
:1047C000636C43F010036364A36C43F00103A364C0
:1047D000012038BD23689B6813F0010FEBD1002046
:1047E00038BD002038BD00BF38B50268936803F0BB
:1047F0000303012B05D1136813F0010F03D100232C
:1048000002E0002300E0012363BB9168164B1942CC
:1048100009D0436C43F010034364836C43F00103FD
:104820008364012038BD0446936843F0010393601C
:10483000FEF71CFA05460EE0FEF718FA401B0228A8
:1048400009D9636C43F010036364A36C43F0010364
:10485000A364012038BD23681B6813F0010FEBD05F
:10486000002038BD002038BD3F00008030B597B033
:1048700000230093002800F0FA800446436C13F0F4
:10488000100F52D1436C002B37D183640365C3648E
:1048900080F84030FEF716FF23689B6813F0805FB6
:1048A0002DD12046FFF75AFF636C13F0100F27D16C
:1048B00030BB636C23F4885323F0020343F00203FC
:1048C00063642268936823F040539360226893687E
:1048D00043F080539360674B1B68674AA2FB032336
:1048E0009B0C03EB83035A00009202E0009B013B08
:1048F0000093009B002BF9D102E0002000E0002093
:1049000023689A6812F0805F03D09B6813F0005F01
:104910000CD0636C23F0120343F010036364A36CA8
:1049200043F00103A364012000E00020636C13F056
:10493000100F40F09480002840F0918023689A681E
:1049400012F0040140F08B80626C22F4817242F01C
:1049500002026264B3F1A04F02D1484A019202E020
:104960004FF0A04201929A6802F00302012A05D199
:104970001B6813F0010F03D1002302E0002300E0C5
:1049800001239BB9019D55B1AA6802F00302012AD7
:1049900004D12A6812F0010F00D0012333B9384D39
:1049A000AB6823F4403263681343AB60E5696B0383
:1049B000A26B012A01D04FF4805141EA0302E3685F
:1049C0001343A2681A43636A012B11D135B9A36A54
:1049D000013B42EA434343F4803209E0636C23F035
:1049E000220343F020036364A36C43F00103A36438
:1049F000E16A012902D0236B0B431A4323689968AB
:104A000011F00C0F0BD1D96821F4804121F0020183
:104A1000D960A169636B5B0043EA81331A43216863
:104A2000CD68184B2B401343CB602369012B08D171
:104A300021680B6B23F00F02236A013B13430B63C6
:104A400004E02268136B23F00F0313630023A364B5
:104A5000636C23F0030343F00103636408E0636CB9
:104A600023F0120343F010036364012000E00120EF
:104A700017B030BD6800002083DE1B4300010050EA
:104A80000003005007C0F0FF03689B6813F0040F99
:104A900040F0928090F84030012B00F08F8010B5EC
:104AA0000446012380F84030FFF79EFE03460028AD
:104AB0007ED1626C22F4706222F0010242F48072B4
:104AC0006264404A926812F01F0F03D02268B2F16C
:104AD000A04F0FD1626C22F4801262642268D26807
:104AE00012F0007F1CD0626C22F4405242F48052DB
:104AF000626415E0616C41F480116164B2F1A04F11
:104B000002D031498A420BD14FF0A042D26812F054
:104B1000007F05D0626C22F4405242F480526264FD
:104B2000626C12F4805F04D0A26C22F00602A264D0
:104B300001E00022A264002284F8402022681C21A7
:104B400011606269082A0AD121684A6822F00402C9
:104B50004A6021684A6842F008024A6004E021681D
:104B60004A6842F00C024A60A26B012A04D1216813
:104B70004A6822F010024A60124A926812F01F0F2F
:104B80000FD0104A926802F01F02052A09D00D4A80
:104B9000926802F01F02092A03D02268B2F1A04FE6
:104BA0000ED121688A6842F004028A60184610BD5E
:104BB000002284F8402010BD022070470220704778
:104BC000184610BD00030050000100500368186C27
:104BD000704700BF704700BF704700BF704700BFFD
:104BE000704700BF10B5044603681A6812F0040F3E
:104BF00003D05A6812F0040F07D11A6812F0080F98
:104C000052D05A6812F0080F4ED0626C12F0100F9A
:104C100003D1626C42F400726264A54A926812F099
:104C20001F0F0ED0A24A926802F01F02052A08D078
:104C30009F4A926802F01F02092A02D0B3F1A04FE6
:104C400001D1D96802E04FF0A042D168DA6812F4CD
:104C5000406F23D111F4005F20D11A6812F0080FC1
:104C60001CD09A6812F0040F10D15A6822F00C027E
:104C70005A60636C23F480736364636C13F4805F25
:104C80000CD1636C43F00103636407E0636C43F091
:104C900010036364A36C43F00103A3642046FEF792
:104CA0005FFB23680C221A6023681A6812F0200F39
:104CB00003D05A6812F0200F07D11A6812F0400F83
:104CC00071D05A6812F0400F6DD0626C42F40052FD
:104CD0006264774A926812F01F0F0ED0744A92688D
:104CE00002F01F02052A08D0714A926802F01F02E2
:104CF000092A02D0B3F1A04F01D1D96802E04FF0E8
:104D0000A042D168DA6C12F0C00F09D011F0007F18
:104D100043D1DA6812F4406F3FD111F4005F3CD107
:104D20001A6812F0400F38D0614A926812F01F0FD3
:104D30000ED05F4A926802F01F02062A08D05C4A31
:104D4000926802F01F02072A02D0B3F1A04F01D1EE
:104D5000DA6802E04FF0A042D26812F4001F1CD1C2
:104D60009A6812F0080F10D15A6822F060025A6057
:104D7000636C23F480536364636C13F4807F0CD101
:104D8000636C43F00103636407E0636C43F010035A
:104D90006364A36C43F00103A3642046FFF71AFF8A
:104DA000236860221A6023681A6812F0800F0DD001
:104DB0005B6813F0800F09D0636C43F48033636445
:104DC0002046FFF7C7FC236880221A6023681A6810
:104DD00012F4807F0ED05B6813F4807F0AD0636C7E
:104DE00043F4003363642046FFF7F8FE23684FF472
:104DF00080721A6023681A6812F4007F0ED05B6814
:104E000013F4007F0AD0636C43F48023636420466C
:104E1000FFF7E6FE23684FF400721A6023681A68F1
:104E200012F0100F2CD05A6812F0100F28D0A26B7D
:104E3000012A11D01E4A926812F01F0F05D1DB68BB
:104E400013F0010F0AD100230BE0194B9B6813F4F8
:104E5000404F05D1002304E0012302E0012300E0DC
:104E6000012353B1636C43F480636364A36C43F028
:104E70000203A3642046FFF76FFC236810221A6028
:104E800023681A6812F4806F11D05A6812F4806F88
:104E90000DD0626C42F480426264A26C42F008025F
:104EA000A2644FF480621A602046FFF795FE10BDA1
:104EB0000003005070B497B00023009390F8403086
:104EC000012B00F09E81012380F840300268936836
:104ED00013F0040F40F083814B68042B0CD8156B42
:104EE00003EB43035E001F23B34025EA03040B6872
:104EF000B340234313632CE0092B0DD8566B03EB0F
:104F000043035C001E3C1F23A34026EA03050B68F5
:104F1000A3402B4353631CE00E2B0DD8966B03EB81
:104F200043035C003C3C1F23A34026EA03050B68B7
:104F3000A3402B4393630CE0D66B03EB43035C006D
:104F40005A3C1F23A34026EA03050B68A3402B43CA
:104F5000D3630268936813F00C0F40F088800B68ED
:104F6000092B0DD9946903EB43031E3B07259D4094
:104F700024EA05058C6804FA03F32B4393610BE0E4
:104F8000546903EB430307259D4024EA05058C681B
:104F900004FA03F32B4353614A690468E368C3F3DB
:104FA000C1035B0002FA03F30A69013A032A2FD80E
:104FB000DFE802F0020D1823226E944D15400A68B6
:104FC00043EA82632B4343F0004323664FE0626E63
:104FD0008E4D15400A6843EA82632B4343F0004339
:104FE000636644E0A26E894D15400A6843EA826315
:104FF0002B4343F00043A36639E0E56E834A2A4021
:105000000D6843EA8563134343F00043E3662EE0F3
:10501000236E03F0F8430A68B3EB826F03D1236E6B
:1050200023F0004323660268536E03F0F8430C68D4
:10503000B3EB846F03D1536E23F0004353660268D1
:10504000936E03F0F8430C68B3EB846F03D1936E57
:1050500023F0004393660268D36E03F0F8430C68B4
:10506000B3EB846F03D1D36E23F00043D3660268A1
:10507000936803F00303012B05D1136813F0010FAC
:1050800003D1002502E0002500E00125002D40F0BD
:10509000AC80CB68012B09D0D2F8B0400E68012358
:1050A000B34024EA0303C2F8B03028E0D2F8B0607D
:1050B0000B68012404FA03F33343C2F8B0300B68E1
:1050C000092B0ED90668B26903EB43031B3B072487
:1050D0009C4022EA04048A6802FA03F32343B36182
:1050E0000DE006687269013303EB430307249C401B
:1050F00022EA04048A6802FA03F3234373610B680B
:10510000102B04D1424A926812F4000F0DD0112BDB
:1051100004D13F4A926812F0807F06D0122B66D1EC
:105120003B4A926812F4800F63D10168B1F1A04F3D
:1051300002D1384A019202E04FF0A04201928A68FF
:1051400002F00302012A04D10A6812F0010F00D014
:105150000125002D3DD1019C5CB1A26802F0030243
:10516000012A04D1226812F0010F00D00125002D80
:105170002FD1102B18D1B1F1A04F15D1244A93682B
:1051800043F400039360244B1B68244AB3FBF2F200
:105190000A2303FB02F3009302E0009B013B009310
:1051A000009B002BF9D127E0112B09D1B1F1A04FC1
:1051B00006D1174A936843F08073936000231BE085
:1051C000122B18D1124A936843F480039360002392
:1051D00012E0436C43F02003436401230CE0436C72
:1051E00043F020034364012306E0002304E000238E
:1051F00002E0002300E00023002280F8402018464F
:1052000000E0022017B070BC704700BF00F0FF83C1
:1052100000030050000100506800002040420F00D1
:1052200090F84030012B00F08A8070B497B00123D1
:1052300080F840300368B3F1A04F02D1424A019296
:1052400002E04FF0A04201929B6813F0040F64D17A
:10525000019B9A6812F0040F5FD10A68002A33D0CC
:105260003A4DAA6822F460444A68466B42EA4632E4
:105270002243AA600468A26802F00302012A05D151
:10528000226812F0010F03D1002202E0002200E0A8
:105290000122002A47D19C6804F00304012C04D1A8
:1052A0001B6813F0010F00D00122002A3DD1274DC9
:1052B000AB6823F4716424F00F040B688A6813430D
:1052C0002343AB60002335E020498A6822F4604222
:1052D0008A6001688A6802F00302012A05D10A681F
:1052E00012F0010F03D1002202E0002200E00122AF
:1052F000EAB9996801F00301012904D11B6813F090
:10530000010F00D00122A2B9104A936823F47163FF
:1053100023F00F03936000230CE0436C43F0200361
:105320004364012306E0002304E0002302E000239D
:1053300000E00023002280F84020184601E002200F
:10534000704717B070BC7047000100500003005058
:1053500038B50446826803691A4343691A43C3692E
:105360001A4301680868634B034013430B602168CC
:105370004B6823F44052E36813434B60A269236AED
:105380001A4321688B6823F4306313438B602568CC
:10539000594B9D4212D103F558431B6B03F0030395
:1053A000032B09D8DFE803F002040613002313E0FF
:1053B000042311E008230FE010230DE04F4B9D4222
:1053C00007D003F580639D4205D1002304E002234A
:1053D00002E0002300E01023E269B2F5004F47D15C
:1053E000082B3BD8DFE803F005101B3A263A3A3A7F
:1053F0003100FFF761F963685A0802EB4000B0FB27
:10540000F3F39BB200202BE0FFF76EF963685A08B4
:1054100002EB4000B0FBF3F39BB2002020E0616898
:105420004A0802F5740303F51053B3FBF1F39BB282
:10543000002015E0FFF710F863685A0802EB4000FF
:10544000B0FBF3F39BB200200AE06268530803F557
:105450008033B3FBF2F39BB2002001E00120002374
:1054600023F00F02C3F3420313432268D36038BD15
:10547000082B3DD8DFE803F005101B3C273C3C3CE3
:105480003200FFF719F9636800EB5300B0FBF3F04B
:1054900080B2E860002038BDFFF726F9636800EBB2
:1054A0005300B0FBF3F080B2E860002038BD6168C3
:1054B0004A0802F5F40303F59053B3FBF1F39BB2F2
:1054C000EB60002038BDFEF7C7FF636800EB5300B8
:1054D000B0FBF3F080B2E860002038BD626853088A
:1054E00003F50043B3FBF2F39BB2EB60002038BD41
:1054F000012038BDF369FFEF00380140004400404F
:10550000436A13F0010F06D001684B6823F40032A0
:10551000836A13434B60436A13F0020F06D001689D
:105520004B6823F48032C36A13434B60436A13F021
:10553000040F06D001684B6823F48022036B1343E9
:105540004B60436A13F0080F06D001684B6823F4E0
:105550000042436B13434B60436A13F0100F06D0B5
:1055600001688B6823F48052836B13438B60436A1A
:1055700013F0200F06D001688B6823F40052C36B30
:1055800013438B60436A13F0400F11D001684B68DE
:1055900023F48012036C13434B60036CB3F5801F3C
:1055A00006D101684B6823F4C002436C13434B607F
:1055B000436A13F0800F06D001684B6823F4002281
:1055C000836C13434B6070472DE9F04105460F464D
:1055D00016469846069C1EE0B4F1FF3F1BD02CB146
:1055E000FDF744FBC8EB0000844214D22A6813681C
:1055F00023F4D07313602A68936823F00103936047
:10560000202385F8693085F86A30002385F86830F2
:105610000320BDE8F0812B68DB6937EA03030CBF88
:1056200001230023B342D7D00020BDE8F08100BFA2
:105630002DE9F04182B01E4690F86930DBB2202B94
:105640004FD104460D46904600294CD0002A4CD03C
:1056500090F86830012B4AD0012380F8683000238D
:10566000C366212380F86930FDF700FB0746A4F8E4
:105670005080A4F852801FE0B4F852309BB2013B36
:105680009BB2A4F8523000963B460022802120466F
:10569000FFF79AFF68BBA368B3F5805F08D1236961
:1056A00033B9226835F8023BC3F30803138503E0DE
:1056B00023682A781A850135B4F852309BB2002B42
:1056C000DAD100963B46002240212046FFF77CFFBE
:1056D000034680B9202284F86920002284F86820DB
:1056E0000AE0022308E0012306E0012304E002238C
:1056F00002E0032300E00323184602B0BDE8F08176
:105700002DE9F04182B01E4690F86A30DBB2202BC2
:1057100071D104460D46904600296ED0002A6ED005
:1057200090F86830012B6CD0012380F8683000239A
:10573000C366222380F86A30FDF798FA0746A4F87A
:105740005880A4F85A80A368B3F5805F0AD1236912
:1057500023B940F2FF13A4F85C301AE0FF23A4F849
:105760005C3016E04BB923691BB9FF23A4F85C3009
:105770000FE07F23A4F85C300BE0B3F1805F08D129
:1057800023691BB97F23A4F85C3002E03F23A4F80F
:105790005C30B4F85C8022E0B4F85A309BB2013B34
:1057A0009BB2A4F85A3000963B46002220212046A6
:1057B000FFF70AFF38BBA368B3F5805F08D1236900
:1057C00033B923689B8C08EA030325F8023B06E003
:1057D00023689B8C5FFA88F213402B700135B4F874
:1057E0005A309BB2002BD7D1202384F86A30002096
:1057F00084F8680008E0022006E0012004E00120AF
:1058000002E0022000E0032002B0BDE8F08100BF0A
:1058100030B583B004460023C366FDF727FA05467A
:1058200023681B6813F0080F0AD06FF07E430093C3
:10583000034600224FF400112046FFF7C5FEC0B911
:1058400023681B6813F0040F0AD06FF07E430093A7
:105850002B4600224FF480012046FFF7B5FE50B9D9
:10586000202384F8693084F86A30002084F86800C6
:1058700002E0032000E0032003B030BD80B310B588
:10588000044690F8693013F0FF0F04D1002380F82C
:105890006830FDF76FFF242384F8693022681368AD
:1058A00023F0010313602046FFF752FD012819D0B1
:1058B000636A13B12046FFF723FE2268536823F47E
:1058C000904353602268936823F02A039360226810
:1058D000136843F0010313602046FFF799FF10BDE2
:1058E0000120704710BD00BFDFF834D0002103E075
:1058F0000C4B5B58435004310B480C4B42189A42F6
:10590000F6D30B4A02E0002342F8043B094B9A42CB
:10591000F9D3FDF777FCFAF78DFCFEF713F9FEE7F4
:1059200000300020E05A0008000000206C00002039
:105930006C000020B8270020FEE70000F8B500BF8B
:10594000F8BC08BC9E467047F8B500BFF8BC08BC60
:045950009E467047B8
:105954006C5A0008C938000800000000000000006C
:1059640080000000605A0008C5350008FDFF0000F3
:105974000000000000010000505A0008F53500083E
:10598400FDFF00000000000000010000445A000870
:1059940031360008FDFF0000000000000001000097
:1059A40004000020000000000000000000000000CF
:1059B40000000000000000000000000000000000E3
:1059C40000000000000000000000000000000000D3
:1059D40000000000000000000000000000000000C3
:1059E40000000000000000000000000000000000B3
:1059F40000000000000000000000000000000000A3
:105A04000000000049444C45000000000000000074
:105A1400000000000102030406070809000000005A
:105A24000102030456616C7565203A20256C750AE1
:105A34000D0000005372632F6D61696E2E630000C8
:105A4400756172745F7461736B0000006164635FFD
:105A5400646D615F7461736B000000006D6F746F3F
:105A6400725F7461736B000064656661756C745475
:105A740061736B000102030405060708090A0B0C95
:105A84000D0E0F1002030405060708090A0B0C0D7E
:105A94000E0F101043000000232D302B20000000B7
:105AA400686C4C0065666745464700003031323308
:105AB4003435363738394142434445460000000006
:105AC4003031323334353637383961626364656670
:045AD40000000000CE
:045AD800FD010008C4
