:020000040800F2
:1000000000300020053E0008553E0008553E00081F
:10001000553E0008553E0008553E0008000000000F
:100020000000000000000000000000008115000832
:10003000553E000800000000211600087913000852
:10004000553E0008553E0008553E0008553E000844
:10005000553E0008553E0008553E0008553E000834
:10006000553E0008553E0008553E0008553E000824
:10007000553E0008553E0008553E0008553E000814
:10008000553E0008553E000881130008553E000803
:10009000553E0008553E0008553E0008553E0008F4
:1000A00091130008553E0008553E0008553E0008D3
:1000B000553E0008553E000800000000553E00086F
:1000C000553E00080000000000000000553E0008FA
:1000D00000000000553E0008553E0008553E00084F
:1000E000553E0008553E00080000000000000000DA
:1000F0000000000000000000000000000000000000
:1001000000000000000000000000000000000000EF
:100110000000000000000000553E0008553E0008A9
:1001200000000000000000000000000000000000CF
:1001300000000000000000000000000000000000BF
:10014000553E0008553E0008000000000000000079
:10015000000000000000000000000000000000009F
:10016000000000000000000000000000000000008F
:10017000000000000000000000000000000000007F
:0801800000000000553E0008DC
:10019000044B05481B1A062B02D9044B03B1184720
:1001A000704700BF0B000020080000200000000086
:1001B00005490648091A891001EBD171491002D08E
:1001C000034B03B1184770470800002008000020C7
:1001D0000000000010B5064C237843B9FFF7D8FFA4
:1001E000044B13B10448AFF300800123237010BD0A
:1001F0000800002000000000A43E000808B5084BDD
:100200001BB108480849AFF300800848036813B9D8
:10021000BDE80840CCE7064B002BF9D09847F7E73C
:1002200000000000A43E00080C0000200800002090
:1002300000000000704700BF022380F83D300268D4
:10024000136843F001031360012380F83D30002060
:10025000704700BF0268D36843F00103D3600268AF
:10026000136843F00103136000207047704700BF1C
:10027000704700BF704700BF704700BF10B504460D
:1002800003681A6912F0020F17D0DA6812F0020F31
:1002900013D06FF002021A610123037703689B6990
:1002A00013F0030F02D0FFF7E3FF04E0FFF7DEFFD8
:1002B0002046FFF7DFFF0023237723681A6912F037
:1002C000040F19D0DA6812F0040F15D06FF0040291
:1002D0001A610223237723689B6913F4407F03D0BC
:1002E0002046FFF7C5FF05E02046FFF7BFFF204689
:1002F000FFF7C0FF0023237723681A6912F0080F65
:1003000019D0DA6812F0080F15D06FF008021A61E0
:10031000042323772368DB6913F0030F03D02046FF
:10032000FFF7A6FF05E02046FFF7A0FF2046FFF7F6
:10033000A1FF0023237723681A6912F0100F19D048
:10034000DA6812F0100F15D06FF010021A6108234E
:1003500023772368DB6913F4407F03D02046FFF73F
:1003600087FF05E02046FFF781FF2046FFF782FF69
:100370000023237723681A6912F0010F09D0DA6885
:1003800012F0010F05D06FF001021A61204601F052
:1003900023FE23681A6912F0800F09D0DA6812F080
:1003A000800F05D06FF080021A61204602F0CEF86F
:1003B00023681A6912F0400F09D0DA6812F0400F72
:1003C00005D06FF040021A612046FFF755FF236801
:1003D0001A6912F0200F09D0DA6812F0200F05D048
:1003E0006FF020021A61204602F0AEF810BD00BF87
:1003F0000368224A904206D0B0F1804F03D0A2F5A4
:100400009432904203D123F070034A6813431B4A8D
:10041000904212D0B0F1804F0FD0A2F594329042AA
:100420000BD002F59E32904207D002F580629042D6
:1004300003D002F58062904203D123F44073CA686E
:10044000134323F080034A69134303608B68C3623C
:100450000B688362094B98420BD003F5A053984276
:1004600007D003F58063984203D003F58063984278
:1004700001D10B690363012343617047002C0140E4
:10048000C0B110B5044690F83D3013F0FF0F04D111
:10049000002380F83C30FFF7CDFE022384F83D3086
:1004A000214651F8040BFFF7A3FF012384F83D30E8
:1004B000002010BD01207047C0B110B5044690F86F
:1004C0003D3013F0FF0F04D1002380F83C3001F0E1
:1004D0009FFC022384F83D30214651F8040BFFF7BE
:1004E00087FF012384F83D30002010BD01207047B4
:1004F00030B4036A23F001030362036A446882692B
:1005000022F4803222F073020D682A4323F00203A2
:100510008D682B43184DA8420BD005F5A055A84275
:1005200007D005F58065A84203D005F58065A8428F
:1005300005D123F00803CD682B4323F004030E4DAF
:10054000A8420BD005F5A055A84207D005F5806557
:10055000A84203D005F58065A84205D124F4407473
:100560004D692C438D692C43446082614A68426323
:10057000036230BC704700BF002C014030B4036AF6
:1005800023F010030362036A4468826922F08072D8
:1005900022F4E6420D6842EA052223F020038D682A
:1005A00043EA0513134DA84206D123F08003CD681A
:1005B00043EA051323F040030E4DA8420BD005F586
:1005C000A055A84207D005F58065A84203D005F5DF
:1005D0008065A84207D124F440644D6944EA85044B
:1005E0008D6944EA8504446082614A6882630362DB
:1005F00030BC7047002C014030B4036A23F4807390
:100600000362036A4468C26922F4803222F07302F2
:100610000D682A4323F400738D6843EA0523144DC3
:10062000A84206D123F40063CD6843EA052323F4EE
:1006300080630F4DA8420BD005F5A055A84207D006
:1006400005F58065A84203D005F58065A84207D16D
:1006500024F440544D6944EA05148D6944EA0514B4
:100660004460C2614A68C263036230BC704700BF25
:10067000002C014030B4036A23F480530362026A01
:100680004468C36923F0807323F4E6430D6843EAAA
:10069000052322F400528D6842EA05320D4DA8422E
:1006A0000BD005F5A055A84207D005F58065A842F6
:1006B00003D005F58065A84204D124F480444D6937
:1006C00044EA85144460C3614B680364026230BC31
:1006D000704700BF002C014010B401238B40046A16
:1006E00024EA03030362036A8A401A4302625DF844
:1006F000044B704710B5044600680122FFF7ECFF79
:100700002368124A93420DD002F5A05293420BD0B7
:1007100002F58062934209D002F58062934207D1CC
:10072000012206E0012204E0012202E0012200E0B1
:1007300000221AB15A6C42F400425A6422681368CB
:1007400043F001031360002010BD00BF002C0140E6
:100750000A4B1B681B680BB9012300E0002323B17F
:100760004FF0FF32064B1A607047044B1B68DB6882
:10077000DB685A68024B1A60704700BF28000020EF
:100780000401002010B50446006B00F043FD204634
:1007900000F040FD10BD00BF2DE9F04781469846AE
:1007A000089D099F0A9C236B02F18042013A03EBEA
:1007B000820626F00706002306E0C85CE21882F8ED
:1007C0003400CA5C12B101330F2BF6D9002384F830
:1007D0004330062D00D90625E56265644FF0000A16
:1007E000C4F848A0201D00F007FE04F1180000F036
:1007F00003FE2461C5F10705A5616462C4F84CA03D
:1008000084F850A030464946424600F0A1FE2060E0
:1008100007B13C60BDE8F08738B5002407E004EB81
:1008200084039B000E48184400F0DAFD0134062CC6
:10083000F5D90C4D284600F0D3FD0B4C204600F0B6
:10084000CFFD0A4800F0CCFD094800F0C9FD094879
:1008500000F0C6FD084B1D60084B1C6038BD00BF92
:100860004C0000200C01002020010020E8000020A6
:100870003000002034010020280000204400002027
:1008800010B5044600F08EFE204A13680133136051
:100890001F4B1B683BB91E4B1C601368012B0DD10D
:1008A000FFF7BAFF0AE01B4B1B683BB9184B1B68EC
:1008B000DA6AE36A9A4201D8154B1C60164A13683B
:1008C00001331360E06A0123834014490A6813432B
:1008D0000B6000EB80008000114B1844211D00F0DC
:1008E0008FFD00F081FE0B4B1B686BB1084B1B6842
:1008F000DA6AE36A9A4207D24FF08052094B1A60D3
:10090000BFF34F8FBFF36F8F10BD00BFE00000201B
:10091000E40000202C0000200801002048010020F5
:100920004C00002004ED00E070B504460E461C4B60
:100930001D681C4B1868043000F088FD48B9194B3D
:100940001B68DA6A0123934017490A6822EA030305
:100950000B60B4F1FF3F07D136B1124B1968134851
:10096000043100F04DFD70BD2C440E4B1B685C60E3
:10097000AC4207D20E4B18680A4B1968043100F0DC
:100980004BFD70BD0B4B1868064B1968043100F025
:1009900043FD094B1B689C4201D2074B1C6070BD94
:1009A00000010020E4000020480100203401002064
:1009B0004400002028000020040100202DE9F0431D
:1009C00085B080460F4615461E46900000F0ACFBF1
:1009D00060B18146542000F0A7FB044610B1C0F876
:1009E000309004E0484600F015FC00E000248CB193
:1009F0000C9B00930D9B01930294002303934046AC
:100A000039462A463346FFF7C7FE2046FFF738FF30
:100A1000012001E04FF0FF3005B0BDE8F08300BFDA
:100A200000B583B000230093164A01921648174977
:100A30008022FFF7C3FF012814D14FF0500383F346
:100A40001188BFF36F8FBFF34F8F4FF0FF32104B02
:100A50001A6001220F4B1A6000220F4B1A6000F03F
:100A60003DFE0BE0B0F1FF3F08D14FF0500383F3A0
:100A70001188BFF36F8FBFF34F8FFEE703B05DF8B0
:100A800004FB00BFFC0000206D0D0008203F0008A3
:100A9000040100202C00002000010020024A1368FD
:100AA00001331360704700BFD8000020F8B53D4BFC
:100AB0001B68002B69D13C4B1D6801351D60C5B911
:100AC0003A4B1B681B6843B14FF0500383F3118806
:100AD000BFF36F8FBFF34F8FFEE7344A1168344B7B
:100AE000186810601960334A136801331360FFF708
:100AF0002FFE314B1B689D4203D200243AE00124B3
:100B000000E00024294B1B681B680BB9012300E09F
:100B1000002323B14FF0FF32274B1A602AE0234B0A
:100B20001B68DB68DE6873689D4202D2224A13604C
:100B300020E0371D384600F089FCB36A1BB106F18E
:100B4000180000F083FCF36A012202FA03F11B484B
:100B500002680A43026003EB83039B0018481844B1
:100B6000394600F04DFCF26A164B1B68DB6A9A426C
:100B7000C5D2C7E7134B1B68DB6A03EB83039B00FB
:100B80000F4AD358012B06D806E00F4A13680133E9
:100B90001360002400E001240C4B1B6803B1012406
:100BA0002046F8BDD80000200001002028000020C9
:100BB00044000020240000200401002048010020FF
:100BC0004C000020E4000020480000204C010020E0
:100BD00038B5344B1B6843B94FF0500383F3118889
:100BE000BFF36F8FBFF34F8FFEE700F0DBFC2D4BA1
:100BF0001A68013A1A601B68002B4CD12A4B1B68FB
:100C000033BB00244AE0294BDB68DC6804F11800A0
:100C100000F01CFC251D284600F018FCE36A0122A8
:100C200002FA03F1224802680A43026003EB8303DD
:100C30009B0020481844294600F0E2FBE26A1E4B64
:100C40001B68DB6A9A4204D301221C4B1A6000E045
:100C50000024164B1B68002BD5D10CB1FFF778FD93
:100C6000174B1C6854B1FFF721FF10B10122134B41
:100C70001A60013CF7D10022114B1A600F4B1B6820
:100C80005BB14FF080520F4B1A60BFF34F8FBFF331
:100C90006F8F012402E0002400E0002400F0A4FC97
:100CA000204638BDD8000020E0000020E8000020E9
:100CB000480100204C000020E40000204C010020EE
:100CC0004800002004ED00E010B5A8B10446104B28
:100CD0001B6843B14FF0500383F31188BFF36F8F4C
:100CE000BFF34F8FFEE7FFF7D9FE20460021FFF745
:100CF0001BFEFFF76DFF00E0002038B94FF0805277
:100D0000044B1A60BFF34F8FBFF36F8F10BD00BF4E
:100D1000D800002004ED00E010B51BE0FFF7BEFE98
:100D20000F4B1C68FFF754FFA4B100F03BFC0C4BC9
:100D3000DB68DC68201D00F089FB0A4A1368013B70
:100D40001360094A1368013B136000F04DFC204614
:100D5000FFF718FD044B1B68002BDFD110BD00BF4F
:100D600030000020E0000020DC00002008B5FFF784
:100D7000D3FF064B1B68012BF9D94FF08052044B6F
:100D80001A60BFF34F8FBFF36F8FF0E74C00002066
:100D900004ED00E0204B1B681BB101221F4B1A60C1
:100DA000704700221D4B1A601D4B1B68B3FA83F37A
:100DB000DBB2C3F11F0303EB8302920019498A5887
:100DC00042B94FF0500383F31188BFF36F8FBFF325
:100DD0004F8FFEE710B4134C9A00D11889002144BC
:100DE0004868406848601A449200083222449042A1
:100DF00005D1416803EB830292002244516003EB6A
:100E000083039B00074A13445B68DA68064B1A6049
:100E10005DF8044B704700BFD80000204C01002053
:100E2000480100204C000020E4000020054B1B6816
:100E300023B1054B1B681BB9022070470120704786
:100E4000002070472C000020D80000202DE9F04140
:100E500082B00023B8E001249C40224000F0B3801F
:100E60004D68022D01D0122D14D14FEAD30E0EF190
:100E7000080E50F82E7003F007084FEA88080F2577
:100E800005FA08F527EA05060D6905FA08F5354360
:100E900040F82E5006684FEA430E032505FA0EF57A
:100EA000ED4305EA06074E6806F0030606FA0EF65D
:100EB0003E4306604E68771E012F03D9112E01D0E4
:100EC000122E12D1866805EA0607CE6806FA0EF6DB
:100ED0003E438660476827EA04074E68C6F300145D
:100EE00004FA0CF646EA07044460C4682C408D6896
:100EF00005FA0EF52543C5604C6814F0805F62D09A
:100F0000364CA56945F00105A561A46904F001040A
:100F10000194019C9F08BD1C314C54F8256003F0DE
:100F2000030E4FEA8E0E0F2404FA0EF426EA04058F
:100F3000B0F1904F12D02B4CA0420DD004F580643C
:100F4000A04207D004F58064A04201D1032406E04A
:100F5000052404E0022402E0012400E0002404FA55
:100F60000EF42C4302371E4D45F827401E4C2568D1
:100F7000D44304EA05064F6817F4803F01D042EAE3
:100F80000506194D2E606D6804EA05064F6817F4D2
:100F9000003F01D042EA0506134D6E60AD6804EAD9
:100FA00005064F6817F4801F01D042EA05060E4D72
:100FB000AE60ED682C404E6816F4001F01D042EA86
:100FC0000504094AD46001330A689C4632FA03F4E6
:100FD0007FF441AF02B0BDE8F08100BF00100240D5
:100FE0000000014000040048000401400AB1816192
:100FF00070478162704700BF436959404161704743
:10100000842801D0033070470020704708B5FFF7EF
:1010100007FD002008BD00BFF0B585B00C4647684D
:1010200006680569B0F90800FFF7EAFF009003AB16
:10103000019338463146AAB22346FFF7BFFC012888
:1010400001D1039800E0002005B0F0BD08B508B953
:101050000120FFE7FFF738FE002008BD08B5FFF7C5
:10106000E5FE012801D000F00DFB08BD124A12F088
:10107000070F07D0D11D21F00701C1F5105313440C
:101080000A4601E04FF410530C4802600021416011
:101090001344083B23F007030948036059601960B3
:1010A000991A51601360074B1960074B19604FF094
:1010B0000042064B1A607047600100205801002072
:1010C00054010020642500205001002060250020EC
:1010D000134A00E01A4613688342FBD310B45168E8
:1010E0005418844203D1406801445160104641685D
:1010F00044189C420CD10B4C2468A34206D05B6878
:101100001944416013681B68036002E0046000E05A
:101110000360824200D010605DF8044B704700BF4E
:10112000580100205401002070B50446FFF7B6FCBA
:10113000334B1B680BB9FFF799FF324B1B681C42FE
:1011400047D134B1083414F0070F02D024F007045B
:101150000834002C3FD02C4B1B689C423DD82B4BB5
:101160001D6801E02B4615466A68A24202D22A6831
:10117000002AF7D1224A1268954230D01E680836FC
:101180002A681A606B681B1B102B10D9281910F0E5
:10119000070F08D04FF0500383F31188BFF36F8F10
:1011A000BFF34F8FFEE743606C60FFF791FF6A6803
:1011B00015490B689B1A0B60154909688B4201D2CF
:1011C00013490B600F4B1B6813436B6000232B60AC
:1011D00006E0002604E0002602E0002600E00026EB
:1011E000FFF7F6FC16F0070F08D04FF0500383F31B
:1011F0001188BFF36F8FBFF34F8FFEE7304670BD8E
:1012000054010020602500205001002058010020DA
:1012100064250020A0B338B50346A0F1080550F8B6
:10122000042C1849096812EA010408D14FF0500350
:1012300083F31188BFF36F8FBFF34F8FFEE750F832
:10124000080C40B14FF0500383F31188BFF36F8F48
:10125000BFF34F8FFEE794B188B91C4622EA010222
:1012600043F8042CFFF71AFC54F8041C064A1368D0
:101270000B4413602846FFF72BFFFFF7A9FC38BD8E
:10128000704700BF602500205001002000F00700DB
:10129000064AD36823F4E0631B041B0C43EA0020D6
:1012A00040F0BF6040F40030D060704700ED00E0D7
:1012B00030B4164BDC68C4F30224C4F10705042DD6
:1012C00028BF0425231D062B01D9033C00E0002480
:1012D000012303FA05F5013D2940A140A340013B4C
:1012E0001A400A43002806DA00F00F001201D2B2B9
:1012F000074B1A5407E01201D2B200F1604000F52A
:10130000614080F8002330BC704700BF00ED00E072
:1013100014ED00E0410900F01F0001238340024A60
:1013200042F82130704700BF00E100E00138B0F121
:10133000807F0AD2064B5860F021064A82F82310BB
:101340000020986007221A6070470120704700BF94
:1013500010E000E000ED00E0042805D1054A136824
:1013600043F0040313607047024A136823F0040338
:101370001360704710E000E008B5FFF76FFE08BD8E
:1013800008B5024801F0B2FF08BD00BF1C260020CE
:1013900008B50248FEF772FF08BD00BF9025002087
:1013A00008B5074A136843F0100313600320FFF7E2
:1013B0006DFF002000F05CF800F0C2FC002008BDCA
:1013C00000200240024A136801331360704700BFD7
:1013D0008C250020014B1868704700BF8C25002029
:1013E00000F1080343604FF0FF328260C360036185
:1013F00000230360704700BF00230361704700BFF4
:1014000043684B609A688A609A6851609960086185
:10141000036801330360704730B40D68B5F1FF3FD6
:1014200001D1026907E000F1080200E01A465368A2
:101430001C68AC42FAD953684B6099608A6051606D
:10144000086103680133036030BC70470369426878
:10145000816891608268416851605A68824201D116
:1014600082685A600022026118680138186070476B
:1014700000B589B0014618200022FFF719FF182097
:10148000FFF748FF144B9A6942F480329A619B69D6
:1014900003F480330193019B03A802A901F0C0FC6F
:1014A00001F0A8FC0D4BA3FB00239B0C013B0C4857
:1014B0000C4A026040F2E732C260436000230361DD
:1014C0008360FEF7DDFF18B90548FEF7C3FE00E0B4
:1014D000012009B05DF804FB0010024083DE1B43CD
:1014E00090250020004001400B4B1B68B3F1FF3FEB
:1014F00008D04FF0500383F31188BFF36F8FBFF311
:101500004F8FFEE74FF0500383F31188BFF36F8FC7
:10151000BFF34F8FFEE700BF0000002006480068C1
:10152000006880F3088862B661B6BFF34F8FBFF3DF
:101530006F8F00DF00BF000008ED00E0DFF80C0057
:10154000016841F4700101607047000088ED00E01F
:101550004FF0807340F8043C21F0010140F8081C72
:10156000054B40F80C3C40F8202C6FF0020340F88B
:10157000243C4438704700BFE91400080000000014
:10158000074B19680868B0E8F04F80F30988BFF38B
:101590006F8F4FF0000080F311887047AFF3008029
:1015A000E40000204FF0500383F31188BFF36F8FE6
:1015B000BFF34F8F0A4A136801331360012B0DD11B
:1015C000084B1B6813F0FF0F08D04FF0500383F354
:1015D0001188BFF36F8FBFF34F8FFEE7704700BFD7
:1015E0000000002004ED00E0094B1B6843B94FF0F8
:1015F000500383F31188BFF36F8FBFF34F8FFEE764
:10160000013B034A13600BB983F31188704700BF95
:1016100000000020000000000000000000000000AA
:10162000EFF30980BFF36F8F154B1A681EF0100F90
:1016300008BF20ED108A20E9F04F10604DF8043DFE
:101640004FF0500080F31188BFF34F8FBFF36F8FBF
:10165000FFF7A0FB4FF0000080F3118808BC196869
:101660000868B0E8F04F1EF0100F08BFB0EC108A09
:1016700080F30988BFF36F8F704700BFAFF300801E
:10168000E400002008B54FF0500383F31188BFF346
:101690006F8FBFF34F8FFFF709FA18B14FF08052E9
:1016A000024B1A60002383F3118808BD04ED00E0AB
:1016B000064B1B68064AA2FB03239B09013B054A14
:1016C00013600722044B1A60704700BF040000201B
:1016D000D34D621014E000E010E000E0314B1A68D6
:1016E000314B9A4208D14FF0500383F31188BFF376
:1016F0006F8FBFF34F8FFEE72A4B1A682B4B9A422E
:1017000008D14FF0500383F31188BFF36F8FBFF3FD
:101710004F8FFEE700B583B0254B1A78D2B2019205
:10172000FF221A701B78DBB28DF803309DF803306E
:1017300003F050031F4A137007221F4B1A6009E081
:101740001D4A1368013B13609DF803305B00DBB258
:101750008DF803309DF8033013F0800FF0D1164A56
:1017600013681B0203F4E0631360019BDBB2104AB1
:101770001370124B1A6842F470021A601A6842F031
:1017800070421A60FFF794FF00220D4B1A60FFF7BA
:10179000D5FE0C4A136843F040431360FFF7BEFECA
:1017A000FFF7A2FE00ED00E071C20F4170C20F41D1
:1017B00000E400E0682500206C25002020ED00E01A
:1017C0000000002034EF00E0F0B583B00446036869
:1017D00013F4803F00F089805E4BDB6913F0805F7B
:1017E0000BD15C4BDA6942F08052DA61DB6903F0BD
:1017F00080530193019B012500E00025564B1B6897
:1018000013F4807F13D1544A136843F48073136038
:10181000FFF7E0FD064605E0FFF7DCFD801B6428CE
:1018200000F291804C4B1B6813F4807FF4D0494B3D
:101830001B6A13F440734CD0626802F440729A42FF
:1018400047D0444E306A20F440774FF4803191FA0B
:10185000A1F3B3FA83F3414A13449B004FF0010E06
:10186000C3F800E091FAA1F1B1FA81F10A449200C3
:1018700000231360376210F0010F2AD0FFF7AAFD92
:10188000064606E0FFF7A6FD801B41F2883398422A
:101890005BD8022393FAA3F293FAA3F3B3FA83F388
:1018A00043F040035B09022B02D12A4B196A04E082
:1018B000022393FAA3F3274B596A022393FAA3F363
:1018C000B3FA83F303F01F03012202FA03F3194270
:1018D000D8D020490B6A23F44072636813430B622B
:1018E0001DB1CB6923F08053CB61236813F0010F46
:1018F00006D018490B6B23F00302A36813430B6354
:10190000236813F0200F06D012490B6B23F010024E
:10191000E36813430B63236813F0800F06D00D496F
:10192000CB6A23F4F87223691343CB62236813F460
:10193000805F0CD007490B6B23F4807263691343FB
:101940000B63002004E0032002E0032000E00020FD
:1019500003B0F0BD00100240007000400081901004
:101960001549D1F8883043F47003C1F88830134B1F
:101970001A6842F001021A605868114A02405A601F
:101980001A6822F0847222F480321A601A6822F4F3
:1019900080221A605A6822F4FE025A60DA6A22F043
:1019A0000F02DA62186B074A02401A6300229A603B
:1019B0004FF000638B60704700ED00E000100240C4
:1019C0000CC07FF8CCFC00FF38B5074C0546B0FAD8
:1019D00080F2520920460221FFF708FB2046012130
:1019E000EAB2FFF703FB38BD0014004810B5044607
:1019F000B0FA80F252094FF090404FF40061FFF7C7
:101A0000F5FA03482021E2B2FFF7F0FA10BD00BF5B
:101A10000004004810B5064C204602210022FFF7C2
:101A2000E5FA204601210022FFF7E0FA10BD00BFD1
:101A30000014004808B54FF090404FF400610022B8
:101A4000FFF7D4FA024820210022FFF7CFFA08BDA1
:101A500000040048034B1B684FF4A0725A631A64D9
:101A6000704700BFDC25002010B5002407E0064BBE
:101A70001B685C631C6414343220FFF7E7FAB4F58A
:101A8000A07FF4D110BD00BFDC25002010B54FF4BD
:101A9000A07407E0054B1B685C631C64143C322097
:101AA000FFF7D4FA002CF5D110BD00BFDC250020D3
:101AB00008B50020FFF79AFF0020FFF785FFFFF72A
:101AC000D3FF4FF4EB70FFF7C1FAFFF7DFFFFFF72B
:101AD000B1FFFFF79FFF08BD08B50120FFF786FFA4
:101AE0000120FFF771FFFFF7BFFF4FF4EB70FFF727
:101AF000ADFAFFF7CBFFFFF79DFFFFF78BFF08BDA8
:101B000008B5FFF7A7FF0120FFF75EFF0020FFF7F2
:101B10006DFF2820FFF79AFAFFF7B8FFFFF78AFF5B
:101B2000FFF778FF08BD00BF08B5FFF793FF01205E
:101B3000FFF75CFF0020FFF747FF2820FFF786FA3A
:101B4000FFF7A4FFFFF776FFFFF764FF08BD00BFB4
:101B500008B51A4B1B68002B05DDFFF7A9FF174AD4
:101B60001368013B1360154B1B68002B05DAFFF768
:101B7000B3FF124A136801331360104B1B6813B98B
:101B800001220F4B1A600F4B1B68002B05DDFFF77E
:101B9000CBFF0C4A1368013B13600A4B1B68002BF8
:101BA00005DAFFF7ADFF074A136801331360054BF1
:101BB0001B6813B90122044B1A6008BD7C25002064
:101BC00088250020802500207825002008B501F018
:101BD00081FB034B18600122024B1A6008BD00BF55
:101BE0008425002074250020294B1B6840F6D7620D
:101BF000934201D8002000E00620A3F6A662312A15
:101C000000D80720A3F66652B2F5A07F00D20820C4
:101C1000A3F64442B2F58C7F00D20920A3F53462CA
:101C2000B2F5827F00D20A20A3F68222BD2A00D814
:101C30000B20A3F6CE12B32A00D80C20A3F69C12D8
:101C4000312A00D80D20A3F6CA02D12A00D80E20CE
:101C5000A3F65C026D2A00D80F20A3F61602452ACF
:101C600000D81020A3F2B272632A00D81120A3F288
:101C700076723B2A00D81220A3F23A723B2A00D88F
:101C80001320A3F2F463452B00D81420704700BF43
:101C90008425002008B5FFF7A7FF28B1142803DC2E
:101CA0000122034B1A6008BD0022014B1A6008BDD7
:101CB0007025002008B501E0FFF7FAFE054B1B6810
:101CC000002BF9D00022044B1A600122034B1A604A
:101CD00008BD00BF702500207C250020882500203D
:101CE00008B5FFF7E7FFFFF71FFFFAE708B54FF06A
:101CF00090404FF480710122FFF778F9074C20469D
:101D0000FEF79AFA20460021FEF7F4FC20460C214B
:101D1000FEF7F0FCFFF71CFFFCE700BFDC2500200E
:101D200008B5034801F034FAFFF7B4FFF9E700BF44
:101D30001C260020FEE700BF08B5FFF7D1FF00BF5B
:101D400000B583B01C4B9A6942F001029A619B690D
:101D500003F001030193019B0320FFF797FA6FF053
:101D60000B0000210A46FFF7A3FA6FF00A000021DA
:101D70000A46FFF79DFA6FF0090000210A46FFF7B7
:101D800097FA6FF0040000210A46FFF791FA6FF00E
:101D9000030000210A46FFF78BFA6FF001000F21C4
:101DA0000022FFF785FA4FF0FF300F210022FFF7E6
:101DB0007FFA03B05DF804FB001002400368B3F142
:101DC000A04F23D110B586B003F1704303F504335F
:101DD0005A6942F080525A615B6903F08053009364
:101DE000009B0123019303230293002403944FF0EB
:101DF000904001A9FFF72AF8122005212246FFF79B
:101E000057FA1220FFF786FA06B010BD704700BFE0
:101E10000268084B9A420CD182B003F50333DA69A9
:101E200042F00202DA61DB6903F002030193019BD5
:101E300002B070470004004002680A4B9A4210D179
:101E400000B587B01223019302230293002203926C
:101E500004920593044801A9FEF7F8FF07B05DF866
:101E600004FB7047000400400004004800B589B03E
:101E700003681F4A93421AD11E4B9A6942F480426A
:101E80009A619B6903F480430193019B4FF4C06303
:101E9000039302230493012305930323069307234B
:101EA00007934FF0904003A9FEF7D0FF1CE0124AC1
:101EB000934219D10F4BDA6942F40032DA61DB69DF
:101EC00003F400330293029B48F2040303930223BA
:101ED00004930123059303230693072307934FF0ED
:101EE000904003A9FEF7B2FF09B05DF804FB00BF04
:101EF000003801400010024000440040F0B589B0B5
:101F00002C4B5A6942F480025A615A6902F48002E9
:101F10000092009A5A6942F400325A615A6902F4F6
:101F200000320192019A5A6942F480225A615B6937
:101F300003F480230293029B1F4F384603210022A3
:101F4000FFF754F84FF090404FF410610022FFF774
:101F50004DF81A4D284668210022FFF747F8032361
:101F6000039301260496002405940694384603A999
:101F7000FEF76CFF4FF410630393049605940694E8
:101F80004FF0904003A9FEF761FF282303930496C6
:101F900005940694284603A9FEF758FF40230393AF
:101FA0001123049305940694284603A9FEF74EFFD7
:101FB00009B0F0BD001002400014004800040048C1
:101FC00008B504480821FFF717F84FF47A70FFF7B7
:101FD0003DF8F6E70004004808B50268024B9A4253
:101FE00001D1FFF7EFF908BD00400140FEE700BF57
:101FF00000B58BB02248234B036040F2E7334360C7
:102000000023836040F27F22C26003618361FEF798
:1020100053FA20B11C4840F23D11FFF7E7FF0023BF
:1020200007930993164807A900F066FA20B11648ED
:102030004FF4A271FFF7DAFF6023009340F23F13E1
:1020400001930022029204920D48694600F0B8F90B
:1020500020B10D4840F24D11FFF7C8FF084869460E
:102060000C2200F0ADF920B107484FF4A971FFF739
:10207000BDFF0348FFF7E0FE0BB05DF804FB00BFB7
:10208000DC25002000040040403F000800B58BB074
:102090001F484FF0A0430360002343608360036147
:1020A000C361436203630122C262C360026243638D
:1020B000042242618361836300F05CFF20B1154814
:1020C0004FF48A71FFF792FF0AA9002341F80C3DF3
:1020D0000F4801F023FC20B10E484FF48E71FFF73A
:1020E00085FF0123019302930023049303220392AB
:1020F00005930693064801A901F060FA20B105484E
:1021000040F22911FFF772FF0BB05DF804FB00BF2E
:102110001C260020403F000808B50C480C4B03600B
:102120004FF4164343600023C36003610C224261F5
:102130008361C3610362436201F02EFE20B1054852
:1021400040F27D11FFF752FF08BD00BFE4260020DA
:1021500000440040403F000808B50D480D4B0360A7
:102160004FF4164343604FF0805383600023C360F5
:1021700003610C2242618361C3610362436201F027
:102180000BFE20B1044840F26911FFF72FFF08BD94
:102190007026002000380140403F000800B597B08D
:1021A00002230C9301221092102211921393002308
:1021B00014934FF4601315930CA800F0C9F918B1EB
:1021C0001C48D621FFF712FF0F2307930221089125
:1021D000002309934FF480620A920B9307A800F042
:1021E000FDFC18B11348E421FFF700FF81230193A0
:1021F000002303934FF48073059301A8FFF7E4FADB
:1022000018B10C48EC21FFF7F1FE00F0D7FD0A4BA6
:10221000A3FB00308009FFF789F80420FFF79CF842
:102220004FF0FF300F210022FFF742F817B05DF8A2
:1022300004FB00BF403F0008D34D621070B59AB058
:10224000FFF7AEF8FFF7AAFFFFF758FEFFF7D0FE43
:10225000FFF71CFFFFF760FFFFF77EFF214C15AD76
:1022600026460FCE0FC533682B6015A80021FEF758
:10227000D3FE1D4B186010AD04F114060FCE0FC530
:1022800033682B6010A80021FEF7C6FE174B1860BC
:102290000BAD04F128060FCE0FC533682B600BA8D9
:1022A0000021FEF7B9FE124B186006AD04F13C06A2
:1022B0000FCE0FC533682B6006A80021FEF7ACFED9
:1022C0000C4B186001AD50340FCC0FC523682B6048
:1022D00001A80021FEF7A0FE074B1860FEF796FE4E
:1022E000FEE700BFBC3E0008D0250020D825002016
:1022F000D425002054270020E026002030B4036AB3
:1023000023F480330362026A4468436D23F480330C
:1023100023F070030D682B4322F400328D6842EAEB
:1023200005420D4DA8420BD005F5A055A84207D097
:1023300005F58065A84203D005F58065A84204D163
:1023400024F480344D6944EA0524446043654B68B5
:102350008365026230BC7047002C014030B4036AD0
:1023600023F480130362026A4468436D23F0807390
:1023700023F4E0430D6843EA052322F400128D683C
:1023800042EA05520D4DA8420BD005F5A055A842D2
:1023900007D005F58065A84203D005F58065A84201
:1023A00004D124F480244D6944EA852444604365C3
:1023B0004B68C365026230BC704700BF002C01400F
:1023C00038B590F83C30012B00F093800D46044660
:1023D000012380F83C30022380F83D30142A00F2BB
:1023E0008180DFE802F00B7F7F7F1E7F7F7F327F5F
:1023F0007F7F457F7F7F597F7F7F6C000068FEF77E
:1024000077F82268936943F008039361226893691F
:1024100023F004039361226891692B690B43936154
:1024200060E00068FEF7AAF82268936943F400634D
:1024300093612268936923F48063936122689369AE
:10244000296943EA012393614CE00068FEF7D4F860
:102450002268D36943F00803D3612268D36923F06B
:102460000403D3612268D1692B690B43D36139E03E
:102470000068FEF7FFF82268D36943F40063D36174
:102480002268D36923F48063D3612268D369296900
:1024900043EA0123D36125E00068FFF72FFF22689C
:1024A000536D43F0080353652268536D23F0040312
:1024B00053652268516D2B690B43536512E0006828
:1024C000FFF74CFF2268536D43F4006353652268A5
:1024D000536D23F4806353652268536D296943EA81
:1024E00001235365012384F83D30002084F83C002B
:1024F00038BD022038BD00BF90F83C30012B1DD004
:1025000030B4012380F83C3004686368A2680D4D44
:10251000AC4203D123F470034D682B4323F07003C6
:102520000D682B4322F0800289680A4363600368C8
:102530009A60002380F83C30184601E00220704782
:1025400030BC7047002C0140704700BF704700BF8F
:1025500070B582B00446036813F0010F00F09D804F
:10256000B64B5B6803F00C03042B0AD0B34B5B68DB
:1025700003F00C03082B1BD1B04B5B6813F4803FB6
:1025800016D04FF4003393FAA3F3AC4B19684FF411
:10259000003393FAA3F3B3FA83F303F01F0301228A
:1025A00002FA03F3194278D06368002B75D1B6E2C2
:1025B0006368B3F5803F05D1A04A136843F48033C4
:1025C000136026E063B903F1804303F504331A680E
:1025D00022F480321A601A6822F480221A6018E00D
:1025E000B3F5A02F0CD103F18043A3F53C331A6857
:1025F00042F480221A601A6842F480321A6008E0BD
:102600008E4B1A6822F480321A601A6822F48022F3
:102610001A608A49CB6A23F00F02A3681343CB6286
:102620006368EBB1FEF7D6FE054605E0FEF7D2FE85
:10263000401B642800F275824FF4003393FAA3F331
:102640007E4B19684FF4003393FAA3F3B3FA83F384
:1026500003F01F03012202FA03F31942E6D01CE043
:10266000FEF7B8FE054605E0FEF7B4FE401B642801
:1026700000F259824FF4003393FAA3F36F4B1968B9
:102680004FF4003393FAA3F3B3FA83F303F01F0379
:10269000012202FA03F31942E6D1236813F0020F74
:1026A00000F09080654B5B6813F00C0F0AD0634B11
:1026B0005B6803F00C03082B27D1604B5B6813F4B5
:1026C000803F22D1022393FAA3F35C4B19680223C3
:1026D00093FAA3F3B3FA83F303F01F03012202FA80
:1026E00003F3194203D02369934240F01E825348FA
:1026F000036823F0F8016369F82292FAA2F2B2FAB1
:1027000082F293400B4303605CE023699BB3012298
:1027100092FAA2F3B3FA83F303F1845303F584131B
:102720009B001A60FEF756FE054605E0FEF752FED6
:10273000401B022800F2FB81022393FAA3F33F4BD4
:102740001968022393FAA3F3B3FA83F303F01F0388
:10275000012202FA03F31942E8D03848036823F053
:10276000F8016369F82292FAA2F2B2FA82F2934077
:102770000B43036026E0012393FAA3F3B3FA83F338
:1027800003F1845303F584139B0000221A60FEF7C3
:1027900021FE054605E0FEF71DFE401B022800F263
:1027A000C881022393FAA3F3244B1968022393FAF6
:1027B000A3F3B3FA83F303F01F03012202FA03F336
:1027C0001942E8D1236813F0080F55D0A3693BB331
:1027D000012191FAA1F2B2FA82F2194B13449B0043
:1027E0001960FEF7F7FD054605E0FEF7F3FD401B17
:1027F000022800F2A081022393FAA3F293FAA3F233
:1028000093FAA3F20D4A516A93FAA3F3B3FA83F34E
:1028100003F01F03012202FA03F31942E5D02BE073
:10282000012292FAA2F2B2FA82F2054B13449B0003
:1028300000221A60FEF7CEFD054609E000100240B6
:1028400020819010FEF7C6FD401B022800F2758122
:10285000022393FAA3F293FAA3F293FAA3F2BE4AE5
:10286000516A93FAA3F3B3FA83F303F01F0301222F
:1028700002FA03F31942E5D1236813F0040F00F0C4
:10288000B880B54BDB6913F0805F0BD1B24BDA69CE
:1028900042F08052DA61DB6903F080530193019BBF
:1028A000012500E00025AD4B1B6813F4807F13D198
:1028B000AA4A136843F480731360FEF78BFD064643
:1028C00005E0FEF787FD801B642800F23881A34BEA
:1028D0001B6813F4807FF4D0E368012B05D19E4A76
:1028E000136A43F00103136222E063B903F18043EA
:1028F00003F504331A6A22F001021A621A6A22F0FE
:1029000004021A6214E0052B09D1934B1A6A42F0B3
:1029100004021A621A6A42F001021A6208E08E4B3F
:102920001A6A22F001021A621A6A22F004021A627A
:10293000E36863B3FEF74EFD064607E0FEF74AFD87
:10294000801B41F28833984200F2FB80022393FA05
:10295000A3F293FAA3F3B3FA83F343F040035B09C2
:10296000022B02D17C4B196A04E0022393FAA3F3F1
:10297000794B596A022393FAA3F3B3FA83F303F072
:102980001F03012202FA03F31942D7D02BE0FEF70E
:1029900021FD064607E0FEF71DFD801B41F288334E
:1029A000984200F2D080022393FAA3F293FAA3F3A1
:1029B000B3FA83F343F040035B09022B02D1664B69
:1029C000196A04E0022393FAA3F3634B596A0223C2
:1029D00093FAA3F3B3FA83F303F01F03012202FA7D
:1029E00003F31942D7D125B15B4AD36923F0805351
:1029F000D361E369002B00F0A880574A526802F0C7
:102A00000C02082A00F0A380022B5DD14FF08073E6
:102A100093FAA3F3B3FA83F303F1845303F5841316
:102A20009B0000221A60FEF7D5FC054605E0FEF784
:102A3000D1FC401B022800F28C804FF0007393FA07
:102A4000A3F3454B19684FF0007393FAA3F3B3FA5D
:102A500083F303F01F03012202FA03F31942E6D1C4
:102A60003D48436823F47411636A226A13430B439D
:102A700043604FF0807393FAA3F3B3FA83F303F147
:102A8000845303F584139B0001221A60FEF7A2FC15
:102A9000044604E0FEF79EFC001B022860D84FF0BD
:102AA000007393FAA3F32C4B19684FF0007393FA59
:102AB000A3F3B3FA83F303F01F03012202FA03F333
:102AC0001942E7D000204EE04FF0807393FAA3F351
:102AD000B3FA83F303F1845303F584139B000022BC
:102AE0001A60FEF777FC044604E0FEF773FC001B57
:102AF000022837D84FF0007393FAA3F3164B1968E6
:102B00004FF0007393FAA3F3B3FA83F303F01F03B8
:102B1000012202FA03F31942E7D1002023E0012049
:102B200021E003201FE003201DE001201BE0032023
:102B300019E0032017E0032015E0032013E0032031
:102B400011E003200FE003200DE000200BE0012046
:102B500009E0032007E000BF0010024000700040C1
:102B6000032000E0032002B070BD00BF164B5A687E
:102B700002F00C03082B24D102F470114FF47013EF
:102B800093FAA3F3B3FA83F321FA03F30F49CB5C6F
:102B90000D49C96A01F00F010F2090FAA0F0B0FAB8
:102BA00080F0C1400A48405C12F4803F05D0094AD9
:102BB000B2FBF0F003FB00F07047074800FB03F0A6
:102BC00070470448704700BF00100240983F00085B
:102BD000883F000800127A0000093D0070B5734B71
:102BE0001B6803F007038B420BD2704A136823F073
:102BF00007030B431360136803F007038B4240F095
:102C0000C580036813F0020F06D0694C636823F097
:102C1000F0028368134363600D460446036813F0B3
:102C2000010F75D04268012A13D14FF4003393FA93
:102C3000A3F35F4B18684FF4003393FAA3F3B3FA8E
:102C400083F303F01F03012101FA03F3184227D194
:102C50009EE0022A13D14FF0007393FAA3F3544B72
:102C600018684FF0007393FAA3F3B3FA83F303F0F9
:102C70001F03012101FA03F3184211D18AE0022354
:102C800093FAA3F34A4B1868022393FAA3F3B3FA17
:102C900083F303F01F03012101FA03F318427BD0F1
:102CA00043494B6823F0030313434B60FEF792FB49
:102CB00006466368012B0ED106E0FEF78BFB801BF6
:102CC00041F28833984269D8394B5B6803F00C03B2
:102CD000042BF2D11CE0022B15D106E0FEF77AFBA3
:102CE000801B41F2883398425AD8314B5B6803F01D
:102CF0000C03082BF2D10BE0FEF76CFB801B41F2BA
:102D0000883398424ED82A4B5B6813F00C0FF3D1EE
:102D1000264B1B6803F00703AB420AD9234A13680A
:102D200023F007032B431360136803F00703AB4240
:102D30003AD1236813F0040F06D01D494B6823F4E1
:102D4000E062E36813434B60236813F0080F07D079
:102D5000174A536823F46053216943EAC10353605F
:102D6000FFF704FF124B5B6803F0F003F02292FAC6
:102D7000A2F2B2FA82F2D3400E4AD35CD8400E4B94
:102D800018600020FEF774FB002070BD012070BDAC
:102D9000012070BD012070BD012070BD032070BDF9
:102DA000032070BD032070BD012070BD00200240D3
:102DB00000100240283F000804000020014B186862
:102DC000704700BF0400002008B5FFF7F7FF074B6E
:102DD0005B6803F4E0634FF4E06292FAA2F2B2FAA5
:102DE00082F2D340024AD35CD84008BD00100240B2
:102DF000383F000808B5FFF7E1FF074B5B6803F4B5
:102E000060534FF4605292FAA2F2B2FA82F2D340C7
:102E1000024AD35CD84008BD00100240383F000889
:102E20000F2303600B4B5A6802F0030242605A689A
:102E300002F0F00282605A6802F4E062C2605B68ED
:102E400003F46053DB080361034B1B6803F00703C3
:102E50000B6070470010024000200240704700BF26
:102E6000704700BF38B50268936803F00303012B75
:102E700005D1136813F0010F03D1002302E00023F2
:102E800000E00123002B30D0936803F00D03012BE9
:102E90000BD10446936843F0020393600368032256
:102EA0001A60FEF797FA054618E0436C43F01003EA
:102EB0004364836C43F001038364012038BDFEF753
:102EC00089FA401B022809D9636C43F0100363643C
:102ED000A36C43F00103A364012038BD23689B6801
:102EE00013F0010FEBD1002038BD002038BD00BF2A
:102EF00038B50268936803F00303012B05D113680A
:102F000013F0010F03D1002302E0002300E00123AE
:102F100063BB9168164B194209D0436C43F0100310
:102F20004364836C43F001038364012038BD04468D
:102F3000936843F001039360FEF74CFA05460EE0F8
:102F4000FEF748FA401B022809D9636C43F01003CE
:102F50006364A36C43F00103A364012038BD2368BC
:102F60001B6813F0010FEBD0002038BD002038BDE6
:102F70003F00008030B597B000230093002800F098
:102F8000F9800446436C13F0100F52D1436C002BB0
:102F900037D183640365C36480F84030FEF70EFFC9
:102FA00023689B6813F0805F2DD12046FFF75AFFFE
:102FB000636C13F0100F27D130BB636C23F488537C
:102FC00023F0020343F0020363642268936823F052
:102FD000405393602268936843F080539360674B3B
:102FE0001B68674AA2FB03239B0C03EB83035B0074
:102FF000009302E0009B013B0093009B002BF9D162
:1030000002E0002000E0002023689A6812F0805F50
:1030100003D09B6813F0005F0CD0636C23F01203A5
:1030200043F010036364A36C43F00103A364012025
:1030300000E00020636C13F0100F40F09380002834
:1030400040F0908023689A6812F0040140F08A8072
:10305000626C22F4817242F002026264B3F1A04F0A
:1030600002D1484A019202E04FF0A04201929A68D0
:1030700002F00302012A05D11B6813F0010F03D1EE
:10308000002302E0002300E001239BB9019D55B11C
:10309000AA6802F00302012A04D12A6812F0010F83
:1030A00000D0012333B9384DAB6823F44032636854
:1030B0001343AB60E5696A03A36B012B01D04FF4A6
:1030C00080510A43E1681143A2680A43636A012BF5
:1030D00011D135B9A36A013B42EA434343F480323C
:1030E00009E0636C23F0220343F020036364A36CC4
:1030F00043F00103A364E16A012902D0236B0B436F
:103100001A432368996811F00C0F0BD1D96821F488
:10311000804121F00201D960A169636B5B0043EA41
:1031200081331A432168CD68184B2B401343CB6081
:103130002369012B08D121680B6B23F00F02236A4E
:10314000013B13430B6304E02268136B23F00F036E
:1031500013630023A364636C23F0030343F00103B0
:10316000636408E0636C23F0120343F010036364AC
:10317000012000E0012017B030BD00BF0400002096
:1031800083DE1B43000100500003005007C0F0FF26
:1031900003689B6813F0040F40F0918090F8403072
:1031A000012B00F0918010B50446012380F84030D7
:1031B000FFF79EFE034600287DD1626C22F4706208
:1031C00022F0010242F480726264404A926812F076
:1031D0001F0F03D02268B2F1A04F0FD1626C22F40E
:1031E000801262642268D26812F0007F1CD0626C88
:1031F00022F4405242F48052626415E0616C41F462
:1032000080116164B2F1A04F02D031498A420BD1E2
:103210004FF0A042D26812F0007F05D0626C22F419
:10322000405242F480526264626C12F4805F04D0B7
:10323000A26C22F00602A26401E00022A264002235
:1032400084F8402022681C2111606269082A0AD192
:1032500021684A6822F004024A6021684A6842F004
:1032600008024A6004E021684A6842F00C024A60A1
:10327000A26B012A04D121684A6822F010024A6038
:10328000124A926812F01F0F0FD0104A926802F093
:103290001F02052A09D00D4A926802F01F02092A6E
:1032A00003D02268B2F1A04F0CD121688A6842F0A5
:1032B00004028A6006E0002284F8402002E0022333
:1032C00018467047184610BD022070470003005092
:1032D000000100500368186C704700BF704700BFC2
:1032E000704700BF704700BF704700BF10B504466D
:1032F00003681A6812F0040F03D05A6812F0040F22
:1033000007D11A6812F0080F52D05A6812F0080F4D
:103310004ED0626C12F0100F03D1626C42F4007256
:103320006264A54A926812F01F0F0ED0A24A9268FA
:1033300002F01F02052A08D09F4A926802F01F027D
:10334000092A02D0B3F1A04F01D1D96802E04FF0B1
:10335000A042D168DA6812F4406F23D111F4005F03
:1033600020D11A6812F0080F1CD09A6812F0040FCE
:1033700010D15A6822F00C025A60636C23F48073F7
:103380006364636C13F4805F0CD1636C43F00103DE
:10339000636407E0636C43F010036364A36C43F061
:1033A0000103A3642046FEF711FC23680C221A6077
:1033B00023681A6812F0200F03D05A6812F0200F09
:1033C00007D11A6812F0400F71D05A6812F0400FFE
:1033D0006DD0626C42F400526264774A926812F0D7
:1033E0001F0F0ED0744A926802F01F02052A08D0FF
:1033F000714A926802F01F02092A02D0B3F1A04F6D
:1034000001D1D96802E04FF0A042D168DA6C12F025
:10341000C00F09D011F0007F43D1DA6812F4406F79
:103420003FD111F4005F3CD11A6812F0400F38D040
:10343000614A926812F01F0F0ED05F4A926802F044
:103440001F02062A08D05C4A926802F01F02072A6F
:1034500002D0B3F1A04F01D1DA6802E04FF0A042F0
:10346000D26812F4001F1CD19A6812F0080F10D114
:103470005A6822F060025A60636C23F480536364DC
:10348000636C13F4807F0CD1636C43F001036364BD
:1034900007E0636C43F010036364A36C43F0010323
:1034A000A3642046FFF71AFF236860221A6023688E
:1034B0001A6812F0800F0DD05B6813F0800F09D0EE
:1034C000636C43F4803363642046FFF7C7FC2368D2
:1034D00080221A6023681A6812F4807F0ED05B681D
:1034E00013F4807F0AD0636C43F400336364204696
:1034F000FFF7F8FE23684FF480721A6023681A6899
:1035000012F4007F0ED05B6813F4007F0AD0636C66
:1035100043F4802363642046FFF7E6FE23684FF4FC
:1035200000721A6023681A6812F0100F2CD05A68C3
:1035300012F0100F28D0A26B012A11D01E4A9268F7
:1035400012F01F0F05D1DB6813F0010F0AD1002321
:103550000BE0194B9B6813F4404F05D1002304E0A6
:10356000012302E0012300E0012353B1636C43F423
:1035700080636364A36C43F00203A3642046FFF7F7
:103580006FFC236810221A6023681A6812F4806F97
:1035900011D05A6812F4806F0DD0626C42F48042F0
:1035A0006264A26C42F00802A2644FF480621A6066
:1035B0002046FFF795FE10BD00030050F0B496B012
:1035C0000023009390F84030012B00F098810123F4
:1035D00080F840300268936813F0040F40F07D815A
:1035E0004B68042B0CD8166B03EB43035B001F24C2
:1035F0009C4026EA04050C689C402C4314632CE094
:10360000092B0DD8566B03EB43035B001E3B1F24B5
:103610009C4026EA04050C689C402C4354631CE043
:103620000E2B0DD8966B03EB43035B003C3B1F2432
:103630009C4026EA04050C689C402C4394630CE0F3
:10364000D66B03EB43035B005A3B1F249C4026EAE6
:1036500004050C689C402C43D4630268936813F003
:103660000C0F40F085800B68092B0CD9966903EB91
:1036700043031E3B07249C4026EA04058C689C40BB
:103680002C4394610AE0566903EB430307249C40F2
:1036900026EA04058C689C402C4354614A690468FE
:1036A000E368C3F3C1035B009A400B69013B032B42
:1036B0002FD8DFE803F0020D1823236E924D1D4032
:1036C0000B6842EA83632B4343F0004323664FE0D9
:1036D000636E8D4D1D400B6842EA83632B4343F0BC
:1036E0000043636644E0A36E874D1D400B6842EAC9
:1036F00083632B4343F00043A36639E0E36E824DBE
:103700001D400B6842EA83632B4343F00043E366AA
:103710002EE0236E03F0F8430A68B3EB826F03D107
:10372000236E23F0004323660268536E03F0F843D0
:103730000C68B3EB846F03D1536E23F000435366E0
:103740000268936E03F0F8430C68B3EB846F03D107
:10375000936E23F0004393660268D36E03F0F84340
:103760000C68B3EB846F03D1D36E23F00043D366B0
:103770000268936803F00303012B05D1136813F06B
:10378000010F03D1002502E0002500E00125002DF6
:1037900040F0A980CB68012B09D0D2F8B0400E6868
:1037A0000123B34024EA0303C2F8B03025E0D2F885
:1037B000B0400E680123B3402343C2F8B0300B6819
:1037C000092B0DD90768BE6903EB43031B3B072296
:1037D0009A4026EA02048A689A402243BA610CE0C1
:1037E00007687E69013303EB430307229A4026EA08
:1037F00002048A689A4022437A610B68102B04D134
:10380000424A926812F4000F0DD0112B04D13F4AA6
:10381000926812F0807F06D0122B66D13B4A9268E4
:1038200012F4800F63D10168B1F1A04F02D1384A80
:10383000019202E04FF0A04201928A6802F0030276
:10384000012A04D10A6812F0010F00D00125002DD1
:103850003DD1019C5CB1A26802F00302012A04D1AF
:10386000226812F0010F00D00125002D2FD1102B5E
:1038700018D1B1F1A04F15D1244A936843F4000345
:103880009360244B1B68244AB3FBF2F20A2303FB28
:1038900002F3009302E0009B013B0093009B002B8E
:1038A000F9D127E0112B09D1B1F1A04F06D1174A68
:1038B000936843F08073936000231BE0122B18D1B0
:1038C000124A936843F480039360002312E0436C30
:1038D00043F02003436401230CE0436C43F02003D6
:1038E0004364012306E0002304E0002302E00023F8
:1038F00000E00023002280F84020184600E002206B
:1039000016B0F0BC704700BF00F0FF83000300500A
:10391000000100500400002040420F0090F84030A9
:10392000012B00F08A8070B497B0012380F84030FA
:103930000368B3F1A04F02D1424A019202E04FF076
:10394000A04201929B6813F0040F64D1019B9A6816
:1039500012F0040F5FD10A68002A33D03A4DAA68EA
:1039600022F460444A68466B42EA46322243AA6027
:103970000468A26802F00302012A05D1226812F04D
:10398000010F03D1002202E0002200E00122002A00
:1039900047D19C6804F00304012C04D11B6813F088
:1039A000010F00D00122002A3DD1274DAB6823F43E
:1039B000716424F00F040B688A6813432343AB60DF
:1039C000002335E020498A6822F460428A60016859
:1039D0008A6802F00302012A05D10A6812F0010F79
:1039E00003D1002202E0002200E00122EAB9996836
:1039F00001F00301012904D11B6813F0010F00D06D
:103A00000122A2B9104A936823F4716323F00F03D3
:103A1000936000230CE0436C43F0200343640123D4
:103A200006E0002304E0002302E0002300E000237E
:103A3000002280F84020184601E00220704717B0AD
:103A400070BC7047000100500003005038B50446B8
:103A5000826803691A4343691A43C36913430168BF
:103A60000868634A024013430B6021684B6823F4E3
:103A70004052E36813434B60A269236A13432168F1
:103A80008A6822F4306213438B602568594B9D424B
:103A900012D103F558431B6B03F00303032B09D822
:103AA000DFE803F002040613002313E0042311E00F
:103AB00008230FE010230DE04F4B9D4207D003F584
:103AC00080639D4205D1002304E0022302E000232D
:103AD00000E01023E269B2F5004F47D1082B3BD834
:103AE000DFE803F005101B3A263A3A3A3100FFF7B7
:103AF0006BF963685A0802EB4000B0FBF3F39BB22A
:103B000000202BE0FFF776F963685A0802EB4000CB
:103B1000B0FBF3F39BB2002020E061684A0802F595
:103B2000740303F51053B3FBF1F39BB2002015E0CF
:103B3000FFF71CF863685A0802EB4000B0FBF3F390
:103B40009BB200200AE06268530803F58033B3FBA0
:103B5000F2F39BB2002001E00120002323F00F02CA
:103B6000C3F3420313432268D36038BD082B3DD80A
:103B7000DFE803F005101B3C273C3C3C3200FFF71C
:103B800023F9636800EB5300B0FBF3F080B2E86008
:103B9000002038BDFFF72EF9636800EB5300B0FB3F
:103BA000F3F080B2E860002038BD61684A0802F591
:103BB000F40303F59053B3FBF1F39BB2EB600020E9
:103BC00038BDFEF7D3FF636800EB5300B0FBF3F0A2
:103BD00080B2E860002038BD6268530803F50043F6
:103BE000B3FBF2F39BB2EB60002038BD012038BD7F
:103BF000F369FFEF0038014000440040436A13F0CE
:103C0000010F06D001684B6823F40032836A134326
:103C10004B60436A13F0020F06D001684B6823F42F
:103C20008032C36A13434B60436A13F0040F06D01B
:103C300001684B6823F48022036B13434B60436A93
:103C400013F0080F06D001684B6823F40042436B61
:103C500013434B60436A13F0100F06D001688B6862
:103C600023F48052836B13438B60436A13F0200F5D
:103C700006D001688B6823F40052C36B13438B603A
:103C8000436A13F0400F11D001684B6823F480128F
:103C9000036C13434B60036CB3F5801F06D10168BE
:103CA0004B6823F4C002436C13434B60436A13F028
:103CB000800F06D001684B6823F40022836C134305
:103CC0004B6070472DE9F04106460C461746984672
:103CD000069D1EE0B5F1FF3F1BD02DB1FDF77AFB2D
:103CE000C8EB0000A84214D93268136823F4D073DB
:103CF00013603268936823F001039360202386F8F1
:103D0000693086F86A30002386F868300320BDE801
:103D1000F0813368DB692340A34214BF00230123F1
:103D2000BB42D7D00020BDE8F08100BF30B583B0E2
:103D300004460023C366FDF74DFB054623681B6858
:103D400013F0080F0AD06FF07E43009320464FF423
:103D5000001100222B46FFF7B5FFC0B923681B688E
:103D600013F0040F0AD06FF07E43009320464FF407
:103D7000800100222B46FFF7A5FF50B9202384F8CD
:103D8000693084F86A30002084F8680002E003207B
:103D900000E0032003B030BD80B310B5044690F8B6
:103DA000693013F0FF0F04D1002380F86830FEF76C
:103DB0005DF8242384F869302268136823F0010336
:103DC00013602046FFF742FE012819D0636A13B141
:103DD0002046FFF713FF2268536823F49043536093
:103DE0002268936823F02A0393602268136843F0E3
:103DF000010313602046FFF799FF10BD01207047B3
:103E000010BD00BFDFF834D0002103E00C4B5B583D
:103E1000435004310B480C4B42189A42F6D30B4ADC
:103E200002E0002342F8043B094B9A42F9D3FDF724
:103E300097FD00F011F8FEF701FAFEE700300020D0
:103E4000B03F00080000002008000020080000200B
:103E500058270020FEE7000070B50E4B0E4CE41A08
:103E6000A41000251E46A54204D056F825309847D8
:103E70000135F8E700F016F8084C094BE41AA410D5
:103E800000251E46A54204D056F825309847013536
:103E9000F8E770BDA83F0008A83F0008AC3F000845
:103EA000A83F0008F8B500BFF8BC08BC9E467047A4
:0C3EB000F8B500BFF8BC08BC9E46704787
:103EBC007C3F0008C11F000800000000000000004B
:103ECC0080000000703F0008ED1C0008FDFF0000A2
:103EDC000000000000010000603F0008211D0008E8
:103EEC00FDFF00000000000000010000543F00082E
:103EFC00351D0008FDFF000000000000000100005F
:103F0C004C3F0008391D0008FDFF000000000000B8
:103F1C000002000049444C45000000000000000075
:103F2C00000000000102030406070809000000005D
:103F3C00010203045372632F6D61696E2E630000DE
:103F4C0049417461736B0000756172745F746173C5
:103F5C006B0000006164635F646D615F7461736B1F
:103F6C00000000006D6F746F725F7461736B000002
:103F7C0064656661756C745461736B0001020304B3
:103F8C0005060708090A0B0C0D0E0F100203040599
:0C3F9C00060708090A0B0C0D0E0F101090
:043FA800FD0100080F
:043FAC00D501000833
:083FB000AAAAAAAA00127A00D5
:0400000508003E05AC
:00000001FF
