:020000040800F2
:10000000003000201D2E00086D2E00086D2E000807
:100010006D2E00086D2E00086D2E000800000000F7
:100020000000000000000000000000007124000833
:100030006D2E000800000000112500087D15000845
:100040006D2E00086D2E00086D2E00086D2E000824
:100050006D2E00086D2E00086D2E00086D2E000814
:100060006D2E00086D2E00086D2E00086D2E000804
:100070006D2E00086D2E00086D2E00086D2E0008F4
:100080006D2E00086D2E00086D2E00086D2E0008E4
:100090006D2E00086D2E00086D2E00086D2E0008D4
:1000A0006D2E00086D2E00086D2E00086D2E0008C4
:1000B0006D2E00086D2E0008000000006D2E000857
:1000C0006D2E000800000000000000006D2E0008EA
:1000D000000000006D2E00086D2E00086D2E000837
:1000E0006D2E00086D2E00080000000000000000CA
:1000F0000000000000000000000000000000000000
:1001000000000000000000000000000000000000EF
:1001100000000000000000006D2E00086D2E000899
:1001200000000000000000000000000000000000CF
:1001300000000000000000000000000000000000BF
:100140006D2E00086D2E0008000000000000000069
:10015000000000000000000000000000000000009F
:10016000000000000000000000000000000000008F
:10017000000000000000000000000000000000007F
:08018000000000006D2E0008D4
:10019000044B05481B1A062B02D9044B03B1184720
:1001A000704700BF0B000020080000200000000086
:1001B00005490648091A891001EBD171491002D08E
:1001C000034B03B1184770470800002008000020C7
:1001D0000000000010B5064C237843B9FFF7D8FFA4
:1001E000044B13B10448AFF300800123237010BD0A
:1001F0000800002000000000702E000808B5084B21
:100200001BB108490848AFF300800848036813B9D8
:10021000BDE80840CCE7064B002BF9D09847F7E73C
:10022000000000000C000020702E000808000020D4
:100230000000000070B50F4E0F4D761BB61018BFB2
:10024000002405D0013455F8043B9847A642F9D163
:100250000A4E0B4D761B02F00BFEB61018BF0024A1
:1002600006D0013455F8043B9847A642F9D170BD39
:1002700070BD00BF102F0008102F0008142F0008B9
:10028000102F00082DE9F04188B0344B5A6942F430
:1002900080025A615A6902F480020092009A5A69F7
:1002A00042F400325A615A6902F400320192019A12
:1002B0005A6942F480225A615B6903F480230293F5
:1002C000029BDFF8A08000220321404601F0BEFE21
:1002D00000224FF418614FF0904001F0B7FE204F1C
:1002E00000222021384601F0B1FE032603960125A5
:1002F000049500240594069403A9404601F0E2FD0C
:100300001B2303930496059403A94FF0904001F03A
:10031000D9FD48F20403039302230493059406963F
:100320000723079303A94FF0904001F0CBFD4FF452
:100330001863039304950594069403A94FF0904025
:1003400001F0C0FD2023039304950594069403A9AE
:10035000384601F0B7FD08B0BDE8F081001002405A
:10036000000400480014004808B5012001F09AFD7F
:10037000FBE700BFFEE700BF00B58BB02048214B74
:10038000036040F2E73343600023836040F27F2242
:10039000C2600361836101F0D1FE18B1F3211A48F4
:1003A000FFF7E8FF00230793099307A9144800F01B
:1003B0001BFA18B1FA211448FFF7DCFF6023009301
:1003C000002201920292049269460D4800F070F9F1
:1003D00020B140F203110C48FFF7CCFF0C22694614
:1003E000074800F065F920B14FF484710648FFF723
:1003F000C1FF034802F0E2FA0BB05DF804FB00BF56
:10040000740D002000040040B02E000800B593B029
:100410002448254B0360002343608360C36003616D
:100420004361836101F06EFE20B140F21F111F484D
:10043000FFF7A0FF1B4801F081FE20B14FF492713D
:100440001A48FFF797FF60230B9300220C920D923E
:100450000E920F92109211920BA9124800F028F9F7
:1004600020B14FF498711148FFF784FF00230093E7
:1004700001930293039304934FF400520592069361
:100480000A936946074800F0D7F920B140F23D11C0
:100490000648FFF76FFF034802F090FA13B05DF8CB
:1004A00004FB00BF280E002000440140B02E0008CD
:1004B00008B50D480D4B03604FF4164343604FF0F1
:1004C000805383600023C36003610C224261836117
:1004D000C3610362436202F06BFC20B14FF4AA7166
:1004E0000348FFF747FF08BDB40D00200038014066
:1004F000B02E000800B597B002230C930122109291
:10050000102211921393002314934FF46013159348
:100510000CA800F059FB18B1C0211A48FFF72AFFB8
:100520000F23079302210891002309934FF480625F
:100530000A920B9307A800F08FFE18B1CE21114844
:10054000FFF718FF012301930023039301A800F094
:10055000BBF918B1D5210B48FFF70CFF00F06EFF77
:10056000094BA3FB0030800900F0E2FF042000F0FB
:10057000F5FF00220F214FF0FF3000F0A7FF17B06A
:100580005DF804FBB02E0008D34D621070B58AB040
:1005900000F0FAFAFFF7AEFFFFF774FEFFF7ECFE8C
:1005A000FFF734FFFFF784FF0D4C05AD26460FCE55
:1005B0000FC533682B60002105A801F059FC094BD9
:1005C00018606D4614340FCC0FC523682B600021D2
:1005D000684601F04DFC044B186001F043FCFEE757
:1005E000882E0008700D0020240E002030B4036A0D
:1005F00023F480330362036A4468426D22F480323C
:1006000022F070020D682A4323F400338D6843EA18
:1006100005430D4DA8420BD005F5A055A84207D0C3
:1006200005F58065A84203D005F58065A84204D190
:1006300024F480344D6944EA0524446042654A68E4
:100640008265036230BC7047002C014030B4036AFD
:1006500023F480130362026A4468436D23F08073BD
:1006600023F4E0430D6843EA052322F400128D6869
:1006700042EA05520D4DA8420BD005F5A055A842FF
:1006800007D005F58065A84203D005F58065A8422E
:1006900004D124F480244D6944EA852444604365F0
:1006A0004B68C365026230BC704700BF002C01403C
:1006B00038B590F83C30012B00F093800D4604468D
:1006C000012380F83C30022380F83D30142A00F2E8
:1006D0008180DFE802F00B7F7F7F1E7F7F7F327F8C
:1006E0007F7F457F7F7F597F7F7F6C00006801F0AF
:1006F00041FD2268936943F008039361226893697E
:1007000023F004039361226891692B690B43936181
:1007100060E0006801F074FD2268936943F40063AF
:1007200093612268936923F48063936122689369DB
:10073000296943EA012393614CE0006801F09EFDC2
:100740002268D36943F00803D3612268D36923F098
:100750000403D3612268D1692B690B43D36139E06B
:10076000006801F0C9FD2268D36943F40063D361D6
:100770002268D36923F48063D3612268D36929692D
:1007800043EA0123D36125E00068FFF72FFF2268C9
:10079000536D43F0080353652268536D23F004033F
:1007A00053652268516D2B690B43536512E0006855
:1007B000FFF74CFF2268536D43F4006353652268D2
:1007C000536D23F4806353652268536D296943EAAE
:1007D00001235365012384F83D30002084F83C0058
:1007E00038BD022038BD00BF90F83C30012B1DD031
:1007F00030B4012380F83C3003685A689D680D4C82
:10080000A34203D122F470024C68224322F070020A
:100810000C68224325F08004896821435A600368EC
:100820009960002380F83C30184601E002207047B0
:1008300030BC7047002C014090F83C30012B3BD07D
:1008400010B4012380F83C30CB6823F440728B68ED
:10085000134323F480624B68134323F400620B6854
:10086000134323F480520B69134323F400524B6962
:10087000134323F480438A6A134323F4004313434E
:1008800023F470238A6943EA024302680D4CA242B2
:100890000CD123F470034C6A43EA045323F08073B1
:1008A000CC69234323F000740B6A23435364002371
:1008B00080F83C30184601E0022070475DF8044B98
:1008C000704700BF002C0140F0B583B004460368B8
:1008D00013F4803F00F08A805F4BDB6913F0805F88
:1008E0000BD15D4BDA6942F08052DA61DB6903F0CB
:1008F00080530193019B012500E00025574B1B68A5
:1009000013F4807F13D1554A136843F48073136046
:1009100000F054F9064605E000F050F9801B642809
:1009200000F292804D4B1B6813F4807FF4D04A4B49
:100930001B6A13F440734DD0626802F44072934214
:1009400048D0454E306A20F440774FF4803191FA18
:10095000A1F3B3FA83F3424A13449B004FF0010E14
:10096000C3F800E091FAA1F1B1FA81F10A449200D2
:1009700000231360376210F0010F2BD000F01EF936
:10098000064606E000F01AF9801B41F288339842CF
:100990005CD8022393FAA3F293FAA3F3B3FA83F396
:1009A0005B0943F00203DBB2022B02D12A4B196A26
:1009B00004E0022393FAA3F3274B596A022393FA24
:1009C000A3F3B3FA83F303F01F03012202FA03F344
:1009D0001942D7D020490B6A23F44072636813434D
:1009E0000B621DB1CB6923F08053CB61236813F0F8
:1009F000010F06D018490B6B23F00302A3681343C1
:100A00000B63236813F0200F06D013490B6B23F000
:100A10001002E36813430B63236813F0800F06D0C2
:100A20000D49CB6A23F4F87223691343CB62236820
:100A300013F4805F0CD008490B6B23F48072636958
:100A400013430B63002004E0032002E0032000E0D6
:100A5000002003B0F0BD00BF001002400070004055
:100A60000081901000F1080343604FF0FF32826074
:100A7000C360036100230360704700BF002303616C
:100A8000704700BF43684B609A688A609A685160FB
:100A900099600861036801330360704730B40D68E2
:100AA000B5F1FF3F01D1026907E000F1080200E063
:100AB0001A4653681C68A542FAD253684B60996085
:100AC0008A605160086103680133036030BC70477D
:100AD00003694268816891608268416851605A6820
:100AE000904201D182685A60002202611868013880
:100AF000186070471549D1F8883043F47003C1F885
:100B00008830134B1A6842F001021A605868114A83
:100B100002405A601A6822F0847222F480321A600D
:100B20001A6822F480221A605A6822F4FE025A607F
:100B3000DA6A22F00F02DA62186B074A02401A637F
:100B400000229A604FF000638B60704700ED00E078
:100B5000001002400CC07FF8CCFC00FF10B504462A
:100B6000074B1B680748A0FB0330800900F0E0FC3E
:100B7000002221464FF0FF3000F0A8FC002010BDFD
:100B800000000020D34D621008B5074A136843F0F7
:100B900010031360032000F087FC0F20FFF7DEFF37
:100BA00001F0A6FE002008BD00200240024A1368A2
:100BB00001331360704700BF680E0020014B1868B6
:100BC000704700BF680E002070B582B0044603680D
:100BD00013F0010F00F09D80B64B5B6803F00C032F
:100BE000042B0AD0B34B5B6803F00C03082B1BD11A
:100BF000B04B5B6813F4803F16D04FF4003393FA88
:100C0000A3F3AC4B19684FF4003393FAA3F3B3FA90
:100C100083F303F01F03012202FA03F3194278D091
:100C20006368002B75D1B8E26368B3F5803F05D1E6
:100C3000A04A136843F48033136026E063B903F1DC
:100C4000804303F504331A6822F480321A601A686C
:100C500022F480221A6018E0B3F5A02F0CD103F122
:100C60008043A3F53C331A6842F480221A601A6864
:100C700042F480321A6008E08E4B1A6822F4803207
:100C80001A601A6822F480221A608A49CB6A23F01B
:100C90000F02A3681343CB626368EBB1FFF78EFFCB
:100CA000054605E0FFF78AFF401B642800F27782C3
:100CB0004FF4003393FAA3F37E4B19684FF40033DB
:100CC00093FAA3F3B3FA83F303F01F03012202FAAA
:100CD00003F31942E6D01CE0FFF770FF054605E07C
:100CE000FFF76CFF401B642800F25B824FF4003377
:100CF00093FAA3F36F4B19684FF4003393FAA3F3FD
:100D0000B3FA83F303F01F03012202FA03F319423B
:100D1000E6D1236813F0020F00F09080654B5B680A
:100D200013F00C0F0AD0634B5B6803F00C03082B25
:100D300027D1604B5B6813F4803F22D1022393FAE2
:100D4000A3F35C4B1968022393FAA3F3B3FA83F37A
:100D500003F01F03012202FA03F3194203D02369AF
:100D6000934240F020825348036823F0F8016369FE
:100D7000F82292FAA2F2B2FA82F293400B43036095
:100D80005CE023699BB3012292FAA2F3B3FA83F3E6
:100D900003F1845303F584139B001A60FFF70EFFE1
:100DA000054605E0FFF70AFF401B022800F2FD811F
:100DB000022393FAA3F33F4B1968022393FAA3F398
:100DC000B3FA83F303F01F03012202FA03F319427B
:100DD000E8D03848036823F0F8016369F82292FAF2
:100DE000A2F2B2FA82F293400B43036026E00123A1
:100DF00093FAA3F3B3FA83F303F1845303F5841353
:100E00009B0000221A60FFF7D9FE054605E0FFF7B8
:100E1000D5FE401B022800F2CA81022393FAA3F3F5
:100E2000244B1968022393FAA3F3B3FA83F303F074
:100E30001F03012202FA03F31942E8D1236813F0D9
:100E4000080F55D0A3693BB3012191FAA1F2B2FA80
:100E500082F2194B13449B001960FFF7AFFE054661
:100E600005E0FFF7ABFE401B022800F2A28102233F
:100E700093FAA3F293FAA3F293FAA3F20D4A516AFA
:100E800093FAA3F3B3FA83F303F01F03012202FAE8
:100E900003F31942E5D02BE0012292FAA2F2B2FA52
:100EA00082F2054B13449B0000221A60FFF786FE76
:100EB000054609E00010024020819010FFF77EFEF9
:100EC000401B022800F27781022393FAA3F293FADF
:100ED000A3F293FAA3F2BE4A516A93FAA3F3B3FAC8
:100EE00083F303F01F03012202FA03F31942E5D151
:100EF000236813F0040F00F0BA80B54BDB6913F0E0
:100F0000805F0BD1B24BDA6942F08052DA61DB6963
:100F100003F080530193019B012500E00025AD4BB8
:100F20001B6813F4807F13D1AA4A136843F48073BB
:100F30001360FFF743FE064605E0FFF73FFE801B08
:100F4000642800F23A81A34B1B6813F4807FF4D02D
:100F5000E368012B05D19E4A136A43F00103136233
:100F600022E063B903F1804303F504331A6A22F0E7
:100F700001021A621A6A22F004021A6214E0052BB6
:100F800009D1934B1A6A42F004021A621A6A42F0BB
:100F900001021A6208E08E4B1A6A22F001021A62FC
:100FA0001A6A22F004021A62E3686BB3FFF706FEC6
:100FB000064607E0FFF702FE801B41F288339842A5
:100FC00000F2FD80022393FAA3F293FAA3F3B3FA9B
:100FD00083F35B0943F00203DBB2022B02D17C4BAB
:100FE000196A04E0022393FAA3F3794B596A0223A6
:100FF00093FAA3F3B3FA83F303F01F03012202FA77
:1010000003F31942D6D02CE0FFF7D8FD064607E0DF
:10101000FFF7D4FD801B41F28833984200F2D18063
:10102000022393FAA3F293FAA3F3B3FA83F35B09CF
:1010300043F00203DBB2022B02D1654B196A04E0D4
:10104000022393FAA3F3624B596A022393FAA3F3A0
:10105000B3FA83F303F01F03012202FA03F31942E8
:10106000D6D125B15A4AD36923F08053D361E369BD
:10107000002B00F0A880564A526802F00C02082AA1
:1010800000F0A380022B5DD14FF0807393FAA3F39D
:10109000B3FA83F303F1845303F584139B00002216
:1010A0001A60FFF78BFD054605E0FFF787FD401B43
:1010B000022800F291804FF0007393FAA3F3444B9F
:1010C00019684FF0007393FAA3F3B3FA83F303F0B4
:1010D0001F03012202FA03F31942E6D13C48436898
:1010E00023F47411636A226A13430B4343604FF085
:1010F000807393FAA3F3B3FA83F303F1845303F5F4
:1011000084139B0001221A60FFF758FD044604E097
:10111000FFF754FD001B022860D84FF0007393FACC
:10112000A3F32B4B19684FF0007393FAA3F3B3FAB0
:1011300083F303F01F03012202FA03F31942E7D0FD
:1011400000204EE04FF0807393FAA3F3B3FA83F3D9
:1011500003F1845303F584139B0000221A60FFF708
:101160002DFD044604E0FFF729FD001B022837D8B7
:101170004FF0007393FAA3F3154B19684FF0007307
:1011800093FAA3F3B3FA83F303F01F03012202FAE5
:1011900003F31942E7D1002023E0012021E00320DE
:1011A0001FE003201DE001201BE0032019E00320C5
:1011B00017E0032015E0032013E0032011E00320D3
:1011C0000FE003200DE000200BE0012009E000BF4C
:1011D0000010024000700040032002E0032000E005
:1011E000032002B070BD00BF164B5B6803F00C0219
:1011F000082A25D103F470114FF4701292FAA2F26A
:10120000B2FA82F221FA02F20F498A5C0D49C96AE8
:1012100001F00F000F2191FAA1F1B1FA81F120FA4A
:1012200001F10A48405C13F4803F05D0084BB3FB42
:10123000F0F000FB02F07047064800FB02F0704738
:101240000348704700100240F82E0008E82E0008FE
:1012500000127A0000093D0070B5744B1B6803F062
:1012600007038B420BD2714A136823F007030B4329
:101270001360136803F00703994240F0C6800368C7
:1012800013F0020F06D06A4C636823F0F002836803
:10129000134363600D460446036813F0010F75D0D5
:1012A0004268012A13D14FF4003393FAA3F3604B41
:1012B00018684FF4003393FAA3F3B3FA83F303F0FF
:1012C0001F03012101FA03F3184227D19FE0022AEC
:1012D00013D14FF0007393FAA3F3554B18684FF0F6
:1012E000007393FAA3F3B3FA83F303F01F0301210E
:1012F00001FA03F3184211D18BE0022393FAA3F30E
:101300004B4B1868022393FAA3F3B3FA83F303F069
:101310001F03012101FA03F318427CD044494B68B2
:1013200023F0030313434B60FFF748FC0646636852
:10133000012B0ED106E0FFF741FC801B41F2883300
:1013400098426AD83A4B5B6803F00C03042BF2D145
:101350001CE0022B15D106E0FFF730FC801B41F2A8
:10136000883398425BD8324B5B6803F00C03082B40
:10137000F2D10BE0FFF722FC801B41F28833984248
:101380004FD82B4B5B6813F00C0FF3D1274B1B6826
:1013900003F007039D420AD2244A136823F007038F
:1013A0002B431360136803F007039D423BD123686E
:1013B00013F0040F06D01E494B6823F4E062E36883
:1013C00013434B60236813F0080F07D0184A536883
:1013D00023F46053216943EAC1035360FFF704FF1C
:1013E000134B5B6803F0F002F02393FAA3F3B3FA14
:1013F00083F322FA03F30F4AD35CD8400E4B1860F4
:101400000F20FFF7ABFB002070BD012070BD012055
:1014100070BD012070BD012070BD032070BD032090
:1014200070BD032070BD012070BD00BF00200240D0
:1014300000100240D02E000800000020014B186868
:10144000704700BF0000002008B5FFF7F7FF084B0A
:101450005B6803F4E0624FF4E06393FAA3F3B3FA3A
:1014600083F322FA03F3034AD35CD84008BD00BFDC
:1014700000100240E02E000808B5FFF7DFFF084B20
:101480005B6803F460524FF4605393FAA3F3B3FA2A
:1014900083F322FA03F3034AD35CD84008BD00BFAC
:1014A00000100240E02E0008074AD36823F4E063EE
:1014B0001B041B0C000200F4E060184340F0BF6006
:1014C00040F40030D060704700ED00E030B4164BBF
:1014D000DB68C3F30223C3F10704042C28BF0424F0
:1014E0001D1D062D01D9DD1E00E00025012303FA94
:1014F00004F4013C2140A940AB40013B1A400A439F
:10150000002806DA00F00F001201D2B2074B1A547D
:1015100007E01201D2B200F1604000F5614080F8AE
:10152000002330BC704700BF00ED00E014ED00E088
:101530000138B0F1807F0AD2064B5860F021064A8C
:1015400082F823100020986007221A60704701205B
:10155000704700BF10E000E000ED00E0042805D176
:10156000054A136843F0040313607047024A136886
:1015700023F004031360704710E000E008B5FFF7A4
:1015800015FB00F097FC08BD0A4B1B681B680BB9E4
:10159000012300E0002323B14FF0FF32064B1A6015
:1015A0007047044B1B68DB68DB685A68024B1A60A3
:1015B000704700BF280000200401002010B5044639
:1015C000006B01F059F9204601F056F910BD00BF3B
:1015D0002DE9F04780469946089D099F0A9C236B98
:1015E00002F18042013A03EB820626F0070600234F
:1015F00006E0C85CE21882F83400CA5C12B101331C
:101600000F2BF6D9002384F84330062D00D9062588
:10161000E56265644FF0000AC4F848A0201DFFF79A
:101620002DFA04F11800FFF729FA2461C5F1070526
:10163000A5616462C4F84CA084F850A04A464146B3
:10164000304600F0FDFE206007B13C60BDE8F08749
:1016500038B5002407E004EB840293000E481844D8
:10166000FFF700FA0134062CF5D90C4D2846FFF798
:10167000F9F90B4C2046FFF7F5F90A48FFF7F2F9A4
:101680000948FFF7EFF90948FFF7ECF9084B1D602F
:10169000084B1C6038BD00BF4C0000200C0100202E
:1016A00020010020E800002030000020340100204C
:1016B000280000204400002010B5044600F0EAFE97
:1016C000204A1368013313601F4B1B683BB91E4B44
:1016D0001C601368012B0DD1FFF7BAFF0AE01B4B0A
:1016E0001B683BB9184B1B68DA6AE36A9A4201D857
:1016F000154B1C60164A136801331360E36A01221C
:1017000002FA03F1134802680A43026003EB830301
:101710009A00211D10481044FFF7B4F900F0DCFED8
:101720000A4B1B686BB1084B1B68DA6AE36A9A4282
:1017300007D24FF08052094B1A60BFF34F8FBFF3AF
:101740006F8F10BDE0000020E40000202C0000207E
:1017500008010020480100204C00002004ED00E0BA
:1017600070B504460E461D4B1D681D4B18680430AD
:10177000FFF7AEF950B91A4B1B68DA6A012303FA76
:1017800002F218490B6823EA02030B60B4F1FF3F31
:1017900007D136B1124B196804311348FFF772F9BB
:1017A00070BD2C440E4B1B685C60A54207D90F4BE3
:1017B00018680B4B19680431FFF770F970BD0C4BBA
:1017C0001868074B19680431FFF768F9094B1B6863
:1017D0009C4201D2074B1C6070BD00BF000100207D
:1017E000E4000020480100203401002044000020D3
:1017F00028000020040100202DE9F04385B00646B2
:101800000F4615469846900000F0B4FF60B181463F
:10181000542000F0AFFF044610B1C0F8309004E04F
:10182000484601F029F800E000248CB1002303931E
:1018300002940D9B01930C9B009343462A46394624
:101840003046FFF7C5FE2046FFF736FF012001E0D6
:101850004FF0FF3005B0BDE8F08300BF00B583B0A6
:10186000174B019300230093802216491648FFF777
:10187000C3FF012814D14FF0500383F31188BFF345
:101880006F8FBFF34F8F4FF0FF32104B1A60012262
:101890000F4B1A6000220F4B1A6000F097FE0BE00E
:1018A000B0F1FF3F08D14FF0500383F31188BFF32D
:1018B0006F8FBFF34F8FFEE703B05DF804FB00BFEF
:1018C000FC000020082F0008A91B000804010020CC
:1018D0002C00002000010020024A1368013313602D
:1018E000704700BFD8000020F8B53D4B1B68002BA7
:1018F00069D13C4B1D6801351D60C5B93A4B1B6869
:101900001B6843B14FF0500383F31188BFF36F8F0F
:10191000BFF34F8FFEE7344A1168344B18681060EC
:101920001960334A136801331360FFF72DFE314B02
:101930001B689D4203D200243AE0012400E0002409
:10194000294B1B681B680BB9012300E0002323B15E
:101950004FF0FF32274B1A602AE0234B1B68DB68ED
:10196000DE6873689D4202D2224A136020E0371D70
:101970003846FFF7ADF8B36A1BB106F11800FFF760
:10198000A7F8F36A012202FA03F11B4802680A432E
:10199000026003EB83039A00394618481044FFF7AE
:1019A00071F8F26A164B1B68DB6A9A42C5D2C7E728
:1019B000134B1B68DB6A03EB83039A000F4B9B58A6
:1019C000012B06D806E00F4A136801331360002488
:1019D00000E001240C4B1B6803B101242046F8BD34
:1019E000D800002000010020280000204400002032
:1019F0002400002004010020480100204C000020A9
:101A0000E4000020480000204C01002038B5344B91
:101A10001B6843B94FF0500383F31188BFF36F8FF6
:101A2000BFF34F8FFEE700F035FD2D4B1A68013AEA
:101A30001A601B68002B4CD12A4B1B6833BB002457
:101A40004AE0294BDB68DC6804F11800FFF740F836
:101A5000251D2846FFF73CF8E36A012202FA03F14C
:101A6000224802680A43026003EB83039A00294676
:101A70001F481044FFF706F8E26A1E4B1B68DB6A3A
:101A80009A4204D301221C4B1A6000E00024164B3A
:101A90001B68002BD5D10CB1FFF776FD174B1C68E6
:101AA00054B1FFF721FF10B10122134B1A60013C22
:101AB000F7D10022114B1A600F4B1B685BB14FF03E
:101AC00080520F4B1A60BFF34F8FBFF36F8F01240B
:101AD00002E0002400E0002400F0FEFC204638BDB7
:101AE000D8000020E0000020E8000020480100208D
:101AF0004C000020E40000204C01002048000020A1
:101B000004ED00E010B5A8B10446104B1B6843B1CA
:101B10004FF0500383F31188BFF36F8FBFF34F8FE4
:101B2000FEE7FFF7D9FE00212046FFF719FEFFF779
:101B30006DFF00E0002038B94FF08052044B1A606E
:101B4000BFF34F8FBFF36F8F10BD00BFD8000020D1
:101B500004ED00E010B51BE0FFF7BEFE0F4B1C6864
:101B6000FFF754FFA4B100F095FC0C4BDB68DC6878
:101B7000201DFEF7ADFF0A4A1368013B1360094AB6
:101B80001368013B136000F0A7FC2046FFF716FD29
:101B9000044B1B68002BDFD110BD00BF30000020BC
:101BA000E0000020DC00002008B5FFF7D3FF064B63
:101BB0001B68012BF9D94FF08052044B1A60BFF318
:101BC0004F8FBFF36F8FF0E74C00002004ED00E073
:101BD0001F4B1B681BB101221E4B1A60704700226D
:101BE0001C4B1A601C4B1B68B3FA83F3DBB2C3F1C6
:101BF0001F0303EB83018A0018498A5842B94FF04A
:101C0000500383F31188BFF36F8FBFF34F8FFEE74D
:101C100030B4124D9900CA189000284442685468A4
:101C2000446019448A0008322A44944205D160680D
:101C300003EB83018A002A44506003EB83039A007C
:101C4000064B1A445368DA68054B1A6030BC70477B
:101C5000D80000204C010020480100204C0000204A
:101C6000E4000020054B1B6823B1054B1B681BB922
:101C70000220704701207047002070472C00002090
:101C8000D800002038B50546064CB0FA80F252095B
:101C90000221204600F0DAF9EAB20121204600F0E4
:101CA000D5F938BD0014004810B50446B0FA80F2EA
:101CB00052094FF400614FF0904000F0C7F9E2B2D2
:101CC0002021024800F0C2F910BD00BF0004004806
:101CD00010B5064C00220221204600F0B7F9002280
:101CE0000121204600F0B2F910BD00BF00140048E9
:101CF00008B500224FF400614FF0904000F0A6F9C3
:101D000000222021014800F0A1F908BD000400488C
:101D100010B5002407E0064B1B685C631C64143498
:101D2000642000F0BFF8B4F5A07FF4D110BD00BF6F
:101D3000740D002010B54FF4A07407E0054B1B682C
:101D40005C631C64143C642000F0ACF8002CF5D1FA
:101D500010BD00BF740D002008B50120FFF7A4FFDF
:101D60000120FFF78FFFFFF7D3FF4FF4FA6000F079
:101D700099F8FFF7DFFFFFF7BBFFFFF7A9FF08BDEB
:101D800008B50020FFF790FF0020FFF77BFFFFF76B
:101D9000BFFF4FF4FA6000F085F8FFF7CBFFFFF7C5
:101DA000A7FFFFF795FF08BD08B50120FFF76AFF01
:101DB0000020FFF779FFFFF7ABFF4FF47A7000F0D8
:101DC00071F8FFF7B7FFFFF793FFFFF781FF08BD3B
:101DD00008B50120FFF768FF0020FFF753FFFFF76A
:101DE00097FF4FF47A7000F05DF8FFF7A3FFFFF75D
:101DF0007FFFFFF76DFF08BD08B5164C204600F0C9
:101E00002BF90021204600F0B9FA0C21204600F001
:101E1000B5FA01224FF480714FF0904000F016F9AE
:101E2000FFF79AFF4FF4FA6000F03CF8FFF7A8FFC5
:101E30004FF4FA6000F036F8FFF7B6FF4FF4FA609F
:101E400000F030F8FFF7C4FF4FF4FA6000F02AF812
:101E5000E6E700BF740D0020842801D003307047EE
:101E60000020704708B5FFF7F9FC002008BD00BF4F
:101E7000F0B585B00F46446805680669B0F90800FA
:101E8000FFF7EAFF03AB019300903B46B2B229464D
:101E90002046FFF7B1FC012801D1039800E00020A3
:101EA00005B0F0BD08B508B90120FFE7FFF72AFE2D
:101EB000002008BD08B5FFF7D5FE012801D000F0CD
:101EC00059FB08BDF0B583B00023AFE001249C406E
:101ED000224000F0AA804D68022D01D0122D10D1B1
:101EE000DE08083650F826C003F00705AF000F25BE
:101EF000BD402CEA050E0D69BD404EEA050540F8CF
:101F0000265005685F000326BE40F64305EA060E2C
:101F10004D6805F00305BD404EEA050505604D68B6
:101F200005F1FF3EBEF1010F03D9112D01D0122D95
:101F300010D1856806EA050ECD68BD404EEA05055C
:101F40008560456825EA04044D68C5F300159D4089
:101F500025434560C46826408C68BC403443C46057
:101F60004C6814F0805F60D0344CA56945F00105E1
:101F7000A561A46904F001040194019C9E08B51CAC
:101F80002F4C54F8255003F00304A4000F27A7405A
:101F900025EA0707B0F1904F0CD02A4DA8420BD08C
:101FA00005F58065A84209D005F58065A84207D1EE
:101FB000032506E0002504E0012502E0022500E0FB
:101FC000052505FA04F43C4302361D4D45F826402C
:101FD0001D4C2568D44305EA04064F6817F4803F7A
:101FE00001D042EA0506184D2E606D6804EA050628
:101FF0004F6817F4003F01D042EA0506124D6E60AB
:10200000AD6804EA05064F6817F4801F01D042EA64
:1020100005060D4DAE60ED682C404E6816F4001FAD
:1020200001D042EA0504084AD46001330A6832FA52
:1020300003F47FF44BAF03B0F0BD00BF00100240CB
:102040000000014000040048000401400AB1816121
:1020500070478162704700BF022380F83D300268FC
:10206000136843F001031360012380F83D30002022
:10207000704700BF0368224A904206D0B0F1804FFB
:1020800003D0A2F59432904203D123F070034A6842
:1020900013431B4A904212D0B0F1804F0FD0A2F5EB
:1020A000943290420BD002F59E32904207D002F556
:1020B0008062904203D002F58062904203D123F403
:1020C0004073CA68134323F080034A6913430360D3
:1020D0008B68C3620B688362094B98420BD003F58F
:1020E000A053984207D003F58063984203D003F5CC
:1020F0008063984201D10B690363012343617047F8
:10210000002C0140B8B110B5044690F83D3013F0F2
:10211000FF0F04D1002380F83C3000F03BFC022389
:1021200084F83D30211D2068FFF7A4FF012384F8C7
:102130003D30002010BD0120704700BFB8B110B580
:10214000044690F83D3013F0FF0F04D1002380F8CF
:102150003C3000F00BFC022384F83D30211D206848
:10216000FFF788FF012384F83D30002010BD0120D7
:10217000704700BF30B4036A23F001030362026AB0
:102180004468836923F4803323F073030D682B4381
:1021900022F002028D682A43184DA8420BD005F5A3
:1021A000A055A84207D005F58065A84203D005F5E3
:1021B0008065A84205D122F00802CD682A4322F0AA
:1021C00004020E4DA8420BD005F5A055A84207D039
:1021D00005F58065A84203D005F58065A84205D1C4
:1021E00024F440754C692C438D692C434460836111
:1021F0004B684363026230BC704700BF002C014053
:1022000030B4036A23F010030362036A44688269EE
:1022100022F0807222F4E6420D6842EA052223F0A1
:1022200020038D6843EA0513134DA84206D123F01D
:102230008003CD6843EA051323F040030E4DA84206
:102240000BD005F5A055A84207D005F58065A8423A
:1022500003D005F58065A84207D124F440644D6998
:1022600044EA85048D6944EA8504446082614A68D1
:102270008263036230BC7047002C014030B4036AB3
:1022800023F480730362036A4468C26922F48032D3
:1022900022F073020D682A4323F400738D6843EA29
:1022A0000523144DA84206D123F40063CD6843EA08
:1022B000052323F480630F4DA8420BD005F5A055EC
:1022C000A84207D005F58065A84203D005F58065D2
:1022D000A84207D124F440544D6944EA05148D699D
:1022E00044EA05144460C2614A68C263036230BCB8
:1022F000704700BF002C014030B4036A23F48053C0
:102300000362026A4468C36923F0807323F4E643DE
:102310000D6843EA052322F400528D6842EA053233
:102320000D4DA8420BD005F5A055A84207D005F5E4
:102330008065A84203D005F58065A84204D124F445
:1023400080444D6944EA85144460C3614B6803646A
:10235000026230BC704700BF002C014010B4012362
:1023600003FA01F4036A23EA04030362036A8A405E
:102370001A4302625DF8044B704700BF10B5044673
:1023800001220068FFF7EAFF2368124A93420DD04A
:1023900002F5A05293420BD002F58062934209D01D
:1023A00002F58062934207D1012206E0012204E097
:1023B000012202E0012200E000221AB15A6C42F42C
:1023C00000425A642268136843F00103136000203E
:1023D00010BD00BF002C01400B4B1B68B3F1FF3F49
:1023E00008D04FF0500383F31188BFF36F8FBFF312
:1023F0004F8FFEE74FF0500383F31188BFF36F8FC9
:10240000BFF34F8FFEE700BF0400002006480068BE
:10241000006880F3088862B661B6BFF34F8FBFF3E0
:102420006F8F00DF00BF000008ED00E0DFF80C0058
:10243000016841F4700101607047000088ED00E020
:102440004FF0807340F8043C21F0010140F8081C73
:10245000054B40F80C3C40F8202C6FF0020340F88C
:10246000243C4438704700BFD92300080000000016
:10247000074B19680868B0E8F04F80F30988BFF38C
:102480006F8F4FF0000080F311887047AFF300802A
:10249000E40000204FF0500383F31188BFF36F8FE7
:1024A000BFF34F8F0A4A136801331360012B0DD11C
:1024B000084B1B6813F0FF0F08D04FF0500383F355
:1024C0001188BFF36F8FBFF34F8FFEE7704700BFD8
:1024D0000400002004ED00E0094B1B6843B94FF0F5
:1024E000500383F31188BFF36F8FBFF34F8FFEE765
:1024F000013B034A13600BB983F31188704700BF97
:1025000004000020000000000000000000000000A7
:10251000EFF30980BFF36F8F154B1A681EF0100F91
:1025200008BF20ED108A20E9F04F10604DF8043DFF
:102530004FF0500080F31188BFF34F8FBFF36F8FC0
:10254000FFF746FB4FF0000080F3118808BC1968C4
:102550000868B0E8F04F1EF0100F08BFB0EC108A0A
:1025600080F30988BFF36F8F704700BFAFF300801F
:10257000E400002008B54FF0500383F31188BFF347
:102580006F8FBFF34F8FFFF7AFF918B14FF0805245
:10259000024B1A60002383F3118808BD04ED00E0AC
:1025A000064B1B68064AA2FB03239B09013B054A15
:1025B00013600722044B1A60704700BF0000002020
:1025C000D34D621014E000E010E000E0314B1A68D7
:1025D000314B9A4208D14FF0500383F31188BFF377
:1025E0006F8FBFF34F8FFEE72A4B1A682B4B9A422F
:1025F00008D14FF0500383F31188BFF36F8FBFF3FF
:102600004F8FFEE700B583B0254B1A78D2B2019206
:10261000FF221A701B78DBB28DF803309DF803306F
:1026200003F050031F4A137007221F4B1A6009E082
:102630001D4A1368013B13609DF803305B00DBB259
:102640008DF803309DF8033013F0800FF0D1164A57
:1026500013681B0203F4E0631360019BDBB2104AB2
:102660001370124B1A6842F470021A601A6842F032
:1026700070421A60FFF794FF00220D4B1A60FFF7BB
:10268000D5FE0C4A136843F040431360FFF7BEFECB
:10269000FFF7A2FE00ED00E071C20F4170C20F41D2
:1026A00000E400E0500100205401002020ED00E093
:1026B0000400002034EF00E0124A12F0070F07D0A8
:1026C000D11D21F00701C1F5406313440A4601E022
:1026D0004FF440630C480260002141601344083B02
:1026E00023F007030948036059601960991A516083
:1026F0001360074B1960074B19604FF00042064BFF
:102700001A60704768010020600100205C01002011
:102710006C0D002058010020680D0020134B00E0D4
:1027200013461A688242FBD310B45C6819198842B8
:1027300003D14168214459601846446801198A420E
:102740000CD10B4909688A4206D052682244426083
:102750001A681268026002E0016000E002609842BC
:1027600000D018605DF8044B704700BF6001002086
:102770005C01002070B50446FFF7AEF8394B1B68CA
:102780000BB9FFF799FF384B1B681C4253D194B12A
:10279000083414F0070F0ED024F00704083404F0B6
:1027A000070343B14FF0500383F31188BFF36F8FDA
:1027B000BFF34F8FFEE7002C3FD02C4B1B689C4291
:1027C0003DD82B4B1D6801E02B4615466A689442A4
:1027D00002D92A68002AF7D1224A1268954230D0DD
:1027E0001E6808362A681A606B681B1B102B10D9EC
:1027F000281910F0070F08D04FF0500383F3118809
:10280000BFF36F8FBFF34F8FFEE743606C60FFF73E
:1028100085FF6A6815490B689B1A0B6015490968A2
:102820008B4201D213490B600F4B1B681A436A603D
:1028300000232B6006E0002604E0002602E00026CC
:1028400000E00026FFF7E2F816F0070F08D04FF07F
:10285000500383F31188BFF36F8FBFF34F8FFEE7F1
:10286000304670BD5C010020680D0020580100203A
:10287000600100206C0D0020A0B338B50346A0F124
:10288000080550F8042C1849096812EA010408D117
:102890004FF0500383F31188BFF36F8FBFF34F8F57
:1028A000FEE750F8080C40B14FF0500383F3118855
:1028B000BFF36F8FBFF34F8FFEE794B188B91C460B
:1028C00022EA010243F8042CFFF706F854F8043C0E
:1028D000064A11680B4413602846FFF71FFFFFF7F5
:1028E00095F838BD704700BF680D002058010020E2
:1028F00000B583B01C4B9A6942F001029A619B6952
:1029000003F001030193019B0320FEF7CDFD00229C
:1029100011466FF00B00FEF7D9FD002211466FF053
:102920000A00FEF7D3FD002211466FF00900FEF702
:10293000CDFD002211466FF00400FEF7C7FD002216
:1029400011466FF00300FEF7C1FD00220F216FF06A
:102950000100FEF7BBFD00220F214FF0FF30FEF714
:10296000B5FD03B05DF804FB001002400268084B9F
:102970009A420CD182B003F50333DA6942F00202C5
:10298000DA61DB6903F002030193019B02B0704737
:10299000000400400268084B9A420CD182B003F553
:1029A0004C439A6942F400329A619B6903F4003304
:1029B0000193019B02B070470044014000B587B00D
:1029C0000368114A93420CD112230193022302930C
:1029D000002203920492059301A90C48FFF772FAB2
:1029E0000FE00B4A93420CD1402301930223029340
:1029F0000023039304930123059301A90348FFF7E0
:102A000061FA07B05DF804FB0004004000040048D0
:102A1000004401400268124B9A421FD100B587B0B2
:102A200003F558439A6942F480429A619B6903F422
:102A300080430093009B4FF4C063019302230293F1
:102A400001230393032304930723059301A94FF064
:102A50009040FFF737FA07B05DF804FB704700BFFE
:102A60000038014038B50446826803691A43436957
:102A70001A43C3691A4301680868634B0340134350
:102A80000B6021684B6823F44052E36813434B60AA
:102A9000A269236A1A4321688B6823F430631343C5
:102AA0008B602568594B9D4212D103F558431B6B2F
:102AB00003F00303032B09D8DFE803F00204061335
:102AC000002313E0042311E008230FE010230DE09E
:102AD0004F4B9D4207D003F580639D4205D10023F3
:102AE00004E0022302E0002300E01023E269B2F5D3
:102AF000004F47D1082B3BD8DFE803F005101B3A05
:102B0000263A3A3A3100FEF79FFC63685A0802EB16
:102B10004000B0FBF3F39BB200202BE0FEF7ACFCCF
:102B200063685A0802EB4000B0FBF3F39BB200204D
:102B300020E061684A0802F5740303F51053B3FB03
:102B4000F1F39BB2002015E0FEF74EFB63685A08D4
:102B500002EB4000B0FBF3F39BB200200AE0626896
:102B6000530803F58033B3FBF2F39BB2002001E07E
:102B70000120002323F00F02C3F342031343226812
:102B8000D36038BD082B3DD8DFE803F005101B3CAF
:102B9000273C3C3C3200FEF757FC636800EB5300D7
:102BA000B0FBF3F080B2E860002038BDFEF764FCB3
:102BB000636800EB5300B0FBF3F080B2E8600020E4
:102BC00038BD61684A0802F5F40303F59053B3FB7E
:102BD000F1F39BB2EB60002038BDFEF705FB6368A4
:102BE00000EB5300B0FBF3F080B2E860002038BD8A
:102BF0006268530803F50043B3FBF2F39BB2EB604A
:102C0000002038BD012038BDF369FFEF00380140D6
:102C100000440040436A13F0010F06D001684B687E
:102C200023F40032836A13434B60436A13F0020FAC
:102C300006D001684B6823F48032C36A13434B60AB
:102C4000436A13F0040F06D001684B6823F4802216
:102C5000036B13434B60436A13F0080F06D00168FF
:102C60004B6823F40042436B13434B60436A13F0F9
:102C7000100F06D001688B6823F48052836B1343D6
:102C80008B60436A13F0200F06D001688B6823F431
:102C90000052C36B13438B60436A13F0400F11D093
:102CA00001684B6823F48012036C13434B60036C80
:102CB000B3F5801F06D101684B6823F4C002436C52
:102CC00013434B60436A13F0800F06D001684B68D2
:102CD00023F40022836C13434B6070472DE9F041CD
:102CE00005460F4616469846069C1EE0B4F1FF3F87
:102CF0001BD02CB1FDF762FFC8EB0000844214D258
:102D00002A68136823F4D07313602A68936823F049
:102D100001039360202385F8693085F86A30002329
:102D200085F868300320BDE8F0812B68DB6937EA5D
:102D300003030CBF01230023B342D7D00020BDE81A
:102D4000F08100BF30B583B004460023C366FDF7B1
:102D500035FF054623681B6813F0080F0AD06FF093
:102D60007E430093034600224FF400112046FFF7F4
:102D7000B5FFC0B923681B6813F0040F0AD06FF0C9
:102D80007E4300932B4600224FF480012046FFF73C
:102D9000A5FF50B9202384F8693084F86A300020F8
:102DA00084F8680002E0032000E0032003B030BD97
:102DB00080B310B5044690F8693013F0FF0F04D1CA
:102DC000002380F86830FFF725FE242384F869305B
:102DD0002268136823F0010313602046FFF742FEC8
:102DE000012819D0636A13B12046FFF713FF226848
:102DF000536823F4904353602268936823F02A03B6
:102E000093602268136843F0010313602046FFF7C4
:102E100099FF10BD0120704710BD00BFDFF834D00E
:102E2000002103E00C4B5B58435004310B480C4B22
:102E300042189A42F6D30B4A02E0002342F8043BC0
:102E4000094B9A42F9D3FDF755FEFDF7F3F9FDF76B
:102E50009DFBFEE700300020182F00080000002036
:102E600008000020080000206C0E0020FEE7000093
:102E7000F8B500BFF8BC08BC9E467047F8B500BF67
:082E8000F8BC08BC9E46704737
:102E8800C42E0008690300080000000000000000CC
:102E980080000000BC2E0008F91D0008FDFF00009E
:102EA80000000000000100005372632F6D61696E1D
:102EB8002E6300006D6F746575720000646566614D
:102EC800756C745461736B00000000000000000012
:102ED80001020304060708090000000001020304B8
:102EE8000102030405060708090A0B0C0D0E0F1052
:102EF80002030405060708090A0B0C0D0E0F101033
:082F080049444C4500000000A3
:042F1000FD010008B7
:042F1400D5010008DB
:082F180000127A00AAAAAAAA7D
:0400000508002E1DA4
:00000001FF
