:020000040800F2
:10000000003000200D2700085D2700085D2700084C
:100010005D2700085D2700085D270008000000003C
:100020000000000000000000000000008115000832
:100030005D2700080000000021160008D312000808
:100040005D2700085D2700085D2700085D27000880
:100050005D2700085D2700085D2700085D27000870
:100060005D2700085D2700085D2700085D27000860
:100070005D2700085D2700085D2700085D27000850
:100080005D2700085D2700085D2700085D27000840
:100090005D2700085D2700085D2700085D27000830
:1000A0005D2700085D2700085D2700085D27000820
:1000B0005D2700085D270008000000005D2700089C
:1000C0005D27000800000000000000005D27000818
:1000D000000000005D2700085D2700085D2700087C
:1000E0005D2700085D2700080000000000000000F8
:1000F0000000000000000000000000000000000000
:1001000000000000000000000000000000000000EF
:1001100000000000000000005D2700085D270008C7
:1001200000000000000000000000000000000000CF
:1001300000000000000000000000000000000000BF
:100140005D2700085D270008000000000000000097
:10015000000000000000000000000000000000009F
:10016000000000000000000000000000000000008F
:10017000000000000000000000000000000000007F
:08018000000000005D270008EB
:1001900010B5054C237833B9044B13B10448AFF3C1
:1001A00000800123237010BD080000200000000023
:1001B000A82700080C4B43B10C480D4910B5AFF30C
:1001C00000800C48036823B910BD0A48036833B99E
:1001D0007047094B002BF7D0BDE810401847064B7D
:1001E000002BF5D0184700BF00000000A82700082A
:1001F0000C000020080000200000000010B504469C
:10020000074B1868074BA3FB0030800901F0E2F8A8
:10021000002221464FF0FF3001F0AAF8002010BD67
:1002200004000020D34D621008B5074A136843F05C
:1002300010031360032001F089F80F20FFF7DEFFA1
:1002400001F0EEF8002008BD00200240024A1368C9
:1002500001331360704700BF700D0020014B186818
:10026000704700BF700D002010B588B0204B5A6950
:1002700042F480025A615A6902F480020192019AA2
:100280005A6942F400325A615B6903F40033029305
:10029000029B0022A0214FF0904001F011F848F29B
:1002A0000403039302230493002405940323069379
:1002B0000723079303A94FF0904000F037FF202356
:1002C0000393012304930594069403A94FF09040EF
:1002D00000F02CFF802303931123049305940694CC
:1002E00003A94FF0904000F021FF08B010BD00BFFF
:1002F00000100240F0B583B04CE0012572E080218F
:100300004FF0904000F0E1FF4FF47A7001F00CF8EC
:1003100080214FF0904000F0D8FF4FF47A7001F048
:1003200003F880214FF0904000F0CFFF4FF47A7037
:1003300000F0FAFF80214FF0904000F0C6FF4FF42C
:100340007A7000F0F1FF8EE00125B5E080214FF0DA
:10035000904000F0BAFF4FF47A7000F0E5FF802182
:100360004FF0904000F0B1FF4FF47A7000F0DCFFE6
:1003700080214FF0904000F0A8FF4FF47A7000F019
:10038000D3FF80214FF0904000F09FFF4FF47A7030
:1003900000F0CAFF02A9752301F8023D674C4EF632
:1003A000EE630122204602F054F84EF6EE6301227D
:1003B0000DF10701204602F0B4F89DF8073003F074
:1003C000010103F0040203F0080003F0200703F02A
:1003D0004006C3F3400481EA040EC3F30015AE45A2
:1003E0008BD0002592085440B4EB571F00D0002555
:1003F000C0084240B2EB961F00D000254140B1EB4F
:10040000D31F00D00025002D7FF479AF20214FF0BD
:10041000904000F05AFF40F2DC5000F085FF2021B0
:100420004FF0904000F051FF40F2DC5000F07CFFB4
:1004300020214FF0904000F048FF40F2DC5000F0E7
:1004400073FF20214FF0904000F03FFF40F2DC505E
:1004500000F06AFF20214FF0904000F036FF40F29C
:10046000DC5000F061FF02A9652301F8033D334C25
:100470004EF6EE630122204601F0EBFF4EF6EE63EE
:1004800001220DF10701204602F04BF89DF80730DC
:1004900003F0010103F0040203F0080003F0200759
:1004A00003F04006C3F3400481EA040EC3F30015D1
:1004B000AE453FF449AF002592085440B4EB571FB6
:1004C00000D00025C0084240B2EB961F00D00025A6
:1004D0004140B1EBD31F00D00025002D7FF436AF93
:1004E00020214FF0904000F0F0FE40F2DC5000F090
:1004F0001BFF20214FF0904000F0E7FE40F2DC505F
:1005000000F012FF20214FF0904000F0DEFE40F29C
:10051000DC5000F009FF20214FF0904000F0D5FEA4
:1005200040F2DC5000F000FF20214FF0904000F03E
:10053000CCFE40F2DC5000F0F7FE2BE7780D0020F7
:10054000FEE7000008B50D480D4B03604FF416435D
:1005500043604FF0805383600023C36003610C222B
:1005600042618361C3610362436202F09AF800B999
:1005700008BDE2210348FFF7E3FF00BF780D00202C
:1005800000380140D427000800B597B002230C932F
:100590000123109310231193002313930CA800F050
:1005A00023F930BB0F2307930021089109910A9189
:1005B0000B9107A800F056FCF8B901230193002322
:1005C000039301A800F044F8D8B900F035FD0F4BB3
:1005D000A3FB0030800900F0FDFE042000F010FFB6
:1005E00000220F214FF0FF3000F0C2FE17B05DF87F
:1005F00004FBAE210648FFF7A3FFBC210448FFF728
:100600009FFFC3210248FFF79BFF00BFD34D62103D
:10061000D427000800B587B0FFF706FEFFF7B4FF48
:10062000FFF722FEFFF78EFF01AC074D0FCD0FC481
:100630002B682360002101A800F05CFE034B1860CA
:1006400000F053FEFEE700BFC0270008740D002035
:10065000F0B583B00446036813F4803F44D05F4B89
:10066000DB6913F0805F6ED15C4BDA6942F0805237
:10067000DA61DB6903F080530193019B0125584B3C
:100680001B6813F4807F60D0544B1B6A13F44073D3
:1006900021D0626802F4407293421CD04F48016A34
:1006A00021F440764FF4803393FAA3F2B2FA82F247
:1006B0004C4F3A4492004FF0010EC2F800E093FA1A
:1006C000A3F3B3FA83F33B449B0000221A60066253
:1006D00011F0010F4DD1414A136A23F44073616850
:1006E0000B431362002D6FD1236813F0010F06D066
:1006F0003A4A136B23F00303A1680B431363236887
:1007000013F0200F06D0354A136B23F01003E16875
:100710000B431363236813F0800F06D02F4AD36A6C
:1007200023F4F87321690B43D362236813F4805FC9
:1007300051D02A4A136B23F4807361690B4313630E
:10074000002003B0F0BD002599E7254A136843F463
:1007500080731360FFF782FD0646214B1B6813F47C
:10076000807F91D1FFF77AFD801B6428F5D90320A3
:10077000E7E7FFF773FD064614E0184B196A0223FA
:1007800093FAA3F3B3FA83F303F01F03012202FAEF
:1007900003F319429FD1FFF761FD801B41F28833BB
:1007A000984216D8022393FAA3F293FAA3F3B3FA6A
:1007B00083F35B0943F00203022BDED0022393FA9A
:1007C000A3F3064B596ADAE7D36923F08053D36168
:1007D0008AE70320B5E70020B3E700BF001002401E
:1007E000007000400081901070B582B0044603682C
:1007F00013F0010F63D0B54B5B6803F00C03042BBF
:1008000046D0B24B5B6803F00C03082B3BD0636807
:10081000B3F5803F00F08E80002B40F0918003F113
:10082000804303F504331A6822F480321A601A6890
:1008300022F480221A60A54AD36A23F00F03A1682C
:100840000B43D3626368002B00F09480FFF706FD32
:1008500005464FF4003393FAA3F39C4B19684FF409
:10086000003393FAA3F3B3FA83F303F01F030122D7
:1008700002FA03F3194222D1FFF7F0FC401B64286F
:10088000E7D90320ABE2914B5B6813F4803FBED005
:100890004FF4003393FAA3F38C4B19684FF40033F1
:1008A00093FAA3F3B3FA83F303F01F03012202FACE
:1008B00003F3194203D06368002B00F08982236898
:1008C00013F0020F00F09C80804B5B6813F00C0F5C
:1008D00072D07E4B5B6803F00C03082B67D0236952
:1008E000002B00F0CB80012292FAA2F3B3FA83F33B
:1008F00003F1845303F584139B001A60FFF7AEFCE9
:100900000546022393FAA3F3704B1968022393FA66
:10091000A3F3B3FA83F303F01F03012202FA03F3F4
:10092000194240F09C80FFF799FC401B0228E8D94F
:10093000032054E2654A136843F4803313607AE776
:10094000B3F5A02F09D0614B1A6822F480321A60E7
:100950001A6822F480221A606DE703F18043A3F540
:100960003C331A6842F480221A601A6842F48032DA
:100970001A6060E7FFF772FC05464FF4003393FA04
:10098000A3F3524B19684FF4003393FAA3F3B3FA6D
:1009900083F303F01F03012202FA03F319428ED0FE
:1009A000FFF75CFC401B6428E7D9032017E2474BA4
:1009B0005B6813F4803F92D1022393FAA3F3434B75
:1009C0001968022393FAA3F3B3FA83F303F01F0326
:1009D000012202FA03F3194204D02369934201D0A1
:1009E0000120FCE13948036823F0F8036169F8222B
:1009F00092FAA2F2B2FA82F201FA02F2134303600F
:100A0000236813F0080F00F08D80A369002B61D0DC
:100A1000012191FAA1F2B2FA82F22D4B13449B000C
:100A20001960FFF71BFC0546022393FAA3F293FA21
:100A3000A3F293FAA3F2254A516A93FAA3F3B3FA05
:100A400083F303F01F03012202FA03F3194269D171
:100A5000FFF704FC401B0228E6D90320BFE11B4836
:100A6000036823F0F8036169F82292FAA2F2B2FA5D
:100A700082F201FA02F213430360C1E7012393FA01
:100A8000A3F3B3FA83F303F1845303F584139B00B8
:100A900000221A60FFF7E2FB0546022393FAA3F354
:100AA0000A4B1968022393FAA3F3B3FA83F303F012
:100AB0001F03012202FA03F31942A1D0FFF7CEFB74
:100AC000401B0228E9D9032089E100BF0010024041
:100AD00020819010012292FAA2F2B2FA82F2C14B66
:100AE00013449B0000221A60FFF7B8FB054602235F
:100AF00093FAA3F293FAA3F293FAA3F2BA4A516AD1
:100B000093FAA3F3B3FA83F303F01F03012202FA6B
:100B100003F3194206D0FFF7A1FB401B0228E6D9D8
:100B200003205CE1236813F0040F00F0B380AE4BA8
:100B3000DB6913F0805F26D1AB4BDA6942F080525B
:100B4000DA61DB6903F080530193019B0125A74B18
:100B50001B6813F4807F18D0E368012B29D073BB86
:100B600003F1804303F504331A6A22F001021A628A
:100B70001A6A22F004021A62E368002B5DD0FFF7C4
:100B80006DFB064647E00025E1E7984A136843F409
:100B900080731360FFF762FB0646944B1B6813F4E7
:100BA000807FD9D1FFF75AFB801B6428F5D9032039
:100BB00015E18D4A136A43F001031362DCE7052B4C
:100BC00009D0894B1A6A22F001021A621A6A22F0CD
:100BD00004021A62D0E7844B1A6A42F004021A62D5
:100BE0001A6A42F001021A62C6E77F4B196A0223B1
:100BF00093FAA3F3B3FA83F303F01F03012202FA7B
:100C000003F3194245D1FFF729FB801B41F28833DA
:100C1000984200F2DF80022393FAA3F293FAA3F33F
:100C2000B3FA83F35B0943F00203022BDDD0022306
:100C300093FAA3F36C4B596AD9E7FFF70FFB06460B
:100C400015E0694B196A022393FAA3F3B3FA83F30D
:100C500003F01F03012202FA03F3194219D0FFF730
:100C6000FDFA801B41F28833984200F2B5800223DE
:100C700093FAA3F293FAA3F3B3FA83F35B0943F075
:100C80000203022BDDD0022393FAA3F3564B596AD9
:100C9000D9E7B5BBE369002B00F0A080524A526847
:100CA00002F00C02082A00F0A380022B2FD04FF094
:100CB000807393FAA3F3B3FA83F303F1845303F538
:100CC00084139B0000221A60FFF7C8FA04464FF015
:100CD000007393FAA3F3444B19684FF0007393FA2F
:100CE000A3F3B3FA83F303F01F03012202FA03F321
:100CF00019426BD0FFF7B2FA001B0228E7D9032094
:100D00006DE0394AD36923F08053D361C2E74FF0D5
:100D1000807393FAA3F3B3FA83F303F1845303F5D7
:100D200084139B0000221A60FFF798FA05464FF0E3
:100D3000007393FAA3F32C4B19684FF0007393FAE6
:100D4000A3F3B3FA83F303F01F03012202FA03F3C0
:100D5000194206D0FFF782FA401B0228E7D9032088
:100D60003DE021494B6823F47413626A206A024310
:100D700013434B604FF0807393FAA3F3B3FA83F3FA
:100D800003F1845303F584139B0001221A60FFF7DB
:100D900065FA04464FF0007393FAA3F3124B1968F7
:100DA0004FF0007393FAA3F3B3FA83F303F01F0336
:100DB000012202FA03F3194206D1FFF74FFA001B92
:100DC0000228E7D903200AE0002008E0002006E01E
:100DD000012004E0032002E0032000E0002002B034
:100DE00070BD00BF208190100010024000700040D4
:100DF0000120F4E7164B5B6803F00C02082A24D1AB
:100E000003F470114FF4701292FAA2F2B2FA82F265
:100E100021FA02F20F49885C0D4AD26A02F00F02F1
:100E20000F2191FAA1F1B1FA81F1CA400A498A5C15
:100E300013F4803F03D1094B03FB00F07047084BCC
:100E4000B3FBF2F303FB00F070470548704700BFA7
:100E500000100240EC270008FC27000800093D00B4
:100E600000127A00704B1B6803F007038B420CD210
:100E70006D4A136823F007030B431360136803F0F4
:100E80000703994201D00120704770B5036813F041
:100E9000020F06D0654A536823F0F00384682343A9
:100EA00053600D460446036813F0010F7AD043687F
:100EB000012B2FD0022B42D0022292FAA2F25B4ADF
:100EC0001068022292FAA2F2B2FA82F202F01F0233
:100ED000012101FA02F2104200F0A48053494A684D
:100EE00022F0030213434B60FFF7B8F9064663682C
:100EF000012B39D0022B46D04C4B5B6813F00C0F02
:100F000050D0FFF7ABF9801B41F288339842F3D9F8
:100F1000032070BD4FF4003292FAA2F2434A1068E7
:100F20004FF4003292FAA2F2B2FA82F202F01F02F9
:100F3000012101FA02F21042D0D1012070BD4FF020
:100F4000007292FAA2F2394A10684FF0007292FAD7
:100F5000A2F2B2FA82F202F01F02012101FA02F2B9
:100F60001042BBD1012070BD304B5B6803F00C0315
:100F7000042B17D0FFF772F9801B41F28833984297
:100F8000F2D9032070BD294B5B6803F00C03082BDA
:100F900008D0FFF763F9801B41F288339842F2D9F9
:100FA000032070BD204B1B6803F007039D420CD249
:100FB0001D4A136823F007032B431360136803F0E3
:100FC00007039D4201D0012070BD236813F0040F78
:100FD00006D0164A536823F4E063E1680B4353607C
:100FE000236813F0080F07D0104A536823F46053A6
:100FF000216943EAC1035360FFF7FCFE0B4B5B68BA
:1010000003F0F003F02292FAA2F2B2FA82F2D34095
:10101000074AD35CD840074B18600F20FFF7EEF863
:10102000002070BD012070BD002002400010024071
:101030001428000804000020014B1868704700BF06
:101040000400002008B5FFF7F7FF074B5B6803F4C7
:10105000E0634FF4E06292FAA2F2B2FA82F2D34075
:10106000024AD35CD84008BD001002402428000882
:1010700008B5FFF7E1FF074B5B6803F460534FF4DB
:10108000605292FAA2F2B2FA82F2D340024AD35CE0
:10109000D84008BD001002402428000800F10803D1
:1010A00043604FF0FF328260C3600361002303603E
:1010B000704700230361704743684B609A688A60F9
:1010C0009A68516099600861036801330360704752
:1010D00030B40D68B5F1FF3F02D000F1080202E024
:1010E000026904E01A4653681C68A542FAD25368A4
:1010F0004B6099608A605160086103680133036046
:1011000030BC7047036942688168916082684168B9
:1011100051605A68904205D0002202611868013877
:101120001860704782685A60F6E70000F0B583B037
:10113000002388E0DE08083650F8264003F0070E4A
:101140004FEA8E0E0F2707FA0EF724EA07040F69FD
:1011500007FA0EF73C4340F8264083E086682640B5
:10116000CF6807FA0EF73E438660466826EA050513
:101170004E68C6F300169E4035434560C5682C4056
:101180008D6805FA0EF52C43C4604C6814F0805F3E
:1011900058D0474CA56945F00105A561A46904F044
:1011A00001040194019C9D08AE1C424C54F8264059
:1011B00003F00306B6000F27B74024EA0704B0F196
:1011C000904F6CD03C4FB8426BD007F58067B84267
:1011D00069D007F58067B8425FD0052707FA06F6A1
:1011E00034430235334E46F82540344C2568D44309
:1011F00005EA04064F6817F4803F01D042EA05066D
:101200002E4D2E606D6804EA05064F6817F4003F06
:1012100001D042EA0506294D6E60AD6804EA050674
:101220004F6817F4801F01D042EA0506234DAE60D7
:10123000ED682C404E6816F4001F01D042EA050408
:101240001E4AD46001330A6832FA03F42DD0012516
:101250009D402A40F6D04C68022C3FF46BAF122C14
:101260003FF468AF06684FEA430E032404FA0EF415
:10127000E44326404F6807F0030707FA0EF73E43A2
:1012800006604E68771E012F7FF668AF112E3FF47F
:1012900065AF122E7FF472AF60E703279EE7002749
:1012A0009CE701279AE7022798E703B0F0BD00BF4B
:1012B000001002400000014000040048000401400A
:1012C0000AB9816270478161704743695940416141
:1012D000704708B5FEF7BAFF00F02FF808BD842864
:1012E00001D0033070470020704708B500F0D6FBEE
:1012F000002008BDF0B585B00F4644680568066952
:10130000B0F90800FFF7EBFF03AB019300903B46F9
:10131000B2B22946204600F08FFB012802D1039883
:1013200005B0F0BD0020FBE708B5034600B9012376
:10133000184600F007FD002008BD08B500F0BAFD12
:10134000012801D000F09EF908BD0000074AD368CB
:1013500023F4E0631B041B0C000200F4E06018435C
:1013600040F0BF6040F40030D060704700ED00E016
:1013700030B4164BDB68C3F30223C3F10704042C1B
:1013800028BF04241D1D062D17D9033B012505FA8E
:1013900004F4013C2140994005FA03F3013B13405A
:1013A000194300280BDB0901C9B200F1604000F5C8
:1013B000614080F8001330BC70470023E6E700F07E
:1013C0000F000901C9B2024B1954F4E700ED00E027
:1013D00014ED00E00138B0F1807F0AD2064B58606E
:1013E000F021064A82F823100020986007221A6034
:1013F00070470120704700BF10E000E000ED00E002
:10140000042805D0054A136823F0040313607047CD
:10141000024A136843F004031360704710E000E0D1
:1014200000B583B01C4B9A6942F001029A619B6936
:1014300003F001030193019B0320FFF787FF0022C4
:1014400011466FF00B00FFF793FF002211466FF07B
:101450000A00FFF78DFF002211466FF00900FFF729
:1014600087FF002211466FF00400FFF781FF002282
:1014700011466FF00300FFF77BFF00220F216FF092
:101480000100FFF775FF00220F214FF0FF30FFF73B
:101490006FFF03B05DF804FB001002400268124BBE
:1014A0009A4200D0704700B587B003F558439A6957
:1014B00042F480429A619B6903F480430093009B4D
:1014C0004FF4C06301930223029301230393032388
:1014D00004930723059301A94FF09040FFF726FEE0
:1014E00007B05DF804FB00BF003801400B4B1B68E0
:1014F000B3F1FF3F08D04FF0500383F31188BFF3DF
:101500006F8FBFF34F8FFEE74FF0500383F31188C7
:10151000BFF36F8FBFF34F8FFEE700BF00000020C7
:1015200006480068006880F3088862B661B6BFF3B9
:101530004F8FBFF36F8F00DF00BF000008ED00E0AA
:10154000DFF80C00016841F4700101607047000091
:1015500088ED00E04FF0807340F8043C21F0010179
:1015600040F8081C054B40F80C3C40F8202C6FF06C
:10157000020340F8243C4438704700BFED140008D3
:10158000074B19680868B0E8F04F80F30988BFF38B
:101590006F8F4FF0000080F311887047AFF3008029
:1015A0002C0000204FF0500383F31188BFF36F8F9E
:1015B000BFF34F8F0A4A136801331360012B0DD11B
:1015C000084B1B6813F0FF0F08D04FF0500383F354
:1015D0001188BFF36F8FBFF34F8FFEE7704700BFD7
:1015E0000000002004ED00E0094B1B6843B94FF0F8
:1015F000500383F31188BFF36F8FBFF34F8FFEE764
:10160000013B034A13600BB983F31188704700BF95
:1016100000000020000000000000000000000000AA
:10162000EFF30980BFF36F8F154B1A681EF0100F90
:1016300008BF20ED108A20E9F04F10604DF8043DFE
:101640004FF0500080F31188BFF34F8FBFF36F8FBF
:1016500000F0E2FB4FF0000080F3118808BC19682D
:101660000868B0E8F04F1EF0100F08BFB0EC108A09
:1016700080F30988BFF36F8F704700BFAFF300801E
:101680002C00002008B54FF0500383F31188BFF3FE
:101690006F8FBFF34F8F00F047FA18B14FF08052B1
:1016A000024B1A60002383F3118808BD04ED00E0AB
:1016B000064B1B68064AA2FB03239B09013B054A14
:1016C00013600722044B1A60704700BF040000201B
:1016D000D34D621014E000E010E000E0314B1A68D6
:1016E000314B9A421AD02F4B1A68304B9A421ED077
:1016F00000B583B02E4B1A78D2B20192FF221A7035
:101700001B78DBB28DF803309DF8033003F05003F3
:10171000284A13700722284B1A601BE04FF0500331
:1017200083F31188BFF36F8FBFF34F8FFEE74FF046
:10173000500383F31188BFF36F8FBFF34F8FFEE722
:101740001D4A1368013B13609DF803305B00DBB258
:101750008DF803309DF8033013F0800FF0D1164A56
:1017600013681B0203F4E0631360019BDBB2104AB1
:101770001370124B1A6842F470021A601A6842F031
:1017800070421A60FFF794FF00220D4B1A60FFF7BA
:10179000D7FE0C4A136843F040431360FFF7C0FEC6
:1017A000FFF7A4FE00ED00E071C20F4170C20F41CF
:1017B00000E400E0240000202800002020ED00E0EC
:1017C0000000002034EF00E00A4B1B681B684BB997
:1017D00001234BB9074B1B68DB68DB685A68064B73
:1017E0001A6070470023F4E74FF0FF32024B1A6093
:1017F000704700BF300000200801002010B50446EB
:10180000006B00F07DFC204600F07AFC10BD2DE955
:10181000F04780469946089D099F0A9C266B02F175
:101820008042013A06EB820626F0070600230F2BC2
:1018300007D8C85CE21882F83400CA5C0AB10133E8
:10184000F5E7002384F84330062D00D90625E5622C
:1018500065644FF0000AC4F848A0201DFFF729FC7A
:1018600004F11800FFF725FC2461C5F10705A56107
:101870006462C4F84CA084F850A04A464146304601
:10188000FFF768FE206007B13C60BDE8F08700000C
:1018900038B5002407E004EB840293000E48184496
:1018A000FFF7FCFB0134062CF5D90C4D2846FFF759
:1018B000F5FB0B4C2046FFF7F1FB0A48FFF7EEFB68
:1018C0000948FFF7EBFB0948FFF7E8FB084B1D60F1
:1018D000084B1C6038BD00BF38000020DC00002031
:1018E000F0000020100100203C0100202801002011
:1018F000300000203400002010B50446FFF752FEEF
:10190000204A1368013313601F4B1B68002B31D032
:101910001E4B1B683BB91C4B1B68DA6AE36A9A4290
:1019200001D8194B1C601A4A136801331360E36A2B
:1019300001229A401749086802430A6003EB8303B7
:101940009A00211D14481044FFF7B6FBFFF74CFE28
:101950000E4B1B686BB10C4B1B68DA6AE36A9A4248
:1019600007D24FF080520D4B1A60BFF34F8FBFF379
:101970006F8F10BD044B1C601368012BD3D1FFF790
:1019800087FFD0E7C40000202C00002024010020A5
:10199000D4000020D80000203800002004ED00E032
:1019A00070B504460E461D4B1D681D4B186804306B
:1019B000FFF7A8FB50B91A4B1B68DA6A012303FA38
:1019C00002F218490B6823EA02030B60B4F1FF3FEF
:1019D00013D02C44124B1B685C60A54216D8124BE6
:1019E00018680F4B19680431FFF772FB0F4B1B6827
:1019F0009C4201D20D4B1C6070BD002EE9D0084BFB
:101A0000196804310A48FFF757FB70BD094B186885
:101A1000034B19680431FFF75BFB70BD50010020D8
:101A20002C000020D80000203000002008010020F9
:101A300028010020340000202DE9F04385B006463F
:101A40000F4615469846900000F0D6FA00B381463E
:101A5000542000F0D1FA0446B0B1C0F83090CCB1B7
:101A60000023039302940D9B01930C9B0093434628
:101A70002A4639463046FFF7CAFE2046FFF73CFFAC
:101A8000012005B0BDE8F083484600F039FBE6E7E9
:101A90000024E4E74FF0FF30F3E7000000B583B027
:101AA000174B019300230093802216491648FFF735
:101AB000C3FF012805D0B0F1FF3F17D003B05DF898
:101AC00004FB4FF0500383F31188BFF36F8FBFF314
:101AD0004F8F4FF0FF320D4B1A6001220C4B1A60F2
:101AE00000220C4B1A60FFF7F9FDE7E74FF05003B7
:101AF00083F31188BFF36F8FBFF34F8FFEE700BFF3
:101B0000040100200C280008F11D00080801002035
:101B10002401002050010020024A136801331360A1
:101B2000704700BFD0000020F8B53C4B1B68002B6D
:101B300068D13B4B1D6801351D60C5B9394B1B6829
:101B40001B6843B14FF0500383F31188BFF36F8FCD
:101B5000BFF34F8FFEE7334A1168334B18681060AC
:101B60001960324A136801331360FFF72DFE304BC2
:101B70001B689D423AD200242E4B1B68DB6A03EBA4
:101B800083039A002C4B9B58012B40D901243EE043
:101B90000124244B1B681B6853B3002353BB214B08
:101BA0001B68DB68DE6873689D4228D3371D3846A2
:101BB000FFF7A8FAB36A1BB106F11800FFF7A2FA03
:101BC000F36A01229A401D49086802430A6003EB48
:101BD00083039A00394618481044FFF76DFAF26AF9
:101BE000144B1B68DB6A9A42D2D2D2E70024D0E7BA
:101BF0000123D3E74FF0FF320D4B1A60BCE70C4ACC
:101C00001360B9E70E4A13680133136000240D4BCB
:101C10001B6803B101242046F8BD00BFD00000209E
:101C20005001002030000020340000200C01002072
:101C3000080100202C00002038000020D8000020DF
:101C4000CC0000205401002038B5354B1B6843B947
:101C50004FF0500383F31188BFF36F8FBFF34F8FA3
:101C6000FEE7FFF79FFC2E4B1A68013A1A601B68CB
:101C7000002B50D12B4B1B6823B90024FFF7B4FC79
:101C8000204638BD0024284B1B681BB3264BDB685D
:101C9000DC6804F11800FFF735FA251D2846FFF728
:101CA00031FAE36A01229A402049086802430A6037
:101CB00003EB83039A0029461D481044FFF7FCF903
:101CC000E26A1C4B1B68DB6A9A42DCD301221A4B86
:101CD0001A60D8E70CB1FFF777FD184B1C6874B990
:101CE000154B1B68CBB14FF08052154B1A60BFF3F8
:101CF0004F8FBFF36F8F0124C0E7013C07D0FFF780
:101D000013FF0028F9D001220B4B1A60F5E70022DF
:101D10000A4B1A60E4E70024B0E70024AEE700BFF6
:101D2000D0000020C400002010010020D8000020B6
:101D3000380000202C00002054010020CC0000209E
:101D400004ED00E010B5A8B10446104B1B6843B188
:101D50004FF0500383F31188BFF36F8FBFF34F8FA2
:101D6000FEE7FFF7D9FE00212046FFF719FEFFF737
:101D70006BFF00E0002038B94FF08052044B1A602E
:101D8000BFF34F8FBFF36F8F10BD00BFD000002097
:101D900004ED00E0134B1B6813B310B5FFF7BCFE56
:101DA000114B1C68FFF750FF24B90E4B1B68002B2A
:101DB000F4D110BDFFF7F6FB0B4BDB68DC68201D90
:101DC000FFF7A0F9094A1368013B1360054A13683D
:101DD000013B1360FFF708FC2046FFF70FFDE4E727
:101DE000704700BFC80000203C010020C400002054
:101DF00008B5FFF7CFFF064B1B68012BF9D94FF051
:101E00008052044B1A60BFF34F8FBFF36F8FF0E720
:101E10003800002004ED00E0214B1B68C3B900220C
:101E2000204B1A60204B1B68B3FA83F3DBB2C3F17B
:101E30001F0303EB83018A001C498A5862B94FF0E3
:101E4000500383F31188BFF36F8FBFF34F8FFEE70B
:101E50000122144B1A60704710B414489A00D41829
:101E6000A10001444C6864684C601A449100083138
:101E7000084484420BD003EB83039A000B4B1344BA
:101E80005B68DA680A4B1A605DF8044B704760685B
:101E900003EB83029100054A0A445060EBE700BF60
:101EA000D000002054010020D8000020380000207D
:101EB0002C000020054B1B6823B1054B1B681BB988
:101EC0000220704701207047002070472401002045
:101ED000D00000201549D1F8883043F47003C1F8D0
:101EE0008830134B1A6842F001021A605868114A90
:101EF00002405A601A6822F0847222F480321A601A
:101F00001A6822F480221A605A6822F4FE025A608B
:101F1000DA6A22F00F02DA62186B074A02401A638B
:101F200000229A604FF000638B60704700ED00E084
:101F3000001002400CC07FF8CCFC00FF124A12F0E7
:101F4000070F1ED0D11D21F00701C1F540631344D6
:101F50000A460E480260002141601344083B23F00A
:101F600007030B48036059601960991A51601360A8
:101F7000084B1960084B19604FF00042074B1A607C
:101F800070474FF44063E4E75C010020680D0020D7
:101F900058010020640D0020600D00205C0D002021
:101FA00010B4134B1A6882421BD359685C18A042C4
:101FB00003D1406801445960184641684418A24260
:101FC00013D10C4C2468A2420DD0526811444160D8
:101FD0001A6812680260984200D018605DF8044BDD
:101FE00070471346DEE70460F5E70260F3E700BFE1
:101FF000680D00205801002070B50446FFF78CFDE5
:102000003A4B1B68BBB13A4B1B681C4263D1ACB165
:10201000083414F0070F11D024F00704083404F03A
:1020200007035BB14FF0500383F31188BFF36F8F49
:10203000BFF34F8FFEE7FFF781FFE4E7002C4CD0A2
:102040002C4B1B689C424AD82B4B1D6801E02B4649
:1020500015466A68944202D92A68002AF7D1234AB1
:10206000126895423DD01E6808362A681A606B686F
:102070001B1B102B10D9281910F0070F08D04FF098
:10208000500383F31188BFF36F8FBFF34F8FFEE7C9
:1020900043606C60FFF784FF6A6816490B689B1AFF
:1020A0000B60164909688B4201D214490B60104B32
:1020B0001B6813436B6000232B60FFF7C5FD16F010
:1020C000070F10D04FF0500383F31188BFF36F8FC9
:1020D000BFF34F8FFEE70026EFE70026EDE700266F
:1020E000EBE70026E9E7304670BD00BF580100204D
:1020F0005C0D0020600D0020680D0020640D0020A4
:1021000080B338B50446A0F1080550F8042C1649F0
:1021100009680A4208D14FF0500383F31188BFF3D6
:102120006F8FBFF34F8FFEE750F8080C40B14FF0B0
:10213000500383F31188BFF36F8FBFF34F8FFEE718
:1021400022EA010244F8042CFFF7E6FC54F8041CD0
:10215000064A13680B4413602846FFF721FFFFF778
:1021600073FD38BD704700BF5C0D0020600D00207E
:1021700038B5044683680269134342691343C26950
:10218000134301680868644A024013430B602268E5
:10219000536823F44053E1680B435360A369226AF8
:1021A000134321688A6822F4306213438B602568E8
:1021B0005A4B9D4215D05A4B9D4229D003F580635E
:1021C0009D4221D01023E269B2F5004F22D0082BA6
:1021D00000F29F80DFE803F066717C9D889D9D9DE5
:1021E000930003F558431B6B03F00303032B09D83B
:1021F000DFE803F00204060C0023E4E70423E2E72F
:102200000823E0E71023DEE70023DCE70223DAE718
:102210000023D8E7082B42D8DFE803F00517224156
:102220002D4141413800FEF70DFF6268530803EB72
:102230004003B3FBF2F39BB2002023F00F02C3F381
:10224000420313432268D36038BDFEF711FF626872
:10225000530803EB4003B3FBF2F39BB20020ECE71F
:102260006268530803F5740303F51053B3FBF2F3EC
:102270009BB20020E1E7FEF7BDFD6268530803EB67
:102280004003B3FBF2F39BB20020D6E76268530829
:1022900003F58033B3FBF2F39BB20020CDE70120BE
:1022A0000023CAE7FEF7CEFE636800EB5300B0FBE5
:1022B000F3F080B2E860002038BDFEF7D9FE636815
:1022C00000EB5300B0FBF3F080B2E860002038BDB3
:1022D0006268530803F5F40303F59053B3FBF2F37C
:1022E0009BB2EB60002038BDFEF784FD636800EB15
:1022F0005300B0FBF3F080B2E860002038BD6268A4
:10230000530803F50043B3FBF2F39BB2EB600020EC
:1023100038BD012038BD00BFF369FFEF0038014030
:1023200000440040436A13F0010F06D0026853686E
:1023300023F40033816A0B435360436A13F0020FA6
:1023400006D00268536823F48033C16A0B4353609C
:10235000436A13F0040F06D00268536823F4802305
:10236000016B0B435360436A13F0080F06D00268F9
:10237000536823F40043416B0B435360436A13F0EB
:10238000100F06D00268936823F48053816B0B43CF
:102390009360436A13F0200F06D00268936823F419
:1023A0000053C16B0B439360436A13F0400F0AD094
:1023B0000268536823F48013016C0B435360036C71
:1023C000B3F5801F0BD0436A13F0800F06D002686C
:1023D000536823F40023816C0B43536070470268F9
:1023E000536823F4C003416C0B435360EBE72DE9C2
:1023F000F04105460F4616469846069C2B68DB6959
:1024000037EA03030CBF01230023B3421ED1B4F10A
:10241000FF3FF3D02CB1FDF721FFA0EB0800844271
:10242000ECD22A68136823F4D07313602A68936887
:1024300023F001039360202385F8693085F86A3022
:10244000002385F868300320BDE8F0810020BDE856
:10245000F0812DE9F04182B01E4690F86930DBB280
:10246000202B04D00223184602B0BDE8F0810446B8
:102470000D46904600294ED0002A4ED090F8683084
:10248000012B01D10223EEE7012380F868300023FD
:10249000C366212380F86930FDF7E0FE0746A4F803
:1024A0005080A4F8528003E023682A781A85013509
:1024B000B4F852309BB2E3B1B4F852309BB2013B56
:1024C0009BB2A4F8523000963B4600228021204661
:1024D000FFF78DFF18BBA368B3F5805FE4D12369D4
:1024E000002BE1D1226835F8023BC3F308031385C2
:1024F000DEE700963B46002240212046FFF777FFAB
:10250000034608B10323AEE7202284F869200022A5
:1025100084F86820A7E70123A5E70123A3E70323A5
:10252000A1E72DE9F04182B01E4690F86A30DBB297
:10253000202B03D0022002B0BDE8F08104460D46F6
:10254000904600296FD0002A6FD090F86830012B98
:1025500001D10220EFE7012380F868300023C36631
:10256000222380F86A30FDF779FE0746A4F85880E8
:10257000A4F85A80A368B3F5805F06D0A3B9236995
:1025800073B9FF23A4F85C3011E0236923B940F24A
:10259000FF13A4F85C300AE0FF23A4F85C3006E0E7
:1025A0007F23A4F85C3002E0B3F1805F02D0B4F87E
:1025B0005C8010E023691BB97F23A4F85C30F6E748
:1025C0003F23A4F85C30F2E723689A8C5FFA88F323
:1025D00013402B700135B4F85A309BB2E3B1B4F814
:1025E0005A309BB2013B9BB2A4F85A3000963B464E
:1025F000002220212046FFF7FAFEC0B9A368B3F5F8
:10260000805FE1D12369002BDED123689B8C08EA2F
:10261000030325F8023BDEE7202384F86A3000201C
:1026200084F8680087E7012085E7012083E703201D
:1026300081E730B583B004460023C366FDF70EFE84
:10264000054623681B6813F0080F0ED123681B682A
:1026500013F0040F17D1202384F8693084F86A300E
:10266000002084F8680003B030BD6FF07E43009313
:10267000034600224FF400112046FFF7B8FE002861
:10268000E4D00320EFE76FF07E4300932B46002257
:102690004FF480012046FFF7AAFE0028DBD003207C
:1026A000E1E778B310B5044690F869300BB3242302
:1026B00084F869302268136823F001031360204610
:1026C000FFF756FD01281FD0636ABBB92268536823
:1026D00023F4904353602268936823F02A039360A5
:1026E0002268136843F0010313602046FFF7A1FF3F
:1026F00010BD80F86830FEF7D1FED8E72046FFF71E
:1027000011FEE3E70120704710BD0000DFF834D070
:10271000002103E00C4B5B58435004310B480C4B39
:1027200042189A42F6D30B4A02E0002342F8043BD7
:10273000094B9A42F9D3FFF7CDFB00F011F8FDF7F2
:1027400069FFFEE700300020342800080000002068
:102750000800002008000020E80D0020FEE700002F
:1027600070B50D4E0D4CA41BA4100025A54209D137
:102770000B4E0C4C00F018F8A41BA4100025A54229
:1027800005D170BD56F8253098470135EEE756F86B
:10279000253098470135F2E72C2800082C2800083E
:1027A0002C28000830280008F8B500BFF8BC08BC89
:1027B0009E467047F8B500BFF8BC08BC9E467047FF
:1027C000E0270008F50200080000000000000000FB
:1027D000800000005372632F6D61696E2E630000EC
:1027E00064656661756C745461736B000203040563
:1027F000060708090A0B0C0D0E0F10100102030446
:1028000005060708090A0B0C0D0E0F1049444C452C
:1028100000000000000000000000000001020304AE
:0C28200006070809000000000102030484
:04282C00B5010008EA
:04283000910100080A
:08283400AAAAAAAA00127A0068
:040000050800270DBB
:00000001FF
