:020000040800F2
:100000000030002029530008795300087953000874
:100010007953000879530008795300080000000064
:10002000000000000000000000000000F12F0008A8
:10003000795300080000000091300008ED2D000801
:100040007953000879530008795300087953000860
:100050007953000879530008795300087953000850
:10006000795300087953000879530008F52D0008EA
:100070007953000879530008795300087953000830
:100080007953000879530008795300087953000820
:100090007953000879530008795300087953000810
:1000A000052E000879530008795300087953000899
:1000B00079530008795300080000000079530008C4
:1000C0007953000800000000000000007953000888
:1000D00000000000795300087953000879530008A4
:1000E0007953000879530008000000000000000068
:1000F0000000000000000000000000000000000000
:1001000000000000000000000000000000000000EF
:100110000000000000000000795300087953000837
:1001200000000000000000000000000000000000CF
:1001300000000000000000000000000000000000BF
:100140007953000879530008000000000000000007
:10015000000000000000000000000000000000009F
:10016000000000000000000000000000000000008F
:10017000000000000000000000000000000000007F
:080180000000000079530008A3
:10019000044B05481B1A062B02D9044B03B1184720
:1001A000704700BF6F0000206C00002000000000BE
:1001B00005490648091A891001EBD171491002D08E
:1001C000034B03B1184770476C0000206C000020FF
:1001D0000000000010B5064C237843B9FFF7D8FFA4
:1001E000044B13B10448AFF300800123237010BD0A
:1001F0006C000020000000007C53000808B5084B8C
:100200001BB108490848AFF300800848036813B9D8
:10021000BDE80840CCE7064B002BF9D09847F7E73C
:1002200000000000700000207C5300086C000020DB
:100230000000000070B50F4E0F4D761BB61018BFB2
:10024000002405D0013455F8043B9847A642F9D163
:100250000A4E0B4D761B05F091F8B61018BF00241E
:1002600006D0013455F8043B9847A642F9D170BD39
:1002700070BD00BF18550008185500081C5500082F
:1002800018550008844641EA000313F003036DD1BA
:10029000403A41D351F8043B40F8043B51F8043B49
:1002A00040F8043B51F8043B40F8043B51F8043B50
:1002B00040F8043B51F8043B40F8043B51F8043B40
:1002C00040F8043B51F8043B40F8043B51F8043B30
:1002D00040F8043B51F8043B40F8043B51F8043B20
:1002E00040F8043B51F8043B40F8043B51F8043B10
:1002F00040F8043B51F8043B40F8043B51F8043B00
:1003000040F8043B51F8043B40F8043B51F8043BEF
:1003100040F8043B403ABDD2303211D351F8043B8F
:1003200040F8043B51F8043B40F8043B51F8043BCF
:1003300040F8043B51F8043B40F8043B103AEDD23E
:100340000C3205D351F8043B40F8043B043AF9D28F
:10035000043208D0D2071CBF11F8013B00F8013B62
:1003600001D30B8803806046704700BF082A13D36F
:100370008B078DD010F003038AD0C3F10403D21A87
:10038000DB071CBF11F8013B00F8013B80D331F8BB
:10039000023B20F8023B7BE7043AD9D3013A11F83B
:1003A000013B00F8013BF9D20B7803704B784370A6
:1003B0008B7883706046704770B4840746D0541EB3
:1003C000002A41D0CDB2034602E0621EE4B31446D7
:1003D00003F8015B9A07F8D1032C2ED9CDB245EA78
:1003E00005250F2C45EA054519D903F110022646CB
:1003F000103E0F2E42F8105C42F80C5C42F8085C8C
:1004000042F8045C02F11002F2D8A4F1100222F0CA
:100410000F0204F00F041032032C13440DD91E46B2
:100420002246043A032A46F8045BFAD8221F22F037
:1004300003020432134404F003042CB1C9B21C4477
:1004400003F8011BA342FBD170BC7047144603465E
:10045000C2E700BF0EB410B5044683B018B183697B
:100460000BB900F01DF906A803460190059AA16892
:10047000204600F021FA03B0BDE8104003B07047F9
:100480000FB410B50A4B1C6882B024B1A36913B92C
:10049000204600F005F905A803460190049AA168DA
:1004A000204600F009FA02B0BDE8104004B07047E1
:1004B0000000002000207047014900F037B900BF5C
:1004C000F91200080020704770B568234D1E03FB29
:1004D00005F50E4605F1740100F052F9044640B1ED
:1004E00000210C30666005F168022160A060FFF712
:1004F00063FF204670BD00BF1F4B70B51D68AB6920
:10050000064613B9284600F039F848356B68AC68E0
:10051000013B05D521E0013B5A1C04F168041CD0C5
:10052000B4F90C20002AF6D1002501234FF6FF7202
:10053000E281A38165662560A560656025616561CE
:10054000A5612946082204F15C00FFF735FF6563C9
:10055000A563A564E564204670BD2B680BB11D46FC
:10056000D4E704213046FFF7AFFF286008B1054605
:10057000CCE70C23336070BDD05300083D4B3E499F
:100580001A682DE9F04F90424FF000038364C36472
:10059000036508BF012383B008BF836181620746FA
:1005A000FFF7AAFF78603846FFF7A6FFB860384625
:1005B000FFF7A2FF7D68F86000240423AB812C6064
:1005C0006C60AC606C66EC812C616C61AC61214646
:1005D00005F15C000822FFF7EFFEBE68DFF89CB073
:1005E000DFF89CA0DFF89C90DFF89C80C5F824B071
:1005F00001230922C5F828A0C5F82C90C5F8308041
:100600002D622146F381B28134607460B4607466F7
:1006100034617461B46106F15C0008220193FFF754
:10062000CBFEFD68366212200222C6F824B0C6F85E
:1006300028A0C6F82C90C6F830802146A881EA810F
:100640002C606C60AC606C662C616C61AC6105F117
:100650005C000822FFF7B0FE019B2D62C5F824B0B4
:10066000C5F828A0C5F82C90C5F83080BB6103B050
:10067000BDE8F08FD0530008B9040008350F00081A
:100680005D0F0008990F0008B90F0008024B0349DD
:10069000186800F04BB800BFD0530008F9120008EA
:1006A000836903B96AE77047704700BF704700BFAE
:1006B000704700BF704700BF024B0349186800F045
:1006C0000FB800BF00000020C5040008024B03491A
:1006D000186800F005B800BF00000020B50400084D
:1006E0002DE9F04110F148071BD0884600267D68AF
:1006F000BC68013D0FD4A389012B05F1FF3506D954
:10070000B4F90E300133204601D0C04706436B1CBC
:1007100004F16804EFD13F68002FE8D13046BDE80E
:10072000F0813E463046BDE8F08100BF2DE9F84338
:1007300010F148071FD0884606464FF000097D6833
:10074000BC68013D11D4A389012B05F1FF3508D9FF
:10075000B4F90E3001332146304602D0C04749EA91
:1007600000096B1C04F16804EDD13F68002FE6D14D
:100770004846BDE8F883B9464846BDE8F88300BF5F
:1007800070B5CD1C25F0030508350C2D38BF0C25A0
:10079000002D06463BDBA94239D827490A6852B1E9
:1007A00013685B1B04D436E023685B1B1AD5224612
:1007B0005468002CF8D149681F4C002936D02946CE
:1007C000304600F0A5FB431C21D0C41C24F00304D8
:1007D000A04205D0211A304600F09AFB013016D015
:1007E000256004E00B2B0DD923601C44256004F127
:1007F0000B0020F00700231DC31A02D05A42E2501A
:1008000070BD70BD94420ED063685360EFE70C2357
:100810003360002070BD0B2B03D8536814460B6067
:10082000E5E71446E0E713461446F8E7304600F0E3
:100830006FFB6060C3E700BF880000209368013B46
:10084000002B10B4936008DBCCB21368581C106006
:10085000197020465DF8044B70479469A34202DB8F
:10086000CCB20A2CF1D15DF8044B00F0A9BB00BF5B
:1008700093B1F8B514460F460646D51801E0AC42D0
:1008800008D03A4614F8011B3046FFF7D7FF431C47
:10089000F5D1F8BD0020F8BD00207047936810B571
:1008A000144613B95360184610BD00F069FD0023CB
:1008B000A360636010BD00BF2DE9F04F9DB0884676
:1008C00014460393814618B18369002B00F00B8115
:1008D0008B4B984500F00D818A4B984500F00C81B8
:1008E000894B984508BFD9F80C80B8F80C301D0723
:1008F00040F1EF80D8F81030002B00F0EA80302370
:100900008DF82A302378814DDFF804A200212022BF
:1009100009918DF82920002B00F08580252B264693
:1009200003D117E0252B00F0868016F8013F002B3D
:10093000F8D1B6EB040B76D022465B4641464846DA
:10094000FFF796FF01306ED0099B32785B44099324
:10095000002A68D000234FF0FF31721C04930793E4
:1009600006938DF853301A930591012604E00499FB
:1009700006FA03F30B4304931446644821780522D6
:1009800000F00EFF621C431B0028F0D1049BD80628
:1009900044BF20228DF853201907217844BF2B2211
:1009A0008DF853202A2968D0A1F13002092A0BD8EA
:1009B000079B14F8011F03EB830302EB4303A1F130
:1009C0003002092AF5D907932E293FD00322504837
:1009D00000F0E6FE48B10499CAEB0000402202FA9A
:1009E00000F041EA000301340493217849488DF86E
:1009F00028100622013400F0D3FE00285FD0464BB9
:100A0000EBB103AB00934246444B04A94846AFF315
:100A1000008007467A1C06D0099B3B440993237843
:100A2000002B7FF47BAFB8F80C305B0658D40998E4
:100A30001DB0BDE8F08FB6EB040B8BD07CE7039BB9
:100A4000073323F0070308330393E5E761782A2986
:100A50001DD0A1F130020023092A04F101040593FD
:100A6000B4D814F8011F03EB830302EB4303A1F195
:100A70003002092AF5D90593A8E7039A11680432D0
:100A80000029039215DB0791617801349CE7039BF1
:100A90001A680592002A03F104030393B8BF4FF0CC
:100AA000FF3204F10203AEBFA178A17805921C4683
:100AB0008CE7494243F0020307910493E4E703AB58
:100AC00000934246154B04A9484600F0CDF807466E
:100AD000A0E74146484600F0EBFA00283FF40FAF8C
:100AE0004FF0FF30A4E7FFF7DBFD054B98457FF49F
:100AF000F3AED9F80480F8E6D9F80880F5E600BF2F
:100B000014540008F4530008D4530008DC540008BF
:100B1000E4540008E85400080000000071080008D0
:100B200010B4044C13460A46014620685DF8044B95
:100B3000FFF7C2BE000000202DE9F0470C469146A9
:100B40000969A268DDF820808A42B8BF0A46C9F860
:100B5000002094F8431006461F4611B10132C9F82F
:100B60000020236899065DD5D9F800200232C9F823
:100B70000020236813F0060F19461DD1E1688A1A78
:100B8000002AD8BF194617DD04F1190A002505E02F
:100B9000E368D9F800209B1AAB420CDD01235246D2
:100BA00039463046C047013005F10105F0D14FF01C
:100BB000FF30BDE8F087216894F84330003318BF58
:100BC00001238A060AD5E1185A1C302081F8430017
:100BD000224494F8451082F84310023304F1430292
:100BE00039463046C0470130E1D0236803F00603A0
:100BF000042B29D0A36822699342C8BF4FF0000993
:100C00002FDD9B1A99441A34002501E04D4528D068
:100C10000123224639463046C047013005F101051F
:100C2000F4D1C4E713F0060F08D1E168D9F8002029
:100C30008A1A002AD8BF1946A6DCBDE794F84330CB
:100C4000003318BF0123C9E7D9F80000E168A368A1
:100C50002269091A934221EAE179D2DCB9F1000F45
:100C6000D1D10020BDE8F0872DE9F0430C46097E84
:100C700085B06E29064617460C98984604F1430C39
:100C80005AD01AD8632900F0128100F2D6800029C8
:100C90005CD0582940F0F58084F84510226803683C
:100CA000DFF864E2150603F104011ED4550653BFB4
:100CB0001B6801601B88016019E0732900F0CF8078
:100CC0007ED86F2900F0E480702940F0DA80226835
:100CD00042F020022260782384F845300368DFF870
:100CE0002CE2150603F10401E0D51B680160D00772
:100CF00044BF42F020022260002B40F09080226826
:100D000022F0200222601021002284F84320606833
:100D1000A0600028C0F28880226822F004022260CD
:100D2000002B62D1002840F08180654608296AD0F6
:100D3000C5EB0C0323610CE023681A0640F1D58053
:100D400003686269191D01601B681A60002365460B
:100D50002361CDF800803B4603AA21463046FFF7C9
:100D6000EBFE013021D02A46236939463046C04780
:100D700001301AD02368039813F0020FE36819D0EA
:100D80001A1A002A16DD04F11909002504E0E368A7
:100D900003981A1AAA420DDD01234A463946304605
:100DA000C047013005F10105F1D14FF0FF3005B02A
:100DB000BDE8F0839842B8BF184605B0BDE8F0839F
:100DC000752965D078295CD1226884E76168A160C3
:100DD0002D200029C3F1000384F8430021DB22F019
:100DE0000402DFF824E122600A216546B3FBF1F238
:100DF00001FB123013461EF8002005F8012D002BD0
:100E0000F4D1082994D12368D90791D56268236960
:100E10009A428DDC302305F8013C013D88E7102122
:100E200072E7DFF8E4E00A21002BDED19EF8003003
:100E300084F8423004F1420578E7642901D0692939
:100E40001FD122680368150603F104013AD51B6817
:100E50000160002BBADBDFF8B0E00A2157E7036836
:100E60006268191D01601D680021284600F098FC89
:100E7000002846D0401B60602061002384F8433086
:100E800067E7012384F84210236104F14205F4E787
:100E900023681A061ED503681A1D1B680260227E8D
:100EA000DFF864E06F2A14BF0A2108212CE70368E9
:100EB0001A68191D0123016004F1420584F84220DB
:100EC0002361DAE7550653BF1B680160B3F90030B0
:100ED0000160BEE713F0400F036803F1040215BF81
:100EE00002601B681B880260D9E713F0400F03689B
:100EF000626903F1040101601B6814BF1A801A6063
:100F000024E76068B8E700BFF05400080455000803
:100F100038B5074C002305460846236000F0CCFD99
:100F2000431C00D038BD2368002BFBD02B6038BD9C
:100F30008027002010B50C46B1F90E1000F04EFDD0
:100F4000002803DB636D0344636510BDA38923F4AC
:100F50008053A38110BD00BF002070472DE9F041F0
:100F60001646B1F90C201F46D3050C46054607D599
:100F700000220223B1F90E1000F084FBB4F90C201A
:100F8000B4F90E1022F48052A2813B463246284624
:100F9000BDE8F04100F076B810B50C46B1F90E107E
:100FA00000F070FBA389421C0EBF23F4805343F46E
:100FB00080536065A38110BDB1F90E1000F0F2B846
:100FC000F8B50E461446054610B18369002B41D092
:100FD000254B9C4243D0254B9C4242D0244B9C4203
:100FE00008BFEC68A389A269A2601A0721D523690A
:100FF000FBB122686169D31A8B42F7B221DA01335F
:10100000A168501C0139A1602060167062699A4283
:1010100006D0A389DB0701D50A2F01D03846F8BDD9
:101020002146284600F068F90028F7D04FF0FF3736
:10103000F4E72146284600F03BF80028F6D1236962
:10104000D7E72146284600F057F90028EED122685C
:101050000123D5E7FFF724FB034B9C42BBD16C680F
:10106000C0E7AC68BEE700BF14540008F4530008A2
:10107000D4530008024B0A4601461868FFF7A0BF88
:101080000000002070B50D46084C114606461A4671
:1010900028460023236002F09BF9431C00D070BD5A
:1010A0002368002BFBD0336070BD00BF8027002079
:1010B000384B70B51D6806460C4615B1AB69002B60
:1010C00042D0354B9C4245D0344B9C4258D0344B97
:1010D0009C4208BFEC68B4F90C2093B219070CD5F8
:1010E0002069A8B113F001021ED0636900225B429F
:1010F000A361A260F0B1002070BDDD0642D55807A3
:101100002AD4206942F00803A3819BB20028E9D1C8
:1011100003F42072B2F5007FE4D03046214600F09F
:10112000F5FAA3892069DDE7990758BF6269A260D3
:101130000028E0D1B4F90C301A06DDD543F04003A5
:10114000A3814FF0FF3070BD2846FFF7A9FA124B7C
:101150009C42B9D16C68BEE7616B51B104F14403A4
:10116000994204D0304600F0CFFBB4F90C200023A4
:10117000636300232069636022F024022060C1E7DA
:10118000AC68A8E742F04002092333604FF0FF301B
:10119000A28170BD0000002014540008F453000820
:1011A000D453000838B5074C002305460846236091
:1011B00000F05AFC431C00D038BD2368002BFBD044
:1011C0002B6038BD802700208B891A072DE9F0415C
:1011D0000D46804635D44A68002A6BDDEC6A002C47
:1011E00047D003F48052002192B2D8F80060C8F8CA
:1011F0000010002A62D06A6D5F0705D569686B6BC5
:10120000521A0BB12B6CD21A0023296A4046A04710
:10121000441C39D0AB892A692A60DB044FF00002F4
:101220006A6045D4696BC8F8006011B305F14403E6
:10123000994202D0404600F067FB00206863BDE899
:10124000F0810E69AEB10C680E6098070CBF4B6957
:101250000023A41B8B600AE023463246AF6A296A4A
:101260004046B8470028A4EB0004064404DD002CE7
:10127000F2DC0020BDE8F081AB8943F04003AB8194
:101280004FF0FF30BDE8F081D8F800201D2AF3D8D8
:10129000184BD34003F0010383F00101002BEBD086
:1012A000AB892C696960D9042C60BBD5002AB9D1FF
:1012B0006865B7E70A6C002A90DCDAE70123296A3F
:1012C0004046A047431C024602D0AB89EC6A93E734
:1012D000D8F80030002BF8D01D2B01D0162B02D1EE
:1012E000C8F80060C5E7AB8943F04003AB81BDE8B7
:1012F000F08100BF010040200B6933B310B50446F4
:1013000082B008B18369ABB1114B994219D0114B2E
:10131000994218D0104B994208BFE168B1F90C30DE
:1013200013B9002002B010BD204602B0BDE8104045
:10133000FFF74ABF0191FFF7B3F90199044B9942B6
:10134000E5D16168EAE7A168E8E70020704700BFDF
:1013500014540008F4530008D453000820B1054B7E
:1013600001461868FFF7C8BF034B04491868FFF728
:10137000DDB900BF00000020D0530008F9120008BA
:101380009368002B76D02DE9F04F8B8985B00C4601
:1013900019070190164629D522693AB303F00208CD
:1013A0001FFA88F0356800282FD04FF00009B44F9D
:1013B000C846B246B84543464A4628BF3B46019810
:1013C000B8F1000F50D0216AA66AB047002871DD3D
:1013D000DAF808301B1A8144C0EB0808CAF8083054
:1013E000002BE7D1002005B0BDE8F08F2146019821
:1013F000FFF75EFE002840F03A81A389356803F0CC
:1014000002081FFA88F00028CFD113F001095BD140
:101410004F4602961FB39A05D4F808802CD547454D
:10142000C246C0F0A48013F4906F40F0B1802068F1
:101430005246494600F004FAA0682368C8EB000051
:101440005344A06023603846029A93681B1A814473
:101450003F1A9360002BC5D0A389002FDBD1D5F8AC
:1014600000906F680835D5E7D5F80090D5F804806E
:1014700008359FE70020704720682369984203D809
:1014800061698F4280F0B780B84528BFB8464246B0
:10149000494600F0D5F9A3682268C8EB030342442B
:1014A000A3602260002B49D121460198FFF724FF59
:1014B000002843D0B4F90C3043F040034FF0FF3024
:1014C000A38105B0BDE8F08F804602908246814638
:1014D000B9F1000F2AD0029B002B4CD02068236961
:1014E0006269C845C34628BFCB4698425F4604D9C7
:1014F000A36813449B4500F39080934520DB13467B
:10150000A76A216A01985246B847071ED2DDB8EB98
:10151000070823D0B368DB1BBA44C7EB0909B360E3
:10152000002B3FF45FAFB9F1000FD4D10023D5F801
:1015300000A0D5F8049002930835C9E7404683E738
:101540005A46514600F07CF9A2682368CBEB0202B0
:101550005B44B8EB0708A2602360DBD12146019809
:10156000FFF7CAFE0028A5D1CDF80880D2E7206891
:10157000B846BA465CE74A460A21504600F010F9E0
:1015800000286FD001300123CAEB00080293A5E7C1
:1015900062692068216902EB4208C1EB000A08EB8E
:1015A000D8780AF101004FEA6808384440454246BD
:1015B00084BF804642465B0542D511460198FFF73D
:1015C000DFF88346002855D052462169FEF75AFEBF
:1015D000A38923F4906343F08003A381CAEB08033B
:1015E0000BEB0A00C4F81480C4F810B02060A360AC
:1015F000B846BA461CE76FF00043BB4228BF3B46E3
:101600004A4693FBF1F30198A66A01FB03F3216AB2
:10161000B04700283FF718AF4CE71A4651460393EE
:1016200000F00EF92268039B01981A4422602146BB
:10163000FFF762FE039B00287FF43CAF1F4666E77E
:10164000019800F0A7F983460028C7D1019D2169C0
:10165000284600F059F9B4F90C300C2223F080032D
:101660002A6029E7012309F10108029336E74FF0C8
:10167000FF30B8E6019A0C231360B4F90C301BE775
:1016800000FCFF7F70B50D46084C114606461A4611
:1016900028460023236000F0FFF9431C00D070BDF2
:1016A0002368002BFBD0336070BD00BF8027002073
:1016B00070B50C46B1F90E10002990B015461E46C3
:1016C00013DB01AA00F0A0F900280EDB029A02F455
:1016D0007042A2F50052B2FA82F252094FF48063CE
:1016E000002032602B6010B070BDA38900221B0661
:1016F000326004D5402300202B6010B070BD4FF441
:10170000806300202B6010B070BD00BF8A899207F3
:101710000B4606D501F1470201211A601A61596191
:101720007047F0B583B001AB6A460C460546FFF73B
:10173000BFFF009906462846FFF722F8B4F90C309F
:10174000D0B1019A124F0099AF6243F08003A38198
:101750002060206161611AB93343A38103B0F0BDF9
:101760002846B4F90E1000F063F9B4F90C300028E3
:10177000F2D043F00103EFE79A05EFD404F14702FA
:1017800043F002030121A381226022616161E5E748
:10179000B904000800000000000000000000000084
:1017A00001F0FF01102A2BDB10F0070F08D010F812
:1017B000013B013A8B422DD010F0070F42B3F6D116
:1017C000F0B441EA012141EA014122F007047FF02F
:1017D00000070023F0E80256083C85EA010586EA86
:1017E000010685FA47F5A3FA87F586FA47F6A5FAC2
:1017F00087F68EB9EED1F0BC01F0FF0102F00702CE
:1018000032B110F8013B013A83EA010313B1F8D178
:101810000020704701387047002D06BF3546033859
:10182000073815F0010F07D1013015F4807F02BF92
:10183000013015F4C03F0130F0BC0138704700BFE3
:101840008842F0B50DD98B1898420AD28118002A27
:1018500051D09A1A13F8014D01F8014D9342F9D174
:10186000F0BD0F2A48D941EA00039B0746D100F199
:10187000100401F11003154653F8106C44F8106C75
:1018800053F80C6C44F80C6C53F8086C44F8086C72
:10189000103D53F8046C44F8046C0F2D03F1100351
:1018A00004F11004E8D8A2F1100323F00F0302F0B2
:1018B0000F0E1033BEF1030F1944034421D91E1F2C
:1018C0000D467446043C55F8047B46F8047F032C0F
:1018D000F8D8AEF1040424F0030404342344214472
:1018E00002F0030262B1013B0A4411F8014B03F814
:1018F000014F8A42F9D1F0BD0346F3E70346F2E710
:10190000F0BD7246EEE700BF30B481B151F8043C3F
:101910000439002BB8BFC9181D4B1A682AB18A4276
:101920000AD908680C18A24225D04A60196030BC58
:1019300070478B4203D81A465368002BF9D11468BC
:1019400015198D420CD007D808680C189C4218D085
:101950004B6030BC516070470C23036030BC704753
:1019600009680C44111999421460E0D10ACB0C4467
:1019700053601460DBE7146852684A6020440860D2
:10198000D4E71C685B684B60204408605160CEE778
:1019900088000020F9B1F8B506461546B2B10C46EC
:1019A00000F058F8854201D82046F8BD2946304657
:1019B000FEF7E6FE074668B12A462146FEF762FCBE
:1019C00030462146FFF7A0FF3846F8BDFFF79CFFE1
:1019D0002846F8BDF8BD1146FEF7D2BE70B50D46DB
:1019E000084C114606461A4628460023236000F09C
:1019F0005BF8431C00D070BD2368002BFBD0336024
:101A000070BD00BF8027002038B50B46074C054647
:101A1000114618460023236000F02EF8431C00D026
:101A200038BD2368002BFBD02B6038BD80270020F9
:101A300038B5074C002305460846236000F024F81B
:101A4000431C00D038BD2368002BFBD02B6038BD71
:101A50008027002051F8040C0028BEBF091851F857
:101A6000043CC01804387047024B58221A604FF0EB
:101A7000FF30704780270020024B58221A604FF039
:101A8000FF30704780270020024B58221A60002048
:101A9000704700BF80270020024B58221A604FF089
:101AA000FF30704780270020024B58221A604FF009
:101AB000FF30704780270020044A05491368002B37
:101AC00008BF0B461844106018467047900000206D
:101AD00088270020704700BF022380F83D3002684D
:101AE000136843F001031360012380F83D300020A8
:101AF000704700BF0268D36843F00103D3600268F7
:101B0000136843F00103136000207047704700BF63
:101B1000704700BF704700BF704700BF10B5044654
:101B200003681A6912F0020F17D0DA6812F0020F78
:101B300013D06FF002021A610123037703689B69D7
:101B400013F0030F02D0FFF7E3FF04E0FFF7DEFF1F
:101B50002046FFF7DFFF0023237723681A6912F07E
:101B6000040F19D0DA6812F0040F15D06FF00402D8
:101B70001A610223237723689B6913F4407F03D003
:101B80002046FFF7C5FF05E02046FFF7BFFF2046D0
:101B9000FFF7C0FF0023237723681A6912F0080FAC
:101BA00019D0DA6812F0080F15D06FF008021A6128
:101BB000042323772368DB6913F0030F03D0204647
:101BC000FFF7A6FF05E02046FFF7A0FF2046FFF73E
:101BD000A1FF0023237723681A6912F0100F19D090
:101BE000DA6812F0100F15D06FF010021A61082396
:101BF00023772368DB6913F4407F03D02046FFF787
:101C000087FF05E02046FFF781FF2046FFF782FFB0
:101C10000023237723681A6912F0010F09D0DA68CC
:101C200012F0010F05D06FF001021A61204601F099
:101C30007BFD23681A6912F0800F09D0DA6812F070
:101C4000800F05D06FF080021A61204601F0DAFFA4
:101C500023681A6912F0400F09D0DA6812F0400FB9
:101C600005D06FF040021A612046FFF755FF236848
:101C70001A6912F0200F09D0DA6812F0200F05D08F
:101C80006FF020021A61204601F0BAFF10BD00BFBC
:101C90000368224A904206D0B0F1804F03D0A2F5EB
:101CA0009432904203D123F070034A6813431B4AD5
:101CB000904212D0B0F1804F0FD0A2F594329042F2
:101CC0000BD002F59E32904207D002F5806290421E
:101CD00003D002F58062904203D123F44073CA68B6
:101CE000134323F080034A69134303608B68C36284
:101CF0000B688362094B98420BD003F5A0539842BE
:101D000007D003F58063984203D003F580639842BF
:101D100001D10B690363012343617047002C01402B
:101D2000B8B110B5044690F83D3013F0FF0F04D160
:101D3000002380F83C30FFF7CDFE022384F83D30CD
:101D4000211D2068FFF7A4FF012384F83D30002007
:101D500010BD0120704700BFB8B110B5044690F81F
:101D60003D3013F0FF0F04D1002380F83C3001F028
:101D700007FC022384F83D30211D2068FFF788FF0F
:101D8000012384F83D30002010BD0120704700BFC2
:101D900030B4036A23F001030362026A4468836972
:101DA00023F4803323F073030D682B4322F00202E7
:101DB0008D682A43184DA8420BD005F5A055A842BE
:101DC00007D005F58065A84203D005F58065A842D7
:101DD00005D122F00802CD682A4322F004020E4DFC
:101DE000A8420BD005F5A055A84207D005F580659F
:101DF000A84203D005F58065A84205D124F44075BA
:101E00004C692C438D692C43446083614B68436368
:101E1000026230BC704700BF002C014030B4036A3E
:101E200023F010030362036A4468826922F080721F
:101E300022F4E6420D6842EA052223F020038D6871
:101E400043EA0513134DA84206D123F08003CD6861
:101E500043EA051323F040030E4DA8420BD005F5CD
:101E6000A055A84207D005F58065A84203D005F526
:101E70008065A84207D124F440644D6944EA850492
:101E80008D6944EA8504446082614A688263036222
:101E900030BC7047002C014030B4036A23F48073D7
:101EA0000362036A4468C26922F4803222F073023A
:101EB0000D682A4323F400738D6843EA0523144D0B
:101EC000A84206D123F40063CD6843EA052323F436
:101ED00080630F4DA8420BD005F5A055A84207D04E
:101EE00005F58065A84203D005F58065A84207D1B5
:101EF00024F440544D6944EA05148D6944EA0514FC
:101F00004460C2614A68C263036230BC704700BF6C
:101F1000002C014030B4036A23F480530362026A48
:101F20004468C36923F0807323F4E6430D6843EAF1
:101F3000052322F400528D6842EA05320D4DA84275
:101F40000BD005F5A055A84207D005F58065A8423D
:101F500003D005F58065A84204D124F480444D697E
:101F600044EA85144460C3614B680364026230BC78
:101F7000704700BF002C014010B4012303FA01F4A4
:101F8000036A23EA04030362036A8A401A43026273
:101F90005DF8044B704700BF10B50446012200688D
:101FA000FFF7EAFF2368124A93420DD002F5A052D0
:101FB00093420BD002F58062934209D002F5806211
:101FC000934207D1012206E0012204E0012202E04F
:101FD000012200E000221AB15A6C42F400425A6415
:101FE0002268136843F001031360002010BD00BF96
:101FF000002C01400A4B1B681B680BB9012300E051
:10200000002323B14FF0FF32064B1A607047044B98
:102010001B68DB68DB685A68024B1A60704700BFB8
:10202000980000207401002010B50446006B00F0F9
:102030002BFE204600F028FE10BD00BF2DE9F04722
:1020400080469946089D099F0A9C236B02F18042B5
:10205000013A03EB820626F00706002306E0C85C7F
:10206000E21882F83400CA5C12B101330F2BF6D9A2
:10207000002384F84330062D00D90625E562656407
:102080004FF0000AC4F848A0201D00F0EFFE04F154
:10209000180000F0EBFE2461C5F10705A56164623C
:1020A000C4F84CA084F850A04A464146304600F09F
:1020B00089FF206007B13C60BDE8F08738B5002497
:1020C00007E004EB840293000E48184400F0C2FEBF
:1020D0000134062CF5D90C4D284600F0BBFE0B4C04
:1020E000204600F0B7FE0A4800F0B4FE094800F0B0
:1020F000B1FE094800F0AEFE084B1D60084B1C60A5
:1021000038BD00BFBC0000207C01002090010020F1
:1021100058010020A0000020A40100209800002009
:10212000B400002010B5044600F074FF204A136884
:10213000013313601F4B1B683BB91E4B1C601368B7
:10214000012B0DD1FFF7BAFF0AE01B4B1B683BB90F
:10215000184B1B68DA6AE36A9A4201D8154B1C6077
:10216000164A136801331360E36A012202FA03F18D
:10217000134802680A43026003EB83039A00211D9F
:102180001048104400F076FE00F066FF0A4B1B6812
:102190006BB1084B1B68DA6AE36A9A4207D24FF0C8
:1021A0008052094B1A60BFF34F8FBFF36F8F10BD82
:1021B00050010020540100209C00002078010020E4
:1021C000B8010020BC00002004ED00E070B504461A
:1021D0000E461D4B1D681D4B1868043000F070FE44
:1021E00050B91A4B1B68DA6A012303FA02F2184944
:1021F0000B6823EA02030B60B4F1FF3F07D136B14D
:10220000124B19680431134800F034FE70BD2C44A1
:102210000E4B1B685C60A54207D90F4B18680B4B2F
:102220001968043100F032FE70BD0C4B1868074B82
:102230001968043100F02AFE094B1B689C4201D248
:10224000074B1C6070BD00BF7001002054010020CE
:10225000B8010020A4010020B40000209800002054
:10226000740100202DE9F04385B006460F4615465F
:102270009846900000F086FC60B18146542000F042
:1022800081FC044610B1C0F8309004E0484600F0EC
:10229000FBFC00E000248CB10023039302940D9B0F
:1022A00001930C9B009343462A4639463046FFF77C
:1022B000C5FE2046FFF736FF012001E04FF0FF305A
:1022C00005B0BDE8F08300BF00B583B0174B0193A4
:1022D00000230093802216491648FFF7C3FF012808
:1022E00014D14FF0500383F31188BFF36F8FBFF306
:1022F0004F8F4FF0FF32104B1A6001220F4B1A60C4
:1023000000220F4B1A6000F021FF0BE0B0F1FF3FFD
:1023100008D14FF0500383F31188BFF36F8FBFF3E1
:102320004F8FFEE703B05DF804FB00BF6C01002097
:102330003454000815260008740100209C00002079
:1023400070010020024A136801331360704700BF18
:1023500048010020F8B53D4B1B68002B69D13C4B70
:102360001D6801351D60C5B93A4B1B681B6843B138
:102370004FF0500383F31188BFF36F8FBFF34F8F7C
:10238000FEE7344A1168344B186810601960334A0C
:10239000136801331360FFF72DFE314B1B689D421C
:1023A00003D200243AE0012400E00024294B1B68FA
:1023B0001B680BB9012300E0002323B14FF0FF326B
:1023C000274B1A602AE0234B1B68DB68DE687368C2
:1023D0009D4202D2224A136020E0371D384600F0A9
:1023E0006FFDB36A1BB106F1180000F069FDF36AD6
:1023F000012202FA03F11B4802680A43026003EB60
:1024000083039A0039461848104400F033FDF26AFD
:10241000164B1B68DB6A9A42C5D2C7E7134B1B6891
:10242000DB6A03EB83039A000F4B9B58012B06D802
:1024300006E00F4A136801331360002400E0012412
:102440000C4B1B6803B101242046F8BD4801002055
:102450007001002098000020B400002094000020AB
:1024600074010020B8010020BC00002054010020AD
:10247000B8000020BC01002038B5344B1B6843B9BC
:102480004FF0500383F31188BFF36F8FBFF34F8F6B
:10249000FEE700F0BFFD2D4B1A68013A1A601B6879
:1024A000002B4CD12A4B1B6833BB00244AE0294B3C
:1024B000DB68DC6804F1180000F002FD251D2846E9
:1024C00000F0FEFCE36A012202FA03F122480268EE
:1024D0000A43026003EB83039A0029461F48104415
:1024E00000F0C8FCE26A1E4B1B68DB6A9A4204D308
:1024F00001221C4B1A6000E00024164B1B68002BC5
:10250000D5D10CB1FFF776FD174B1C6854B1FFF71E
:1025100021FF10B10122134B1A60013CF7D10022B8
:10252000114B1A600F4B1B685BB14FF080520F4B81
:102530001A60BFF34F8FBFF36F8F012402E00024B6
:1025400000E0002400F088FD204638BD480100204E
:102550005001002058010020B8010020BC000020DC
:1025600054010020BC010020B800002004ED00E070
:1025700010B5A8B10446104B1B6843B14FF050038F
:1025800083F31188BFF36F8FBFF34F8FFEE7FFF721
:10259000D9FE00212046FFF719FEFFF76DFF00E08E
:1025A000002038B94FF08052044B1A60BFF34F8FB0
:1025B000BFF36F8F10BD00BF4801002004ED00E0A5
:1025C00010B51BE0FFF7BEFE0F4B1C68FFF754FF72
:1025D000A4B100F01FFD0C4BDB68DC68201D00F08F
:1025E0006FFC0A4A1368013B1360094A1368013BF8
:1025F000136000F031FD2046FFF716FD044B1B6809
:10260000002BDFD110BD00BFA00000205001002032
:102610004C01002008B5FFF7D3FF064B1B68012BC8
:10262000F9D94FF08052044B1A60BFF34F8FBFF3BC
:102630006F8FF0E7BC00002004ED00E01F4B1B682B
:102640001BB101221E4B1A60704700221C4B1A60FE
:102650001C4B1B68B3FA83F3DBB2C3F11F0303EB1C
:1026600083018A0018498A5842B94FF0500383F316
:102670001188BFF36F8FBFF34F8FFEE730B4124D59
:102680009900CA189000284442685468446019446C
:102690008A0008322A44944205D1606803EB830122
:1026A0008A002A44506003EB83039A00064B1A44C5
:1026B0005368DA68054B1A6030BC70474801002047
:1026C000BC010020B8010020BC0000205401002003
:1026D000054B1B6823B1054B1B681BB902207047D3
:1026E00001207047002070479C0000204801002016
:1026F000F0B583B00023AFE001249C40224000F0FD
:10270000AA804D68022D01D0122D10D1DE080836A6
:1027100050F826C003F00705AF000F25BD402CEA96
:10272000050E0D69BD404EEA050540F826500568C6
:102730005F000326BE40F64305EA060E4D6805F02D
:102740000305BD404EEA050505604D6805F1FF3EF5
:10275000BEF1010F03D9112D01D0122D10D18568C2
:1027600006EA050ECD68BD404EEA05058560456860
:1027700025EA04044D68C5F300159D4025434560D6
:10278000C46826408C68BC403443C4604C6814F074
:10279000805F60D0344CA56945F00105A561A4694E
:1027A00004F001040194019C9E08B51C2F4C54F8C0
:1027B000255003F00304A4000F27A74025EA0707CC
:1027C000B0F1904F0CD02A4DA8420BD005F5806592
:1027D000A84209D005F58065A84207D1032506E087
:1027E000002504E0012502E0022500E0052505FAA8
:1027F00004F43C4302361D4D45F826401D4C256827
:10280000D44305EA04064F6817F4803F01D042EA3A
:102810000506184D2E606D6804EA05064F6817F42A
:10282000003F01D042EA0506124D6E60AD6804EA31
:1028300005064F6817F4801F01D042EA05060D4DCA
:10284000AE60ED682C404E6816F4001F01D042EADD
:102850000504084AD46001330A6832FA03F47FF4AD
:102860004BAF03B0F0BD00BF0010024000000140BC
:1028700000040048000401400AB181617047816290
:10288000704700BF436959404161704770B4C56BE0
:10289000066C0124B4406C60046863604368102BCC
:1028A00004D103689A600368D96003E00368996003
:1028B0000368DA6070BC70470268054B1344054A30
:1028C000A2FB03231B099B000364034BC3637047F4
:1028D000F8FFFDBFCDCCCCCC0000024040B310B51A
:1028E0000446022380F821300068036823F47F52F5
:1028F00022F030026168A3681943E3681943236931
:10290000194363691943A3691943E3690B431343EB
:1029100003602046FFF7D0FF0020A062E062206342
:102920006063A063012384F8213084F8200010BD87
:102930000120704738B590F82040012C32D0012496
:1029400080F8204090F82140012C26D10446022036
:1029500084F821000020A0632568286820F0010089
:1029600028602046FFF792FFE36A2BB122681368C4
:1029700043F00E03136009E02268136843F00A0372
:1029800013602268136823F004031360226813683D
:1029900043F001031360002038BD002380F820308D
:1029A000022038BD022038BD38B5C36B1A680468F0
:1029B0002568016C04238B401A4214D015F0040FD3
:1029C00011D0236813F0200F03D1236823F00403F0
:1029D0002360C26B016C04238B405360C36A002BDD
:1029E0003AD0984738BD02238B401A4219D015F0CF
:1029F000020F16D0236813F0200F06D1236823F0AE
:102A00000A032360012380F82130C26B016C02238A
:102A10008B405360002380F82030836AE3B19847ED
:102A200038BD082303FA01F10A4215D015F0080F4A
:102A300012D0236823F00E032360C16B026C0123C4
:102A400003FA02F24A60836380F82130002380F8A1
:102A50002030036B03B1984738BD00BF842801D0F4
:102A6000033070470020704708B5FFF72DFC0020A9
:102A700008BD00BFF0B585B00F464468056806691B
:102A8000B0F90800FFF7EAFF03AB019300903B4663
:102A9000B2B229462046FFF7E5FB012801D1039891
:102AA00000E0002005B0F0BD08B508B90120FFE73F
:102AB000FFF75EFD002008BD08B5FFF709FE0128FD
:102AC00001D000F017FB08BD124A12F0070F07D023
:102AD000D11D21F00701C1F5105313440A4601E04E
:102AE0004FF410530C480260002141601344083B2E
:102AF00023F007030948036059601960991A51606F
:102B00001360074B1960074B19604FF00042064BEA
:102B10001A607047D0010020C8010020C4010020C5
:102B2000D4250020C0010020D0250020134B00E058
:102B300013461A688242FBD310B45C6819198842A4
:102B400003D14168214459601846446801198A42FA
:102B50000CD10B4909688A4206D05268224442606F
:102B60001A681268026002E0016000E002609842A8
:102B700000D018605DF8044B704700BFC80100200A
:102B8000C401002070B50446FFF7DCFB394B1B681D
:102B90000BB9FFF799FF384B1B681C4253D194B116
:102BA000083414F0070F0ED024F00704083404F0A2
:102BB000070343B14FF0500383F31188BFF36F8FC6
:102BC000BFF34F8FFEE7002C3FD02C4B1B689C427D
:102BD0003DD82B4B1D6801E02B4615466A68944290
:102BE00002D92A68002AF7D1224A1268954230D0C9
:102BF0001E6808362A681A606B681B1B102B10D9D8
:102C0000281910F0070F08D04FF0500383F31188F4
:102C1000BFF36F8FBFF34F8FFEE743606C60FFF72A
:102C200085FF6A6815490B689B1A0B60154909688E
:102C30008B4201D213490B600F4B1B681A436A6029
:102C400000232B6006E0002604E0002602E00026B8
:102C500000E00026FFF710FC16F0070F08D04FF039
:102C6000500383F31188BFF36F8FBFF34F8FFEE7DD
:102C7000304670BDC4010020D0250020C0010020D6
:102C8000C8010020D4250020A0B338B50346A0F128
:102C9000080550F8042C1849096812EA010408D103
:102CA0004FF0500383F31188BFF36F8FBFF34F8F43
:102CB000FEE750F8080C40B14FF0500383F3118841
:102CC000BFF36F8FBFF34F8FFEE794B188B91C46F7
:102CD00022EA010243F8042CFFF734FB54F8043CC9
:102CE000064A11680B4413602846FFF71FFFFFF7E1
:102CF000C3FB38BD704700BFD0250020C0010020B5
:102D0000074AD36823F4E0631B041B0C000200F4A1
:102D1000E060184340F0BF6040F40030D06070477E
:102D200000ED00E030B4164BDB68C3F30223C3F1BF
:102D30000704042C28BF04241D1D062D01D9DD1E07
:102D400000E00025012303FA04F4013C2140A940DE
:102D5000AB40013B1A400A43002806DA00F00F009E
:102D60001201D2B2074B1A5407E01201D2B200F19D
:102D7000604000F5614080F8002330BC704700BF20
:102D800000ED00E014ED00E0420900F01F00012317
:102D900003FA00F0014B43F82200704700E100E025
:102DA0000138B0F1807F0AD2064B5860F021064A04
:102DB00082F823100020986007221A6070470120D3
:102DC000704700BF10E000E000ED00E0042805D1EE
:102DD000054A136843F0040313607047024A1368FE
:102DE00023F004031360704710E000E008B5FFF71C
:102DF00063FE08BD08B50248FFF7D6FD08BD00BF59
:102E0000CC26002008B50248FEF788FE08BD00BFAA
:102E1000E825002008B5074A136843F01003136043
:102E20000320FFF76DFF002000F05CF800F028FBA6
:102E3000002008BD00200240024A136801331360DD
:102E4000704700BFE4250020014B1868704700BFA1
:102E5000E425002000F1080343604FF0FF32826058
:102E6000C360036100230360704700BF0023036158
:102E7000704700BF43684B609A688A609A685160E7
:102E800099600861036801330360704730B40D68CE
:102E9000B5F1FF3F01D1026907E000F1080200E04F
:102EA0001A4653681C68A542FAD253684B60996071
:102EB0008A605160086103680133036030BC704769
:102EC00003694268816891608268416851605A680C
:102ED000904201D182685A6000220261186801386C
:102EE0001860704700B589B0002201461820FFF72E
:102EF00019FF1820FFF748FF144B9A6942F48032FB
:102F00009A619B6903F480330193019B02A903A892
:102F100001F0EAFA01F0D0FA0D4BA3FB00239B0C61
:102F2000013B0C480C4A026040F2E732C260436049
:102F3000002303618360FEF7F3FE18B90548FEF72E
:102F4000D9FD00E0012009B05DF804FB001002404B
:102F500083DE1B43E8250020004001400B4B1B682B
:102F6000B3F1FF3F08D04FF0500383F31188BFF354
:102F70006F8FBFF34F8FFEE74FF0500383F311883D
:102F8000BFF36F8FBFF34F8FFEE700BF64000020D9
:102F900006480068006880F3088862B661B6BFF32F
:102FA0004F8FBFF36F8F00DF00BF000008ED00E020
:102FB000DFF80C00016841F4700101607047000007
:102FC00088ED00E04FF0807340F8043C21F00101EF
:102FD00040F8081C054B40F80C3C40F8202C6FF0E2
:102FE000020340F8243C4438704700BF5D2F0008BE
:102FF000074B19680868B0E8F04F80F30988BFF301
:103000006F8F4FF0000080F311887047AFF300809E
:10301000540100204FF0500383F31188BFF36F8FEA
:10302000BFF34F8F0A4A136801331360012B0DD190
:10303000084B1B6813F0FF0F08D04FF0500383F3C9
:103040001188BFF36F8FBFF34F8FFEE7704700BF4C
:103050006400002004ED00E0094B1B6843B94FF009
:10306000500383F31188BFF36F8FBFF34F8FFEE7D9
:10307000013B034A13600BB983F31188704700BF0B
:1030800064000020000000000000000000000000BC
:10309000EFF30980BFF36F8F154B1A681EF0100F06
:1030A00008BF20ED108A20E9F04F10604DF8043D74
:1030B0004FF0500080F31188BFF34F8FBFF36F8F35
:1030C000FFF7BCFA4FF0000080F3118808BC1968C4
:1030D0000868B0E8F04F1EF0100F08BFB0EC108A7F
:1030E00080F30988BFF36F8F704700BFAFF3008094
:1030F0005401002008B54FF0500383F31188BFF34B
:103100006F8FBFF34F8FFFF725F918B14FF0805243
:10311000024B1A60002383F3118808BD04ED00E020
:10312000064B1B68064AA2FB03239B09013B054A89
:1031300013600722044B1A60704700BF680000202C
:10314000D34D621014E000E010E000E0314B1A684B
:10315000314B9A4208D14FF0500383F31188BFF3EB
:103160006F8FBFF34F8FFEE72A4B1A682B4B9A42A3
:1031700008D14FF0500383F31188BFF36F8FBFF373
:103180004F8FFEE700B583B0254B1A78D2B201927B
:10319000FF221A701B78DBB28DF803309DF80330E4
:1031A00003F050031F4A137007221F4B1A6009E0F7
:1031B0001D4A1368013B13609DF803305B00DBB2CE
:1031C0008DF803309DF8033013F0800FF0D1164ACC
:1031D00013681B0203F4E0631360019BDBB2104A27
:1031E0001370124B1A6842F470021A601A6842F0A7
:1031F00070421A60FFF794FF00220D4B1A60FFF730
:10320000D7FE0C4A136843F040431360FFF7C0FE3B
:10321000FFF7A4FE00ED00E071C20F4170C20F4144
:1032200000E400E0D8250020DC25002020ED00E0AF
:103230006400002034EF00E01549D1F8883043F4F1
:103240007003C1F88830134B1A6842F001021A600B
:103250005868114A02405A601A6822F0847222F4B7
:1032600080321A601A6822F480221A605A6822F4A6
:10327000FE025A60DA6A22F00F02DA62186B074A1D
:1032800002401A6300229A604FF000638B6070471F
:1032900000ED00E0001002400CC07FF8CCFC00FF05
:1032A00038B50546064CB0FA80F252090221204694
:1032B000FFF7E2FAEAB201212046FFF7DDFA38BD56
:1032C0000014004810B50446B0FA80F252094FF4D9
:1032D00000614FF09040FFF7CFFAE2B220210248A0
:1032E000FFF7CAFA10BD00BF0004004810B5064C35
:1032F000002202212046FFF7BFFA002201212046CA
:10330000FFF7BAFA10BD00BF0014004808B500224C
:103310004FF400614FF09040FFF7AEFA00222021F9
:103320000148FFF7A9FA08BD0004004808B50120CC
:10333000FFF7C8FF0120FFF7B3FF4FF4FA60FFF774
:10334000B3FBFFF7E3FFFFF7D1FF08BD08B500208F
:10335000FFF7B8FF0020FFF7A3FF4FF4FA60FFF775
:10336000A3FBFFF7D3FFFFF7C1FF08BD08B501209E
:10337000FFF796FF0020FFF7A5FF4FF47A70FFF7E5
:1033800093FBFFF7C3FFFFF7B1FF08BD08B50120AE
:10339000FFF798FF0020FFF783FF4FF47A70FFF7E5
:1033A00083FBFFF7B3FFFFF7A1FF08BD08B54FF69A
:1033B000FF7305220349044801F0E2FE0122034B9A
:1033C0001A6008BD5454000810270020E025002092
:1033D00010B5144642F2107392B2024801F0D0FECA
:1033E000204610BD1027002008B50948FEF774FBE1
:1033F0000122084B1968084801F068FA054B196862
:103400000648FDF73DF84FF4FA60FFF74DFBF5E78E
:103410003826002028260020782600205C5400084A
:1034200008B501224FF480714FF09040FFF724FA65
:10343000124C2046FEF750FB00212046FEF7ACFD63
:103440000C212046FEF7A8FDFFF770FF4FF4FA703D
:10345000FFF72AFBFFF77AFF4FF4FA70FFF724FB20
:10346000FFF794FF4FF4FA70FFF71EFBFFF77EFFA4
:103470004FF4FA70FFF718FBE6E700BF382600208C
:1034800000B583B01C4B9A6942F001029A619B69B6
:1034900003F001030193019B0320FFF731FC00229D
:1034A00011466FF00B00FFF73DFC002211466FF054
:1034B0000A00FFF737FC002211466FF00900FFF702
:1034C00031FC002211466FF00400FFF72BFC0022B4
:1034D00011466FF00300FFF725FC00220F216FF06B
:1034E0000100FFF71FFC00220F214FF0FF30FFF714
:1034F00019FC03B05DF804FB001002400368B3F14F
:10350000A04F36D130B587B0044603F1704303F5C0
:1035100004335A6942F080525A615B6903F0805368
:103520000093009B0123019303230293002503953D
:1035300001A94FF09040FFF7DBF80E480E4B0360F7
:10354000456085608023C3604FF4007303614FF4CE
:103550000063436120238361C561FFF7BFF918B1A0
:103560007C21064800F0EAF8024BE3635C6207B096
:1035700030BD7047CC260020080002406C54000883
:103580000268084B9A420CD182B003F50333DA6922
:1035900042F00202DA61DB6903F002030193019B4E
:1035A00002B070470004004002680A4B9A4210D1F2
:1035B00000B587B0122301930223029300220392E5
:1035C0000492059301A90448FFF792F807B05DF84B
:1035D00004FB704700040040000400480268124BDE
:1035E0009A421FD100B587B003F5E633DA6942F499
:1035F0000032DA61DB6903F400330093009B48F288
:1036000004030193022302930123039303230493EE
:103610000723059301A94FF09040FFF769F807B021
:103620005DF804FB704700BF00440040F0B589B06E
:10363000274B5A6942F480025A615A6902F48002A7
:103640000092009A5A6942F400325A615A6902F4AF
:1036500000320192019A5A6942F480225A615B69F0
:1036600003F480230293029B1A4F00220321384661
:10367000FFF702F900224FF410614FF09040FFF77E
:10368000FBF8154E002228213046FFF7F5F80323FA
:1036900003930125049500240594069403A9384654
:1036A000FFF726F84FF410630393049505940694EE
:1036B00003A94FF09040FFF71BF8282303930495CC
:1036C0000594069403A93046FFF712F809B0F0BD3F
:1036D00000100240001400480004004800B583B008
:1036E0000A4B5A6942F001025A615B6903F0010317
:1036F0000193019B002205210B20FFF713FB0B20F8
:10370000FFF742FB03B05DF804FB00BF001002406E
:1037100008B508210348FFF7B5F84FF47A70FFF7B2
:10372000C3F9F6E70004004808B50268024B9A4264
:1037300001D1FFF781FB08BD00400140FEE700BF5B
:1037400000B58BB02248234B036040F2E73343605F
:103750000023836040F27F22C26003618361FEF731
:10376000FBFA20B14FF494711B48FFF7E7FF0023E9
:103770000793099307A9164800F01AFA20B140F2FE
:103780002F111548FFF7DAFF6023009340F23F1333
:10379000019300220292049269460D4800F06CF9F0
:1037A00020B14FF49C710C48FFF7C8FF0C2269460A
:1037B000074800F061F920B140F23D110648FFF7DB
:1037C000BDFF0348FFF7F0FE0BB05DF804FB00BF40
:1037D00038260020000400408454000800B58BB057
:1037E00021484FF0A04303604FF44033436000236F
:1037F000836003610122C26143624FF4806101630F
:103800004FF48071C162C36002624263042242616C
:103810008361836300F04CFF18B1FF211348FFF769
:103820008DFF0AA9002341F80C3D0F4801F0A0FAD2
:1038300020B140F207110D48FFF780FF01230193EB
:10384000029300230493022203920593069301A995
:10385000054801F0D7F820B14FF48A710348FFF70B
:103860006DFF0BB05DF804FB78260020845400083F
:1038700008B50C480C4B03604FF41643436000231B
:10388000C36003610C2242618361C36103624362CE
:1038900001F014FD20B140F253110448FFF74EFF30
:1038A00008BD00BF102700200044004084540008D9
:1038B00000B591B00223069301220A9210220B92C6
:1038C0000D9300230E934FF460130F9306A800F09E
:1038D0009BF918B1C9211448FFF730FF0F2301935A
:1038E00002210291002303934FF480620492059316
:1038F00001A800F0D1FC18B1D7210B48FFF71EFF3B
:1039000000F0BCFD094BA3FB00308009FFF748FA2B
:103910000420FFF75BFA00220F214FF0FF30FFF782
:1039200001FA11B05DF804FB84540008D34D621015
:1039300070B590B0FFF76EFAFFF7BAFFFFF776FEAB
:10394000FFF7CCFEFFF7FCFEFFF748FFFFF790FF05
:10395000144C0BAD26460FCE0FC533682B600021EB
:103960000BA8FFF787F8104B186006AD04F114069A
:103970000FCE0FC533682B60002106A8FFF77AF839
:103980000A4B186001AD28340FCC0FC523682B609B
:10399000002101A8FFF76EF8054B1860FFF764F8E7
:1039A000FEE700BF945300082C2600203426002098
:1039B0003026002030B4036A23F480330362036AA4
:1039C0004468426D22F4803222F070020D682A436E
:1039D00023F400338D6843EA05430D4DA8420BD014
:1039E00005F5A055A84207D005F58065A84203D08B
:1039F00005F58065A84204D124F480344D6944EA79
:103A00000524446042654A688265036230BC7047A1
:103A1000002C014030B4036A23F480130362026A6D
:103A20004468436D23F0807323F4E0430D6843EA58
:103A3000052322F400128D6842EA05520D4DA8427A
:103A40000BD005F5A055A84207D005F58065A84222
:103A500003D005F58065A84204D124F480244D6983
:103A600044EA8524446043654B68C365026230BC08
:103A7000704700BF002C014038B590F83C30012B56
:103A800000F093800D460446012380F83C30022369
:103A900080F83D30142A00F28180DFE802F00B7FCD
:103AA0007F7F1E7F7F7F327F7F7F457F7F7F597F34
:103AB0007F7F6C000068FEF76BF92268936943F022
:103AC000080393612268936923F0040393612268D9
:103AD00091692B690B43936160E00068FEF79EF9E2
:103AE0002268936943F4006393612268936923F425
:103AF0008063936122689369296943EA0123936192
:103B00004CE00068FEF7C8F92268D36943F0080367
:103B1000D3612268D36923F00403D3612268D16999
:103B20002B690B43D36139E00068FEF7F3F9226893
:103B3000D36943F40063D3612268D36923F48063BB
:103B4000D3612268D369296943EA0123D36125E05F
:103B50000068FFF72FFF2268536D43F00803536599
:103B60002268536D23F0040353652268516D2B695D
:103B70000B43536512E00068FFF74CFF2268536D5A
:103B800043F4006353652268536D23F480635365E7
:103B90002268536D296943EA01235365012384F8A0
:103BA0003D30002084F83C0038BD022038BD00BF05
:103BB00090F83C30012B1DD030B4012380F83C300C
:103BC00003685A689D680D4CA34203D122F4700229
:103BD0004C68224322F070020C68224325F08004D6
:103BE000896821435A6003689960002380F83C305B
:103BF000184601E00220704730BC7047002C01409D
:103C0000704700BF704700BF70B582B004460368BC
:103C100013F0010F00F09D80B64B5B6803F00C03BE
:103C2000042B0AD0B34B5B6803F00C03082B1BD1A9
:103C3000B04B5B6813F4803F16D04FF4003393FA17
:103C4000A3F3AC4B19684FF4003393FAA3F3B3FA20
:103C500083F303F01F03012202FA03F3194278D021
:103C60006368002B75D1B8E26368B3F5803F05D176
:103C7000A04A136843F48033136026E063B903F16C
:103C8000804303F504331A6822F480321A601A68FC
:103C900022F480221A6018E0B3F5A02F0CD103F1B2
:103CA0008043A3F53C331A6842F480221A601A68F4
:103CB00042F480321A6008E08E4B1A6822F4803297
:103CC0001A601A6822F480221A608A49CB6A23F0AB
:103CD0000F02A3681343CB626368EBB1FFF7B4F83C
:103CE000054605E0FFF7B0F8401B642800F2778234
:103CF0004FF4003393FAA3F37E4B19684FF400336B
:103D000093FAA3F3B3FA83F303F01F03012202FA39
:103D100003F31942E6D01CE0FFF796F8054605E0EC
:103D2000FFF792F8401B642800F25B824FF40033E7
:103D300093FAA3F36F4B19684FF4003393FAA3F38C
:103D4000B3FA83F303F01F03012202FA03F31942CB
:103D5000E6D1236813F0020F00F09080654B5B689A
:103D600013F00C0F0AD0634B5B6803F00C03082BB5
:103D700027D1604B5B6813F4803F22D1022393FA72
:103D8000A3F35C4B1968022393FAA3F3B3FA83F30A
:103D900003F01F03012202FA03F3194203D023693F
:103DA000934240F020825348036823F0F80163698E
:103DB000F82292FAA2F2B2FA82F293400B43036025
:103DC0005CE023699BB3012292FAA2F3B3FA83F376
:103DD00003F1845303F584139B001A60FFF734F852
:103DE000054605E0FFF730F8401B022800F2FD8190
:103DF000022393FAA3F33F4B1968022393FAA3F328
:103E0000B3FA83F303F01F03012202FA03F319420A
:103E1000E8D03848036823F0F8016369F82292FA81
:103E2000A2F2B2FA82F293400B43036026E0012330
:103E300093FAA3F3B3FA83F303F1845303F58413E2
:103E40009B0000221A60FEF7FFFF054605E0FEF723
:103E5000FBFF401B022800F2CA81022393FAA3F35E
:103E6000244B1968022393FAA3F3B3FA83F303F004
:103E70001F03012202FA03F31942E8D1236813F069
:103E8000080F55D0A3693BB3012191FAA1F2B2FA10
:103E900082F2194B13449B001960FEF7D5FF0546CB
:103EA00005E0FEF7D1FF401B022800F2A2810223A9
:103EB00093FAA3F293FAA3F293FAA3F20D4A516A8A
:103EC00093FAA3F3B3FA83F303F01F03012202FA78
:103ED00003F31942E5D02BE0012292FAA2F2B2FAE2
:103EE00082F2054B13449B0000221A60FEF7ACFFE0
:103EF000054609E00010024020819010FEF7A4FF63
:103F0000401B022800F27781022393FAA3F293FA6E
:103F1000A3F293FAA3F2BE4A516A93FAA3F3B3FA57
:103F200083F303F01F03012202FA03F31942E5D1E0
:103F3000236813F0040F00F0BA80B54BDB6913F06F
:103F4000805F0BD1B24BDA6942F08052DA61DB69F3
:103F500003F080530193019B012500E00025AD4B48
:103F60001B6813F4807F13D1AA4A136843F480734B
:103F70001360FEF769FF064605E0FEF765FF801B4C
:103F8000642800F23A81A34B1B6813F4807FF4D0BD
:103F9000E368012B05D19E4A136A43F001031362C3
:103FA00022E063B903F1804303F504331A6A22F077
:103FB00001021A621A6A22F004021A6214E0052B46
:103FC00009D1934B1A6A42F004021A621A6A42F04B
:103FD00001021A6208E08E4B1A6A22F001021A628C
:103FE0001A6A22F004021A62E3686BB3FEF72CFF30
:103FF000064607E0FEF728FF801B41F2883398420F
:1040000000F2FD80022393FAA3F293FAA3F3B3FA2A
:1040100083F35B0943F00203DBB2022B02D17C4B3A
:10402000196A04E0022393FAA3F3794B596A022335
:1040300093FAA3F3B3FA83F303F01F03012202FA06
:1040400003F31942D6D02CE0FEF7FEFE064607E049
:10405000FEF7FAFE801B41F28833984200F2D180CD
:10406000022393FAA3F293FAA3F3B3FA83F35B095F
:1040700043F00203DBB2022B02D1654B196A04E064
:10408000022393FAA3F3624B596A022393FAA3F330
:10409000B3FA83F303F01F03012202FA03F3194278
:1040A000D6D125B15A4AD36923F08053D361E3694D
:1040B000002B00F0A880564A526802F00C02082A31
:1040C00000F0A380022B5DD14FF0807393FAA3F32D
:1040D000B3FA83F303F1845303F584139B000022A6
:1040E0001A60FEF7B1FE054605E0FEF7ADFE401B87
:1040F000022800F291804FF0007393FAA3F3444B2F
:1041000019684FF0007393FAA3F3B3FA83F303F043
:104110001F03012202FA03F31942E6D13C48436827
:1041200023F47411636A226A13430B4343604FF014
:10413000807393FAA3F3B3FA83F303F1845303F583
:1041400084139B0001221A60FEF77EFE044604E001
:10415000FEF77AFE001B022860D84FF0007393FA36
:10416000A3F32B4B19684FF0007393FAA3F3B3FA40
:1041700083F303F01F03012202FA03F31942E7D08D
:1041800000204EE04FF0807393FAA3F3B3FA83F369
:1041900003F1845303F584139B0000221A60FEF799
:1041A00053FE044604E0FEF74FFE001B022837D8FA
:1041B0004FF0007393FAA3F3154B19684FF0007397
:1041C00093FAA3F3B3FA83F303F01F03012202FA75
:1041D00003F31942E7D1002023E0012021E003206E
:1041E0001FE003201DE001201BE0032019E0032055
:1041F00017E0032015E0032013E0032011E0032063
:104200000FE003200DE000200BE0012009E000BFDB
:104210000010024000700040032002E0032000E094
:10422000032002B070BD00BF164B5B6803F00C02A8
:10423000082A25D103F470114FF4701292FAA2F2F9
:10424000B2FA82F221FA02F20F498A5C0D49C96A78
:1042500001F00F000F2191FAA1F1B1FA81F120FADA
:1042600001F10A48405C13F4803F05D0084BB3FBD2
:10427000F0F000FB02F07047064800FB02F07047C8
:104280000348704700100240C8540008B8540008A2
:1042900000127A0000093D0070B5744B1B6803F0F2
:1042A00007038B420BD2714A136823F007030B43B9
:1042B0001360136803F00703994240F0C680036857
:1042C00013F0020F06D06A4C636823F0F002836893
:1042D000134363600D460446036813F0010F75D065
:1042E0004268012A13D14FF4003393FAA3F3604BD1
:1042F00018684FF4003393FAA3F3B3FA83F303F08F
:104300001F03012101FA03F3184227D19FE0022A7B
:1043100013D14FF0007393FAA3F3554B18684FF085
:10432000007393FAA3F3B3FA83F303F01F0301219D
:1043300001FA03F3184211D18BE0022393FAA3F39D
:104340004B4B1868022393FAA3F3B3FA83F303F0F9
:104350001F03012101FA03F318427CD044494B6842
:1043600023F0030313434B60FEF76EFD06466368BC
:10437000012B0ED106E0FEF767FD801B41F288336A
:1043800098426AD83A4B5B6803F00C03042BF2D1D5
:104390001CE0022B15D106E0FEF756FD801B41F212
:1043A000883398425BD8324B5B6803F00C03082BD0
:1043B000F2D10BE0FEF748FD801B41F288339842B2
:1043C0004FD82B4B5B6813F00C0FF3D1274B1B68B6
:1043D00003F007039D420AD2244A136823F007031F
:1043E0002B431360136803F007039D423BD12368FE
:1043F00013F0040F06D01E494B6823F4E062E36813
:1044000013434B60236813F0080F07D0184A536812
:1044100023F46053216943EAC1035360FFF704FFAB
:10442000134B5B6803F0F002F02393FAA3F3B3FAA3
:1044300083F322FA03F30F4AD35CD8400E4B186083
:104440000020FEF74FFD002070BD012070BD01204F
:1044500070BD012070BD012070BD032070BD032020
:1044600070BD032070BD012070BD00BF0020024060
:10447000001002403C54000868000020014B1868FE
:10448000704700BF6800002008B5FFF7F7FF084B32
:104490005B6803F4E0624FF4E06393FAA3F3B3FACA
:1044A00083F322FA03F3034AD35CD84008BD00BF6C
:1044B000001002404C54000808B5FFF7DFFF084B1E
:1044C0005B6803F460524FF4605393FAA3F3B3FABA
:1044D00083F322FA03F3034AD35CD84008BD00BF3C
:1044E000001002404C5400080F2303600B4B5A6825
:1044F00002F0030242605A6802F0F00282605A68D9
:1045000002F4E062C2605B68DB0803F4E06303610D
:10451000034B1B6803F007030B6070470010024059
:1045200000200240704700BF704700BF38B50268E6
:10453000936803F00303012B05D1136813F0010FF7
:1045400003D1002302E0002300E00123002B30D040
:10455000936803F00D03012B0BD10446936843F0DD
:1045600002039360036803221A60FEF76DFC0546A0
:1045700018E0436C43F010034364836C43F0010381
:104580008364012038BDFEF75FFC401B022809D977
:10459000636C43F010036364A36C43F00103A364F2
:1045A000012038BD23689B6813F0010FEBD1002078
:1045B00038BD002038BD00BF38B50268936803F0ED
:1045C0000303012B05D1136813F0010F03D100235E
:1045D00002E0002300E0012363BB9168164B1942FF
:1045E00009D0436C43F010034364836C43F0010330
:1045F0008364012038BD0446936843F0010393604F
:10460000FEF722FC05460EE0FEF71EFC401B0228CA
:1046100009D9636C43F010036364A36C43F0010396
:10462000A364012038BD23681B6813F0010FEBD091
:10463000002038BD002038BD3F00008008B5406A2A
:10464000436C43F040034364836C43F0040383648E
:10465000FFF76AFF08BD00BF08B5406AFFF762FFB9
:1046600008BD00BF08B5436A5A6C12F0500F1AD14A
:104670005A6C42F400725A641A68D26812F4406F9D
:104680000DD1DA695AB95A6C22F480725A645A6CA4
:1046900012F4805F03D15A6C42F001025A6418464A
:1046A000FEF784FE08BDDB6B1B6B984708BD00BF9F
:1046B00030B597B000230093002800F0FA8004463C
:1046C000436C13F0100F52D1436C002B37D183642D
:1046D0000365C36480F84030FEF710FF23689B68D1
:1046E00013F0805F2DD12046FFF720FF636C13F09D
:1046F000100F27D130BB636C23F4885323F00203DF
:1047000043F0020363642268936823F0405393608C
:104710002268936843F080539360674B1B68674A35
:10472000A2FB03239B0C03EB83035A00009202E0DD
:10473000009B013B0093009B002BF9D102E000207D
:1047400000E0002023689A6812F0805F03D09B6825
:1047500013F0005F0CD0636C23F0120343F01003DE
:104760006364A36C43F00103A364012000E0002014
:10477000636C13F0100F40F09480002840F091809B
:1047800023689A6812F0040140F08B80626C22F476
:10479000817242F002026264B3F1A04F02D1484A32
:1047A000019202E04FF0A04201929A6802F00302E7
:1047B000012A05D11B6813F0010F03D1002302E089
:1047C000002300E001239BB9019D55B1AA6802F0C6
:1047D0000302012A04D12A6812F0010F00D001233C
:1047E00033B9384DAB6823F4403263681343AB6090
:1047F000E5696B03A26B012A01D04FF4805141EAB5
:104800000302E3681343A2681A43636A012B11D1C0
:1048100035B9A36A013B42EA434343F4803209E0DD
:10482000636C23F0220343F020036364A36C43F022
:104830000103A364E16A012902D0236B0B431A43ED
:104840002368996811F00C0F0BD1D96821F48041CD
:1048500021F00201D960A169636B5B0043EA8133F7
:104860001A432168CD68184B2B401343CB60236952
:10487000012B08D121680B6B23F00F02236A013B47
:1048800013430B6304E02268136B23F00F031363DD
:104890000023A364636C23F0030343F00103636408
:1048A00008E0636C23F0120343F0100363640120FB
:1048B00000E0012017B030BD6800002083DE1B43FC
:1048C000000100500003005007C0F0FFF8B5046875
:1048D000A46814F0040F40F0878090F84030012B5A
:1048E00000F08480012380F84030414B9B6813F036
:1048F0001F0F74D117460E460446FFF75DFE0546AE
:10490000002868D1636C23F4706323F0010343F43F
:1049100080736364364B9B6813F01F0F03D02368CA
:10492000B3F1A04F0FD1636C23F480136364236849
:10493000DB6813F0007F1CD0636C23F4405343F416
:104940008053636415E0626C42F480126264B3F1D8
:10495000A04F02D0274A93420BD14FF0A043DB680F
:1049600013F0007F05D0636C23F4405343F480536D
:104970006364636C13F4805F04D0A36C23F00603BC
:10498000A36401E00023A364002384F84030E36BB8
:10499000194A9A62E36B194ADA62E36B184A1A639E
:1049A00023681C221A602268536843F01003536086
:1049B0002268D36843F00103D36021683B46324646
:1049C0004031E06BFDF7B6FF2268936843F00403C3
:1049D00093602846F8BD002384F84030F8BD0023DA
:1049E00080F840300120F8BD0220F8BD0220F8BD5B
:1049F00000030050000100506546000859460008B9
:104A00003D46000870B497B00023009390F8403002
:104A1000012B00F09E81012380F8403002689368EA
:104A200013F0040F40F083814B68042B0CD8156BF6
:104A300003EB43035E001F23B34025EA03040B6826
:104A4000B340234313632CE0092B0DD8566B03EBC3
:104A500043035C001E3C1F23A34026EA03050B68AA
:104A6000A3402B4353631CE00E2B0DD8966B03EB36
:104A700043035C003C3C1F23A34026EA03050B686C
:104A8000A3402B4393630CE0D66B03EB43035C0022
:104A90005A3C1F23A34026EA03050B68A3402B437F
:104AA000D3630268936813F00C0F40F088800B68A2
:104AB000092B0DD9946903EB43031E3B07259D4049
:104AC00024EA05058C6804FA03F32B4393610BE099
:104AD000546903EB430307259D4024EA05058C68D0
:104AE00004FA03F32B4353614A690468E368C3F390
:104AF000C1035B0002FA03F30A69013A032A2FD8C3
:104B0000DFE802F0020D1823226E944D15400A686A
:104B100043EA82632B4343F0004323664FE0626E17
:104B20008E4D15400A6843EA82632B4343F00043ED
:104B3000636644E0A26E894D15400A6843EA8263C9
:104B40002B4343F00043A36639E0E56E834A2A40D5
:104B50000D6843EA8563134343F00043E3662EE0A8
:104B6000236E03F0F8430A68B3EB826F03D1236E20
:104B700023F0004323660268536E03F0F8430C6889
:104B8000B3EB846F03D1536E23F000435366026886
:104B9000936E03F0F8430C68B3EB846F03D1936E0C
:104BA00023F0004393660268D36E03F0F8430C6869
:104BB000B3EB846F03D1D36E23F00043D366026856
:104BC000936803F00303012B05D1136813F0010F61
:104BD00003D1002502E0002500E00125002D40F072
:104BE000AC80CB68012B09D0D2F8B0400E6801230D
:104BF000B34024EA0303C2F8B03028E0D2F8B06032
:104C00000B68012404FA03F33343C2F8B0300B6895
:104C1000092B0ED90668B26903EB43031B3B07243B
:104C20009C4022EA04048A6802FA03F32343B36136
:104C30000DE006687269013303EB430307249C40CF
:104C400022EA04048A6802FA03F3234373610B68BF
:104C5000102B04D1424A926812F4000F0DD0112B90
:104C600004D13F4A926812F0807F06D0122B66D1A1
:104C70003B4A926812F4800F63D10168B1F1A04FF2
:104C800002D1384A019202E04FF0A04201928A68B4
:104C900002F00302012A04D10A6812F0010F00D0C9
:104CA0000125002D3DD1019C5CB1A26802F00302F8
:104CB000012A04D1226812F0010F00D00125002D35
:104CC0002FD1102B18D1B1F1A04F15D1244A9368E0
:104CD00043F400039360244B1B68244AB3FBF2F2B5
:104CE0000A2303FB02F3009302E0009B013B0093C5
:104CF000009B002BF9D127E0112B09D1B1F1A04F76
:104D000006D1174A936843F08073936000231BE039
:104D1000122B18D1124A936843F480039360002346
:104D200012E0436C43F02003436401230CE0436C26
:104D300043F020034364012306E0002304E0002342
:104D400002E0002300E00023002280F84020184603
:104D500000E0022017B070BC704700BF00F0FF8376
:104D600000030050000100506800002040420F0086
:104D700090F84030012B00F08A8070B497B0012386
:104D800080F840300368B3F1A04F02D1424A01924B
:104D900002E04FF0A04201929B6813F0040F64D12F
:104DA000019B9A6812F0040F5FD10A68002A33D081
:104DB0003A4DAA6822F460444A68466B42EA463299
:104DC0002243AA600468A26802F00302012A05D106
:104DD000226812F0010F03D1002202E0002200E05D
:104DE0000122002A47D19C6804F00304012C04D15D
:104DF0001B6813F0010F00D00122002A3DD1274D7E
:104E0000AB6823F4716424F00F040B688A681343C1
:104E10002343AB60002335E020498A6822F46042D6
:104E20008A6001688A6802F00302012A05D10A68D3
:104E300012F0010F03D1002202E0002200E0012263
:104E4000EAB9996801F00301012904D11B6813F044
:104E5000010F00D00122A2B9104A936823F47163B4
:104E600023F00F03936000230CE0436C43F0200316
:104E70004364012306E0002304E0002302E0002352
:104E800000E00023002280F84020184601E00220C4
:104E9000704717B070BC704700010050000300500D
:104EA00038B50446826803691A4343691A43C369E3
:104EB0001A4301680868634B034013430B60216881
:104EC0004B6823F44052E36813434B60A269236AA2
:104ED0001A4321688B6823F4306313438B60256881
:104EE000594B9D4212D103F558431B6B03F003034A
:104EF000032B09D8DFE803F002040613002313E0B4
:104F0000042311E008230FE010230DE04F4B9D42D6
:104F100007D003F580639D4205D1002304E00223FE
:104F200002E0002300E01023E269B2F5004F47D110
:104F3000082B3BD8DFE803F005101B3A263A3A3A33
:104F40003100FFF7A1FA63685A0802EB4000B0FB9A
:104F5000F3F39BB200202BE0FFF7AEFA63685A0828
:104F600002EB4000B0FBF3F39BB2002020E061684D
:104F70004A0802F5740303F51053B3FBF1F39BB237
:104F8000002015E0FFF750F963685A0802EB400073
:104F9000B0FBF3F39BB200200AE06268530803F50C
:104FA0008033B3FBF2F39BB2002001E00120002329
:104FB00023F00F02C3F3420313432268D36038BDCA
:104FC000082B3DD8DFE803F005101B3C273C3C3C98
:104FD0003200FFF759FA636800EB5300B0FBF3F0BF
:104FE00080B2E860002038BDFFF766FA636800EB26
:104FF0005300B0FBF3F080B2E860002038BD616878
:105000004A0802F5F40303F59053B3FBF1F39BB2A6
:10501000EB60002038BDFFF707F9636800EB530031
:10502000B0FBF3F080B2E860002038BD626853083E
:1050300003F50043B3FBF2F39BB2EB60002038BDF5
:10504000012038BDF369FFEF003801400044004003
:10505000436A13F0010F06D001684B6823F4003255
:10506000836A13434B60436A13F0020F06D0016852
:105070004B6823F48032C36A13434B60436A13F0D6
:10508000040F06D001684B6823F48022036B13439E
:105090004B60436A13F0080F06D001684B6823F495
:1050A0000042436B13434B60436A13F0100F06D06A
:1050B00001688B6823F48052836B13438B60436ACF
:1050C00013F0200F06D001688B6823F40052C36BE5
:1050D00013438B60436A13F0400F11D001684B6893
:1050E00023F48012036C13434B60036CB3F5801FF1
:1050F00006D101684B6823F4C002436C13434B6034
:10510000436A13F0800F06D001684B6823F4002235
:10511000836C13434B6070472DE9F04105460F4601
:1051200016469846069C1EE0B4F1FF3F1BD02CB1FA
:10513000FDF78AFEC8EB0000844214D22A68136887
:1051400023F4D07313602A68936823F001039360FB
:10515000202385F8693085F86A30002385F86830A7
:105160000320BDE8F0812B68DB6937EA03030CBF3D
:1051700001230023B342D7D00020BDE8F08100BF57
:105180002DE9F04182B01E4690F86930DBB2202B49
:105190004FD104460D46904600294CD0002A4CD0F1
:1051A00090F86830012B4AD0012380F86830002342
:1051B000C366212380F86930FDF746FE0746A4F850
:1051C0005080A4F852801FE0B4F852309BB2013BEB
:1051D0009BB2A4F8523000963B4600228021204624
:1051E000FFF79AFF68BBA368B3F5805F08D1236916
:1051F00033B9226835F8023BC3F30803138503E093
:1052000023682A781A850135B4F852309BB2002BF6
:10521000DAD100963B46002240212046FFF77CFF72
:10522000034680B9202284F86920002284F868208F
:105230000AE0022308E0012306E0012304E0022340
:1052400002E0032300E00323184602B0BDE8F0812A
:1052500030B583B004460023C366FDF7F5FD05466F
:1052600023681B6813F0080F0AD06FF07E43009389
:10527000034600224FF400112046FFF74DFFC0B94E
:1052800023681B6813F0040F0AD06FF07E4300936D
:105290002B4600224FF480012046FFF73DFF50B916
:1052A000202384F8693084F86A30002084F868008C
:1052B00002E0032000E0032003B030BD80B310B54E
:1052C000044690F8693013F0FF0F04D1002380F8F2
:1052D0006830FEF783F9242384F869302268136864
:1052E00023F0010313602046FFF7DAFD012819D0EF
:1052F000636A13B12046FFF7ABFE2268536823F4BC
:10530000904353602268936823F02A0393602268D5
:10531000136843F0010313602046FFF799FF10BDA7
:105320000120704710BD00BFDFF834D0002103E03A
:105330000C4B5B58435004310B480C4B42189A42BB
:10534000F6D30B4A02E0002342F8043B094B9A4291
:10535000F9D3FDF771FFFAF76DFFFEF7E9FAFEE703
:105360000030002020550008000000206C000020C4
:105370006C00002084270020FEE70000F8B500BF85
:10538000F8BC08BC9E467047F8B500BFF8BC08BC26
:045390009E4670477E
:10539400AC540008113700080000000000000000B1
:1053A40080000000A054000821340008FDFF000024
:1053B400000000000001000090540008E9330008D8
:1053C400FDFF0000000000000001000004000020B8
:1053D40000000000000000000000000000000000C9
:1053E40000000000000000000000000000000000B9
:1053F40000000000000000000000000000000000A9
:105404000000000000000000000000000000000098
:105414000000000000000000000000000000000088
:105424000000000000000000000000000000000078
:1054340049444C450000000000000000000000004A
:105444000102030406070809000000000102030426
:1054540048656C6C6F00000056616C7565203A20DD
:10546400256C750A0D0000005372632F73746D333D
:1054740032663378785F68616C5F6D73702E630099
:105484005372632F6D61696E2E6300006164635F04
:10549400646D615F7461736B000000006D6F746F05
:1054A400725F7461736B000064656661756C74543B
:1054B40061736B000102030405060708090A0B0C5B
:1054C4000D0E0F1002030405060708090A0B0C0D44
:1054D4000E0F101043000000232D302B200000007D
:1054E400686C4C00656667454647000030313233CE
:1054F40034353637383941424344454600000000CC
:105504003031323334353637383961626364656635
:045514000000000093
:04551800FD01000889
:04551C00D5010008AD
:10552000040000200000000014540008F453000898
:10553000D45300080000000000000000000000003C
:1055400000000000D8540008000000000000000027
:10555000000000000000000000000000000000004B
:10556000000000000000000000000000000000003B
:10557000000000000000000000000000000000002B
:0C55800000000000AAAAAAAA00127A00EB
:040000050800532973
:00000001FF
